:020000040800F2
:10000000600A00209D010008F70C0008EF0C0008B2
:10001000F30C0008890B0008231B000800000000F7
:10002000000000000000000000000000ED100008CB
:10003000FD0B000800000000810F000805120008F9
:10004000B7010008B7010008B7010008B7010008B0
:10005000B7010008B7010008FF0B0008B70100084E
:10006000B7010008B7010008B7010008B701000890
:10007000B7010008B7010008B7010008B701000880
:10008000B7010008B7010008B7010008B701000870
:10009000B7010008B7010008B7010008B701000860
:1000A000B7010008B7010008B7010008B701000850
:1000B000D9120008B701000859140008B701000858
:1000C000B7010008B7010008B7010008B701000830
:1000D000B70100087117000895170008B518000847
:1000E000B7010008B7010008B7010008B701000810
:1000F000B7010008B7010008B7010008B701000800
:10010000B7010008B7010008B7010008B7010008EF
:10011000AD160008D9160008B7010008B70100089D
:10012000B7010008B7010008B7010008B7010008CF
:10013000B7010008B7010008B7010008B7010008BF
:10014000B7010008B7010008B7010008B7010008AF
:10015000B7010008B7010008B7010008B70100089F
:10016000B7010008B7010008B7010008B70100088F
:10017000B7010008B7010008B7010008B70100087F
:10018000B7010008B7010008DFF80CD000F068FBE9
:1001900000480047593C0008600A00200648804794
:1001A00006480047FEE7FEE7FEE7FEE7FEE7FEE75C
:1001B000FEE7FEE7FEE7FEE70912000889010008F6
:1001C0000649074A0868504343F239021044086060
:1001D000400870470149086070470000580000203F
:1001E0006D4EC64140EA01039B0703D009E008C9F0
:1001F000121F08C0042AFAD203E011F8013B00F8EC
:10020000013B521EF9D27047D2B201E000F8012B37
:10021000491EFBD270470022F6E710B513460A4686
:1002200004461946FFF7F0FF204610BD2DE9FE4FAA
:10023000804681EA0300C00F0C46009021F0004187
:1002400023F00045B8EB0200A94105D24046214603
:1002500090461C460B46024623F00040104347D010
:10026000270DC7F30A00C3F30A510290401A019008
:1002700040286BDAC3F3130040F4801B00989246C9
:1002800020B10023D2EB030A63EB0B0B0198594614
:10029000C0F14002504600F007FA06460D465046AF
:1002A0005946019A00F01FFA10EB08006141002442
:1002B00087EA115284EAE7731A4340D0009A62B386
:1002C000019A012A4FEA075215DC001B61EB02017B
:1002D0004FF0004202EA0752CDE90042001C41F50E
:1002E000801132462B4600F056FA03B0BDE8F08F7D
:1002F00040462146F9E7001B61EB0201001C41F575
:10030000801300185B412018A2F5001747EB03018A
:1003100040EAD570B6196D4111E06D084FEA360616
:1003200045EAC0754FEA0752001B61EB0201001C51
:1003300041F5801149084FEA300000195141324619
:100340002B4603B0BDE8F04F00F016BA009801222A
:1003500040000023D0EB020263EBE07300982146DB
:100360004FEAE074B8EB000061EB0401E9E783F0C9
:1003700000435BE781F0004158E72DE9FE4F81EA39
:10038000030404F0004421F0004100944FF0000BFE
:1003900023F0004350EA01045ED052EA03045BD02C
:1003A000C3F30A54C1F30A552C44A4F2F334019464
:1003B000A0FB0254C1F3130141F48011C3F31303F2
:1003C00043F4801301FB024400FB034E840A970AA6
:1003D00044EA815447EA8357A4FB076802958D0AD3
:1003E00005FB07854FEA932C04FB0C542705029D5F
:1003F0004FEA065847EA1637B5EB08056EEB070CCF
:10040000870E920E47EA811742EA8312A7FB020188
:10041000B6EB0B0164EB00042B0D43EA0C335E18C2
:1004200044EB1C50DA465146E7FB0201C5F31304C6
:100430004FEA0B3343EA14534FEA0432019C43EA78
:100440000603A4F10C040294009CCDE900B400F072
:10045000A2F903B0BDE8F08F00200146F9E72DE9CD
:10046000F04D81EA030404F0004B21F000451446EE
:100470004FF0000A23F0004150EA050220D054EA70
:1004800001021DD0C5F30A570246C5F31303C1F399
:100490001300C1F30A5640F4801543F48013A7EB10
:1004A0000608101BD64608F2FD3873EB050002D390
:1004B00008F1010801E092185B41B8F1000F03DA7E
:1004C00000200146BDE8F08D00204FF48011064663
:1004D00084460EE0171B73EB050705D3121B63EB75
:1004E000050306434CEA010C49084FEA3000921814
:1004F0005B4150EA0107EDD152EA030012D082EAD3
:10050000040083EA0501084305D0101BAB4106D265
:100510000122002306E000224FF0004302E06FF0CA
:10052000010253101AEB06004CEB085110EB0A00C5
:1005300041EB0B01BDE8F04D00F01EB90EB5C10F47
:1005400080EAE0700844CA07002140F233438DE896
:100550000E000A460B4600F01EF903B000BD0EB5B2
:1005600040F2334102910021CDE900110A460B46C9
:1005700000F011F903B000BD70B5C1F30A5201F0EB
:1005800000450024C1F3130140F2FF3341F4801110
:100590009A4201DA002070BD40F233439A42A2F23F
:1005A000334203DC524200F08EF800E090402C43CE
:1005B000F1D0404270BDC1F30A5210B5C1F313012E
:1005C00040F2FF3341F480119A4201DA002010BD5D
:1005D00040F233439A42A2F2334203DC524200F02B
:1005E00072F810BD904010BD00F0004230F00040A5
:1005F0000AD0C10D01F56071C0F3160042EA015145
:10060000C2084007114370470020014670470000B0
:1006100030B5041E71F1000404DB4FF00044404289
:1006200064EB0101141E73F1000405DB1C464FF05E
:100630000043524263EB04038B4208BF824230BD49
:1006400030B5041E71F1000404DB4FF00044404259
:1006500064EB0101141E73F1000405DB1C464FF02E
:100660000043524263EB0403994208BF904230BDFD
:1006700001F0004330B421F0004150EA010206D0FD
:100680000A0DA2F56072C1F31301002A02DC30BC2E
:1006900000207047440F44EAC104C100E01830BC98
:1006A00000EBC25000F031B8202A04DB203A00FAF7
:1006B00002F1002070479140C2F1200320FA03F3B9
:1006C000194390407047202A04DB203A21FA02F0B7
:1006D0000021704721FA02F3D040C2F1200291407C
:1006E000084319467047202A06DBCB17203A41FA07
:1006F00002F043EAE07306E041FA02F3D040C2F1AF
:10070000200291400843194670470029A8BF70474E
:10071000401C490008BF20F00100704710B4B0FA37
:1007200080FC00FA0CF050EA010404BF10BC7047D2
:1007300049B1CCF1200421FA04F411FA0CF118BFEC
:10074000012121430843A3EB0C01CB1D4FEA0061BB
:100750004FEA102042BF002010BC704700EBC3508E
:1007600010440029A4BF10BC7047401C490008BFBA
:1007700020F0010010BC704710B5141E73F1000486
:1007800008DA401C41F1000192185B411A4301D183
:1007900020F0010010BD2DE9F04D92469B4611B1AD
:1007A000B1FA81F202E0B0FA80F220329046FFF70F
:1007B0007BFF04460F4640EA0A0041EA0B0153461C
:1007C0005A46084313D0114653EA010019D0C8F124
:1007D00040025046FFF777FF05460E465046594601
:1007E0004246FFF761FF084305D0012004E02046A0
:1007F0003946BDE8F08D0020054346EAE0762C43FB
:1008000037430A986305E40AA0EB08000022FD0ABA
:1008100044EA47540A3002D500200146E9E70105C1
:1008200010196941DDE9084500196941BDE8F04D3D
:10083000A2E770B521F0004303430CD0C1F30A5581
:100840000024D5EB040564EB0403D617AD1AB341BD
:1008500002DB0020014670BD201841EB025170BD43
:10086000064C074D06E0E06840F0010394E80700FD
:1008700098471034AC42F6D3FFF78AFC4849000889
:10088000684900082DE9F04D00231A461B1A8A41D9
:1008900003DB00200146BDE8F08DC1F30A52C1F32D
:1008A000130141F480154FF0000BD10702D100185D
:1008B0006D41521E0027044640F2FF11384601EBFD
:1008C000620A3E468046024600204FF48011FFF740
:1008D000FAFEC2197141BB1846EB0100B4EB030CE0
:1008E00075EB000C04D3E41A65EB000517460E46C1
:1008F000241908F101006D4180463428E3DDF9191F
:1009000046EB0600091BA84103D24FF0FF32134605
:1009100001E0002213461BEB070046EB0A51BDE83D
:10092000F04DFFF729BF21B1826842F001028260D9
:1009300003E0826822F00102826070470021084AC9
:100940001168084A1140D0E900231A4383681A430A
:10095000C3681A431143044AC2F8041370470000E5
:1009600004230140E030FCFF0020014021B18268F7
:1009700042F48072826003E0826822F480728260B6
:10098000704721B1826842F40072826003E082689D
:1009900022F400728260704730B5024600200023C6
:1009A0005068104C20400D790C6844EA052420431F
:1009B000506090680C4C2040D1E903542C438D6862
:1009C0002C434D7944EA450420439060D06A20F4DA
:1009D00070000C7D641EE4B2234340EA0350D062F1
:1009E00030BD0000FFFEFFFCFDF7FFC0F0B5044680
:1009F0000D4600200021092D11DDE068A5F10A0651
:100A000006EB4607072606FA07F18843A5F10A0612
:100A100006EB460603FA06F10843E0600CE02069A5
:100A200005EB4507072606FA07F1884305EB45065F
:100A300003FA06F108432061072A0FDA606B561E9D
:100A400006EB86071F2606FA07F18843561E06EBBB
:100A5000860605FA06F10843606322E00D2A0FDAE4
:100A6000206BD61F06EB86071F2606FA07F1884380
:100A7000D61F06EB860605FA06F10843206310E050
:100A8000E06AA2F10D0606EB86071F2606FA07F1BB
:100A90008843A2F10D0606EB860605FA06F1084327
:100AA000E062F0BD816841F08041816070470000E4
:100AB00000B58DB00121084600F064FAF0200B90DB
:100AC00003208DF8300000208DF833000BA92C484E
:100AD00000F0A0F80121080200F074FA01210802D8
:100AE00000F080FA00214FF4807000F07BFA0020C3
:100AF00007904FF470600A90002009904FF4803006
:100B0000089007A8FFF71AFF0020019001208DF838
:100B100008008DF80900002003900490059004203F
:100B20008DF8180001A91748FFF736FF03230122AB
:100B300004211448FFF75AFF03230222052111481C
:100B4000FFF754FF03231A4606210E48FFF74EFF16
:100B50000323042207210B48FFF748FF012109481E
:100B6000FFF70FFF01210748FFF700FF01210548AC
:100B7000FFF7D9FE0348FFF795FF0DB000BD000059
:100B8000000002400020014000BFFEE7704721B195
:100B9000026842F00102026003E0026822F00102F2
:100BA0000260704710B500220268134B1A40CC68EF
:100BB0000B6823434C6923438C692343CC6923434B
:100BC0000C6A23434C6A23438C6A23434C6B2343B4
:100BD0008C6B23431A430260426922F00702D1E979
:100BE0000B3423431A4342610B6943604B688360B3
:100BF0008B68C36010BD00003F801CF0704710B5CB
:100C0000012000F001F810BD0149086070470000A4
:100C1000143C0140F0B50A4600210023002400BF27
:100C20003DE0012505FA01F3156805EA03049C423D
:100C300034D105684F000326BE40B54305601579E1
:100C40004E00B5400668354305601579012D02D088
:100C50001579022D16D185684F000326BE40B54395
:100C6000856055794E00B540866835438560456896
:100C700001268E40B5434560456896798E40B6B2F0
:100C800035434560C5684F000326BE40B543C56087
:100C9000D5794E00B540C6683543C560491C10295A
:100CA000BFD3F0BDF0B5002300244D07ED0E02FACE
:100CB00005F3CE1000F1200555F826504E07F70E2B
:100CC0000F26BE40B543CF1000F1200646F827504E
:100CD000CE1000F1200555F8265045EA0304CE1049
:100CE00000F1200545F82640F0BD0183704700BFA4
:100CF000FEE700BFFEE7704770B5002100230F221A
:100D0000C4781CB3174C246804F4E064C4F5E064B0
:100D1000C4F30721C1F10404E3B20A4144789C40C2
:100D2000E1B28478144021430C07210E0E4C057863
:100D30006155047804F01F050124AC4005786D115D
:100D4000AD0005F1E025C5F8004109E0047804F0A4
:100D50001F050124AC40054D0678761145F8264064
:100D600070BD00000CED00E000E400E080E100E078
:100D70002DE9F0472DED0E8B0446B0EE408AF0EEE3
:100D8000608AB0EE419AF0EE619A0D4616461F4613
:100D9000764895FBF0F94846FFF7D0FBC4E9080117
:100DA000724896FBF0F94846FFF7C8FBC4E90A0110
:100DB0006E4897FBF0F94846FFF7C0FBC4E90C0109
:100DC00053EC192B51EC180BFFF7D1FAC4E90201CF
:100DD00094ED0E2BB0EE420AF0EE620A94ED022B77
:100DE000B0EE421AF0EE621A53EC102B51EC110BDC
:100DF000FFF7BDFAC4E9040194ED0E1BB0EE410A01
:100E0000F0EE610A53EC102B9FED591B51EC110BC6
:100E1000FFF7B3FA41EC1B0B94ED021BB0EE410A55
:100E2000F0EE610A53EC102BFFF7A4FA41EC1A0B19
:100E300094ED101BB0EE410AF0EE610A53EC102B5A
:100E4000FFF7F4F9C4E9060194ED062BB0EE420A6F
:100E5000F0EE620A94ED0C2BB0EE421AF0EE621A3C
:100E600053EC102B51EC110BFFF787FA41EC1B0BE5
:100E700094ED042BB0EE420AF0EE620A94ED0A2BD8
:100E8000B0EE421AF0EE621A53EC102B51EC110B3B
:100E9000FFF773FA41EC1D0B94ED022BB0EE420A02
:100EA000F0EE620A94ED082BB0EE421AF0EE621AF0
:100EB00053EC102B51EC110BFFF75FFA41EC1E0BBA
:100EC00053EC1D2BFFF7B2F941EC1C0B53EC1B2B21
:100ED000FFF7ACF941EC1A0B94ED001BB0EE410AA0
:100EE000F0EE610A53EC102BFFF7A0F9C4E9000102
:100EF0009FED210B53EC102B51EC180BFFF788FBE7
:100F00000ED094ED001BB0EE410AF0EE610A9FEDA9
:100F10001A1B53EC112B51EC100BFFF779FB0BD87C
:100F20009FED150B84ED000B9FED130B84ED0E0B65
:100F30009FED110B84ED100B94ED0E0B84ED100B57
:100F400094ED020B84ED0E0B94ED001BB0EE410A04
:100F5000F0EE610A51EC100BFFF72DFB1FFA80F841
:100F60004046BDEC0E8BBDE8F087000040420F000C
:100F70000000000000000040000000000000000031
:100F80007047000029B1064A12680243044B1A60F8
:100F900004E0034A12688243014B1A607047000064
:100FA0003038024029B1064A12680243044B1A60E5
:100FB00004E0034A12688243014B1A607047000044
:100FC0004038024029B1064A12680243044B1A60B5
:100FD00004E0034A12688243014B1A607047000024
:100FE0004438024029B1064A12680243044B1A6091
:100FF00004E0034A12688243014B1A607047000004
:1010000024380240F0B500210022002402250026E9
:101010000223324F3F6807F00C0121B1042905D0AB
:10102000082937D105E02E4F076036E02D4F0760C5
:1010300033E02A4F3F1F3F68C7F38056274F3F1FBB
:101040003F6807F03F036EB1264FB7FBF3F7DFF8B9
:101050008CC0ACF1040CDCF800C0CCF3881C07FB9E
:101060000CF40CE01E4FB7FBF3F7DFF870C0ACF1E7
:10107000040CDCF800C0CCF3881C07FB0CF4174F01
:101080003F1F3F68C7F301477F1C7D00B4FBF5F7A6
:10109000076002E0124F076000BF00BF0F4F3F68BC
:1010A00007F0F0010909104F7A5C0768D7404760E4
:1010B0000A4F3F6807F4E051890A0B4F7A5C476892
:1010C000D7408760054F3F6807F46041490B064FE2
:1010D0007A5C4768D740C760F0BD0000083802401E
:1010E0000024F40000127A00000000207047000085
:1010F0000CB50020019000903448006840F4803026
:101100003249086000BF3148006800F400300090A8
:101110000198401C0190009818B90198B0F5A04FB3
:10112000F1D12A48006800F4003010B1012000908D
:1011300001E0002000900098012846D1234840306B
:10114000006840F080502149403108602048006824
:1011500040F440401E4908601C48083000681B49A4
:10116000083108600846006840F4004008600846FE
:10117000006840F4A05008601648091F0860081F66
:10118000006840F08070091F086000BF0F480068C9
:1011900000F000700028F9D040F205700E49086098
:1011A0000A480830006820F0030008490831086048
:1011B0000846006840F00200086000BF034808309D
:1011C000006800F00C000828F8D10CBD003802407F
:1011D0000070004008544007003C0240042808D139
:1011E0004FF0E021096941F004014FF0E022116164
:1011F00007E04FF0E021096921F004014FF0E022FF
:10120000116170477047000010B51548006840F440
:101210007000134908601348006840F0010011494C
:10122000086000200F49083108600E4800680E4928
:1012300008400C4908600D48091D0860081F006837
:1012400020F48020091F0860002006490C31086046
:10125000FFF74EFF4FF0006001498039086010BD74
:1012600088ED00E000380240FFFFF6FE1030002459
:101270001FB501210846FFF795FE5320ADF8040085
:101280000020ADF8060040F2E73002900020ADF8F3
:101290000C008DF80E0001A94FF0804000F0C4F959
:1012A0000121880700F0EAF801221146900700F0BA
:1012B00005F91C208DF8000000208DF801000120A8
:1012C0008DF802008DF803006846FFF715FD012137
:1012D000880700F0D6F81FBD10B50121880700F07F
:1012E000DCF868B107480068401C06490860012026
:1012F0000549087002F0A0FF0121880700F0BEF840
:1013000010BD0000200000201800002070B58AB039
:1013100004460D4601210220FFF744FE0121022070
:10132000FFF730FE3020009002208DF804000020EE
:101330008DF8060003208DF8050001208DF80700C8
:1013400069462848FFF766FC022204212548FFF77A
:10135000A9FC022205212348FFF7A4FC0894ADF85C
:101360001C500020ADF82400ADF81E0007A91E484F
:1013700000F05AF96020ADF808000120ADF80A002D
:1013800000200490ADF8140002A9174800F0A0F85E
:101390000821154800F0DAF86020ADF808000120B7
:1013A000ADF80A0000200490ADF8140002A90E4820
:1013B00000F0D6F808210C4800F024F901210A4871
:1013C00000F05FF8264604EBD6704110064800F0A6
:1013D00026F904EBD6704110034800F022F90AB058
:1013E00070BD000000040240000400401FB5012150
:1013F0000420FFF7D7FDA720ADF804000020ADF8CA
:101400000600042002900020ADF80C008DF80E00BC
:1014100001A9104800F008F901210E4800F02EF84B
:10142000012211460B4800F049F81E208DF80000FB
:1014300007208DF8010000208DF8020001208DF8B2
:1014400003006846FFF758FC0121024800F019F834
:101450001FBD00000008004010B50121064800F043
:101460001CF838B102F0FAFD02F014FE0121024826
:1014700000F004F810BD000000080040CA430282DA
:10148000704721B1028842F00102028004E0028824
:101490004FF6FE731A400280704730B502460020B6
:1014A00000230024158A05EA0103958905EA010451
:1014B00013B10CB1012000E0002030BD1AB18389C6
:1014C0000B43838102E083898B4383817047000053
:1014D00070B5002400220023058C4FF6FE763540BF
:1014E0000584028C8388048B4FF68F752C40B51EC3
:1014F0002C400D882C43751E2A408D892A434D8827
:101500002A43104DA84202D00F4DA84213D14FF6E6
:10151000F7752A40CD892A434FF6FB752A408D88FE
:101520002A434FF6FF652B404FF6FF552B400D8A9F
:101530002B434D8A2B43838004838D68456302844B
:1015400070BD000000000140000401400A46002177
:10155000018B4FF6F7731940114301837047000068
:1015600070B5002400220023058C4FF6EF7635403D
:101570000584028C8388048B48F6FF752C404FF657
:10158000FF452C400D884FF6FF7606EA05252C43D3
:101590004FF6DF752A408D8906EA05152A434D88E6
:1015A00006EA05152A43154DA84202D0144DA8425B
:1015B0001DD14FF67F752A40CD894FF6FF7606EA9A
:1015C00005152A434FF6BF752A408D8806EA051592
:1015D0002A434FF6FF352B404FF2FF752B400D8A03
:1015E00006EA85052B434D8A06EA85052B43838051
:1015F00004838D688563028470BD00000000014093
:10160000000401400A460021018B4FF2FF7319408C
:101610004FF6FF7303EA02231943018370474163C6
:10162000704781637047000000220288184B98427F
:101630000ED0184B98420BD0B0F1804F08D0164B0B
:10164000984205D0154B984202D0154B984204D1D0
:101650004FF68F731A404B881A43124B984207D0AB
:10166000114B984204D04FF6FF431A400B891A439E
:1016700002804B68C3620B880385054B984202D0F9
:10168000044B984201D18B7A0386012383827047F1
:101690000000014000040140000400400008004038
:1016A000000C0040001000400014004010B540F253
:1016B0002551084800F072F958B140F2255105480B
:1016C00000F044F9034800F023FAC4B2204602F0C7
:1016D000CDFB10BD004C004010B540F22551204814
:1016E00000F05CF900283AD040F225511C4800F087
:1016F0002DF91B4800F00CFAC1B21A4802780078A4
:10170000401C184B1870184881540078162803D1D3
:10171000184600785A2803DD0020124908701EE0A0
:10172000104800780B281ADB0F480179C07801EBCC
:10173000002000B20D4908800B488179407901EB07
:10174000002000B2094948800748017AC07901EBBE
:10175000002000B20549888000200249087010BDB1
:1017600000500040380000205601002030000020CA
:1017700010B540F22551064800F010F930B1044888
:1017800000F0C6F9C4B2204602F070FB10BD0000A4
:101790000010014010B5002440F22551414800F0EE
:1017A000FDF800287CD040F225513E4800F0CEF8EC
:1017B0003C4800F0ADF9C1B23B4802780078401CCB
:1017C000394B1870394881540078012803D11846E4
:1017D00000785A2803DD00203349087060E0324861
:1017E0000078022800DA10BD30484078062854D12D
:1017F0002D480078142853DB2C48807C2B49C97C69
:1018000040EA01241221294801F02CFFA04240D1D6
:10181000264840792549897940EA012024490881F0
:10182000002088802148007A00F001011F48C0791B
:1018300061F35F001D49497A01F0010140EA81002E
:101840001A49897A01F0010140EAC1001749C97AB1
:1018500001F0010140EA01101449097B01F0010186
:1018600040EA41101149497B01F0010140EA811031
:101870000E49897B01F0010140EAC1100B49C97B87
:1018800001F0010140EA012009498988084308491B
:10189000888000200449087002E000200249087096
:1018A00000BFA0E700440040240000208E0000207C
:1018B0008400002010B540F22551204800F06EF859
:1018C00000283AD040F225511C4800F03FF81B4850
:1018D00000F01EF9C1B21A4802780078401C184B7B
:1018E0001870184881540078162803D118460078DB
:1018F0005A2803DD0020124908701EE010480078C5
:101900000B281ADB0F480179C07801EB002000B2E8
:101910000D4908800B488179407901EB002000B225
:10192000094948800748017AC07901EB002000B2DC
:101930000549888000200249087010BD0048004019
:101940002E000020F20000202600002010B500220A
:10195000002340F66A14A14200D100BF0A120124FC
:101960009440A3B2DC43048010BD21B1828942F4CB
:101970000052828104E082894DF6FF731A40828111
:10198000704702460020B1F5007F00D100BF1388E8
:101990000B400BB1012000E00020704770B50246FB
:1019A000002400230025002040F66A16B14200D131
:1019B00000BFC1F3421501F01F03012606FA03F32D
:1019C000012D02D19689334006E0022D02D1168AFC
:1019D000334001E0968A33400C12012606FA04F4E3
:1019E0001688344013B10CB1012000E0002070BD16
:1019F000F0B50346002400260025002040F66A17B3
:101A0000B94200D100BF1846C1F3421401F01F06CD
:101A1000012707FA06F5012C01D10C3004E0022C55
:101A200001D1103000E014301AB107682F4307606D
:101A300002E00768AF430760F0BD00002DE9FF47F3
:101A400005460E460024A14600BFA046B08900B15D
:101A500000BF2C8A24F44054F08804432C82AC89C3
:101A600041F20C608443B08831890843718908438E
:101A70000443AC81AC8A24F44074B0890443AC8242
:101A80006846FFF7BFFA2048854202D01F488542CA
:101A900002D1DDF80C9001E0DDF80890A88900F48F
:101AA000004040B109EBC90000EB09103168490062
:101AB000B0FBF1F707E009EBC90000EB0910316852
:101AC0008900B0FBF1F76420B7FBF0F004012009B6
:101AD000642101FB1078A88900F4004040B1322055
:101AE00000EBC800B0FBF1F000F00700044308E091
:101AF000322000EB08106421B0FBF1F000F00F0081
:101B000004432C81BDE8FF87001001400014014010
:101B100001468888C0F308007047C1F3080282803C
:101B2000704700BFFEE703B401984100009850EAF7
:101B3000C12018BF04204A0D18BF40F0010040F238
:101B4000FF72B2EB515F08BF40F00200012808BFEE
:101B5000052002B07047000010B52F499FED2C1BE7
:101B60002DED020B84B0059820F000408842D8BFCC
:101B70009DED040B2DDD2949884209D1049840B917
:101B80004FF0010001F02CFB01F0EAFA06B010BDA5
:101B900005DB9DED040B01F0CFFA06B010BD6846E1
:101BA0009DED040B00F0C8FE10F0030004BF9DED96
:101BB000021B9DED000B0CD001280ED09DED021BE9
:101BC0009DED000B022817D0012001F005FA06B0A8
:101BD00010BD01F0CDF806B010BD9DED021B9DEDCE
:101BE000000B012001F0F8F951EC100B81F00041DD
:101BF00006B041EC100B10BD01F0BAF851EC100B1F
:101C000081F0004106B041EC100B10BD0000000057
:101C10000000000000000000FB21E93F0000F07F11
:101C20002DE9F04D2DED040B2DED0E8B96B0DDE979
:101C30002550279CDDF890A025F0004624F00048B0
:101C4000BAF1000F14BF0121002101EB4502FC494C
:101C500053184A1093422AD3002814BF01230023AB
:101C600003EB44030B44F7498B4220D358EA0001AD
:101C70009FEDF59B76D0DFF8D8B35D4503D1BAF17F
:101C8000000F05D188E0BAF1000F08BF002100D095
:101C9000012101EB450111F5001F08D8002814BFF0
:101CA0000121002101EB440111F5001F0BD99DED2D
:101CB000261B9DED240B16B0BDEC0E8B04B0BDE8C9
:101CC000F04D01F043BA0027002DBCBFE149884523
:101CD00021DAE1498845A8BF02271CDAC3451ADC8E
:101CE000DE4901EB2851142908DDC1F1340220FA44
:101CF00002F101FA02F282420DD108E058B9C1F1B5
:101D0000140228FA02F101FA02F2424503D101F06D
:101D10000101C1F1020756EA0A0124D1002C22DA9E
:101D2000002D18BF022F01D0012F0AD0022001F090
:101D300057FA16B0BDEC0E8B04B0BDE8F04D01F0C3
:101D4000E3B9022001F04CFA01F0DEF951EC100B7E
:101D500081F0004141EC100B16B0BDEC0E8B04B0CD
:101D6000BDE8F08D18E09FEDBEAB9FEDBF8B002866
:101D700071D1B848804522D105F1804010F580101E
:101D800008BFBAF1000F07D0B3450ADC002CA8BF8A
:101D90009DED260BE0DA0DE0B0EE490AF0EE690A9F
:101DA000DAE7002C06DA9DED260B51EC100B81F0E2
:101DB00000416FE0AE48784490ED000BCCE7D84589
:101DC0004DD1002C48DA2EB186423AD1BAF1000F3B
:101DD00042D126E0BAF1000F13D0022001F000FA40
:101DE00001F0CEF98DED020B9DED240B8DED000B76
:101DF00010EE900A039961F31E0003909DED020B13
:101E0000AAE78DED02AB9DED240B1AEE901A10EEB1
:101E1000900A8DED000B61F31E0003909DED020B07
:101E20009AE78DED028B9DED240B18EE901A10EEC3
:101E3000900A8DED000B61F31E0003909DED020BE7
:101E40008AE709DA9DED240B51EC190B53EC102BAA
:101E5000FEF705FB1EE020E09DED240B7CE78642AB
:101E60001BDAB4F1804F0DD0A4F10050B0F1FF5057
:101E700013D1002D11DB9DED240B51EC100B02F062
:101E800065F907E09DED240B53EC102B51EC100B82
:101E900000F0C2BC41EC100B5EE79DED240B51EC51
:101EA000100B01F05DFBBAF1000FCDE90E0142D13C
:101EB0009FED710B46B3A6F1E040B0F17F600CD00E
:101EC0005E4538D1002D00DAA7B3022F0CBF0120E8
:101ED0004FF0FF30FEF732FBDCE7002D01DD002C78
:101EE0000DDA002D01DD002C1FDB002D16DA002C91
:101EF00014DB012F08BF9FED620B3FF42DAFB0EE56
:101F00004A0AF0EE6A0A27E7022F18BF002D0CD00C
:101F1000012F0AD1002DFFF61FAF06E0002DB8BF3C
:101F2000002C08DA012F3FF417AFB0EE480AF0EEAC
:101F3000680A11E71BE0012000EBE57050EA070199
:101F400015D0791EB0EE498AF0EE698A084308BFC1
:101F50009FED4D8B4E480025804570DD4D494E4824
:101F6000884514DDB0420DDB002C19DB2FE0012089
:101F700001F036F916B0BDEC0E8B04B0BDE8F04DA3
:101F800001F0EEB8B34502DC002C09DC1FE086420C
:101F900002DA002C1BDA03E05E452BDD002C16DD97
:101FA000022001F01DF901F0EBF88DED020B53EC6E
:101FB0001A2B51EC180BFEF7E0F9CDE9000103995B
:101FC000019861F31E0003909DED020BC4E6022010
:101FD00001F006F901F0E4F810EE901A18EE900AFC
:101FE0008DED020B8DED008B61F31E0003909DEDD6
:101FF000020BB1E69DED0E0B53EC192B51EC100BBF
:10200000FEF7B5F99FED260BCDE9080153EC102B37
:102010009DED080B51EC100BFEF7AFF99FED221B65
:1020200053EC112BFEF7A6F99DED081B53EC112B79
:10203000FEF7A3F99FED1E1B53EC112B3CE08CE047
:10204000FFFF1F00FFFF0F00000000000000F03F37
:102050000000F03F0000F07F0000404301FCFFFF64
:10206000000000000000F07F000000000000000001
:10207000962A000000000000000000000000008020
:10208000000000000000F0FF000000000000F0BFB2
:102090000000E0410000F043FFFFEF3F00000000C0
:1020A000000000000000D03F555555555555D53F0F
:1020B000000000000000E03FFEF75CF99DED080B1A
:1020C00041EC1A0B53EC102B51EC100BFEF755F9A9
:1020D00053EC1A2BFEF751F941EC1A0B9FEDFE0B56
:1020E00053EC102B9DED080B51EC100BFEF745F94E
:1020F00041EC1B0B9FEDFA0B51EC1A0B53EC102B20
:10210000FEF73BF941EC1A0B9FEDF70B53EC102B4C
:102110009DED080B51EC100BFEF72FF953EC1A2B29
:10212000FEF725F941EC1A0B51EC1B0B53EC1A2B63
:10213000FEF77CF80690CDE906519DED060B53ECB9
:102140001B2B51EC100BFEF712F953EC1A2BFEF778
:1021500011F941EC100B00F0A1B90020B6F5801F79
:102160000EDA9FEDE30B53EC102B9DED0E0B51ECB3
:10217000100BFEF702F9CDE90E016FF034000E46A8
:1021800000EB2650A0F2FF37C6F31300DA4940F007
:102190007F6646F040568842D8BF002408DDD74904
:1021A0008142C8BF012403DC0024A6F580167F1CF1
:1021B000D348784400EBC4000F9690ED00CB9DED22
:1021C0000E0B53EC1C2B51EC100BFEF7D0F89DEDD1
:1021D0000E0B41EC1B0B53EC1C2B51EC100BFEF7C0
:1021E00025F841EC100B51EC190B53EC102BFEF7BA
:1021F00036F941EC1D0B51EC1B0B53EC1D2BFEF77C
:10220000BCF841EC1A0BBF488DED10AB784410952B
:1022100090ED000B4FF0005040EA660000EB844068
:102220008DED080B00F5002009909DED080B53EC97
:102230001C2B51EC100BFEF79AF89DED0E1B53EC86
:10224000112BFEF797F841EC100B53EC102B9DED82
:10225000100B51EC100BFEF790F89DED080B41ECC4
:102260001C0B53EC102B9DED100B51EC100BFEF7DB
:1022700084F853EC1B2BFEF77DF853EC1C2BFEF778
:1022800076F853EC1D2BFEF778F841EC1C0B53EC61
:102290001A2B51EC1A0BFEF770F841EC1B0B9A4805
:1022A0000621B0EE4B0AF0EE6B0A784400F018FEFF
:1022B000B0EE401AF0EE601AB0EE41DAF0EE61DAFC
:1022C00053EC1B2B51EC1B0BFEF757F853EC1D2B5B
:1022D000FEF753F89DED100B41EC1B0B53EC1A2B42
:1022E00051EC100BFDF7A2FF53EC1C2BFEF745F849
:1022F00053EC1B2BFDF79AFF9DED100B41EC1B0BD4
:1023000053EC102B51EC100BFEF737F841EC1D0B82
:102310009FED7FEB53EC1E2BFDF788FF53EC1B2B3F
:10232000FDF784FF0890CDE908519DED080B53ECB3
:102330001E2B51EC100BFEF71AF853EC1D2BFEF779
:1023400016F853EC1B2BFEF715F89DED080B41EC2E
:102350001D0B53EC102B9DED100B51EC100BFEF7E9
:102360000CF841EC1B0B53EC1A2B51EC1D0BFEF738
:1023700004F89DED080B41EC1A0B53EC102B51ECBB
:102380001C0BFDF7FAFF53EC1A2BFDF74FFF41EC46
:102390001A0B51EC1B0B53EC1A2BFDF747FF0C905B
:1023A000CDE90C519DED0C0B53EC1B2B51EC100B9C
:1023B000FDF7DDFF53EC1A2BFDF7DCFF41EC1B0BA7
:1023C0009FED550B53EC102B9DED0C0B51EC100BAE
:1023D000FDF7D3FF41EC1A0B9FED510B51EC1B0B9A
:1023E00053EC102BFDF7C9FF41EC1B0B9FED4E0B7F
:1023F00053EC102B9DED0C0B51EC100BFDF7BDFFBA
:1024000053EC1B2BFDF712FF41EC100B48487844AE
:1024100000EBC40090ED001B51EC100B53EC112BA2
:10242000FDF704FF41EC1B0B3846FEF787F8CDE9BA
:10243000080153EC1B2B51EC1A0BFDF7F7FE41EC96
:10244000100B3C48784400EBC40090ED00CB51ECFD
:10245000100B53EC1C2BFDF7E9FE9DED081B53EC14
:10246000112BFDF7E3FE0690CDE906519DED080B1B
:1024700053EC102B9DED060B51EC100BFDF777FF85
:1024800053EC1C2BFDF773FF53EC1A2BFDF76FFF7A
:1024900053EC1B2BFDF76EFF41EC100B9DED261B43
:1024A00053EC102B8DED001B00959DED260B51EC90
:1024B000100BFDF762FF9DED000B41EC1A0B53EC86
:1024C000102B9DED260B51EC100BFDF750FF9DEDF1
:1024D000061B53EC112B2FE0000000604715F73F5F
:1024E000FE822B654715F73F44DF5DF80BAE543E87
:1024F00000000000000040438E9803007AB60B00F5
:10250000E2250000402600001A250000000000001F
:102510000000000000000840000000E009C7EE3F96
:10252000FD033ADC09C7EE3FF5015B14E02F3EBE28
:10253000A623000060230000FDF71FFF53EC1A2BB9
:10254000FDF774FE9DED060B41EC1A0B53EC102BBE
:102550009DED000B51EC100BFDF70FFFCDE90C01C9
:102560009DED0C0B51EC1A0B53EC102BFDF75EFE9E
:10257000CDE902010C46AA498C422FDB611A0843BF
:1025800018D19DED0C0B53EC102B9DED020B51EC73
:10259000100BFDF7ECFE41EC1B0B9FEDA30B51EC78
:1025A0001A0B53EC102BFDF741FE53EC1B2BFEF7DF
:1025B00047F82DD2022000F013FE00F0E1FD10EEEE
:1025C000901A18EE900A8DED020B8DED008B61F3E1
:1025D0001E0003909DED020BFFF7BEBB944A24F052
:1025E0000041914214D39349214408437FF4EFAC56
:1025F0009DED0C0B53EC102B9DED020B51EC100BD1
:10260000FDF7B5FE53EC1A2BFEF71AF87FF6DFAC98
:1026100024F000408849894A002601EB205182427B
:102620002BDA481C4FF4801121FA00F02044844A30
:10263000C0F30A517A44A1F2FF3192ED000B814AB6
:102640008DED080BCA4020EA0202C0F3130040F4EB
:102650008010C1F1140120FA01F60992002CB8BFD4
:1026600076429DED080B53EC102B9DED0C0B51ECBD
:10267000100BFDF77CFECDE90C019DED0C0B51EC30
:102680001A0B53EC102BFDF7D1FD9FED6F0B08904B
:10269000CDE9085153EC102B9DED080B51EC100BBC
:1026A000FDF76BFE41EC1B0B9FED690B53EC102B00
:1026B0009DED080B51EC100BFDF75FFE9DED0C0B33
:1026C00041EC1C0B53EC102B9DED080B51EC100B47
:1026D000FDF74DFE53EC1A2BFDF74CFE9FED5E1BF4
:1026E00053EC112BFDF749FE53EC1C2BFDF79EFD1F
:1026F00041EC1A0B51EC1B0B53EC1A2BFDF796FD1A
:10270000CDE902019DED020B53EC1B2B51EC100B9C
:10271000FDF72DFE53EC1A2BFDF72CFE9DED020B61
:1027200041EC1A0B53EC102B51EC100BFDF725FE6E
:10273000CDE908014A489DED080B0521784400F0D9
:10274000CFFB9DED081B51EC100B53EC112BFDF74B
:1027500014FE9DED021B53EC112BFDF70BFECDE992
:1027600006019DED020B53EC1A2B51EC100BFDF7FB
:1027700004FE53EC1A2BFDF759FD9FED3B0B41EC8A
:102780001A0B53EC102B9DED060B51EC100BFDF7C3
:10279000EEFD9DED060B41EC1B0B53EC102B9DED5C
:1027A000020B51EC100BFDF7E8FD53EC1B2BFDF772
:1027B00056FE53EC1A2BFDF7DAFD9DED021B53EC90
:1027C000112BFDF7D4FD53EC192BFDF7D3FDCDE90B
:1027D000020101EB065001150029C8BF039015DC6A
:1027E0009DED020B324651EC100BFEF722F8FFF77D
:1027F0009AF9042808BF00F0D3FC32469DED020B85
:1028000051EC100BFEF715F8CDE902019DED020B1E
:1028100051EC180B53EC102BFDF7AFFDFFF73ABB53
:102820000000904000000000FE822B654715973C99
:1028300000CC904000346F3F01FCFFFF0000E03F00
:1028400018220000FFFF0F0000000000432EE63FAB
:10285000396CA80C615C20BEEF39FAFE422EE63FCF
:10286000B820000000000000000000000000004050
:1028700010B52F499FED2C1B2DED020B84B0059850
:1028800020F000408842DCBF00209DED040B32DDCB
:102890002849884209D1049840B94FF0010000F05E
:1028A0009FFC00F05DFC06B010BD05DB9DED040B48
:1028B00000F042FC06B010BD68469DED040B00F030
:1028C0003BF810F0030011D0012818D09DED021B39
:1028D0009DED000B02281AD000F04AFA51EC100BC3
:1028E00081F0004106B041EC100B10BD9DED021BC4
:1028F0009DED000B012000F06FFB06B010BD9DEDBB
:10290000021B9DED000B00F033FA06B010BD012054
:1029100000F062FB51EC100B81F0004106B041EC7D
:10292000100B10BD000000000000000000000000BF
:10293000FB21E93F0000F07F2DE9F14F04462DED2A
:10294000020B2DED088B8AB09FEDE70B80ED020B9B
:10295000139EE74826F0004585420ADC9DED120BE8
:10296000002084ED000B0AB0BDEC088B03B0BDE87D
:10297000F08FE0489FEDE0AB9FEDE1BBA84247DD63
:10298000E14F9FEDE39B9FEDE48B9DED120B53EC2C
:102990001A2B51EC100B002E1CDDFDF7E8FC41EC6E
:1029A000100BBD4208D053EC1B2B51EC100BFDF764
:1029B000DEFCC4E900010BE053EC192B51EC100BC9
:1029C000FDF7D5FC53EC182BFDF7D1FCC4E9000151
:1029D0000120C8E7FDF72AFC41EC100BBD4208D0EE
:1029E00053EC1B2B51EC100BFDF720FCC4E900014C
:1029F0000BE053EC192B51EC100BFDF717FC53ECCB
:102A0000182BFDF713FCC4E900014FF0FF30AAE7D3
:102A1000C348A84279DB9DED120B51EC100B00F07E
:102A20009FFD41EC180B9FEDC00B53EC102BFDF7F5
:102A3000A4FC9FEDBF1B53EC112BFDF7F7FBFDF73B
:102A40009BFD0746FDF77AFD41EC190B53EC1A2B61
:102A5000FDF793FC53EC182BFDF78CFC41EC180BA5
:102A600053EC1B2B51EC190BFDF787FCDFF8C8A2C8
:102A700041EC100B4FEA15580125FA4453EC102B8A
:102A800051EC180BFDF773FC032DC4E900013DD098
:102A9000C1F30A5005EB4511A8EB00001139814242
:102AA00034DA0AEB051BB0EE48AA9BED000BF0EE02
:102AB00068AA53EC102B51EC190BFDF75EFC41ECAE
:102AC0001B0B51EC1A0B53EC1B2BFDF750FC41EC8C
:102AD000180B51EC1A0B53EC182BFDF748FC53EC78
:102AE0001B2BFDF744FC9BED020B41EC1A0B53EC46
:102AF000102B51EC190BFDF740FC53EC1A2BFDF792
:102B000036FC41EC100B6D1CB8E70EE0002EA8BFA0
:102B10003846BFF628AF94ED000B51EC100B81F056
:102B20000041C4E9000178421DE7C6F3130040F4F8
:102B3000801EC6F30A50A0F2F530471100F01F05C1
:102B4000C5F12000DDF848B00890002006900790FD
:102B50000520EC467949002D07EB0002794408BFB7
:102B600051F8221009D051F8223001EB8201AB401C
:102B70004A68089922FA01F11943A1FB0E26A1FB2C
:102B80000B131A449A4234BF0123002303EB0608B7
:102B90000CEB8003D3E901A60E448E4234BF012121
:102BA000002192448A4411B1924502D903E0924532
:102BB00001D2012100E00021C3E901A641444CF803
:102BC0002010011EA0F10100C4DC029800F10050A9
:102BD000850F0298DDE903678000DDF81480FDF7BA
:102BE000ADFC41EC1A0B3046FDF7B9FC9FED541BD0
:102BF00053EC112BFDF7C1FB41EC1B0B3846FDF7E5
:102C0000AEFC9FED511B53EC112BFDF7B6FB41ECD5
:102C1000180B4046FDF7A3FC9FED4D1B53EC112B09
:102C2000FDF7ABFB41EC190B51EC180B53EC192BD6
:102C3000FDF7FCFA53EC1B2BFDF7F8FA53EC1A2BBB
:102C4000FDF7F4FACDE90801002008909DED080B8E
:102C500053EC1A2B51EC100BFDF789FB53EC1B2B9B
:102C6000FDF785FB53EC182BFDF781FB53EC192B7B
:102C7000FDF780FB9FED381B53EC112BFDF77DFB1F
:102C80009FED370B41EC180B53EC102B9DED080B0F
:102C900051EC100BFDF771FB53EC182BFDF7C6FA46
:102CA0009FED310B41EC180B53EC102B9DED080BF5
:102CB00051EC100BFDF761FB53EC182BFDF7B6FA46
:102CC00041EC100B139810F0004F06D06D4251EC00
:102CD000100B81F0004141EC100B284684ED000BF5
:102CE00041E60000000000000000000000000000BD
:102CF000FB21E93F7CD9024000004054FB21F93F11
:102D00003163621A61B4D03DFB21F93F000000003D
:102D10000000601A61B4D03D7370032E8A19A33B82
:102D2000FB2139410000000083C8C96D305FE43FDA
:102D3000000000000000E03FDA1D0000281D000038
:102D4000000000000000103E000000000000103CE9
:102D5000000000000000103A182D4454FB21F93DFA
:102D60003326A611460B113C00000054FB21F93D0F
:102D700010B52DED040B2DED088B82B0B0EE419A0D
:102D8000F0EE619A0B9820F000449FED4BABB4F14C
:102D9000795F11DA9DED0A0B51EC100BFDF7ECFB9E
:102DA000002801BFB0EE4A0AF0EE6A0A02B0BDEC9C
:102DB000088B04BF04B010BD9DED0A0B53EC102B23
:102DC00051EC100BFDF7D9FA41EC180B3C480621E9
:102DD000B0EE480AF0EE680A784400F081F853EC4F
:102DE000182B51EC100BFDF7C8FA9DED0A0B41ECC6
:102DF0001B0B53EC192B51EC100BFDF7BEFA41ECF9
:102E0000190B53EC1B2B51EC180BFDF7B6FA53ECD6
:102E1000192BFDF7ACFA9FED2C0B41EC190B53EC81
:102E2000102B51EC180BFDF7A8FA41EC100B2848B9
:102E3000844210DA53EC192B51EC100BFDF797FA82
:102E400053EC1A2BFDF796FA41EC100B02B0BDECD7
:102E5000088B04B010BD1F48A042BCBF9FED1E1BD5
:102E60008DED001B06DBA4F5001001900020009002
:102E70009DED001B51EC100B53EC112BFDF777FA75
:102E80009DED000B41EC180B53EC102B51EC1A0B81
:102E9000FDF76DFA41EC1A0B53EC192B51EC180BA2
:102EA000FDF765FA53EC1A2BFDF764FA41EC100BB1
:102EB000CCE7000000000000000000000000F03F30
:102EC000441A000000000000000000000000E03F85
:102ED0003333D33F0000E93F000000000000D23F41
:102EE00070B504462DED028B4D1E00EBC500B0EE13
:102EF000408AF0EE608A90ED000B35F0060017D0A6
:102F000053EC182B51EC100BFDF737FA41EC100B7A
:102F10006D1E04EBC50090ED001B51EC100B53EC43
:102F2000112BFDF783F941EC100B35F00600E7D1CA
:102F3000022D36D0042D1CD0062D1CBFBDEC028BFB
:102F400070BD53EC182B51EC100BFDF716FA94EDF5
:102F50000A1B53EC112BFDF769F953EC182BFDF705
:102F60000CFA94ED081B53EC112BFDF75FF941ECC3
:102F7000100B53EC182B51EC100BFDF7FEF994EDF0
:102F8000061B53EC112BFDF751F953EC182BFDF7F1
:102F9000F4F994ED040B53EC102BFDF747F941ECD9
:102FA000100B53EC182B51EC100BFDF7E6F994EDD8
:102FB000021B53EC112BFDF739F953EC182BFDF7DD
:102FC000DCF994ED001B53EC112BFDF72FF9BDEC50
:102FD000028B41EC100B70BD31B504462DED040B96
:102FE0002DED0A8BB0EE41BAF0EE61BA0B989DED73
:102FF0000A0B20F00040B0F1795F0DDA51EC100BB4
:10300000FEF791FD042808BF00F0CAF89DED0A0BF9
:10301000BDEC0A8B05B030BD53EC102B51EC100BFE
:10302000FDF7ABF941EC180B9DED0A0B53EC182B97
:1030300051EC100BFDF7A1F941EC190B2C48B0EE47
:10304000480AF0EE680A05217844FFF749FF9FED32
:103050002ACBB0EE40AAF0EE60AA9CB353EC1C2B36
:1030600051EC190BFDF789F941EC1C0B53EC1A2BB1
:1030700051EC190BFDF781F99FED210B41EC190B78
:1030800053EC102B51EC1B0BFDF777F953EC192B7C
:10309000FDF76DF953EC182BFDF76FF953EC1B2B73
:1030A000FDF765F953EC1C2BFDF761F99DED0A1B4B
:1030B00053EC112BFDF75EF9BDEC0A8B05B041EC2A
:1030C000100B30BDFFE753EC1A2B51EC180BFDF73A
:1030D00054F953EC1C2BFDF7A9F853EC192BFDF711
:1030E0004CF99DED0A1B53EC112BFDF79FF8E3E71C
:1030F000D418000000000000495555555555C5BF6E
:10310000000000000000E03F9FED070B10B553ECFE
:10311000102B9FED070B51EC100BFDF7A0F941ECC4
:10312000100B10BD000000000000000000000000B7
:10313000000000000000F03F10B553EC102B51ECE4
:10314000100BFDF773F841EC100B10BD10B553ECEC
:10315000112B51EC100BFDF769F841EC100B10BD71
:103160009FED050B10B553EC102B51EC100BFDF738
:1031700076F941EC100B10BD0000000000000000CB
:103180009FED050B10B553EC102B51EC100BFDF718
:10319000F4F841EC100B10BD0000000000000070BE
:1031A0009FED050B10B553EC102B51EC100BFDF7F8
:1031B000E4F841EC100B10BD00000000000000100E
:1031C00002E008C8121F08C1002AFAD170477047F0
:1031D000002001E001C1121F002AFBD1704700004E
:1031E00001490860704700005C00002000B52E48CF
:1031F00090F900002D4991F90010884223D02A4807
:1032000000782A4908702848007801280BD12848FE
:103210000068284908600846006800F0DBF90020D3
:10322000234908600FE0204890F90000401C50B985
:103230001F480068204908600846006800F0CAF985
:1032400000201B49086018480078A0B91B48018875
:103250000088401C194A1080B1F5FA7F0EDD4FF44A
:10326000FA7011460880002013490860114908606F
:103270000D49488002E00020104908800E4800688F
:103280000C49096808444EF66021B1FBF0F006498C
:10329000C880094800686421484306490968B0FBB2
:1032A000F1F00149088100BDBC010020430000206D
:1032B000200000204C000020480000204400002096
:1032C00000B58FB001218805FDF75CFE1348019021
:1032D00013480290002003900420049000200590E1
:1032E0004FF48060069040000790800008904011E5
:1032F000099040020A9000200B9001200C900020C1
:103300000D900E90009069460648FDF74BFC012198
:103310000448FDF73CFC0FB000BD00004C2001400C
:1033200070000020106402402DE9F04104460D4673
:1033300016464FF6FF70002114E0625C50404FF0DB
:10334000000C0AE000F00107401017B14AF2010238
:1033500050400CF1010202F0FF0CBCF1080FF1DB50
:103360004A1CD1B2A942E8DB02464FEAE07800EB02
:1033700018684FEA2828A0EB082886F800804FEA52
:10338000E07800EB18684FEA182883F80080BDE861
:10339000F081000010B50648C08E00B110BDFDF7E9
:1033A000F5FB00F08BFC00F027FE00BFF6E7000005
:1033B000CC01002010B586B00024142205A101A87C
:1033C000FCF710FF1424214601A800F0AFFF06B05F
:1033D00010BD000001060F0000000000000000000A
:1033E000000000000000864D2DE9F04186B0054642
:1033F0000E4617469846002414A30FCB8DE80F0005
:103400000E24E8B28DF8050028128DF806008DF81C
:1034100007608DF808708DF80980A01EC1B204AB5A
:1034200005AA6846FFF780FF9DF81410A01E0DF84E
:1034300000109DF81010601E0DF80010214668461F
:1034400000F074FF06B0BDE8F08100000103090040
:1034500000000000000000003C5500004FF47A70AE
:10346000104908824FF48660C8854FF47A70C88589
:103470004FF4486088874FF4FA70C8874000A1F87D
:103480004000A1F84200A1F84400A1F84600A1F8CC
:103490004800A1F84A00A1F84C00A1F84E00A1F89C
:1034A00050007047CC01002010B506490889002360
:1034B00001221146FFF798FFFFF77CFF00F022F88A
:1034C00010BD0000CC01002010B504466FF00400D0
:1034D000FDF784FEE11704EB5171C1F3C701074A00
:1034E00011701046007800EB4001C1EBC0104FF6A0
:1034F000FF7101EAC0000249088010BD10000020E1
:103500001200002010B511480088114908800F48AA
:10351000408848800F48008988800E488088C8808D
:103520000D48008848810D48C08848860B480089AE
:1035300088860A484088888508488088C881084667
:10354000008B0886084600F033FD10BD30000020D7
:10355000CC0100208400002026000020BC010020B7
:1035600082B0CDE9000121F0004001909DED000BFB
:1035700002B051EC100B70470146042901DD002018
:103580007047024830F81100FAE700007000002090
:103590000E4890F900000E4991F90010884209D0B8
:1035A0000A48007830B100200849C8600846007811
:1035B000074908700548007838B10448C0680349D5
:1035C000B1F9021008440149C8607047BC010020ED
:1035D000420000200021214A1278012A1CD11F4AF2
:1035E000D268524242434FF47A73B2FBF3F23C2367
:1035F000B2FBF3F20A23B2FBF3F1194A128D184B16
:103600005A851A46D28C1A851A46928CDA841A4642
:10361000528C9A8459841FE0104A92F90020521C5F
:10362000D2B90E4AD26842434FF47A73B2FBF3F236
:103630003C23B2FBF3F20A23B2FBF3F1084AD28B2C
:10364000074B1A841A46928BDA831A46528B9A8356
:103650001A46128B5A83198370470000BC01002060
:10366000CC01002070B502460B464FF6FF700021DA
:1036700010E0565C7040002408E000F001054010A6
:1036800015B14AF201067040661CB4B2082CF4DB96
:103690004E1CB1B29942ECDB70BD000010B52DEDAF
:1036A000108B8EB09FEDFE0BB0EE408AF0EE608A7C
:1036B0000020FFF761FF0446FCF751FF41EC180BB7
:1036C00051EC180BFCF7D4FF09EE100AB0EE490AD2
:1036D000F54800F00FFD10EE104A2046FCF784FF7D
:1036E00041EC180B9FEDF10B53EC102B51EC180B28
:1036F000FCF7B5FE41EC190B9FEDEE0B53EC102BD4
:10370000FCF73BFE41EC180B9FEDEC0B53EC102B40
:1037100051EC180BFCF731FE41EC190B9FEDE90B56
:1037200053EC102BFCF723FE41EC180B9FEDE70B3D
:1037300053EC102B51EC180BFCF782FF06D29FEDD7
:10374000E30BB0EE408AF0EE608A0EE09FEDD40B02
:1037500053EC102B51EC180BFCF75AFF05D89FEDDA
:10376000D00BB0EE408AF0EE608ADA480088401C48
:10377000D849088008460088FCF7F1FE41EC1D0B93
:103780009FEDD50B53EC102BFCF7F7FD41EC1C0B18
:103790009FEDD30B53EC102BFCF761FE41EC1B0BA0
:1037A000B0EE4B0AF0EE6B0AFFF762F8B0EE40AAFB
:1037B000F0EE60AA9FEDCC0B53EC102B51EC1A0BE2
:1037C000FCF7DBFD41EC190B9FEDC70B53EC102B05
:1037D000FCF7D0FD41EC180B9FEDC10B53EC102B07
:1037E00051EC180BFCF7C9FD41EC190BFCF7E3FE9B
:1037F00000F57A70BE49098A401ABE4988800120C6
:10380000FFF7BAFE0446FCF7AAFE41EC180B51EC98
:10381000180BFCF72DFF09EE100AB0EE490AB64866
:1038200000F068FC10EE104A2046FCF7DDFE41EC8B
:10383000180B9FED9E0B53EC102B51EC180BFCF763
:103840000EFE41EC190B9FED9B0B53EC102BFCF77C
:1038500094FD41EC180B9FEDA90B53EC102B51EC90
:10386000180BFCF78AFD41EC190B9FED920B53EC02
:10387000102BFCF7F4FD41EC180B53EC182B9FEDCB
:10388000A10B51EC100BFCF778FD41EC190B9FEDEF
:103890009F1BB0EE480AF0EE680AFEF7C1F9B0EEE1
:1038A00040AAF0EE60AA9FED9B0B53EC102B51EC5D
:1038B0001A0BFCF762FD9FED991BB0EE480AF0EE83
:1038C000680ACDE90801FEF7ABF9B0EE40CAF0EEA8
:1038D00060CA9FED940B53EC102B51EC1C0BFCF7C2
:1038E0004CFD41EC1A0B9FED801BB0EE480AF0EE48
:1038F000680AFEF795F9B0EE40DAF0EE60DA9FED77
:103900008B0B53EC102B51EC1D0BFCF736FD41ECEF
:103910001C0B9FED7A1BB0EE480AF0EE680AFEF72A
:103920007FF9B0EE40EAF0EE60EA9FED820B53ECD7
:10393000102B51EC1E0BFCF720FD41EC1D0B9FEDF5
:103940007F1BB0EE480AF0EE680AFEF769F9B0EEA8
:1039500040FAF0EE60FA9FED7B0B53EC102B51EC2C
:103960001F0BFCF70AFD41EC1E0B9FED781BB0EE20
:10397000480AF0EE680AFEF753F9B0EE40FAF0EEAE
:1039800060FA9FED740B53EC102B51EC1F0BFCF7FE
:10399000F4FC53EC1E2BCDE900019DED000B51EC26
:1039A000100BFCF7E4FC53EC1D2BCDE902019DED5F
:1039B000020B51EC100BFCF739FC53EC1C2BCDE93E
:1039C00004019DED040B51EC100BFCF7D0FC41EC15
:1039D0001B0B53EC1A2BFCF729FCCDE906019DEDDE
:1039E000080B53EC102B9DED060B51EC100BFCF764
:1039F000BEFC53EC192BCDE90A019DED0A0B51ECED
:103A0000100BFCF713FC9FED550B53EC102BCDE97D
:103A10000C019DED0C0B51EC100BFCF7A8FC41ECDC
:103A2000180B9FED500B53EC102B51EC180BFCF7BF
:103A300007FE06D29FED4B0BB0EE408AF0EE608A97
:103A40000EE09FED4A0B53EC102B51EC180BFCF7DA
:103A5000DFFD05D29FED450BB0EE408AF0EE608AA7
:103A60001C480088FCF77BFD41EC1C0B9FED1A0BFA
:103A700053EC102BFCF781FC41EC1B0B9FED3D0B35
:103A800053EC102BFCF7EBFC41EC1A0BB0EE4A0A9E
:103A9000F0EE6A0AFEF760F8B0EE409A6EE00000C1
:103AA00000000000000000003002002000000000C4
:103AB0000000B0406666666666660A400000000068
:103AC0000040CF40000000000000A94000000000BE
:103AD0000088E3403C0000201F85EB51B81E0940E0
:103AE0000000000000408F40000000000000104077
:103AF000CC010020BC010020460200200000000094
:103B0000000014407940D9940B4691400000000019
:103B100000000040B5882826FFFD9C400000000002
:103B200000000840EB508F65E0CE9A40EC51B81E83
:103B300085218B40D578E926311E6E4000000000BB
:103B400000001840EF1CCA5015334140000000002F
:103B500000001C404DC8DEBD699BFF3FA9A44E403C
:103B6000931C79400000000000C06240000000008B
:103B700000C062C00000000000407F40F0EE609A8C
:103B80001FED270B53EC102B51EC190BFCF7F5FB39
:103B900041EC180B9FED1C0B53EC102B51EC180B48
:103BA000FCF7EBFB41EC190BFCF7E6FC00F57A7037
:103BB0001749C98D401A00B21649488000F0A4FD8B
:103BC0001449B1F90200002801DB014600E041423E
:103BD000052903DA00200F49087010E00D48B0F9FC
:103BE0000200002803DD01200A49087007E00948A7
:103BF000B0F90200002802DAFF20064908700EB072
:103C0000BDEC108B10BD000000000000000024403F
:103C1000CC010020BC0100201CB501210420FDF7CF
:103C2000B1F942F20F00009001208DF8040000204D
:103C30008DF8060003208DF8050001208DF807009F
:103C400069460448FCF7E6FF0F210248FDF74DF8EE
:103C50001CBD000000080240A820FFF735FC1648F4
:103C6000FDF7D0F9FFF7D8FFFFF72AFBFCF720FF9D
:103C7000532140F2F310FDF749FBFDF7F9FAFDF788
:103C8000B5FB4FF4165000F09BFC4FF4165000F0BB
:103C9000F7FA4FF4165000F067FB4FF4165000F09F
:103CA000B7FB4FF4165000F025FCFFF7D7FB01E0FF
:103CB00000F084FAFCE700006000002000B52DED64
:103CC000048B93B048216846FCF7A5FA1249B1F974
:103CD0000000FCF733FC41EC180B10498889FCF715
:103CE0003EFC41EC190B0D48B0F84A30B0F84820C2
:103CF000B0F84610B0EE481AF0EE681AB0EE490A75
:103D0000F0EE690A6846FDF733F80449088713B0F6
:103D1000BDEC048B00BD000026000020CC0100207B
:103D200070B5C2B005464FF4807102A8FCF773FA73
:103D3000002400262F4840788DF808002D48807810
:103D40008DF809002B480179C07841EA00262948FE
:103D50008179407941EA00204006000E8DF80A0082
:103D60009DF80A0000EBD0714C10002001901DE07E
:103D70009DF80400304435F8100001129DF804004D
:103D8000032202EB400002AA11549DF804003044C3
:103D900015F810109DF80400042202EB400002AA5E
:103DA00011549DF80400401CC0B201909DF804001D
:103DB000A042DDDB9DF80A00C01CC4B26B4601AA1C
:103DC000214602A8FFF7B0FA9DF8040002A90855A1
:103DD0009DF8001002AA601C1154A01CC4B2214618
:103DE00002A800F02FFA214602A800F065FB42B0BD
:103DF00070BD00005C02002070B50546002600245E
:103E000008240B480179C07841EA002608488179E6
:103E1000407941EA002025F8160021460448401C5C
:103E200000F010FA21460248401C00F045FB70BD2E
:103E30005C0200207CB50546062421466B4601AA9B
:103E40000948FFF771FA9DF80410074801559DF8DD
:103E50000020611C4254A41C214600F0F3F92146C5
:103E6000014800F029FB7CBD5D02002070B50646CC
:103E70004B4801780078401C494A10704948465424
:103E800010460078012800DC70BD464840781028B4
:103E90003BD143480078022878DD424880790830D9
:103EA000414908703E480078097888426EDD3C48F8
:103EB0000078801E3B49095C39480078401E394A29
:103EC000105C41EA002536480078801EC1B21046D9
:103ED000FFF7C8FBA84214D1314800783349087075
:103EE000002406E02F48015D3048401C0155601C4D
:103EF000C4B22B4800788442F4DB01202B4981F8BE
:103F0000010200202649087040E026484078032836
:103F100003D024484078062835D10720224908706C
:103F20001F4800780978884230DD1D480078801EDF
:103F30001C49095C1A480078401E1A4A105C41EA84
:103F4000002517480078801EC1B21046FFF78AFB93
:103F5000A84214D11248007814490870002406E0E1
:103F60001048015D1148401C0155601CC4B20C484A
:103F700000788442F4DB01200C4981F80102002022
:103F80000749087002E000200549087004480078DD
:103F9000FA2802DD00200249087000BF74E7000023
:103FA000550000205E050020540000205C02002027
:103FB00010B504460F4890F80102012815D10D48AC
:103FC0008078032804D0062806D010280CD107E0FA
:103FD0002046FFF7A5FE07E02046FFF70DFF03E0B0
:103FE0002046FFF727FF00BF00BF0020014981F8EE
:103FF000010210BD5C02002000B52DED048B93B0D2
:1040000048216846FCF707F911498888FCF7A7FAA8
:1040100041EC180B0F49C88AFCF7A1FA41EC190BC7
:104020000C48B0F85030B0F84E20B0F84C10B0EE5C
:10403000481AF0EE681AB0EE490AF0EE690A6846CE
:10404000FCF796FE0349488713B0BDEC048B00BD16
:10405000BC010020CC010020704700000B48017813
:104060000078401C094A1070322903DA01200849FF
:10407000086002E0002006490860044800786428CF
:1040800002DB002001490870704700001400002086
:10409000880241420B4801780078401C094A1070A0
:1040A000322903DA01200849086002E000200649AD
:1040B000086004480078642802DB00200149087089
:1040C00070470000150000208C02414210B5FFF738
:1040D000E5FAFFF78BF80548418F0548FDF79FFA91
:1040E0000248018F0248FDF79CFA10BDCC01002068
:1040F00000040040F0EE400ADFED131AB0EE611A42
:10410000FCEEE01A11EE901A828A20F81210818AD1
:10411000491C0A2291FBF2F302FB13118182002158
:104120000AE030F8112001EE902AF8EE611A71EEE3
:10413000811AB0EE611A491C0A29F2DBF2EE041A68
:1041400081EE210A704700000000000000B52DED4F
:10415000048B83B041EC190BFCF794FB41EC180B7A
:1041600018EE100A18EE901A8DED008B002818BF7B
:104170000120084320F00040C0F17F6000F1E040E2
:10418000C00F14D019EE101A19EE900A8DED009B95
:10419000002918BF0121084320F00040C0F17F60D2
:1041A00000F1E040C00F04BF0120FFF719F851EC07
:1041B000180B03B0BDEC048B00BD000010B51B480C
:1041C000007800B910BD0020184908701848006830
:1041D000401C17490860084600680521B0FBF1F251
:1041E00001FB120018B9FFF771FFFFF7D3F8104871
:1041F00000686421B0FBF1F201FB120008B9FFF77F
:1042000053F90B4800684FF4FA71B0FBF1F201FB6F
:10421000120048B90748006808B9012000E00020F2
:1042200004490860FFF718FF00BFCBE71800002023
:104230001C000020B402414200B500F017FAFFF75D
:10424000A7F900BD70B505460E4600240CE000BF7E
:1042500040210A48FDF795FB0028F9D0295D074861
:10426000FDF75BFC601C84B2B442F0DB00BF402170
:104270000248FDF786FB0028F9D070BD0010014010
:1042800010B588B0044601210846FCF77BFE0121E9
:104290004804FCF787FE0C20069002208DF81C00D5
:1042A0008DF81D0000208DF81E0001208DF81F00E4
:1042B00006A91C48FCF7AEFC072202211948FCF7AE
:1042C000F1FC072203211748FCF7ECFC02940020C4
:1042D000ADF80C00ADF80E00ADF81000ADF814000C
:1042E0000C20ADF8120002A90F48FDF7A7FB26200D
:1042F0008DF8040002208DF8050001208DF80600DD
:104300008DF8070001A8FCF7F7FC012240F22551C7
:104310000548FDF76DFB01210348FDF726FB08B0BA
:1043200010BD0000000002400044004070B505468A
:104330000E4600240CE000BF40210A48FDF721FB97
:104340000028F9D0295D0748FDF7E7FB601C84B21F
:10435000B442F0DB00BF40210248FDF712FB002809
:10436000F9D070BD0044004010B588B0044601216A
:104370008804FCF717FE01210220FCF703FE4FF42E
:104380004060069002208DF81C008DF81D00002072
:104390008DF81E008DF81F0006A91B48FCF73AFC9B
:1043A00007220A211848FCF77DFC07220B2116483A
:1043B000FCF778FC02940020ADF80C00ADF80E007C
:1043C000ADF810000C20ADF812000020ADF814007C
:1043D00002A90E48FDF732FB012240F225510B489D
:1043E000FDF706FB01210948FDF7BFFA27208DF8EC
:1043F000040002208DF8050001208DF8070001A8B7
:10440000FCF77AFC08B010BD0004024000480040F0
:1044100010B588B004460121C804FCF7C3FD012192
:104420000420FCF7AFFD4FF44060069002208DF8A9
:104430001C008DF81D0000208DF81E008DF81F0057
:1044400006A91B48FCF7E6FB08220A211848FCF7DE
:1044500029FC08220B211648FCF724FC02940020BA
:10446000ADF80C00ADF80E00ADF810000C20ADF862
:1044700012000020ADF8140002A90E48FDF7DEFA84
:10448000012240F225510B48FDF7B2FA01210948FB
:10449000FDF76BFA34208DF8040003208DF8050039
:1044A00001208DF8070001A8FCF726FC08B010BD1C
:1044B00000080240004C004070B505460E4600243E
:1044C0000CE000BF40210A48FDF75BFA0028F9D054
:1044D000295D0748FDF721FB601C84B2B442F0DB84
:1044E00000BF40210248FDF74CFA0028F9D070BD0A
:1044F000004C004010B588B0044601210805FCF7C7
:1045000051FD01210C20FCF73DFD4FF48050069039
:1045100002208DF81C008DF81D0000208DF81E0073
:104520008DF81F0006A92348FCF774FB04200690B1
:1045300002208DF81C008DF81D0000208DF81E0053
:104540008DF81F0006A91C48FCF764FB08220C210B
:104550001848FCF7A7FB082202211748FCF7A2FB2A
:1045600002940020ADF80C00ADF80E00ADF810007C
:104570000C20ADF812000020ADF8140002A90F487D
:10458000FDF75CFA012240F225510C48FDF730FAA4
:1045900001210A48FDF7E9F935208DF804000420CF
:1045A0008DF8050001208DF8070001A8FCF7A4FB99
:1045B00008B010BD00080240000C0240005000404E
:1045C00010B588B0044601210846FCF7DBFC012148
:1045D0001020FCF7F7FC0294072209212148FCF780
:1045E00061FB07220A211F48FCF75CFB4FF4C06007
:1045F000069002208DF81C008DF81D0000208DF81B
:104600001E0001208DF81F0006A91648FCF702FBCA
:104610000020ADF80C00ADF80E00ADF81000ADF8BC
:1046200014000C20ADF8120002A90F48FDF706FA9D
:1046300001210D48FDF799F9012240F225510A4860
:10464000FDF7D6F925208DF8040000208DF805002F
:104650008DF8060001208DF8070001A8FCF74CFB3F
:1046600008B010BD000002400010014000202049A9
:104670000A880988491C1E4B19801E49898F8A4265
:1046800016DA1D49097839B901211C4A1160002147
:104690001B4AC2F8841206E00021184A1160012169
:1046A000174AC2F8841214490978164A117010E0AA
:1046B0000121124A1160124AC2F884121149097884
:1046C000012903D100210C4A117002E001210A4A9C
:1046D00011700849C98F074A928F114488B2044962
:1046E0000988814202DB0021014A118070470000E5
:1046F00040000020CC0100203E000020800241420A
:10470000000041423F00002010B5FBF759FD4FF477
:104710007A7190FBF1F201FB12000A2190FBF1F09B
:1047200000B219490880FBF74BFD4FF47A7190FBFA
:10473000F1F201FB12000A2190FBF1F000B21249E4
:104740004880FBF73DFD41F2883190FBF1F201FB1F
:1047500012000E490881FBF733FDFF2190FBF1F2B7
:1047600001FB120009498880FBF72AFD4FF47A719A
:1047700090FBF1F201FB12000A2190FBF1F000B274
:104780000349088010BD0000300000208400002094
:104790002600002000000000000000000000F03FA4
:1047A000000000000000F83F0000000000000000D2
:1047B0000000004003B8E23F0000000000000000DD
:1047C00006D0CF43EBFD4C3E033333333333E33F6B
:1047D000FFAB6FDBB66DDB3F4D268F515555D53F97
:1047E00001411DA96074D13F65DBC9934A86CD3F65
:1047F000EF4E454A287ECA3F3E5555555555C53F53
:1048000093BDBE166CC166BF2CDE25AF6A56113F44
:10481000F16BD2C541BDBBBED0A4BE726937663E46
:104820004C5555555555A53F7751C1166CC156BFCE
:104830009015CB19A001FA3EAD529C804F7E92BEDE
:10484000C4B1B4BD9EEE213ED43888BEE9FAA8BDFD
:10485000000000000000000000004054FB21F93F70
:104860003163621A61B4D03D0000601A61B4D03D7A
:104870007370032E8A19A33B0000002E8A19A33BF4
:10488000C14920259A837B39000000000000000008
:104890006E83F9A22915444ED15727FCC0DD34F5AB
:1048A000999562DB4190433CAB6351FE61C5BBDE31
:1048B0003A6E24B7E0D24D42EA2E49061C92D10945
:1048C0001CEB1DFE3EA729B1F53582E88444BB2EC2
:1048D00026709CE9417E5FB439D69139F43953830F
:1048E0008B5F849C3B28F9BDFF97F81F0F9805DE6E
:1048F0008B112FEF1F6D0A5ACF7E366DB709CB276C
:10490000663F464F2DEA5F9EC7BA27757BF1E5EB00
:10491000F739073DEA92528AB15FFB6B085D8D1F44
:10492000A6F810111111813FD561C119A0012ABF4C
:104930007DFEB157E31DC73EEB9C2B8AE6E55ABED0
:104940007CD5CF5A3AD9E53D6849000800000020DF
:1049500060000000C0310008C84900086000002065
:10496000000A0000D031000800000000010203042A
:10497000010203040607080900000000000000000F
:104980000000000000000000000000000000000027
:104990000000000000000000000000000000000017
:1049A0000000000000000000000000000000000007
:1049B00000000000000000000000000000000000F7
:0849C0000000000000000000EF
:040000050800018965
:00000001FF
