:020000040800F2
:10000000F80A00209D010008070C0008FF0B0008FB
:10001000030C0008990A0008731A00080000000089
:100020000000000000000000000000003D1000087B
:100030000D0B000800000000D10E0008551100084B
:10004000B7010008B7010008B7010008B7010008B0
:10005000B7010008B70100080F0B0008B70100083E
:10006000B7010008B7010008B7010008B701000890
:10007000B7010008B7010008B7010008B701000880
:10008000B7010008B7010008B7010008B701000870
:10009000B7010008B7010008B7010008B701000860
:1000A000B7010008B7010008B7010008B701000850
:1000B00029120008B7010008A9130008B7010008B9
:1000C000B7010008B7010008B7010008B701000830
:1000D000B7010008C1160008E51600080518000859
:1000E000B7010008B7010008B7010008B701000810
:1000F000B7010008B7010008B7010008B701000800
:10010000B7010008B7010008B7010008B7010008EF
:10011000FD15000829160008B7010008B7010008FE
:10012000B7010008B7010008B7010008B7010008CF
:10013000B7010008B7010008B7010008B7010008BF
:10014000B7010008B7010008B7010008B7010008AF
:10015000B7010008B7010008B7010008B70100089F
:10016000B7010008B7010008B7010008B70100088F
:10017000B7010008B7010008B7010008B70100087F
:10018000B7010008B7010008DFF80CD000F040FB11
:10019000004800477D220008F80A002006488047F2
:1001A00006480047FEE7FEE7FEE7FEE7FEE7FEE75C
:1001B000FEE7FEE7FEE7FEE75911000889010008A7
:1001C00040EA01039B0703D009E008C9121F08C0D9
:1001D000042AFAD203E011F8013B00F8013B521E59
:1001E000F9D27047D2B201E000F8012B491EFBD2D0
:1001F00070470022F6E710B513460A460446194632
:10020000FFF7F0FF204610BD2DE9FE4F804681EA42
:100210000300C00F0C46009021F0004123F0004580
:10022000B8EB0200A94105D24046214690461C4643
:100230000B46024623F00040104347D0270DC7F37A
:100240000A00C3F30A510290401A019040286BDA69
:10025000C3F3130040F4801B0098924620B10023A2
:10026000D2EB030A63EB0B0B01985946C0F1400235
:10027000504600F007FA06460D4650465946019A88
:1002800000F01FFA10EB08006141002487EA1152C8
:1002900084EAE7731A4340D0009A62B3019A012AB4
:1002A0004FEA075215DC001B61EB02014FF00042E0
:1002B00002EA0752CDE90042001C41F580113246A6
:1002C0002B4600F056FA03B0BDE8F08F40462146B9
:1002D000F9E7001B61EB0201001C41F580130018D7
:1002E0005B412018A2F5001747EB030140EAD570E7
:1002F000B6196D4111E06D084FEA360645EAC07542
:100300004FEA0752001B61EB0201001C41F580110E
:1003100049084FEA30000019514132462B4603B0DC
:10032000BDE8F04F00F016BA00980122400000230B
:10033000D0EB020263EBE073009821464FEAE074D1
:10034000B8EB000061EB0401E9E783F000435BE7F1
:1003500081F0004158E72DE9FE4F81EA030404F0E3
:10036000004421F0004100944FF0000B23F00043C3
:1003700050EA01045ED052EA03045BD0C3F30A548E
:10038000C1F30A552C44A4F2F3340194A0FB0254A7
:10039000C1F3130141F48011C3F3130343F4801339
:1003A00001FB024400FB034E840A970A44EA81548D
:1003B00047EA8357A4FB076802958D0A05FB07856A
:1003C0004FEA932C04FB0C542705029D4FEA065874
:1003D00047EA1637B5EB08056EEB070C870E920E51
:1003E00047EA811742EA8312A7FB0201B6EB0B0131
:1003F00064EB00042B0D43EA0C335E1844EB1C50F5
:10040000DA465146E7FB0201C5F313044FEA0B330A
:1004100043EA14534FEA0432019C43EA0603A4F171
:100420000C040294009CCDE900B400F0A2F903B0E2
:10043000BDE8F08F00200146F9E72DE9F04D81EA93
:10044000030404F0004B21F0004514464FF0000A6D
:1004500023F0004150EA050220D054EA01021DD0E9
:10046000C5F30A570246C5F31303C1F31300C1F3E2
:100470000A5640F4801543F48013A7EB0608101BBE
:10048000D64608F2FD3873EB050002D308F10108E7
:1004900001E092185B41B8F1000F03DA0020014639
:1004A000BDE8F08D00204FF48011064684460EE032
:1004B000171B73EB050705D3121B63EB05030643FC
:1004C0004CEA010C49084FEA300092185B4150EAAF
:1004D0000107EDD152EA030012D082EA040083EA58
:1004E0000501084305D0101BAB4106D201220023B1
:1004F00006E000224FF0004302E06FF001025310CB
:100500001AEB06004CEB085110EB0A0041EB0B0113
:10051000BDE8F04D00F01EB90EB5C10F80EAE070E5
:100520000844CA07002140F233438DE80E000A4612
:100530000B4600F01EF903B000BD0EB540F233418A
:1005400002910021CDE900110A460B4600F011F995
:1005500003B000BD70B5C1F30A5201F0004500249C
:10056000C1F3130140F2FF3341F480119A4201DAE2
:10057000002070BD40F233439A42A2F2334203DCC2
:10058000524200F08EF800E090402C43F1D04042FF
:1005900070BDC1F30A5210B5C1F3130140F2FF332D
:1005A00041F480119A4201DA002010BD40F2334339
:1005B0009A42A2F2334203DC524200F072F810BDBC
:1005C000904010BD00F0004230F000400AD0C10D54
:1005D00001F56071C0F3160042EA0151C2084007FC
:1005E00011437047002001467047000030B5041EDB
:1005F00071F1000404DB4FF00044404264EB010160
:10060000141E73F1000405DB1C464FF000435242F8
:1006100063EB04038B4208BF824230BD30B5041E39
:1006200071F1000404DB4FF00044404264EB01012F
:10063000141E73F1000405DB1C464FF000435242C8
:1006400063EB0403994208BF904230BD01F00043C0
:1006500030B421F0004150EA010206D00A0DA2F5A3
:100660006072C1F31301002A02DC30BC0020704725
:10067000440F44EAC104C100E01830BC00EBC25092
:1006800000F031B8202A04DB203A00FA02F1002001
:1006900070479140C2F1200320FA03F319439040C0
:1006A0007047202A04DB203A21FA02F0002170472B
:1006B00021FA02F3D040C2F12002914008431946CA
:1006C0007047202A06DBCB17203A41FA02F043EAB2
:1006D000E07306E041FA02F3D040C2F120029140FB
:1006E0000843194670470029A8BF7047401C4900BD
:1006F00008BF20F00100704710B4B0FA80FC00FA87
:100700000CF050EA010404BF10BC704749B1CCF1B1
:10071000200421FA04F411FA0CF118BF012121433D
:100720000843A3EB0C01CB1D4FEA00614FEA1020F8
:1007300042BF002010BC704700EBC350104400299A
:10074000A4BF10BC7047401C490008BF20F0010046
:1007500010BC704710B5141E73F1000408DA401C79
:1007600041F1000192185B411A4301D120F00100D0
:1007700010BD2DE9F04D92469B4611B1B1FA81F2C0
:1007800002E0B0FA80F220329046FFF77BFF044689
:100790000F4640EA0A0041EA0B0153465A46084315
:1007A00013D0114653EA010019D0C8F14002504657
:1007B000FFF777FF05460E46504659464246FFF77B
:1007C00061FF084305D0012004E020463946BDE81A
:1007D000F08D0020054346EAE0762C4337430A9823
:1007E0006305E40AA0EB08000022FD0A44EA47542E
:1007F0000A3002D500200146E9E7010510196941D8
:10080000DDE9084500196941BDE8F04DA2E70000A7
:10081000064C074D06E0E06840F0010394E807004D
:1008200098471034AC42F6D3FFF7B2FC0C2D000809
:100830002C2D000821B1826842F00102826003E0A1
:10084000826822F001028260704700000021084A9D
:100850001168084A1140D0E900231A4383681A43FB
:10086000C3681A431143044AC2F8041370470000D6
:1008700004230140E030FCFF0020014021B18268E8
:1008800042F48072826003E0826822F480728260A7
:10089000704721B1826842F40072826003E082688E
:1008A00022F400728260704730B5024600200023B7
:1008B0005068104C20400D790C6844EA0524204310
:1008C000506090680C4C2040D1E903542C438D6853
:1008D0002C434D7944EA450420439060D06A20F4CB
:1008E00070000C7D641EE4B2234340EA0350D062E2
:1008F00030BD0000FFFEFFFCFDF7FFC0F0B5044671
:100900000D4600200021092D11DDE068A5F10A0641
:1009100006EB4607072606FA07F18843A5F10A0603
:1009200006EB460603FA06F10843E0600CE0206996
:1009300005EB4507072606FA07F1884305EB450650
:1009400003FA06F108432061072A0FDA606B561E8E
:1009500006EB86071F2606FA07F18843561E06EBAC
:10096000860605FA06F10843606322E00D2A0FDAD5
:10097000206BD61F06EB86071F2606FA07F1884371
:10098000D61F06EB860605FA06F10843206310E041
:10099000E06AA2F10D0606EB86071F2606FA07F1AC
:1009A0008843A2F10D0606EB860605FA06F1084318
:1009B000E062F0BD816841F08041816070470000D5
:1009C00000B58DB00121084600F084FAF0200B90AC
:1009D00003208DF8300000208DF833000BA92C483F
:1009E00000F0A0F80121080200F094FA01210802A9
:1009F00000F0A0FA00214FF4807000F09BFA002074
:100A000007904FF470600A90002009904FF48030F6
:100A1000089007A8FFF71AFF0020019001208DF829
:100A200008008DF809000020039004900590042030
:100A30008DF8180001A91748FFF736FF032301229C
:100A400004211448FFF75AFF03230222052111480D
:100A5000FFF754FF03231A4606210E48FFF74EFF07
:100A60000323042207210B48FFF748FF012109480F
:100A7000FFF70FFF01210748FFF700FF012105489D
:100A8000FFF7D8FE0348FFF795FF0DB000BD00004B
:100A9000000002400020014000BFFEE7704721B186
:100AA000026842F00102026003E0026822F00102E3
:100AB0000260704710B500220268134B1A40CC68E0
:100AC0000B6823434C6923438C692343CC6923433C
:100AD0000C6A23434C6A23438C6A23434C6B2343A5
:100AE0008C6B23431A430260426922F00702D1E96A
:100AF0000B3423431A4342610B6943604B688360A4
:100B00008B68C36010BD00003F801CF0704710B5BB
:100B1000012000F001F810BD014908607047000095
:100B2000143C0140F0B50A4600210023002400BF18
:100B30003DE0012505FA01F3156805EA03049C422E
:100B400034D105684F000326BE40B54305601579D2
:100B50004E00B5400668354305601579012D02D079
:100B60001579022D16D185684F000326BE40B54386
:100B7000856055794E00B540866835438560456887
:100B800001268E40B5434560456896798E40B6B2E1
:100B900035434560C5684F000326BE40B543C56078
:100BA000D5794E00B540C6683543C560491C10294B
:100BB000BFD3F0BDF0B5002300244D07ED0E02FABF
:100BC00005F3CE1000F1200555F826504E07F70E1C
:100BD0000F26BE40B543CF1000F1200646F827503F
:100BE000CE1000F1200555F8265045EA0304CE103A
:100BF00000F1200545F82640F0BD0183704700BF95
:100C0000FEE700BFFEE7704770B5002100230F220A
:100C1000C4781CB3174C246804F4E064C4F5E064A1
:100C2000C4F30721C1F10404E3B20A4144789C40B3
:100C3000E1B28478144021430C07210E0E4C057854
:100C40006155047804F01F050124AC4005786D114E
:100C5000AD0005F1E025C5F8004109E0047804F095
:100C60001F050124AC40054D0678761145F8264055
:100C700070BD00000CED00E000E400E080E100E069
:100C80002DE9F0412DED0E8B0446B0EE408AF0EEDA
:100C9000608AB0EE419AF0EE619A0E4615461F4604
:100CA0003046FFF74AFC41EC1A0B9FED830B53ECE7
:100CB000102BFFF7C2FBC4E908012846FFF73DFCF3
:100CC00041EC1A0B9FED7C0B53EC102BFFF7B5FB9F
:100CD000C4E90A013846FFF730FC41EC1A0B9FEDDE
:100CE000760B53EC102BFFF7A8FBC4E90C0153EC77
:100CF000192B51EC180BFFF728FBC4E9020194ED06
:100D00000E2BB0EE420AF0EE620A94ED022BB0EE2A
:100D1000421AF0EE621A53EC102B51EC110BFFF754
:100D200014FBC4E9040194ED0E1BB0EE410AF0EE91
:100D3000610A53EC102B9FED621B51EC110BFFF776
:100D40000AFB41EC1B0B94ED021BB0EE410AF0EEE6
:100D5000610A53EC102BFFF7FBFA41EC1A0B94EDF0
:100D6000101BB0EE410AF0EE610A53EC102BFFF7B6
:100D70004BFAC4E9060194ED062BB0EE420AF0EE00
:100D8000620A94ED0C2BB0EE421AF0EE621A53ECAC
:100D9000102B51EC110BFFF7DEFA41EC1B0B94ED1D
:100DA000042BB0EE420AF0EE620A94ED0A2BB0EE8C
:100DB000421AF0EE621A53EC102B51EC110BFFF7B4
:100DC000CAFA41EC1D0B94ED022BB0EE420AF0EE94
:100DD000620A94ED082BB0EE421AF0EE621A53EC60
:100DE000102B51EC110BFFF7B6FA41EC1E0B53EC34
:100DF0001D2BFFF709FA41EC1C0B53EC1B2BFFF7E3
:100E000003FA41EC1A0B94ED001BB0EE410AF0EE30
:100E1000610A53EC102BFFF7F7F9C4E900019FEDCD
:100E20002A0B53EC102B51EC180BFFF7DFFB1DD0F6
:100E300094ED001BB0EE410AF0EE610A9FED221B1B
:100E400053EC112B51EC100BFFF7D0FB0ED994EDA6
:100E5000021BB0EE410AF0EE610A9FED1B1B53EC42
:100E6000112B51EC100BFFF7C1FB0BD29FED160BB2
:100E700084ED000B9FED140B84ED0E0B9FED120B18
:100E800084ED100B94ED0E0B84ED100B94ED020B22
:100E900084ED0E0B94ED001BB0EE410AF0EE610AFA
:100EA00051EC100BFFF775FB1FFA80F84046BDECC4
:100EB0000E8BBDE8F08100000000000080842E4110
:100EC00000000000000000400000000000000000E2
:100ED0007047000029B1064A12680243044B1A60A9
:100EE00004E0034A12688243014B1A607047000015
:100EF0003038024029B1064A12680243044B1A6096
:100F000004E0034A12688243014B1A6070470000F4
:100F10004038024029B1064A12680243044B1A6065
:100F200004E0034A12688243014B1A6070470000D4
:100F30004438024029B1064A12680243044B1A6041
:100F400004E0034A12688243014B1A6070470000B4
:100F500024380240F0B5002100220024022500269A
:100F60000223324F3F6807F00C0121B1042905D05C
:100F7000082937D105E02E4F076036E02D4F076076
:100F800033E02A4F3F1F3F68C7F38056274F3F1F6C
:100F90003F6807F03F036EB1264FB7FBF3F7DFF86A
:100FA0008CC0ACF1040CDCF800C0CCF3881C07FB4F
:100FB0000CF40CE01E4FB7FBF3F7DFF870C0ACF198
:100FC000040CDCF800C0CCF3881C07FB0CF4174FB2
:100FD0003F1F3F68C7F301477F1C7D00B4FBF5F757
:100FE000076002E0124F076000BF00BF0F4F3F686D
:100FF00007F0F0010909104F7A5C0768D740476095
:101000000A4F3F6807F4E051890A0B4F7A5C476842
:10101000D7408760054F3F6807F46041490B064F92
:101020007A5C4768D740C760F0BD000008380240CE
:101030000024F40000127A00000000207047000035
:101040000CB50020019000903448006840F48030D6
:101050003249086000BF3148006800F40030009059
:101060000198401C0190009818B90198B0F5A04F64
:10107000F1D12A48006800F4003010B1012000903E
:1010800001E0002000900098012846D1234840301C
:10109000006840F0805021494031086020480068D5
:1010A00040F440401E4908601C48083000681B4955
:1010B000083108600846006840F4004008600846AF
:1010C000006840F4A05008601648091F0860081F17
:1010D000006840F08070091F086000BF0F4800687A
:1010E00000F000700028F9D040F205700E49086049
:1010F0000A480830006820F00300084908310860F9
:101100000846006840F00200086000BF034808304D
:10111000006800F00C000828F8D10CBD003802402F
:101120000070004008544007003C0240042808D1E9
:101130004FF0E021096941F004014FF0E022116114
:1011400007E04FF0E021096921F004014FF0E022AF
:10115000116170477047000010B51548006840F4F1
:101160007000134908601348006840F001001149FD
:10117000086000200F49083108600E4800680E49D9
:1011800008400C4908600D48091D0860081F0068E8
:1011900020F48020091F0860002006490C310860F7
:1011A000FFF74EFF4FF0006001498039086010BD25
:1011B00088ED00E000380240FFFFF6FE103000240A
:1011C0001FB501210846FFF795FE5320ADF8040036
:1011D0000020ADF8060040F2E73002900020ADF8A4
:1011E0000C008DF80E0001A94FF0804000F0C4F90A
:1011F0000121880700F0EAF801221146900700F06B
:1012000005F91C208DF8000000208DF80100012058
:101210008DF802008DF803006846FFF7F5FC012108
:10122000880700F0D6F81FBD10B50121880700F02F
:10123000DCF868B107480068401C064908600120D6
:101240000549087001F0FAFA0121880700F0BEF89C
:1012500010BD0000200000201800002070B58AB0EA
:1012600004460D4601210220FFF744FE0121022021
:10127000FFF730FE3020009002208DF8040000209F
:101280008DF8060003208DF8050001208DF8070079
:1012900069462848FFF746FC022204212548FFF74B
:1012A00089FC022205212348FFF784FC0894ADF84D
:1012B0001C500020ADF82400ADF81E0007A91E4800
:1012C00000F05AF96020ADF808000120ADF80A00DE
:1012D00000200490ADF8140002A9174800F0A0F80F
:1012E0000821154800F0DAF86020ADF80800012068
:1012F000ADF80A0000200490ADF8140002A90E48D1
:1013000000F0D6F808210C4800F024F901210A4821
:1013100000F05FF8264604EBD6704110064800F056
:1013200026F904EBD6704110034800F022F90AB008
:1013300070BD000000040240000400401FB5012100
:101340000420FFF7D7FD5320ADF804000020ADF8CE
:101350000600092002900020ADF80C008DF80E0068
:1013600001A9104800F008F901210E4800F02EF8FC
:10137000012211460B4800F049F81E208DF80000AC
:1013800007208DF8010000208DF8020001208DF863
:1013900003006846FFF738FC0121024800F019F805
:1013A0001FBD00000008004010B50121064800F0F4
:1013B0001CF838B101F08CF901F0A6F901210248BE
:1013C00000F004F810BD000000080040CA4302828B
:1013D000704721B1028842F00102028004E00288D5
:1013E0004FF6FE731A400280704730B50246002067
:1013F00000230024158A05EA0103958905EA010402
:1014000013B10CB1012000E0002030BD1AB1838976
:101410000B43838102E083898B4383817047000003
:1014200070B5002400220023058C4FF6FE7635406F
:101430000584028C8388048B4FF68F752C40B51E73
:101440002C400D882C43751E2A408D892A434D88D7
:101450002A43104DA84202D00F4DA84213D14FF697
:10146000F7752A40CD892A434FF6FB752A408D88AF
:101470002A434FF6FF652B404FF6FF552B400D8A50
:101480002B434D8A2B43838004838D6845630284FC
:1014900070BD000000000140000401400A46002128
:1014A000018B4FF6F7731940114301837047000019
:1014B00070B5002400220023058C4FF6EF763540EE
:1014C0000584028C8388048B48F6FF752C404FF608
:1014D000FF452C400D884FF6FF7606EA05252C4384
:1014E0004FF6DF752A408D8906EA05152A434D8897
:1014F00006EA05152A43154DA84202D0144DA8420C
:101500001DD14FF67F752A40CD894FF6FF7606EA4A
:1015100005152A434FF6BF752A408D8806EA051542
:101520002A434FF6FF352B404FF2FF752B400D8AB3
:1015300006EA85052B434D8A06EA85052B43838001
:1015400004838D688563028470BD00000000014043
:10155000000401400A460021018B4FF2FF7319403D
:101560004FF6FF7303EA0223194301837047416377
:10157000704781637047000000220288184B984230
:101580000ED0184B98420BD0B0F1804F08D0164BBC
:10159000984205D0154B984202D0154B984204D181
:1015A0004FF68F731A404B881A43124B984207D05C
:1015B000114B984204D04FF6FF431A400B891A434F
:1015C00002804B68C3620B880385054B984202D0AA
:1015D000044B984201D18B7A0386012383827047A2
:1015E00000000140000401400004004000080040E9
:1015F000000C0040001000400014004010B540F204
:101600002551084800F072F958B140F225510548BB
:1016100000F044F9034800F023FAC4B2204600F079
:101620003FFF10BD004C004010B540F2255120484E
:1016300000F05CF900283AD040F225511C4800F037
:101640002DF91B4800F00CFAC1B21A480278007854
:10165000401C184B1870184881540078162803D184
:10166000184600785A2803DD0020124908701EE051
:10167000104800780B281ADB0F480179C07801EB7D
:10168000002000B20D4908800B488179407901EBB8
:10169000002000B2094948800748017AC07901EB6F
:1016A000002000B20549888000200249087010BD62
:1016B00000500040380000204E0100203000002083
:1016C00010B540F22551064800F010F930B1044839
:1016D00000F0C6F9C4B2204600F0E2FE10BD0000E2
:1016E0000010014010B5002440F22551414800F09F
:1016F000FDF800287CD040F225513E4800F0CEF89D
:101700003C4800F0ADF9C1B23B4802780078401C7B
:10171000394B1870394881540078012803D1184694
:1017200000785A2803DD00203349087060E0324811
:101730000078022800DA10BD30484078062854D1DD
:101740002D480078142853DB2C48807C2B49C97C19
:1017500040EA01241221294800F024FCA04240D193
:10176000264840792549897940EA012024490881A1
:10177000002088802148007A00F001011F48C079CC
:1017800061F35F001D49497A01F0010140EA8100DF
:101790001A49897A01F0010140EAC1001749C97A62
:1017A00001F0010140EA01101449097B01F0010137
:1017B00040EA41101149497B01F0010140EA8110E2
:1017C0000E49897B01F0010140EAC1100B49C97B38
:1017D00001F0010140EA01200949898808430849CC
:1017E000888000200449087002E000200249087047
:1017F00000BFA0E700440040240000208600002035
:101800007C00002010B540F22551204800F06EF811
:1018100000283AD040F225511C4800F03FF81B4800
:1018200000F01EF9C1B21A4802780078401C184B2B
:101830001870184881540078162803D1184600788B
:101840005A2803DD0020124908701EE01048007875
:101850000B281ADB0F480179C07801EB002000B299
:101860000D4908800B488179407901EB002000B2D6
:10187000094948800748017AC07901EB002000B28D
:101880000549888000200249087010BD00480040CA
:101890002E000020EA0000202600002010B50022C3
:1018A000002340F66A14A14200D100BF0A120124AD
:1018B0009440A3B2DC43048010BD21B1828942F47C
:1018C0000052828104E082894DF6FF731A408281C2
:1018D000704702460020B1F5007F00D100BF138899
:1018E0000B400BB1012000E00020704770B50246AC
:1018F000002400230025002040F66A16B14200D1E2
:1019000000BFC1F3421501F01F03012606FA03F3DD
:10191000012D02D19689334006E0022D02D1168AAC
:10192000334001E0968A33400C12012606FA04F493
:101930001688344013B10CB1012000E0002070BDC6
:10194000F0B50346002400260025002040F66A1763
:10195000B94200D100BF1846C1F3421401F01F067E
:10196000012707FA06F5012C01D10C3004E0022C06
:1019700001D1103000E014301AB107682F4307601E
:1019800002E00768AF430760F0BD00002DE9FF47A4
:1019900005460E460024A14600BFA046B08900B10E
:1019A00000BF2C8A24F44054F08804432C82AC8974
:1019B00041F20C608443B08831890843718908433F
:1019C0000443AC81AC8A24F44074B0890443AC82F3
:1019D0006846FFF7BFFA2048854202D01F4885427B
:1019E00002D1DDF80C9001E0DDF80890A88900F440
:1019F000004040B109EBC90000EB09103168490013
:101A0000B0FBF1F707E009EBC90000EB0910316802
:101A10008900B0FBF1F76420B7FBF0F00401200966
:101A2000642101FB1078A88900F4004040B1322005
:101A300000EBC800B0FBF1F000F00700044308E041
:101A4000322000EB08106421B0FBF1F000F00F0031
:101A500004432C81BDE8FF870010014000140140C1
:101A600001468888C0F308007047C1F308028280ED
:101A7000704700BFFEE702E008C8121F08C1002A35
:101A8000FAD170477047002001E001C1121F002AFF
:101A9000FBD1704700B52E4890F900002D4991F90F
:101AA0000010884223D02A4800782A490870284824
:101AB000007801280BD128480068284908600846AA
:101AC000006800F027FA0020234908600FE0204852
:101AD00090F90000401C50B91F4800682049086078
:101AE0000846006800F016FA00201B4908601848F4
:101AF0000078A0B91B4801880088401C194A108052
:101B0000B1F5FA7F0EDD4FF4FA701146088000201F
:101B100013490860114908600D49488002E000201F
:101B2000104908800E4800680C49096808444EF6C0
:101B30006021B1FBF0F00649488109480068642142
:101B4000484306490968B0FBF1F00149888100BDAE
:101B5000B801002043000020200000204C0000209D
:101B6000480000204400002000B58FB00121880506
:101B7000FFF7B0F91348019013480290002003903A
:101B800004200490002005904FF4806006904000EF
:101B90000790800008904011099040020A900020B0
:101BA0000B9001200C9000200D900E900090694643
:101BB0000648FEF77FFF01210448FEF770FF0FB0D3
:101BC00000BD00004C20014068000020106402406D
:101BD0002DE9F04104460D4616464FF6FF700021F0
:101BE00014E0625C50404FF0000C0AE000F0010786
:101BF000401017B14AF2010250400CF1010202F00C
:101C0000FF0CBCF1080FF1DB4A1CD1B2A942E8DBA2
:101C100002464FEAE07800EB18684FEA2828A0EB6C
:101C2000082886F800804FEAE07800EB18684FEA51
:101C3000182883F80080BDE8F081000010B5064840
:101C4000C08E00B110BDFEF729FF00F04DFB00F083
:101C5000EDFC00BFF6E70000CC01002010B586B017
:101C60000024142205A101A8FEF7AAFA1424214693
:101C700001A800F05DFE06B010BD000001060F00D7
:101C80000000000000000000000000000000864D81
:101C90002DE9F04186B005460E46174698460024C9
:101CA0001CA30FCB8DE80F000E241E49087809787D
:101CB000491C1C4A117000EBD0714910A0EB410186
:101CC000012904D1FFF7CAFF06B0BDE8F081E8B2F0
:101CD0008DF8050028128DF806008DF807608DF844
:101CE00008708DF80980A01EC1B204AB05AA684631
:101CF000FFF76EFF9DF81410A01E0DF800109DF860
:101D00001010601E0DF800102146684600F010FE0D
:101D100000BFD9E701030900000000000000000037
:101D20003C550000250000204FF47A7013490882CA
:101D30004FF48660C8854FF47A70C8852020888764
:101D40000520C8874FF47A70A1F840000020A1F860
:101D50004200A1F844004FF47A70A1F84600002038
:101D6000A1F84800A1F84A004FF47A70A1F84C009D
:101D70000020A1F84E00A1F850007047CC010020CF
:101D800010B505490889002301221146FFF780FF9D
:101D900000F064F810BD0000CC01002010B504462E
:101DA0006FF00400FFF7C2F9E11704EB5171C1F3C2
:101DB000C701074A11701046007800EB4001C1EBE3
:101DC000C0104FF6FF7101EAC0000249088010BD43
:101DD000100000201200002070B504464FF4077078
:101DE00094FBF0F0C6B24FF4077094FBF0F100FBE7
:101DF000114085B205E04FF4077000F009F8701E3D
:101E0000C6B2002EF7D115B1284600F001F870BD1A
:101E10000146114A12884A434FF0E0235A610022DA
:101E20009A611A46126942F001021A6100BF4FF02E
:101E3000E022106900F001021AB100F48032002A99
:101E4000F5D04FF0E022126922F001024FF0E023BA
:101E50001A6100229A6170471200002010B51148E3
:101E60000088114908800F48408848800F48008941
:101E700088800E488088C8800D48008848810D48B9
:101E8000408948860B48808988860A48408888852A
:101E90000848C088C8810846008B0886084600F0BC
:101EA000A1FB10BD30000020CC0100207C000020F0
:101EB00026000020B80100200146042901DD002091
:101EC0007047024830F81100FAE70000680000206F
:101ED0000E4890F900000E4991F90010884209D08F
:101EE0000A48007830B100200849086108460078A7
:101EF000074908700548007838B10448006903496B
:101F0000B1F902100844014908617047B801002086
:101F1000420000200021214A1278012A1CD11F4AC8
:101F20001269524242434FF47A73B2FBF3F23C23FC
:101F3000B2FBF3F20A23B2FBF3F1194A128D184BEC
:101F40005A851A46D28C1A851A46928CDA841A4619
:101F5000528C9A8459841FE0104A92F90020521C36
:101F6000D2B90E4A126942434FF47A73B2FBF3F2CC
:101F70003C23B2FBF3F20A23B2FBF3F1084AD28B03
:101F8000074B1A841A46928BDA831A46528B9A832D
:101F90001A46128B5A83198370470000B80100203B
:101FA000CC01002070B502460B464FF6FF700021B1
:101FB00010E0565C7040002408E000F0010540107D
:101FC00015B14AF201067040661CB4B2082CF4DB6D
:101FD0004E1CB1B29942ECDB70BD000010B52DED86
:101FE000088B9FED7F0BB0EE408AF0EE608A7E4852
:101FF000C0887D4908810020FFF75EFF0446FEF798
:102000009CFA41EC180B51EC180BFEF71FFB09EE84
:10201000100AB0EE490A754800F0A6FB10EE104A0F
:102020002046FEF7CFFA41EC180B9FED710B53ECF5
:10203000102B51EC180BFEF700FA41EC190B9FED39
:102040006E0B53EC102BFEF786F941EC180B9FED4D
:102050006C0B53EC102B51EC180BFEF77CF941EC98
:10206000190B9FED690B53EC102BFEF76EF941EC49
:10207000180B9FED670B53EC102B51EC180BFEF770
:10208000CDFA06D29FED620BB0EE408AF0EE608A88
:102090000EE09FED530B53EC102B51EC180BFEF799
:1020A000A5FA05D89FED4E0BB0EE408AF0EE608A9F
:1020B00059480088401C584908805849088AFEF74A
:1020C0003CFA41EC1A0B9FED560B53EC102B51ECE4
:1020D000180BFEF799F841EC1B0B53EC1A2BFEF78B
:1020E00034F941EC190BFEF754FA3F49C880084611
:1020F000408888800120FFF7DFFE0446FEF71DFAC6
:1021000041EC180B51EC180BFEF7A0FA09EE100A7F
:10211000B0EE490A444800F027FB10EE104A204672
:10212000FEF750FA41EC180B9FED400B53EC102BCF
:1021300051EC180BFEF772FA06D29FED3C0BB0EE95
:10214000408AF0EE608A0EE09FED3A0B53EC102BC4
:1021500051EC180BFEF74AFA05D29FED360BB0EEA4
:10216000408AF0EE608A2D49C88DFEF7E6F941EC11
:102170001A0B9FED2B0B53EC102B51EC180BFEF7A9
:1021800043F841EC1B0B53EC1A2BFEF7DEF841EC45
:10219000190BFEF7DFF900B213494880B1F90200CC
:1021A000002801DB014600E04142032903DA002058
:1021B0000D49087010E00C48B0F90200002803DD5A
:1021C00001200949087007E00748B0F9020000281B
:1021D00002DAFF2004490870BDEC088B10BD000036
:1021E0000000000000000000B801002030020020C4
:1021F000000000000000B0406666666666660A4041
:102200000000000000409F400000000000007940F6
:10221000000000000088B3403C000020CC010020FA
:102220000000000000408F40460200200000000037
:1022300000C062400000000000C062C01CB5012167
:102240000420FEF747FE42F20F00009001208DF8B7
:10225000040000208DF8060003208DF80500012001
:102260008DF8070069460448FEF75CFC0F21024820
:10227000FEF7C3FC1CBD000000080240A820FFF7C9
:102280008DFD4FF4FA60FFF7A7FD1648FEF762FEDA
:10229000FFF7D4FFFFF768FCFEF792FB532140F2F3
:1022A000F310FEF7DBFFFEF78BFFFFF747F84FF465
:1022B000165000F087FC4FF4165000F0E3FA4FF48C
:1022C000165000F053FB4FF4165000F0A3FB4FF4F0
:1022D000165000F011FCFFF727FD01E000F070FA46
:1022E000FCE700005800002010B52DED048B1649C6
:1022F000B1F90000FEF710F941EC180B1349888979
:10230000FEF71BF941EC190B1048B0F84A30B0F851
:102310004820B0F84610B0EE481AF0EE681AB0EE59
:10232000490AF0EE690A0A48FEF7AAFC074908873D
:102330000846008FB0F5FA7F02DD4FF4FA70088787
:10234000BDEC048B10BD000026000020CC01002055
:102350006002002070B5C2B005464FF4807102A83B
:10236000FDF747FF002400262F4840788DF808002D
:102370002D4880788DF809002B480179C07841EA12
:10238000002629488179407941EA00204006000E64
:102390008DF80A009DF80A0000EBD0714C10002067
:1023A00001901DE09DF80400304435F81000011242
:1023B0009DF80400032202EB400002AA11549DF88C
:1023C0000400304415F810109DF80400042202EBBC
:1023D000400002AA11549DF80400401CC0B20190B4
:1023E0009DF80400A042DDDB9DF80A00C01CC4B2C9
:1023F0006B4601AA214602A8FFF7EAFB9DF80400FC
:1024000002A908559DF8001002AA601C1154A01CD6
:10241000C4B2214602A800F017FA214602A800F033
:102420004DFB42B070BD0000F002002070B50546C3
:102430000026002408240B480179C07841EA0026D0
:1024400008488179407941EA002025F816002146A4
:102450000448401C00F0F8F921460248401C00F0F6
:102460002DFB70BDF00200207CB5054606242146F8
:102470006B4601AA0948FFF7ABFB9DF8041007481B
:1024800001559DF80020611C4254A41C214600F017
:10249000DBF92146014800F011FB7CBDF102002070
:1024A00070B506464B4801780078401C494A1070C8
:1024B0004948465410460078012800DC70BD464863
:1024C000407810283BD143480078022878DD424804
:1024D00080790830414908703E4800780978884280
:1024E0006EDD3C480078801E3B49095C3948007825
:1024F000401E394A105C41EA002536480078801EAB
:10250000C1B21046FFF74EFDA84214D13148007801
:1025100033490870002406E02F48015D3048401C14
:102520000155601CC4B22B4800788442F4DB0120C2
:102530002B4981F8010200202649087040E0264816
:102540004078032803D024484078062835D1072056
:10255000224908701F4800780978884230DD1D48FC
:102560000078801E1C49095C1A480078401E1A4AEF
:10257000105C41EA002517480078801EC1B2104661
:10258000FFF710FDA84214D11248007814490870D2
:10259000002406E01048015D1148401C0155601CF4
:1025A000C4B20C4800788442F4DB01200C4981F865
:1025B000010200200749087002E000200549087068
:1025C00004480078FA2802DD00200249087000BFA4
:1025D00074E7000055000020F205002054000020A0
:1025E000F002002010B504460F4890F801020128BF
:1025F00015D10D488078032804D0062806D010286D
:102600000CD107E02046FFF7A5FE07E02046FFF7C4
:102610000DFF03E02046FFF727FF00BF00BF0020AB
:10262000014981F8010210BDF002002010B52DED26
:10263000048B2348B0F85200012804D12048C08AF6
:102640001F49488730E01F480078012829D11D48DC
:10265000B0F902001B49B1F90410401A002820DD2E
:102660001849C888FDF769FF41EC180B1449488ADE
:10267000FDF763FF41EC190B1148B0F85030B0F88A
:102680004E20B0F84C10B0EE481AF0EE681AB0EEDA
:10269000490AF0EE690A0C48FEF7F2FA0849488741
:1026A00002E00020064948870548408FB0F5FA7FD0
:1026B00003DD4FF4FA7002494887BDEC048B10BD6E
:1026C000CC010020B8010020A802002070470000C3
:1026D0000B4801780078401C094A1070322903DA4F
:1026E00001200849086002E000200649086004480B
:1026F0000078642802DB0020014908707047000060
:1027000014000020880241420B4801780078401CE8
:10271000094A1070322903DA01200849086002E0F2
:1027200000200649086004480078642802DB002085
:102730000149087070470000150000208C024142DA
:1027400010B5FFF74BFCFFF7A5F90548418F054889
:10275000FEF70DFF0248018F0248FEF70AFF10BD89
:10276000CC01002000040040F0EE400ADFED131A17
:10277000B0EE611AFCEEE01A11EE901A828A20F88F
:102780001210818A491C0A2291FBF2F302FB1311F9
:10279000818200210AE030F8112001EE902AF8EE43
:1027A000611A71EE811AB0EE611A491C0A29F2DB36
:1027B000F2EE041A81EE210A7047000000000000CA
:1027C00010B51B48007800B910BD002018490870EA
:1027D00018480068401C1749086008460068052131
:1027E000B0FBF1F201FB120008B9FFF7A9FF114895
:1027F00000686421B0FBF1F201FB120018B9FFF789
:10280000BFFAFFF71BFA0B4800684FF4FA71B0FBF0
:10281000F1F201FB120048B90748006808B901202D
:1028200000E0002004490860FFF750FF00BFCBE73D
:10283000180000201C000020B402414200B500F046
:1028400017FAFFF745FB00BD70B505460E4600249C
:102850000CE000BF40210A48FFF73BF80028F9D000
:10286000295D0748FFF701F9601C84B2B442F0DB30
:1028700000BF40210248FFF72CF80028F9D070BDB6
:102880000010014010B588B0044601210846FEF74B
:1028900021FB01214804FEF72DFB0C2006900220AD
:1028A0008DF81C008DF81D0000208DF81E00012001
:1028B0008DF81F0006A91C48FEF734F907220221F3
:1028C0001948FEF777F9072203211748FEF772F936
:1028D00002940020ADF80C00ADF80E00ADF8100029
:1028E000ADF814000C20ADF8120002A90F48FFF754
:1028F0004DF826208DF8040002208DF805000120F7
:102900008DF806008DF8070001A8FEF77DF9012279
:1029100040F225510548FFF713F801210348FEF75F
:10292000CCFF08B010BD0000000002400044004091
:1029300070B505460E4600240CE000BF40210A4851
:10294000FEF7C7FF0028F9D0295D0748FFF78DF88B
:10295000601C84B2B442F0DB00BF40210248FEF7A5
:10296000B8FF0028F9D070BD0044004010B588B011
:10297000044601218804FEF7BDFA01210220FEF77A
:10298000A9FA4FF44060069002208DF81C008DF8E3
:102990001D0000208DF81E008DF81F0006A91B48A1
:1029A000FEF7C0F807220A211848FEF703F90722AC
:1029B0000B211648FEF7FEF802940020ADF80C003B
:1029C000ADF80E00ADF810000C20ADF8120000209C
:1029D000ADF8140002A90E48FEF7D8FF012240F21C
:1029E00025510B48FEF7ACFF01210948FEF765FFB2
:1029F00027208DF8040002208DF8050001208DF8B5
:102A0000070001A8FEF700F908B010BD000402405D
:102A10000048004010B588B004460121C804FEF704
:102A200069FA01210420FEF755FA4FF44060069040
:102A300002208DF81C008DF81D0000208DF81E006E
:102A40008DF81F0006A91B48FEF76CF808220A2122
:102A50001848FEF7AFF808220B211648FEF7AAF82F
:102A600002940020ADF80C00ADF80E00ADF8100097
:102A70000C20ADF812000020ADF8140002A90E4899
:102A8000FEF784FF012240F225510B48FEF758FF64
:102A900001210948FEF711FF34208DF804000320BE
:102AA0008DF8050001208DF8070001A8FEF7ACF8AD
:102AB00008B010BD00080240004C004070B505464B
:102AC0000E4600240CE000BF40210A48FEF701FF3B
:102AD0000028F9D0295D0748FEF7C7FF601C84B2C3
:102AE000B442F0DB00BF40210248FEF7F2FE0028AE
:102AF000F9D070BD004C004010B588B004460121EB
:102B00000805FEF7F7F901210C20FEF7E3F94FF471
:102B10008050069002208DF81C008DF81D000020CA
:102B20008DF81E008DF81F0006A92348FDF7FAFF57
:102B30000420069002208DF81C008DF81D00002056
:102B40008DF81E008DF81F0006A91C48FDF7EAFF4E
:102B500008220C211848FEF72DF8082202211748F8
:102B6000FEF728F802940020ADF80C00ADF80E0036
:102B7000ADF810000C20ADF812000020ADF81400E4
:102B800002A90F48FEF702FF012240F225510C482E
:102B9000FEF7D6FE01210A48FEF78FFE35208DF89C
:102BA000040004208DF8050001208DF8070001A81D
:102BB000FEF72AF808B010BD00080240000C0240E1
:102BC0000050004010B588B0044601210846FEF7C9
:102BD00081F901211020FEF79DF9029407220921B5
:102BE0002148FDF7E7FF07220A211F48FDF7E2FF12
:102BF0004FF4C060069002208DF81C008DF81D0077
:102C000000208DF81E0001208DF81F0006A916482F
:102C1000FDF788FF0020ADF80C00ADF80E00ADF810
:102C20001000ADF814000C20ADF8120002A90F48F6
:102C3000FEF7ACFE01210D48FEF73FFE012240F2F7
:102C400025510A48FEF77CFE25208DF8040000205F
:102C50008DF805008DF8060001208DF8070001A809
:102C6000FDF7D2FF08B010BD000002400010014087
:102C7000002020490A880988491C1E4B19801E49DA
:102C8000898F8A4216DA1D49097839B900211C4A10
:102C9000116001211B4AC2F8841206E00121184A82
:102CA00011600021174AC2F8841214490978164AA3
:102CB000117010E00021124A1160124AC2F8841209
:102CC00011490978012903D100210C4A117002E051
:102CD00001210A4A11700849C98F074A928F11448D
:102CE00088B204490988814202DB0021014A11802F
:102CF0007047000040000020CC0100203E00002072
:102D000080024142000041423F0000202C2D00087B
:102D10000000002058000000761A0008842D0008EA
:102D200058000020A00A0000861A000800000000D9
:102D30000102030401020304060708090000000061
:102D40000000000000000000000000000000000083
:102D50000000000000000000000000000000000073
:102D60000000000000000000000000000000000063
:102D70000000000000000000000000000000000053
:042D8000000000004F
:040000050800018965
:00000001FF
