:020000040800F2
:10000000D80C00209D01000815100008E90F000819
:1000100011100008E50B0008732200080000000022
:10002000000000000000000000000000C9160008E9
:10003000E90C000800000000B9120008451800088B
:10004000B7010008B7010008B7010008B7010008B0
:10005000B7010008B7010008EB0C0008B701000861
:10006000B7010008B7010008B7010008B701000890
:10007000B7010008B7010008B7010008B701000880
:10008000B7010008B7010008B7010008B701000870
:10009000B7010008B7010008B7010008B701000860
:1000A000B7010008B7010008B7010008B701000850
:1000B00019190008B7010008C91A0008B70100089B
:1000C000B7010008B7010008B7010008B701000830
:1000D000B7010008A51E0008D51E0008F51F00087E
:1000E000B7010008B7010008B7010008B701000810
:1000F000B7010008B7010008B7010008B701000800
:10010000B7010008B7010008B7010008B7010008EF
:10011000CD1D0008FD1D0008B7010008B70100084B
:10012000B7010008B7010008B7010008B7010008CF
:10013000B7010008B7010008B7010008B7010008BF
:10014000B7010008B7010008B7010008B7010008AF
:10015000B7010008B7010008B7010008B70100089F
:10016000B7010008B7010008B7010008B70100088F
:10017000B7010008B7010008B7010008B70100087F
:10018000B7010008B7010008DFF80CD000F056FBFB
:1001900000480047913B0008D80C002006488047E3
:1001A00006480047FEE7FEE7FEE7FEE7FEE7FEE75C
:1001B000FEE7FEE7FEE7FEE74918000889010008B0
:1001C00040EA01039B0703D009E008C9121F08C0D9
:1001D000042AFAD203E011F8013B00F8013B521E59
:1001E000F9D27047D2B201E000F8012B491EFBD2D0
:1001F00070470022F6E710B513460A460446194632
:10020000FFF7F0FF204610BD2DE9FE4F804681EA42
:100210000300C00F0C46009021F0004123F0004580
:10022000B8EB0200A94105D24046214690461C4643
:100230000B46024623F00040104347D0270DC7F37A
:100240000A00C3F30A510290401A019040286BDA69
:10025000C3F3130040F4801B0098924620B10023A2
:10026000D2EB030A63EB0B0B01985946C0F1400235
:10027000504600F007FA06460D4650465946019A88
:1002800000F01FFA10EB08006141002487EA1152C8
:1002900084EAE7731A4340D0009A62B3019A012AB4
:1002A0004FEA075215DC001B61EB02014FF00042E0
:1002B00002EA0752CDE90042001C41F580113246A6
:1002C0002B4600F056FA03B0BDE8F08F40462146B9
:1002D000F9E7001B61EB0201001C41F580130018D7
:1002E0005B412018A2F5001747EB030140EAD570E7
:1002F000B6196D4111E06D084FEA360645EAC07542
:100300004FEA0752001B61EB0201001C41F580110E
:1003100049084FEA30000019514132462B4603B0DC
:10032000BDE8F04F00F016BA00980122400000230B
:10033000D0EB020263EBE073009821464FEAE074D1
:10034000B8EB000061EB0401E9E783F000435BE7F1
:1003500081F0004158E72DE9FE4F81EA030404F0E3
:10036000004421F0004100944FF0000B23F00043C3
:1003700050EA01045ED052EA03045BD0C3F30A548E
:10038000C1F30A552C44A4F2F3340194A0FB0254A7
:10039000C1F3130141F48011C3F3130343F4801339
:1003A00001FB024400FB034E840A970A44EA81548D
:1003B00047EA8357A4FB076802958D0A05FB07856A
:1003C0004FEA932C04FB0C542705029D4FEA065874
:1003D00047EA1637B5EB08056EEB070C870E920E51
:1003E00047EA811742EA8312A7FB0201B6EB0B0131
:1003F00064EB00042B0D43EA0C335E1844EB1C50F5
:10040000DA465146E7FB0201C5F313044FEA0B330A
:1004100043EA14534FEA0432019C43EA0603A4F171
:100420000C040294009CCDE900B400F0A2F903B0E2
:10043000BDE8F08F00200146F9E72DE9F04D81EA93
:10044000030404F0004B21F0004514464FF0000A6D
:1004500023F0004150EA050220D054EA01021DD0E9
:10046000C5F30A570246C5F31303C1F31300C1F3E2
:100470000A5640F4801543F48013A7EB0608101BBE
:10048000D64608F2FD3873EB050002D308F10108E7
:1004900001E092185B41B8F1000F03DA0020014639
:1004A000BDE8F08D00204FF48011064684460EE032
:1004B000171B73EB050705D3121B63EB05030643FC
:1004C0004CEA010C49084FEA300092185B4150EAAF
:1004D0000107EDD152EA030012D082EA040083EA58
:1004E0000501084305D0101BAB4106D201220023B1
:1004F00006E000224FF0004302E06FF001025310CB
:100500001AEB06004CEB085110EB0A0041EB0B0113
:10051000BDE8F04D00F01EB90EB5C10F80EAE070E5
:100520000844CA07002140F233438DE80E000A4612
:100530000B4600F01EF903B000BD0EB540F233418A
:1005400002910021CDE900110A460B4600F011F995
:1005500003B000BD70B5C1F30A5201F0004500249C
:10056000C1F3130140F2FF3341F480119A4201DAE2
:10057000002070BD40F233439A42A2F2334203DCC2
:10058000524200F08EF800E090402C43F1D04042FF
:1005900070BDC1F30A5210B5C1F3130140F2FF332D
:1005A00041F480119A4201DA002010BD40F2334339
:1005B0009A42A2F2334203DC524200F072F810BDBC
:1005C000904010BD00F0004230F000400AD0C10D54
:1005D00001F56071C0F3160042EA0151C2084007FC
:1005E00011437047002001467047000030B5041EDB
:1005F00071F1000404DB4FF00044404264EB010160
:10060000141E73F1000405DB1C464FF000435242F8
:1006100063EB04038B4208BF824230BD30B5041E39
:1006200071F1000404DB4FF00044404264EB01012F
:10063000141E73F1000405DB1C464FF000435242C8
:1006400063EB0403994208BF904230BD01F00043C0
:1006500030B421F0004150EA010206D00A0DA2F5A3
:100660006072C1F31301002A02DC30BC0020704725
:10067000440F44EAC104C100E01830BC00EBC25092
:1006800000F031B8202A04DB203A00FA02F1002001
:1006900070479140C2F1200320FA03F319439040C0
:1006A0007047202A04DB203A21FA02F0002170472B
:1006B00021FA02F3D040C2F12002914008431946CA
:1006C0007047202A06DBCB17203A41FA02F043EAB2
:1006D000E07306E041FA02F3D040C2F120029140FB
:1006E0000843194670470029A8BF7047401C4900BD
:1006F00008BF20F00100704710B4B0FA80FC00FA87
:100700000CF050EA010404BF10BC704749B1CCF1B1
:10071000200421FA04F411FA0CF118BF012121433D
:100720000843A3EB0C01CB1D4FEA00614FEA1020F8
:1007300042BF002010BC704700EBC350104400299A
:10074000A4BF10BC7047401C490008BF20F0010046
:1007500010BC704710B5141E73F1000408DA401C79
:1007600041F1000192185B411A4301D120F00100D0
:1007700010BD2DE9F04D92469B4611B1B1FA81F2C0
:1007800002E0B0FA80F220329046FFF77BFF044689
:100790000F4640EA0A0041EA0B0153465A46084315
:1007A00013D0114653EA010019D0C8F14002504657
:1007B000FFF777FF05460E46504659464246FFF77B
:1007C00061FF084305D0012004E020463946BDE81A
:1007D000F08D0020054346EAE0762C4337430A9823
:1007E0006305E40AA0EB08000022FD0A44EA47542E
:1007F0000A3002D500200146E9E7010510196941D8
:10080000DDE9084500196941BDE8F04DA2E770B582
:1008100021F0004303430CD0C1F30A550024D5EB6B
:10082000040564EB0403D617AD1AB34102DB0020C4
:10083000014670BD201841EB025170BD064C074DBA
:1008400006E0E06840F0010394E8070098471034A0
:10085000AC42F6D3FFF79CFC304E0008504E000827
:100860002DE9F04D00231A461B1A8A4103DB0020B4
:100870000146BDE8F08DC1F30A52C1F3130141F402
:1008800080154FF0000BD10702D100186D41521EA8
:100890000027044640F2FF11384601EB620A3E464B
:1008A0008046024600204FF48011FFF7FAFEC2197D
:1008B0007141BB1846EB0100B4EB030C75EB000C67
:1008C00004D3E41A65EB000517460E46241908F117
:1008D00001006D4180463428E3DDF91946EB06003E
:1008E000091BA84103D24FF0FF32134601E000225A
:1008F00013461BEB070046EB0A51BDE8F04DFFF72E
:1009000029BF21B1826842F00102826003E082685F
:1009100022F00102826070470021084A1168084AEB
:100920001140D0E900231A4383681A43C3681A436D
:100930001143044AC2F80413704700000423014025
:10094000E030FCFF0020014021B1826842F4807257
:10095000826003E0826822F480728260704721B175
:10096000826842F40072826003E0826822F40072BE
:100970008260704730B50246002000235068104C5A
:1009800020400D790C6844EA0524204350609068AB
:100990000C4C2040D1E903542C438D682C434D79F5
:1009A00044EA450420439060D06A20F470000C7D36
:1009B000641EE4B2234340EA0350D06230BD00001D
:1009C000FFFEFFFCFDF7FFC0F0B504460D4600201A
:1009D0000021092D11DDE068A5F10A0606EB4607A6
:1009E000072606FA07F18843A5F10A0606EB460634
:1009F00003FA06F10843E0600CE0206905EB4507C7
:100A0000072606FA07F1884305EB450603FA06F1C7
:100A100008432061072A0FDA606B561E06EB860733
:100A20001F2606FA07F18843561E06EB860605FACE
:100A300006F10843606322E00D2A0FDA206BD61F0F
:100A400006EB86071F2606FA07F18843D61F06EB3A
:100A5000860605FA06F10843206310E0E06AA2F179
:100A60000D0606EB86071F2606FA07F18843A2F15A
:100A70000D0606EB860605FA06F10843E062F0BDB6
:100A8000816841F080418160704700001CB5012100
:100A9000022000F02DFCC020009001208DF8040001
:100AA00000208DF8060003208DF8050001208DF848
:100AB00007006946034800F0FEF9C021014800F034
:100AC00070FA1CBD0004024010B580210E4800F0F1
:100AD00066FA02F087FD40210B4800F060FA02F050
:100AE00081FD4021084800F05CFA02F07BFD4021C6
:100AF000054800F054FA02F075FD8021024800F02C
:100B000050FA02F06FFD10BD0004024000B58DB038
:100B10000121084600F0ECFBF0200B9003208DF83B
:100B2000300000208DF833000BA92C4800F0C3F9E9
:100B30000121080200F0FCFB0121080200F008FC82
:100B400000214FF4807000F003FC002007904FF468
:100B500070600A90002009904FF48030089007A838
:100B6000FFF7DAFE0020019001208DF808008DF8D3
:100B70000900002003900490059004208DF81800CF
:100B800001A91748FFF7F6FE0323012204211448A8
:100B9000FFF71AFF0323022205211148FFF714FF74
:100BA00003231A4606210E48FFF70EFF03230422F3
:100BB00007210B48FFF708FF01210948FFF7CFFE87
:100BC00001210748FFF7C0FE01210548FFF799FE04
:100BD0000348FFF755FF0DB000BD000000000240C4
:100BE0000020014000BFFEE77047000010B504463A
:100BF00034B1012C08D0022C0AD0032C10D10BE008
:100C0000C2201A4908700CE0D2201849087008E088
:100C1000E2201649087004E0F2201449087000E050
:100C200000BF00BF902012490870012048700F4893
:100C300000788870E320C87000F0BEFD00200D49E8
:100C400008700CE00A490B4A1278885C01F014FB2A
:100C500000F05CFC07480078401C06490870054815
:100C600000780428EEDB00F0C3FD10BD6C0000200E
:100C70001E0200206D00002021B1026842F0010236
:100C8000026003E0026822F0010202607047000087
:100C900010B500220268134B1A40CC680B6823433E
:100CA0004C6923438C692343CC6923430C6A234357
:100CB0004C6A23438C6A23434C6B23438C6B234342
:100CC0001A430260426922F00702D1E90B34234340
:100CD0001A4342610B6943604B6883608B68C36051
:100CE00010BD00003F801CF0704710B5012000F0DF
:100CF00001F810BD0149086070470000143C014034
:100D000001490860704700000C3C024030B10749BF
:100D1000096841F48061054A116005E003490968EA
:100D200021F48061014A116070470000003C0240DC
:100D300070B504460A460026092502B909E0012AD1
:100D400001D1160205E0022A01D1160201E04FF49A
:100D5000407600F09FF80546092D28D11548006817
:100D600020F440701349086008460068304308606A
:100D70000846006820F0F80008600846006844F063
:100D8000020108430B4908600846006840F48030BF
:100D9000086000F07FF805460648006820F0020071
:100DA000044908600846006820F0F80008602846FA
:100DB00070BD0000103C024009201349096801F48D
:100DC0008031B1F5803F01D101201CE00E49096856
:100DD00001F0100109B1062015E00B49096801F482
:100DE000807109B102200EE00749096801F0EF01A6
:100DF00009B1072007E00449096801F0020109B1BF
:100E0000082000E0092070470C3C024003480068BD
:100E100040F000400149086070470000103C02406B
:100E200030B502460C46092500F034F80546092D78
:100E300019D10E48006820F440700C49086008463B
:100E4000006840F4007008600846006840F0010047
:100E50000860146000F01EF805460448006820F0A1
:100E6000010002490860284630BD0000103C0240E5
:100E70000548006800F0004028B1044802490C39D8
:100E80000860034808607047103C02402301674532
:100E9000AB89EFCD08B509200090FFF78DFF0090DA
:100EA00002E0FFF789FF00909DF800000128F8D0CC
:100EB0009DF8000008BDF0B50A460021002300247B
:100EC00000BF3DE0012505FA01F3156805EA0304BA
:100ED0009C4234D105684F000326BE40B5430560EF
:100EE00015794E00B5400668354305601579012D2A
:100EF00002D01579022D16D185684F000326BE4019
:100F0000B543856055794E00B540866835438560A8
:100F1000456801268E40B5434560456896798E4008
:100F2000B6B235434560C5684F000326BE40B543A1
:100F3000C560D5794E00B540C6683543C560491CCB
:100F40001029BFD3F0BDF0B5002300244D07ED0EEE
:100F500002FA05F3CE1000F1200555F826504E0791
:100F6000F70E0F26BE40B543CF1000F1200646F81D
:100F70002750CE1000F1200555F8265045EA03040D
:100F8000CE1000F1200545F82640F0BD02460020B5
:100F900013690B400BB1012000E000207047418332
:100FA000704701837047000010B504460C48047078
:100FB0002046FFF71BFE012002F038FB00F07EF90F
:100FC000012002F033FB0648007800F077FA05496B
:100FD0000860012002F02AFB0248008880B210BDA0
:100FE0006E0000207000002000BFFEE710B5FFF784
:100FF0004DFD40210548FFF7D4FF02F0F3FA8021B0
:101000000248FFF7CEFF02F0EDFA10BD00040240E7
:1010100000BFFEE77047000070B5002100230F22DB
:10102000C4781CB3174C246804F4E064C4F5E0648D
:10103000C4F30721C1F10404E3B20A4144789C409F
:10104000E1B28478144021430C07210E0E4C057840
:101050006155047804F01F050124AC4005786D113A
:10106000AD0005F1E025C5F8004109E0047804F081
:101070001F050124AC40054D0678761145F8264041
:1010800070BD00000CED00E000E400E080E100E055
:1010900002490143024A1160704700000000FA054E
:1010A0000CED00E02DE9F0412DED108B82B00446EF
:1010B000B0EE409AF0EE609AB0EE41AAF0EE61AA6E
:1010C0000D4616461F462846FFF737FA41EC1D0B22
:1010D0009FED710B53EC102BFFF7AFF9C4E90C0136
:1010E0003046FFF72AFA41EC1D0B9FED6B0B53ECDA
:1010F000102BFFF7A2F9C4E90E013846FFF71DFADD
:1011000041EC1D0B9FED640B53EC102BFFF795F991
:10111000C4E9100153EC1A2B51EC190BFFF715F928
:1011200041EC180B9FED5E0B84ED0A0B94ED0E1B4A
:10113000B0EE410AF0EE610A53EC182B51EC100BA3
:10114000FFF709F941EC1E0B94ED0A1BB0EE410AC2
:10115000F0EE610A53EC102BFFF7FDF841EC1D0B8C
:1011600094ED081BB0EE410AF0EE610A53EC102B2F
:10117000FFF74AF841EC1B0B94ED061BB0EE410A59
:10118000F0EE610A53EC102B51EC180BFFF7DDF871
:1011900041EC1D0B94ED0A1BB0EE410AF0EE610A22
:1011A00053EC102BFFF749F941EC1C0B94ED101B8D
:1011B000B0EE410AF0EE610A53EC1C2B51EC100B1F
:1011C000FFF7C9F841EC1D0B94ED0C1BB0EE410A82
:1011D000F0EE610A53EC182B51EC100BFFF7BBF843
:1011E00041EC1F0B53EC1B2BFFF70EF841EC1E0BD1
:1011F00053EC1D2BFFF708F8CDE9000194ED041B1B
:10120000B0EE410AF0EE610A9DED001B53EC112B8C
:1012100051EC100BFEF7F8FFC4E9040184ED068BD6
:1012200084ED08BB94ED041BB0EE410AF0EE610AB8
:101230009FED1D1B53EC112B51EC100BFFF7EEF93A
:1012400004D29FED190B84ED040B12E094ED041B06
:10125000B0EE410AF0EE610A9FED151B53EC112B25
:1012600051EC100BFFF7C2F903D29FED110B84ED87
:10127000040B94ED041BB0EE410AF0EE610A51EC50
:10128000100BFFF786F91FFA80F8404602B0BDEC5C
:10129000108BBDE8F0810000000000000088C34012
:1012A0009A9999999999B93F000000000000594016
:1012B00000000000000000007047000010B5902002
:1012C0000A4908700020487000F076FA002407E010
:1012D0000649085D00F0D0FF00F018F9601CC4B2A8
:1012E000022CF5DB00F084FA10BD0000280200207B
:1012F00029B1064A12680243044B1A6004E0034A0B
:1013000012688243014B1A60704700003038024077
:1013100029B1064A12680243044B1A6004E0034AEA
:1013200012688243014B1A60704700004038024047
:1013300029B1064A12680243044B1A6004E0034ACA
:1013400012688243014B1A60704700004438024023
:1013500029B1064A12680243044B1A6004E0034AAA
:1013600012688243014B1A60704700002438024023
:10137000F0B5002100220024022500260223324F6E
:101380003F6807F00C0121B1042905D0082937D1A5
:1013900005E02E4F076036E02D4F076033E02A4FFF
:1013A0003F1F3F68C7F38056274F3F1F3F6807F036
:1013B0003F036EB1264FB7FBF3F7DFF88CC0ACF1FB
:1013C000040CDCF800C0CCF3881C07FB0CF40CE028
:1013D0001E4FB7FBF3F7DFF870C0ACF1040CDCF87C
:1013E00000C0CCF3881C07FB0CF4174F3F1F3F686D
:1013F000C7F301477F1C7D00B4FBF5F7076002E0EF
:10140000124F076000BF00BF0F4F3F6807F0F001A9
:101410000909104F7A5C0768D74047600A4F3F6858
:1014200007F4E051890A0B4F7A5C4768D740876020
:10143000054F3F6807F46041490B064F7A5C4768E7
:10144000D740C760F0BD0000083802400024F40017
:1014500000127A000000002070B540211648FFF706
:101460009EFD02F0BFF880211348FFF79AFD02F0BD
:10147000B9F8012002F00CFE002516E002F0B2F8E7
:1014800040210D48FFF78DFD02F0ACF86006040E18
:1014900080210948FFF77AFD08B1601CC4B24021E1
:1014A0000548FFF77CFD681CC5B2082DE6DB00206F
:1014B00002F0EEFD204670BD0004024070B5054606
:1014C00000F07AF9912000F0D7FE00F01FF8FFF746
:1014D000C3FF0D49087000F019F8FFF7BDFF0A4976
:1014E0004870FFF7F1FA00F083F9074840780649A1
:1014F000097840EA0124B4F5004F02DBE043401CC8
:1015000084B2204670BD00003202002010B50024D5
:10151000012002F0BDFD40210F48FFF742FD02F01F
:1015200061F840210C48FFF73AFD02F05BF801E05A
:10153000601CC4B280210848FFF728FD012801D1B2
:10154000FF2CF5DB40210448FFF729FD02F04AF8A3
:10155000002002F09DFD10BD0004024001461C4821
:10156000814201D2002070471A48814201D20820EE
:10157000F9E71948814201D21020F4E71748814267
:1015800001D21820EFE71648814201D22020EAE775
:101590001448814201D22820E5E71348814201D254
:1015A0003020E0E71148814201D23820DBE71048C3
:1015B000814201D24020D6E70E48814201D2482024
:1015C000D1E70D48814201D25020CCE75820CAE72C
:1015D000004000080080000800C00008000001086A
:1015E00000000208000004080000060800000808C7
:1015F00000000A0800000C0800000E082DE9F04168
:1016000007460D461646002406E0384600F008F866
:1016100045F824003F1D641CB442F6D3BDE8F081B8
:1016200001460868704700002DE9F04704460E4661
:1016300017464FF009080025A946B4F1006F02D300
:1016400004F0030008B1BDE8F087FFF711FC0020AB
:10165000FFF75CFB254604EB87091A48854219D23F
:1016600015E02846FFF7DCFF401C78B140F2F3108C
:10167000FFF746FB2846FFF771FF82460221FFF77E
:1016800057FB8046B8F1090F01D002E02D1D4D45F2
:10169000E7D300BFB8F1090F0CD108E0204631684C
:1016A000FFF7BEFB092800D003E0241D361D4C4582
:1016B000F4D300BF0120FFF729FBFFF7A7FB00BF12
:1016C000C1E700000000FF1F704700000CB50020BC
:1016D000019000903448006840F48030324908603E
:1016E00000BF3148006800F4003000900198401CB1
:1016F0000190009818B90198B0F5A04FF1D12A488F
:10170000006800F4003010B10120009001E00020DA
:1017100000900098012846D123484030006840F0EE
:1017200080502149403108602048006840F4404022
:101730001E4908601C48083000681B4908310860D1
:101740000846006840F4004008600846006840F41D
:10175000A05008601648091F0860081F006840F084
:101760008070091F086000BF0F48006800F000701B
:101770000028F9D040F205700E4908600A48083088
:10178000006820F003000849083108600846006836
:1017900040F00200086000BF03480830006800F015
:1017A0000C000828F8D10CBD003802400070004041
:1017B00008544007003C024010B580210B48FFF759
:1017C000F0FB01F00FFF40210848FFF7EAFB01F0B2
:1017D00009FF80210548FFF7E2FB01F003FF4021EC
:1017E0000248FFF7DCFB01F0FDFE10BD00040240E3
:1017F00010B580210848FFF7D2FB01F0F3FE40212D
:101800000548FFF7CEFB01F0EDFE80210248FFF70F
:10181000C8FB01F0E7FE10BD00040240042808D117
:101820004FF0E021096941F004014FF0E02211611D
:1018300007E04FF0E021096921F004014FF0E022B8
:10184000116170477047000010B51548006840F4FA
:101850007000134908601348006840F00100114906
:10186000086000200F49083108600E4800680E49E2
:1018700008400C4908600D48091D0860081F0068F1
:1018800020F48020091F0860002006490C31086000
:10189000FFF71CFF4FF0006001498039086010BD60
:1018A00088ED00E000380240FFFFF6FE1030002413
:1018B0001FB501210846FFF72BFD5320ADF80400AA
:1018C0000020ADF8060040F2E73002900020ADF8AD
:1018D0000C008DF80E0001A94FF0804000F034FAA2
:1018E0000121880700F0FEF801221146900700F060
:1018F00019F91C208DF8000000208DF8010001204E
:101900008DF802008DF803006846FFF785FB012182
:10191000880700F0EAF81FBD10B50121880700F024
:10192000F0F860B106480068401C0549086002F004
:101930008BFF02F073FF0121880700F0D3F810BD80
:101940005000002070B58AB004460D4601210220E7
:10195000FFF7DEFC01210220FFF7CAFC31200090D6
:1019600002208DF8040000208DF8060003208DF879
:10197000050001208DF8070069463648FFF79BFAFD
:10198000022200213348FFF7DEFA02220421314807
:10199000FFF7D9FA022205212E48FFF7D4FA08945E
:1019A000ADF81C500020ADF82400ADF81E0007A9CA
:1019B000294800F0C9F97020ADF808000120ADF801
:1019C0000A0000200490ADF8140002A9224800F09B
:1019D000B3F80821204800F0EDF86020ADF80800C9
:1019E0000120ADF80A0000200490ADF8140002A90F
:1019F000194800F0E9F80821174800F037F970207D
:101A0000ADF808000120ADF80A0000200490ADF800
:101A1000140002A9104800F037F908210E4800F020
:101A200083F901210C4800F060F8264604EBD670DB
:101A30004110094800F081F904EBD67041100648C6
:101A400000F07DF904EBD6704110034800F079F9FD
:101A50000AB070BD00040240000400401FB501211F
:101A60000420FFF755FC5320ADF804000020ADF82A
:101A70000600092002900020ADF80C008DF80E0041
:101A800001A9104800F060F901210E4800F02AF881
:101A9000012211460B4800F045F81E208DF8000089
:101AA00007208DF8010000208DF8020001208DF83C
:101AB00003006846FFF7B0FA0121024800F015F86C
:101AC0001FBD00000008004010B50121044800F0CF
:101AD00018F818B10121024800F004F810BD000008
:101AE00000080040CA430282704721B1028842F0D8
:101AF0000102028004E002884FF6FE731A40028061
:101B0000704730B50246002000230024158A05EAFC
:101B10000103958905EA010413B10CB1012000E02D
:101B2000002030BD1AB183890B43838102E0838991
:101B30008B4383817047000070B50024002200238E
:101B4000058C4FF6FE7635400584028C8388048B25
:101B50004FF68F752C40B51E2C400D882C43751EFA
:101B60002A408D892A434D882A43104DA84202D02D
:101B70000F4DA84213D14FF6F7752A40CD892A435D
:101B80004FF6FB752A408D882A434FF6FF652B40A0
:101B90004FF6FF552B400D8A2B434D8A2B438380F4
:101BA00004838D684563028470BD0000000001401D
:101BB000000401400A460021018B4FF6F7731940DB
:101BC000114301837047000070B5002400220023F8
:101BD000058C4FF6EF7635400584028C8388048BA4
:101BE00048F6FF752C404FF6FF452C400D884FF608
:101BF000FF7606EA05252C434FF6DF752A408D89CE
:101C000006EA05152A434D8806EA05152A43154DAF
:101C1000A84202D0144DA8421DD14FF67F752A402C
:101C2000CD894FF6FF7606EA05152A434FF6BF75B4
:101C30002A408D8806EA05152A434FF6FF352B40CA
:101C40004FF2FF752B400D8A06EA85052B434D8A1E
:101C500006EA85052B43838004838D6885630284AF
:101C600070BD000000000140000401400A46002150
:101C7000018B4FF2FF7319404FF6FF7303EA022303
:101C8000194301837047000070B50024002200232F
:101C9000058C4FF6FF6635400584028C8388848B63
:101CA0004FF68F752C404FF6FC752C400D882C4359
:101CB0004FF6FF552A408D894FF6FF7606EA052537
:101CC0002A434D8806EA05252A43154DA84202D02D
:101CD000144DA8421DD14FF2FF752A40CD894FF611
:101CE000FF7606EA05252A434FF6FF352A408D8800
:101CF00006EA05252A434EF6FF752B404DF6FF7583
:101D00002B400D8A06EA05152B434D8A06EA051578
:101D10002B43838084838D68C563028470BD00007B
:101D200000000140000401400A460021818B4FF66B
:101D3000F773194011438183704741637047816392
:101D40007047C1637047000000220288184B984218
:101D50000ED0184B98420BD0B0F1804F08D0164BE4
:101D6000984205D0154B984202D0154B984204D1A9
:101D70004FF68F731A404B881A43124B984207D084
:101D8000114B984204D04FF6FF431A400B891A4377
:101D900002804B68C3620B880385054B984202D0D2
:101DA000044B984201D18B7A0386012383827047CA
:101DB0000000014000040140000400400008004011
:101DC000000C0040001000400014004010B540F22C
:101DD0002551094800F08AF960B140F225510648C2
:101DE00000F05CF9044800F03BFAC4B2012120463F
:101DF00002F02CF810BD0000004C004010B540F27D
:101E00002551244800F072F9002842D040F22551B3
:101E1000204800F043F91F4800F022FAC1B21E48E2
:101E200002780078401C1C4B18701C4881540078C4
:101E3000162803D1184600785A2803DD00201649D9
:101E4000087026E0144800780B2822DB124801783D
:101E5000124802F0CDFE114800791049C97800EB14
:101E6000012000B20E4908800C4880790B4949795D
:101E700000EB012000B20A4948800848007A07496F
:101E8000C97900EB012000B2054988800020024991
:101E9000087010BD0050004068000020BA0100200A
:101EA0006000002010B540F22551094800F01EF9ED
:101EB00060B140F22551064800F0F0F8044800F007
:101EC000CFF9C4B20121204601F0C0FF10BD0000CF
:101ED0000010014010B5002440F22551414800F0A7
:101EE00005F900287CD040F225513E4800F0D6F894
:101EF0003C4800F0B5F9C1B23B4802780078401C7C
:101F0000394B1870394881540078012803D118469C
:101F100000785A2803DD00203349087060E0324819
:101F20000078022800DA10BD30484078062854D1E5
:101F30002D480078142853DB2C48807C2B49C97C21
:101F400040EA01241221294801F084FCA04240D13A
:101F5000264840792549897940EA012024490881A9
:101F6000002088802148007A00F001011F48C079D4
:101F700061F35F001D49497A01F0010140EA8100E7
:101F80001A49897A01F0010140EAC1001749C97A6A
:101F900001F0010140EA01101449097B01F001013F
:101FA00040EA41101149497B01F0010140EA8110EA
:101FB0000E49897B01F0010140EAC1100B49C97B40
:101FC00001F0010140EA01200949898808430849D4
:101FD000888000200449087002E00020024908704F
:101FE00000BFA0E70044004054000020F2000020A1
:101FF000E800002010B540F22551244800F076F8A2
:10200000002842D040F22551204800F047F81F48F0
:1020100000F026F9C1B21E4802780078401C1C4B23
:1020200018701C4881540078162803D1184600788F
:102030005A2803DD00201649087026E0144800786D
:102040000B2822DB12480178124802F0E5FC114807
:1020500000791049C97800EB012000B20E490880D0
:102060000C4880790B49497900EB012000B20A49FC
:1020700048800848007A0749C97900EB012000B27E
:102080000549888000200249087010BD00480040C2
:102090005E000020560100205600002010B50022EE
:1020A000002340F66A14A14200D100BF0A120124A5
:1020B0009440A3B2DC43048010BD21B1828942F474
:1020C0000052828104E082894DF6FF731A408281BA
:1020D000704702460020B1F5007F00D100BF138891
:1020E0000B400BB1012000E00020704770B50246A4
:1020F000002400230025002040F66A16B14200D1DA
:1021000000BFC1F3421501F01F03012606FA03F3D5
:10211000012D02D19689334006E0022D02D1168AA4
:10212000334001E0968A33400C12012606FA04F48B
:102130001688344013B10CB1012000E0002070BDBE
:10214000F0B50346002400260025002040F66A175B
:10215000B94200D100BF1846C1F3421401F01F0676
:10216000012707FA06F5012C01D10C3004E0022CFE
:1021700001D1103000E014301AB107682F43076016
:1021800002E00768AF430760F0BD00002DE9FF479C
:1021900005460E460024A14600BFA046B08900B106
:1021A00000BF2C8A24F44054F08804432C82AC896C
:1021B00041F20C608443B088318908437189084337
:1021C0000443AC81AC8A24F44074B0890443AC82EB
:1021D0006846FFF7CDF82048854202D01F48854267
:1021E00002D1DDF80C9001E0DDF80890A88900F438
:1021F000004040B109EBC90000EB0910316849000B
:10220000B0FBF1F707E009EBC90000EB09103168FA
:102210008900B0FBF1F76420B7FBF0F0040120095E
:10222000642101FB1078A88900F4004040B13220FD
:1022300000EBC800B0FBF1F000F00700044308E039
:10224000322000EB08106421B0FBF1F000F00F0029
:1022500004432C81BDE8FF870010014000140140B9
:1022600001468888C0F308007047C1F308028280E5
:10227000704700BFFEE700002DE9F04105462F46FC
:1022800000241FE0C4F1070047FA00F606F001063B
:1022900040211448FEF783FE01F0A4F926B1802105
:1022A0001048FEF77EFE03E080210E48FEF777FE21
:1022B00001F098F940210B48FEF773FE01F092F906
:1022C000601CC4B2082CDDDB40210648FEF767FE27
:1022D00001F088F980210348FEF763FE01F082F9DE
:1022E000BDE8F0810004024003B401984100009869
:1022F00050EAC12018BF04204A0D18BF40F0010069
:1023000040F2FF72B2EB515F08BF40F002000128BB
:1023100008BF052002B070472DE9F04D2DED040BEC
:102320002DED0E8B96B0DDE92550279CDDF890A0B1
:1023300025F0004624F00048BAF1000F14BF012137
:10234000002101EB4502FC4953184A1093422AD35D
:10235000002814BF0123002303EB44030B44F74977
:102360008B4220D358EA00019FEDF59B76D0DFF831
:10237000D8B35D4503D1BAF1000F05D188E0BAF1B9
:10238000000F08BF002100D0012101EB450111F52C
:10239000001F08D8002814BF0121002101EB4401CF
:1023A00011F5001F0BD99DED261B9DED240B16B0DA
:1023B000BDEC0E8B04B0BDE8F04D00F069BE002707
:1023C000002DBCBFE149884521DAE1498845A8BF15
:1023D00002271CDAC3451ADCDE4901EB2851142917
:1023E00008DDC1F1340220FA02F101FA02F2824260
:1023F0000DD108E058B9C1F1140228FA02F101FA2E
:1024000002F2424503D101F00101C1F1020756EA8F
:102410000A0124D1002C22DA002D18BF022F01D08E
:10242000012F0AD0022000F07FFE16B0BDEC0E8B0B
:1024300004B0BDE8F04D00F013BE022000F074FEC1
:1024400000F00EFE51EC100B81F0004141EC100B3E
:1024500016B0BDEC0E8B04B0BDE8F08D18E09FED1A
:10246000BEAB9FEDBF8B002871D1B848804522D10B
:1024700005F1804010F5801008BFBAF1000F07D0B9
:10248000B3450ADC002CA8BF9DED260BE0DA0DE079
:10249000B0EE490AF0EE690ADAE7002C06DA9DEDA3
:1024A000260B51EC100B81F000416FE0AE487844F0
:1024B00090ED000BCCE7D8454DD1002C48DA2EB179
:1024C00086423AD1BAF1000F42D126E0BAF1000FAC
:1024D00013D0022000F028FE00F0F6FD8DED020B77
:1024E0009DED240B8DED000B10EE900A039961F326
:1024F0001E0003909DED020BAAE78DED02AB9DED52
:10250000240B1AEE901A10EE900A8DED000B61F379
:102510001E0003909DED020B9AE78DED028B9DED61
:10252000240B18EE901A10EE900A8DED000B61F35B
:102530001E0003909DED020B8AE709DA9DED240B46
:1025400051EC190B53EC102BFDF777FF1EE020E048
:102550009DED240B7CE786421BDAB4F1804F0DD051
:10256000A4F10050B0F1FF5013D1002D11DB9DED0F
:10257000240B51EC100B02F0CFF807E09DED240B7B
:1025800053EC102B51EC100B00F0C2BC41EC100BC3
:102590005EE79DED240B51EC100B01F0DDF8BAF174
:1025A000000FCDE90E0142D19FED710B46B3A6F1AC
:1025B000E040B0F17F600CD05E4538D1002D00DAEC
:1025C000A7B3022F0CBF01204FF0FF30FDF7A4FF8F
:1025D000DCE7002D01DD002C0DDA002D01DD002CE3
:1025E0001FDB002D16DA002C14DB012F08BF9FED36
:1025F000620B3FF42DAFB0EE4A0AF0EE6A0A27E70D
:10260000022F18BF002D0CD0012F0AD1002DFFF68C
:102610001FAF06E0002DB8BF002C08DA012F3FF4F1
:1026200017AFB0EE480AF0EE680A11E71BE0012090
:1026300000EBE57050EA070115D0791EB0EE498A2B
:10264000F0EE698A084308BF9FED4D8B4E48002588
:10265000804570DD4D494E48884514DDB0420DDBA4
:10266000002C19DB2FE0012000F05EFD16B0BDEC60
:102670000E8B04B0BDE8F04D00F016BDB34502DC92
:10268000002C09DC1FE0864202DA002C1BDA03E092
:102690005E452BDD002C16DD022000F045FD00F02C
:1026A00013FD8DED020B53EC1A2B51EC180BFDF7BB
:1026B00052FECDE900010399019861F31E000390D9
:1026C0009DED020BC4E6022000F02EFD00F00CFD93
:1026D00010EE901A18EE900A8DED020B8DED008B26
:1026E00061F31E0003909DED020BB1E69DED0E0B14
:1026F00053EC192B51EC100BFDF727FE9FED260B29
:10270000CDE9080153EC102B9DED080B51EC100B9B
:10271000FDF721FE9FED221B53EC112BFDF718FE58
:102720009DED081B53EC112BFDF715FE9FED1E1BB5
:1027300053EC112B3CE08CE0FFFF1F00FFFF0F006C
:10274000000000000000F03F0000F03F0000F07FBC
:102750000000404301FCFFFF000000000000F07F8C
:1027600000000000000000007629000000000000CA
:102770000000000000000080000000000000F0FFEA
:10278000000000000000F0BF0000E0410000F04346
:10279000FFFFEF3F00000000000000000000D03FFE
:1027A000555555555555D53F000000000000E03FF8
:1027B000FDF7CEFD9DED080B41EC1A0B53EC102BF1
:1027C00051EC100BFDF7C7FD53EC1A2BFDF7C3FDC1
:1027D00041EC1A0B9FEDFE0B53EC102B9DED080BFB
:1027E00051EC100BFDF7B7FD41EC1B0B9FEDFA0B05
:1027F00051EC1A0B53EC102BFDF7ADFD41EC1A0B0D
:102800009FEDF70B53EC102B9DED080B51EC100BCB
:10281000FDF7A1FD53EC1A2BFDF797FD41EC1A0BC8
:1028200051EC1B0B53EC1A2BFDF7EEFC0690CDE997
:1028300006519DED060B53EC1B2B51EC100BFDF7D5
:1028400084FD53EC1A2BFDF783FD41EC100B00F0D7
:10285000A1B90020B6F5801F0EDA9FEDE30B53EC13
:10286000102B9DED0E0B51EC100BFDF774FDCDE917
:102870000E016FF034000E4600EB2650A0F2FF3739
:10288000C6F31300DA4940F07F6646F040568842AE
:10289000D8BF002408DDD7498142C8BF012403DC2A
:1028A0000024A6F580167F1CD348784400EBC400B2
:1028B0000F9690ED00CB9DED0E0B53EC1C2B51ECC5
:1028C000100BFDF742FD9DED0E0B41EC1B0B53EC85
:1028D0001C2B51EC100BFDF797FC41EC100B51EC4D
:1028E000190B53EC102BFDF7A8FD41EC1D0B51EC1F
:1028F0001B0B53EC1D2BFDF72EFD41EC1A0BBF48B3
:102900008DED10AB7844109590ED000B4FF000501A
:1029100040EA660000EB84408DED080B00F50020D6
:1029200009909DED080B53EC1C2B51EC100BFDF79F
:102930000CFD9DED0E1B53EC112BFDF709FD41EC39
:10294000100B53EC102B9DED100B51EC100BFDF701
:1029500002FD9DED080B41EC1C0B53EC102B9DED83
:10296000100B51EC100BFDF7F6FC53EC1B2BFDF795
:10297000EFFC53EC1C2BFDF7E8FC53EC1D2BFDF793
:10298000EAFC41EC1C0B53EC1A2B51EC1A0BFDF733
:10299000E2FC41EC1B0B9A480621B0EE4B0AF0EE2C
:1029A0006B0A784400F0E0FAB0EE401AF0EE601ADC
:1029B000B0EE41DAF0EE61DA53EC1B2B51EC1B0B5D
:1029C000FDF7C9FC53EC1D2BFDF7C5FC9DED100B6D
:1029D00041EC1B0B53EC1A2B51EC100BFDF714FCC4
:1029E00053EC1C2BFDF7B7FC53EC1B2BFDF70CFC39
:1029F0009DED100B41EC1B0B53EC102B51EC100B0D
:102A0000FDF7A9FC41EC1D0B9FED7FEB53EC1E2B5A
:102A1000FDF7FAFB53EC1B2BFDF7F6FB0890CDE915
:102A200008519DED080B53EC1E2B51EC100BFDF7DC
:102A30008CFC53EC1D2BFDF788FC53EC1B2BFDF796
:102A400087FC9DED080B41EC1D0B53EC102B9DED0D
:102A5000100B51EC100BFDF77EFC41EC1B0B53EC03
:102A60001A2B51EC1D0BFDF776FC9DED080B41EC8C
:102A70001A0B53EC102B51EC1C0BFDF76CFC53ECB8
:102A80001A2BFDF7C1FB41EC1A0B51EC1B0B53EC5D
:102A90001A2BFDF7B9FB0C90CDE90C519DED0C0BF9
:102AA00053EC1B2B51EC100BFDF74FFC53EC1A2B86
:102AB000FDF74EFC41EC1B0B9FED550B53EC102B1F
:102AC0009DED0C0B51EC100BFDF745FC41EC1A0B86
:102AD0009FED510B51EC1B0B53EC102BFDF73BFC06
:102AE00041EC1B0B9FED4E0B53EC102B9DED0C0B93
:102AF00051EC100BFDF72FFC53EC1B2BFDF784FB67
:102B000041EC100B4848784400EBC40090ED001BEA
:102B100051EC100B53EC112BFDF776FB41EC1B0B2A
:102B20003846FDF7F9FCCDE9080153EC1B2B51ECBD
:102B30001A0BFDF769FB41EC100B3C48784400EBA5
:102B4000C40090ED00CB51EC100B53EC1C2BFDF7A7
:102B50005BFB9DED081B53EC112BFDF755FB06901D
:102B6000CDE906519DED080B53EC102B9DED060BA6
:102B700051EC100BFDF7E9FB53EC1C2BFDF7E5FBCB
:102B800053EC1A2BFDF7E1FB53EC1B2BFDF7E0FB9D
:102B900041EC100B9DED261B53EC102B8DED001B13
:102BA00000959DED260B51EC100BFDF7D4FB9DED30
:102BB000000B41EC1A0B53EC102B9DED260B51EC46
:102BC000100BFDF7C2FB9DED061B53EC112B2FE004
:102BD000000000604715F73FFE822B654715F73F61
:102BE00044DF5DF80BAE543E00000000000040439F
:102BF0008E9803007AB60B00F22400002025000016
:102C00002A2400000000000000000000000008402E
:102C1000000000E009C7EE3FFD033ADC09C7EE3FC4
:102C2000F5015B14E02F3EBEB622000070220000CA
:102C3000FDF791FB53EC1A2BFDF7E6FA9DED060B21
:102C400041EC1A0B53EC102B9DED000B51EC100BCB
:102C5000FDF781FBCDE90C019DED0C0B51EC1A0B3E
:102C600053EC102BFDF7D0FACDE902010C46AA492E
:102C70008C422FDB611A084318D19DED0C0B53ECED
:102C8000102B9DED020B51EC100BFDF75EFB41ECA0
:102C90001B0B9FEDA30B51EC1A0B53EC102BFDF704
:102CA000B3FA53EC1B2BFDF7B9FC2DD2022000F038
:102CB0003BFA00F009FA10EE901A18EE900A8DED2A
:102CC000020B8DED008B61F31E0003909DED020B56
:102CD000FFF7BEBB944A24F00041914214D39349BC
:102CE000214408437FF4EFAC9DED0C0B53EC102B0B
:102CF0009DED020B51EC100BFDF727FB53EC1A2B4B
:102D0000FDF78CFC7FF6DFAC24F000408849894A4F
:102D1000002601EB205182422BDA481C4FF480112F
:102D200021FA00F02044844AC0F30A517A44A1F207
:102D3000FF3192ED000B814A8DED080BCA4020EA6D
:102D40000202C0F3130040F48010C1F1140120FA14
:102D500001F60992002CB8BF76429DED080B53ECAA
:102D6000102B9DED0C0B51EC100BFDF7EEFACDE99D
:102D70000C019DED0C0B51EC1A0B53EC102BFDF7D5
:102D800043FA9FED6F0B0890CDE9085153EC102BDF
:102D90009DED080B51EC100BFDF7DDFA41EC1B0B20
:102DA0009FED690B53EC102B9DED080B51EC100BB4
:102DB000FDF7D1FA9DED0C0B41EC1C0B53EC102BE5
:102DC0009DED080B51EC100BFDF7BFFA53EC1A2BDD
:102DD000FDF7BEFA9FED5E1B53EC112BFDF7BBFA1E
:102DE00053EC1C2BFDF710FA41EC1A0B51EC1B0BAA
:102DF00053EC1A2BFDF708FACDE902019DED020B09
:102E000053EC1B2B51EC100BFDF79FFA53EC1A2BD4
:102E1000FDF79EFA9DED020B41EC1A0B53EC102BC3
:102E200051EC100BFDF797FACDE908014A489DEDEA
:102E3000080B0521784400F097F89DED081B51EC34
:102E4000100B53EC112BFDF786FA9DED021B53EC92
:102E5000112BFDF77DFACDE906019DED020B53EC38
:102E60001A2B51EC100BFDF776FA53EC1A2BFDF7E9
:102E7000CBF99FED3B0B41EC1A0B53EC102B9DED66
:102E8000060B51EC100BFDF760FA9DED060B41ECC3
:102E90001B0B53EC102B9DED020B51EC100BFDF7AF
:102EA0005AFA53EC1B2BFDF7C8FA53EC1A2BFDF71B
:102EB0004CFA9DED021B53EC112BFDF746FA53EC37
:102EC000192BFDF745FACDE9020101EB065001157A
:102ED0000029C8BF039015DC9DED020B324651EC72
:102EE000100BFDF794FCFFF7FFF9042808BF00F072
:102EF000FBF832469DED020B51EC100BFDF787FC01
:102F0000CDE902019DED020B51EC180B53EC102B97
:102F1000FDF721FAFFF73ABB0000904000000000E7
:102F2000FE822B654715973C00CC904000346F3FE4
:102F300001FCFFFF0000E03FF8200000FFFF0F0052
:102F400000000000432EE63F396CA80C615C20BEF7
:102F5000EF39FAFE422EE63FC81F000000000000D5
:102F6000000000000000004070B504462DED028B0B
:102F70004D1E00EBC500B0EE408AF0EE608A90ED89
:102F8000000B35F0060017D053EC182B51EC100B4A
:102F9000FDF7E1F941EC100B6D1E04EBC50090ED5F
:102FA000001B51EC100B53EC112BFDF72DF941ECEC
:102FB000100B35F00600E7D1022D36D0042D1CD0C1
:102FC000062D1CBFBDEC028B70BD53EC182B51ECD1
:102FD000100BFDF7C0F994ED0A1B53EC112BFDF714
:102FE00013F953EC182BFDF7B6F994ED081B53ECCD
:102FF000112BFDF709F941EC100B53EC182B51EC98
:10300000100BFDF7A8F994ED061B53EC112BFDF7FF
:10301000FBF853EC182BFDF79EF994ED040B53ECE1
:10302000102BFDF7F1F841EC100B53EC182B51EC81
:10303000100BFDF790F994ED021B53EC112BFDF7EB
:10304000E3F853EC182BFDF786F994ED001B53ECD5
:10305000112BFDF7D9F8BDEC028B41EC100B70BDC4
:103060009FED070B10B553EC102B9FED070B51ECA8
:10307000100BFDF7E2F941EC100B10BD0000000051
:103080000000000000000000000000000000F03F11
:1030900010B553EC112B51EC100BFDF7B5F841ECCA
:1030A000100B10BD000000009FED050B10B553EC98
:1030B000102B51EC100BFDF7C0F941EC100B10BDBB
:1030C00000000000000000009FED050B10B553EC60
:1030D000102B51EC100BFDF73EF941EC100B10BD1D
:1030E00000000000000000709FED050B10B553ECD0
:1030F000102B51EC100BFDF72EF941EC100B10BD0D
:10310000000000000000001002E008C8121F08C103
:10311000002AFAD170477047002001E001C1121F58
:10312000002AFBD170470000014908607047000089
:10313000C000002010B50020FDF736FF0446FDF763
:10314000FCF90A4A03C20120FDF72EFF0446FDF7F1
:10315000F4F9064AC2E902010220FDF725FF044600
:10316000FDF7EBF9014AC2E9040110BD600300203C
:1031700010B52DED068B3A48B0F90000801E0521F0
:1031800090FBF1F201FB1200364901EB800090ED5B
:10319000000A10EE104A2046FDF714FA41EC180B15
:1031A0002F48B0F90000801E052190FBF1F201FBD1
:1031B00012002D4931F910002C49B1F9001090FB93
:1031C000F1F12748B0F90000801E052290FBF2F3D0
:1031D00002FB1300264A32F91000244AB2F90020FB
:1031E00090FBF2F008443C2191FBF0F42046FDF7FF
:1031F00093F941EC190B1A48B0F90000801E052123
:1032000090FBF1F201FB1200174931F9101014483C
:10321000B0F90000801E052290FBF2F302FB1300C0
:10322000134A32F9100091FBF0F42046FDF774F9CF
:1032300041EC1A0B51EC180BFDF7ABF90D49088165
:1032400051EC190BFDF7A5F90A49888051EC1A0BCE
:10325000FDF79FF90749C880BDEC068B10BD000043
:10326000A00000203C080020A0080020A8000020AA
:10327000B40800204002002000B58FB0012188056D
:10328000FEF736F81348019013480290002003908F
:1032900004200490002005904FF4806006904000C8
:1032A0000790800008904011099040020A90002089
:1032B0000B9001200C9000200D900E90009069461C
:1032C0000648FDF7E5FC01210448FDF7D5FC0FB0E9
:1032D00000BD00004C200140D400002010640240DA
:1032E0002DE9F04104460D4616464FF6FF700021C9
:1032F00014E0625C50404FF0000C0AE000F001075F
:10330000401017B14AF2010250400CF1010202F0E4
:10331000FF0CBCF1080FF1DB4A1CD1B2A942E8DB7B
:1033200002464FEAE07800EB18684FEA2828A0EB45
:10333000082886F800804FEAE07800EB18684FEA2A
:10334000182883F80080BDE8F081000010B5074818
:10335000C08E18B100200649086010BDFDF744FC7E
:1033600000F096FC00F04CFE00BFF6E75C02002087
:103370008C02414210B586B00024142205A101A898
:10338000FCF71EFF1424214601A801F0D5FA06B06F
:1033900010BD000001060F0000000000000000004A
:1033A000000000000000864D2DE9F04186B0054682
:1033B0000E461746984600241CA30FCB8DE80F003D
:1033C0000E241E4908780978491C1C4A117000EB2C
:1033D000D0714910A0EB4101012904D1FFF7CAFFC8
:1033E00006B0BDE8F081E8B28DF8030028128DF830
:1033F00004008DF807608DF808708DF80980A01E14
:10340000C1B204AB05AA6846FFF76AFF9DF8141025
:10341000A01E0DF800109DF81010601E0DF8001091
:103420002146684601F088FA00BFD9E70103090088
:1034300000000000000000003C5500005500002086
:1034400010B54FF47A70164908824FF48660C8852B
:103450004FF47A70C8854FF4486088874FF4FA704B
:10346000C8874000A1F840000020A1F84200A1F860
:1034700044004FF47A70A1F846000020A1F84800FB
:10348000A1F84A004FF47A70A1F84C000020A1F88E
:103490004E00A1F850002B2000F06AF910BD00008A
:1034A0005C02002000B564203F4908803F48B0F925
:1034B000000000EE100AB8EEC00A3D4880ED000A98
:1034C00090ED000ABDEEC00A10EE100A00B200F046
:1034D00093F90346C01703EB9070801035490880BC
:1034E0003548408A00EE100AB8EE400A334880EDB5
:1034F000000A3148808A00EE100AB8EE400A3048CF
:1035000080ED000A2F4890ED000ABCEEC00A10EED4
:10351000100A294908832B4890ED010ABCEEC00A25
:1035200010EE100A4883274890ED020ABCEEC00A4C
:1035300010EE100A8883234890ED030ABCEEC00AFF
:1035400010EE100AC8831F4890ED040ABCEEC00AB2
:1035500010EE100A08841C4890ED000ABCEEC00A68
:1035600010EE100A4884184890ED010ABCEEC00A1B
:1035700010EE100A8884144890ED020ABCEEC00ACE
:1035800010EE100AC884104890ED030ABCEEC00A81
:1035900010EE100A08850C4890ED040ABCEEC00A33
:1035A00010EE100A488500BDA8000020400200204F
:1035B00080000020B20000205C0200209400002067
:1035C000980000203C0800206408002010B5044941
:1035D000088900231A461946FFF7E6FE10BD0000D1
:1035E0005C02002010B5042000F03CF810BD000083
:1035F00010B504466FF00400FEF710F9E11704EB74
:103600005171C1F3C701074A11701046007800EBF1
:103610004001C1EBC0104FF6FF7101EAC000024942
:10362000088010BD100000201200002070B5044674
:103630004FF4077094FBF0F0C6B24FF4077094FBA0
:10364000F0F100FB114085B205E04FF4077000F087
:103650002FF8701EC6B2002EF7D115B1284600F023
:1036600027F870BD0146114A12784A434FF0E02313
:103670005A6100229A611A46126942F001021A61E7
:1036800000BF4FF0E022106900F001021AB100F40F
:103690008032002AF5D04FF0E022126922F00102B8
:1036A0004FF0E0231A6100229A6170471000002059
:1036B0000146114A12884A434FF0E0235A61002222
:1036C0009A611A46126942F001021A6100BF4FF076
:1036D000E022106900F001021AB100F48032002AE1
:1036E000F5D04FF0E022126922F001024FF0E02302
:1036F0001A6100229A6170471200002010B511482B
:103700000088114908800F48408848800F48008988
:1037100088800E488088C8800D48008848810D4800
:10372000808848860B48C08888860A480088888533
:1037300008484088C881074800890886084600F084
:103740003BFC10BD600000205C020020E80000206F
:10375000560000204002002082B0CDE9000121F097
:10376000004001909DED000B02B051EC100B704732
:1037700030B599B004460D4664216846FCF739FD22
:103780002B2C01DA19B030BD082269460848FDF734
:1037900035FF002007E03DF8102000F12B0125F84F
:1037A0001120411CC8B20828F5DB00BFEAE7000081
:1037B00004C0000830B599B004460D46642168463F
:1037C000FCF717FD2B2C01DA19B030BD002007E003
:1037D00000F12B0135F811102DF81010411CC8B262
:1037E0000828F5DB082269460248FDF71DFF00BFE7
:1037F000EAE7000004C0000801461248B0F90000E2
:10380000114A10801148B0F900000E4A10800F488C
:1038100001801046B0F900000B4AB2F90020904236
:103820000CDD0848B0F90000084AB2F900209042C7
:1038300004DD0448B0F90000054A10800448B0F9DE
:1038400000007047B6000020B4000020B80000203F
:10385000BA00002070B502460B464FF6FF700021FB
:1038600010E0565C7040002408E000F001054010B4
:1038700015B14AF201067040661CB4B2082CF4DBA4
:103880004E1CB1B29942ECDB70BD000010B52DEDBD
:10389000088B9FED590BB0EE408AF0EE608A00F085
:1038A000E7F8574890ED000BB0EE408AF0EE608AE2
:1038B00051EC180BFCF7CAFE09EE100AB0EE490AEB
:1038C000504800F0A1F910EE104A2046FCF77AFEAD
:1038D00041EC180B4C4890ED040A10EE101A084603
:1038E000FCF770FE41EC190B474890ED030A10EE0F
:1038F000101A0846FCF766FE41EC1B0B53EC182B24
:10390000FCF729FD41EC1A0B53EC192BFCF77CFC5E
:1039100041EC180B3D49088AFCF70FFE41EC1A0BED
:103920009FED3B0B53EC102B51EC180BFCF76CFC90
:1039300041EC1B0B53EC1A2BFCF707FD41EC190B68
:10394000FCF727FE304948802D4890ED020BB0EE81
:10395000408AF0EE608A51EC180BFCF777FE09EE16
:10396000100AB0EE490A2C4800F04EF910EE104A49
:103970002046FCF727FE41EC180B234890ED060A81
:1039800010EE101A0846FCF71DFE41EC190B1E48FC
:1039900090ED050A10EE101A0846FCF713FE41ECF4
:1039A0001B0B53EC182BFCF7D6FC41EC1A0B53EC19
:1039B000192BFCF729FC41EC180B1449C88DFCF7B6
:1039C000BCFD41EC1A0B9FED120B53EC102B51EC8C
:1039D000180BFCF719FC41EC1B0B53EC1A2BFCF7F2
:1039E000B4FC41EC190BFCF7B5FD00B206490880A8
:1039F000BDEC088B10BD00000000000000000000BE
:103A00006003002078030020400200205C020020B8
:103A10000000000000408F40900300201CB50121F1
:103A20000420FDF765FC42F20F00009001208DF8A4
:103A3000040000208DF8060003208DF80500012009
:103A40008DF8070069460748FDF735FA0F2105484C
:103A5000FDF7A7FA01200449086000200349C1F8D6
:103A60008C021CBD00080240880241420000414215
:103A70004448B0F8540088B9B7EE001A424880EDC7
:103A8000031AB7EE001A80ED051A9FED401A80ED7B
:103A9000041A9FED3E1A80ED061A71E03948B0F81D
:103AA0005C003849B1F85810401A01EE100AB8EE1F
:103AB000C11AB0EE410A3348B0F85A003149B1F8A2
:103AC0005610401A01EE100AB8EEC11AF0EE410A83
:103AD00080EE201A2C4880ED031A2A48B0F85800CE
:103AE00001EE100AB8EE411AB0EE410A2648D0EDB8
:103AF000031A2448B0F8560001EE100AB8EE412A25
:103B0000B0EE401A01EEC21A1F4880ED041A1D489B
:103B1000B0F864001B49B1F86010401A01EE100AB9
:103B2000B8EEC11AB0EE410A1648B0F86200154965
:103B3000B1F85E10401A01EE100AB8EEC11AF0EEAC
:103B4000410A80EE201A104880ED051A0D48B0F8A1
:103B5000600001EE100AB8EE411AB0EE410A0A48C0
:103B6000D0ED051A0748B0F85E0001EE100AB8EE75
:103B7000412AB0EE401A01EEC21A034880ED061A3F
:103B8000704700005C02002040020020000000009E
:103B90004FF4A060FDF77CFAA820FFF729FD194833
:103BA000FDF7E6FBFFF73AFFFFF766FBFCF7AEFF1A
:103BB000FDF71CFA29216320FDF7C4FEFDF778FE0E
:103BC000FDF74CFF4FF4165001F030F84FF416504B
:103BD00000F05CFE4FF4165000F0CCFE4FF4E130E4
:103BE00000F038FF4FF4165000F0A4FF4FF4FA60D5
:103BF000FFF71CFDFFF724FC03E0FFF79BFA00F042
:103C0000E9FDFAE7C400002010B5F0EE400ABCEE72
:103C1000E01A11EE101AC28A20F81210C18A491C4B
:103C20000B2291FBF2F302FB1311C182002224E06C
:103C300000211DE030F811404B1C30F813309C423D
:103C400015DD30F8113001EE903AF8EE611AB0EE61
:103C5000611A4B1C30F8133020F81130FCEEC11AF9
:103C600011EE903A9CB24B1C20F8134000BF491C47
:103C7000C2F10A038B42DDDC521C0A2AD8DB052183
:103C800030F8112001EE102AB8EE410A10BD0000F4
:103C900010B52DED048B1549B1F90000FCF73CFC83
:103CA00041EC180B12498889FCF747FC41EC190BD1
:103CB0000F48B0F84A30B0F84820B0F84610B0EEDF
:103CC000481AF0EE681AB0EE490AF0EE690A09489F
:103CD000FDF7E8F9064908870846008F642801DDEA
:103CE00064200887BDEC048B10BD00005600002046
:103CF0005C020020A803002070B5C2B005464FF456
:103D0000807102A8FCF775FA002400262F4840783D
:103D10008DF808002D4880788DF809002B4801792E
:103D2000C07841EA002629488179407941EA00209B
:103D30004006000E8DF80A009DF80A0000EBD071D5
:103D40004C10002001901DE09DF80400304435F82F
:103D5000100001129DF80400032202EB400002AAA9
:103D600011549DF80400304415F810109DF804001B
:103D7000042202EB400002AA11549DF80400401CEA
:103D8000C0B201909DF80400A042DDDB9DF80A005E
:103D9000C01CC4B26B4601AA214602A8FFF7A0FAD4
:103DA0009DF8040002A908559DF8001002AA601CA5
:103DB0001154A01CC4B2214602A800F049FD2146BE
:103DC00002A800F099FE42B070BD00003804002047
:103DD00070B505460026002408240D480179C078F6
:103DE00041EA00260A488179407941EA002025F815
:103DF0001600074981F8026221460548401C00F080
:103E000027FD21460248401C00F076FE70BD0000F0
:103E1000380400207CB50546062421466B4601AADD
:103E20000948FFF75DFA9DF80410074801559DF811
:103E30000020611C4254A41C214600F009FD2146CB
:103E4000014800F059FE7CBD390400202DE9F04105
:103E500006460F46544801780078401C524A1070BC
:103E6000524846540078B84203D110460078FA28E8
:103E700008DB00204C4908704FF480714B48FCF778
:103E8000B8F98FE0484800780228FADD47484078C2
:103E900010283CD14548807908304549087042488F
:103EA0000078097888427DDD3F480078801E3F49D0
:103EB000095C3D480078401E3C4A105C41EA002500
:103EC00039480078801EC1B21046FFF7C3FCA842F3
:103ED00014D13548007837490870002406E033488B
:103EE000015D3448401C0155601CC4B22E48007866
:103EF0008442F4DB01202F4981F801024FF48071E4
:103F00002A48FCF776F90020274908704AE027483C
:103F10004078032803D02548407806283AD1072066
:103F20002349087020480078097888423ADD1E4805
:103F30000078801E1D49095C1B480078401E1B4A02
:103F4000105C41EA002518480078801EC1B2104676
:103F5000FFF780FCA84214D1134800781549087077
:103F6000002406E01148015D1248401C0155601C08
:103F7000C4B20D4800788442F4DB01200D4981F879
:103F800001024FF480710948FCF733F9002006491B
:103F9000087007E04FF480710448FCF72AF900200C
:103FA00001490870BDE8F0817D0000203B0700203A
:103FB0007C0000203804002010B504460F4890F81B
:103FC0000102012815D10D488078032804D0062865
:103FD00006D010280CD107E02046FFF78DFE07E041
:103FE0002046FFF7F5FE03E02046FFF713FF00BF72
:103FF00000BF0020014981F8010210BD38040020F3
:1040000010B52DED048B1C48B0F85200012807D1E3
:104010001948C08A1849488700201849086020E0DC
:1040200017494888FCF789FA41EC180B1548B0F994
:104030000000FCF771FA41EC190B0F48B0F8503052
:10404000B0F84E20B0F84C10B0EE481AF0EE681AF6
:10405000B0EE490AF0EE690A0B48FDF723F806496D
:1040600048870548408F642802DD6420024948875C
:10407000BDEC048B10BD00005C0200208C024142AC
:1040800040020020AA000020F0030020704700003A
:104090001CB5044601210220FDF72AF9802000907A
:1040A0001CB100208DF8040002E001208DF804000E
:1040B00000208DF8060003208DF8050001208DF802
:1040C000070069460148FCF7F6FE1CBD00040240EB
:1040D00010B5FFF7DBFB0548418F0548FDF72DFEC6
:1040E0000248018F0248FDF72AFE10BD5C02002045
:1040F000000400402DE9F0412DED108B84B0F8480C
:1041000090ED000AF748D0ED000A30EE600AF6485C
:1041100080ED000A90ED000AF448D0ED000A30EE80
:10412000600AF34880ED000AF2480078032190FB12
:10413000F1F201FB1200F04901EB8000EA4991ED38
:10414000000A80ED000AEB480078401CE94908703D
:10415000012700240CE0E84800EB840090ED000A01
:10416000B5EEC00AF1EE10FA01D2002702E0641C9D
:10417000032CF0DB00BF012600240CE0DE4800EB3E
:10418000840090ED000AB5EEC00AF1EE10FA01DDF0
:10419000002602E0641C032CF0DB00BFD748B0F916
:1041A000000030B1012819D002281DD003284FD1BA
:1041B00039E0CB48D0ED000AD148B0F9000000EE5C
:1041C000100AB8EEC00AF4EEC00AF1EE10FA04DDEF
:1041D000012F02D10120C94908803AE0012E02D105
:1041E0000220C649088034E0C648B0F90000FCF758
:1041F00093F941EC1A0B9FEDC40B53EC102BFCF719
:10420000AAF841EC180BC248B0F90000FCF784F999
:1042100041EC190B53EC182BFCF700FA02D20320E7
:10422000B649088015E0AE48D0ED000AB948B0F9AB
:10423000000000EE100AB8EEC00AF4EEC00AF1EE7B
:1042400010FA04D2012E02D10020AC49088000E00F
:1042500000BF00BFA948B0F90000AF49B1F9001094
:10426000884263D0AA48B0F90000A649088000201F
:10427000A7490880A148008801282FD1A7480088B5
:10428000401C00B2A54908800846B0F90000401E55
:10429000052190FBF1F201FB1200A149002221F857
:1042A00010209E48B0F90000401E052190FBF1F25D
:1042B00001FB12009B49002221F810209748B0F919
:1042C0000000401E052190FBF1F201FB120096490F
:1042D00001EB80009FED950A80ED000A8748008879
:1042E000002822D192480088401C00B290490880E2
:1042F0000846B0F90000401E052190FBF1F201FBD9
:1043000012008C49002221F810208948B0F90000E1
:10431000401E052190FBF1F201FB1200864901EBE2
:1043200080009FED820A80ED000ACCE0784800888A
:10433000401C00B27649088070480088012819D1D5
:104340007648B0F90000401E052190FBF1F201FB18
:104350001200734931F81000401C01B26F48B0F9E7
:104360000000401E052290FBF2F302FB13006C4A92
:1043700022F810106148B0F90000002849DD6748B4
:10438000B0F90000401E052190FBF1F201FB120084
:10439000644931F81000401C01B26048B0F90000D7
:1043A000401E052290FBF2F302FB13005D4A22F847
:1043B00010105A48B0F90000401E052190FBF1F2A0
:1043C00001FB1200584901EB800090ED000A4448BF
:1043D000D0ED000ADFED591A80EEA11A5848B0F965
:1043E000000000EE900AF8EEE01AC1EE210A9FEDFF
:1043F000551A00EE810A4948B0F90000401E052117
:1044000090FBF1F201FB1200474901EB800080EDC7
:10441000000A3A480088032804D14B48B0F900004C
:104420003C49088035480088F0BB4148B0F900009D
:10443000401E052190FBF1F201FB12003D4931F8CD
:104440001000401C01B23A48B0F90000401E05229D
:1044500090FBF2F302FB1300364A22F810103448A6
:10446000B0F90000401E052190FBF1F201FB1200A3
:10447000314901EB800090ED000A1948D0ED000AA7
:10448000F1EE600ADFED2D1A80EEA11A2C48B0F98A
:10449000000000EE900AF8EEE01AC1EE210A9FED4E
:1044A000291A00EE810A00E00DE02148B0F9000071
:1044B000401E052190FBF1F201FB12001E4901EBA9
:1044C000800080ED000A0D48B0F900001249088014
:1044D0001248B0F90000052838DA082542E000004B
:1044E0008000002084000020880000208C00002034
:1044F00090000020BC000020C80800209C00002084
:10450000AC000020A60000209A9999999999B93F8A
:10451000A4000020B00000209E000020A000002089
:104520008C080020A00800203C08002000000000AB
:10453000A2000020B408002064080020000070429F
:10454000A800002000007A44B2000020002404E00B
:10455000654830F914000544641C052CF8DB05207F
:1045600095FBF0F56148008801287CD1604800681F
:10457000FCF728F841EC190B5E4890ED000A5C4806
:10458000D0ED000A30EE600AF0EE000A60EE200A7C
:1045900000EE105AB8EEC00A80EE801A5648B0F904
:1045A000000000EE100AB8EEC00A21EE000A10EE7C
:1045B000108A4046FCF706F841EC1A0B4E48B0F959
:1045C0000000FBF7A9FFCDE900012846FBF7A4FF97
:1045D00041EC1F0B9FED491BB0EE4F0AF0EE6F0A46
:1045E000FDF79AFEB0EE40DAF0EE60DA414890ED69
:1045F000000A3F48D0ED000A30EE600AB1EE400AF2
:1046000010EE101A0846FBF7DDFF41EC1E0B53ECD1
:104610001D2BFBF712FF41EC1C0B9DED000B53EC27
:10462000102BFBF798FE41EC1B0B53EC1A2BFBF7FE
:10463000EBFD53EC192BCDE902019DED020B51EC82
:10464000100BFBF7E1FD41EC180BFBF783FF00B209
:104650002C4908800846B0F9000000EE100AB8EEB8
:10466000C00A244800E00EE0D0ED000AB4EEE00AF3
:10467000F1EE10FA07DD90ED000ABDEEC00A10EE73
:10468000100A00B2088019480088022809D1194888
:1046900090ED000ABDEEC00A10EE100A00B21949F2
:1046A000088012480088032802D01048008848B9C2
:1046B0000F4890ED000ABDEEC00A10EE100A00B2DD
:1046C00010490880104890ED000A104880ED000A5B
:1046D0000F4890ED000A0F4880ED000A04B0BDECD1
:1046E000108BBDE8F08100008C0800209C000020A9
:1046F0009800002094000020A4000020000000008A
:1047000000000040AA00002080000020840000205B
:10471000880000208C00002000B52DED048B83B0B4
:1047200041EC190BFCF79CF841EC180B18EE100A41
:1047300018EE901A8DED008B002818BF0120084359
:1047400020F00040C0F17F6000F1E040C00F14D0C5
:1047500019EE101A19EE900A8DED009B002918BF72
:104760000121084320F00040C0F17F6000F1E040EB
:10477000C00F04BF0120FEF7D7FC51EC180B03B0AB
:10478000BDEC048B00BD000010B500F0F3FA054845
:10479000006808B9012000E0002002490860FFF726
:1047A00075FC10BDB402414210B5FEF70FFFFEF7D5
:1047B000CDFD10BD10B5FFF79DFCFEF7D9FCFEF74F
:1047C00071FE10BD10B5FEF799FF10BD10B5FFF7D3
:1047D0007FFC10BD10B500241BE004EB44000E4923
:1047E00001EB8000806804EB44010B4A52F8211071
:1047F000B0FBF1F060B104EB440102EB81014868C9
:104800008047002004EB4401034A02EB81018860E9
:10481000641C052CE1D310BD1400002000200DE025
:1048200000EB4001074A02EB81018968491C00EB5B
:104830004002044B03EB82029160401C0528EFD339
:10484000704700001400002000B500F045FA00BDDC
:1048500070B505460E4600240CE000BF40210A4812
:10486000FDF737FC0028F9D0295D0748FDF7FDFC6E
:10487000601C84B2B442F0DB00BF40210248FDF767
:1048800028FC0028F9D070BD0010014010B588B098
:10489000044601210846FCF72BFD01214804FCF7E2
:1048A00037FD0C20069002208DF81C008DF81D00AD
:1048B00000208DF81E0001208DF81F0006A91C485D
:1048C000FCF7F9FA072202211948FCF73CFB072202
:1048D00003211748FCF737FB02940020ADF80C00C9
:1048E000ADF80E00ADF81000ADF814000C20ADF8D6
:1048F000120002A90F48FDF749FC26208DF804009C
:1049000002208DF8050001208DF806008DF80700C3
:1049100001A8FCF781FB012240F225510548FDF773
:104920000FFC01210348FDF7C8FB08B010BD0000D3
:10493000000002400044004070B505460E460024C9
:104940000CE000BF40210A48FDF7C3FB0028F9D066
:10495000295D0748FDF789FC601C84B2B442F0DB96
:1049600000BF40210248FDF7B4FB0028F9D070BD1C
:104970000044004010B588B0044601218804FCF7CB
:10498000C7FC4FF44060069002208DF81C008DF8A3
:104990001D0000208DF81E008DF81F0006A91C4880
:1049A000FCF789FA07220A211948FCF7CCFA0722FA
:1049B0000B211748FCF7C7FA02940020ADF80C0051
:1049C000ADF80E00ADF810000C20ADF8120000207C
:1049D000ADF8140002A90F48FDF7D8FB012240F200
:1049E00025510C48FDF7ACFB01210A48FDF765FB9A
:1049F00027208DF8040002208DF8050001208DF895
:104A000006008DF8070001A8FCF706FB08B010BDF2
:104A1000000402400048004070B505460E460024E0
:104A20000CE000BF40210A48FDF753FB0028F9D0F5
:104A3000295D0748FDF719FC601C84B2B442F0DB25
:104A400000BF40210248FDF744FB0028F9D070BDAB
:104A50000048004010B588B004460121C804FCF7A6
:104A600057FC4FF44060069002208DF81C008DF832
:104A70001D0000208DF81E008DF81F0006A91C489F
:104A8000FCF719FA08220A211948FCF75CFA0822F7
:104A90000B211748FCF757FA02940020ADF80C00E0
:104AA000ADF80E00ADF810000C20ADF8120000209B
:104AB000ADF8140002A90F48FDF768FB012240F28F
:104AC00025510C48FDF73CFB01210A48FDF7F5FA9A
:104AD00034208DF8040002208DF8050001208DF8A7
:104AE00006008DF8070001A8FCF796FA08B010BD83
:104AF00000080240004C004070B505460E460024F8
:104B00000CE000BF40210A48FDF7E3FA0028F9D085
:104B1000295D0748FDF7A9FB601C84B2B442F0DBB5
:104B200000BF40210248FDF7D4FA0028F9D070BD3B
:104B3000004C004010B588B0044601210805FCF780
:104B4000E7FB01210C20FCF7D3FB4FF480500690CB
:104B500002208DF81C008DF81D0000208DF81E002D
:104B60008DF81F0006A91F48FCF7A5F90420069040
:104B700006A91D48FCF79FF908220C211948FCF7EB
:104B8000E2F9082202211848FCF7DDF9029400201E
:104B9000ADF80C00ADF80E00ADF810000C20ADF82B
:104BA00012000020ADF8140002A91048FDF7EEFA3B
:104BB000012240F225510D48FDF7C2FA01210B48B0
:104BC000FDF77BFA35208DF8040002208DF80500F2
:104BD00001208DF806008DF8070001A8FCF71CFAEB
:104BE00008B010BD00080240000C02400050004018
:104BF00070B505460E4600240CE000BF40210A486F
:104C0000FDF767FA0028F9D0295D0748FDF72DFB6D
:104C1000601C84B2B442F0DB00BF40210248FDF7C3
:104C200058FA0028F9D070BD0050004010B588B087
:104C3000044601210846FCF75BFB01211020FCF72C
:104C400077FB0294072209212148FCF77CF907220F
:104C50000A211F48FCF777F94FF4C0600690022044
:104C60008DF81C008DF81D0000208DF81E0001201D
:104C70008DF81F0006A91648FCF71DF90020ADF8B5
:104C80000C00ADF80E00ADF81000ADF814000C20CB
:104C9000ADF8120002A90F48FDF778FA01210D487E
:104CA000FDF70BFA012240F225510A48FDF748FAB8
:104CB00025208DF8040000208DF805008DF80600F1
:104CC00001208DF8070001A8FCF7A6F908B010BD77
:104CD0000000024000100140002020490A88098895
:104CE000491C1E4B19801E49898F8A4216DA1D49BC
:104CF000097839B901211C4A116000211B4AC2F808
:104D0000841206E00021184A11600121174AC2F8F6
:104D1000841214490978164A117010E00021124AD1
:104D20001160124AC2F8841211490978012903D18D
:104D300000210C4A117002E001210A4A1170084951
:104D4000C98F074A928F114488B204490988814269
:104D500002DB0021014A118070470000760000202C
:104D60005C020020740000208002414200004142A9
:104D70007500002010B5074890F8020248B10549B7
:104D800091F802020449FEF715FD0020014981F85F
:104D9000020210BD380400205C0200200000000068
:104DA000000000000000F03F000000000000F83F9D
:104DB00000000000000000000000004003B8E23FD7
:104DC000000000000000000006D0CF43EBFD4C3E89
:104DD000033333333333E33FFFAB6FDBB66DDB3F7E
:104DE0004D268F515555D53F01411DA96074D13FC6
:104DF00065DBC9934A86CD3FEF4E454A287ECA3FC0
:104E00003E5555555555C53F93BDBE166CC166BF41
:104E10002CDE25AF6A56113FF16BD2C541BDBBBE3A
:104E2000D0A4BE726937663E00000000000000009A
:104E3000504E000800000020C400000008310008A7
:104E4000144F0008C4000020140C000018310008A2
:104E50000000000001020304010203040607080920
:104E60000000000005000000CD4700080000000021
:104E70000A000000B5470008000000001400000010
:104E8000C54700080000000064000000A9470008B2
:104E900000000000E803000089470008000000004F
:104EA0000000000000000000000000000000000002
:104EB00000000000000000000000000000000000F2
:104EC00000000000000000000000000000000000E2
:104ED00000000000000000000000000000000000D2
:104EE00000000000000000000000000000000000C2
:104EF0000000000000000000000000000A000000A8
:104F000000000000000000000000000000000000A1
:044F1000000000009D
:040000050800018965
:00000001FF
