:020000040800F2
:10000000600600209D010008C7060008BF06000822
:10001000C306000849040008B311000800000000EE
:10002000000000000000000000000000AD08000813
:10003000BD0400080000000041070008050A000890
:10004000B7010008B7010008B7010008B7010008B0
:10005000B7010008B7010008BF040008B701000895
:10006000B7010008B7010008B7010008B701000890
:10007000B7010008B7010008B7010008B701000880
:10008000B7010008B7010008B7010008B701000870
:10009000B7010008B7010008B7010008B701000860
:1000A000B7010008B7010008B7010008B701000850
:1000B000DB0A0008B7010008B7010008B701000813
:1000C000B7010008B7010008B7010008B701000830
:1000D000B7010008C10E0008490F0008690F0008A9
:1000E000B7010008B7010008B7010008B701000810
:1000F000B7010008B7010008B7010008B701000800
:10010000B7010008B7010008B7010008B7010008EF
:10011000010E0008310E0008B7010008B701000801
:10012000B7010008B7010008B7010008B7010008CF
:10013000B7010008B7010008B7010008B7010008BF
:10014000B7010008B7010008B7010008B7010008AF
:10015000B7010008B7010008B7010008B70100089F
:10016000B7010008B7010008B7010008B70100088F
:10017000B7010008B7010008B7010008B70100087F
:10018000B7010008B7010008DFF80CD000F018F83C
:1001900000480047F5130008600600200648804725
:1001A00006480047FEE7FEE7FEE7FEE7FEE7FEE75C
:1001B000FEE7FEE7FEE7FEE7090A000889010008FE
:1001C000064C074D06E0E06840F0010394E80700A4
:1001D00098471034AC42F6D3FFF7DAFF90180008C6
:1001E000B018000821B1826842F00102826003E089
:1001F000826822F001028260704700000021084AF4
:100200001168084A1140D0E900231A4383681A4351
:10021000C3681A431143044AC2F80413704700002C
:1002200004230140E030FCFF0020014021B182683E
:1002300042F48072826003E0826822F480728260FD
:10024000704721B1826842F40072826003E08268E4
:1002500022F400728260704730B50246002000230D
:100260005068104C20400D790C6844EA0524204366
:10027000506090680C4C2040D1E903542C438D68A9
:100280002C434D7944EA450420439060D06A20F421
:1002900070000C7D641EE4B2234340EA0350D06238
:1002A00030BD0000FFFEFFFCFDF7FFC0F0B50446C7
:1002B0000D4600200021092D11DDE068A5F10A0698
:1002C00006EB4607072606FA07F18843A5F10A065A
:1002D00006EB460603FA06F10843E0600CE02069ED
:1002E00005EB4507072606FA07F1884305EB4506A7
:1002F00003FA06F108432061072A0FDA606B561EE5
:1003000006EB86071F2606FA07F18843561E06EB02
:10031000860605FA06F10843606322E00D2A0FDA2B
:10032000206BD61F06EB86071F2606FA07F18843C7
:10033000D61F06EB860605FA06F10843206310E097
:10034000E06AA2F10D0606EB86071F2606FA07F102
:100350008843A2F10D0606EB860605FA06F108436E
:10036000E062F0BD816841F080418160704700002B
:1003700000B58DB00121084600F0E4F9F0200B90A3
:1003800003208DF8300000208DF833000BA92C4895
:1003900000F028F90121080200F0F4F90121080217
:1003A00000F000FA00214FF4807000F0FBF900200B
:1003B00007904FF470600A90002009904FF480304D
:1003C000089007A8FFF71AFF0020019001208DF880
:1003D00008008DF809000020039004900590042087
:1003E0008DF8180001A91748FFF736FF03230122F3
:1003F00004211448FFF75AFF032302220521114864
:10040000FFF754FF03231A4606210E48FFF74EFF5D
:100410000323042207210B48FFF748FF0121094865
:10042000FFF70FFF01210748FFF700FF01210548F3
:10043000FFF7D8FE0348FFF795FF0DB000BD0000A1
:10044000000002400020014000BFFEE721B1026829
:1004500042F00102026003E0026822F00102026041
:100460007047000010B500220268134B1A40CC6898
:100470000B6823434C6923438C692343CC69234392
:100480000C6A23434C6A23438C6A23434C6B2343FB
:100490008C6B23431A430260426922F00702D1E9C0
:1004A0000B3423431A4342610B6943604B688360FA
:1004B0008B68C36010BD00003F801CF0704710B512
:1004C000012000F03FF810BD00B585B001210220E9
:1004D00000F038F90120009000208DF8040003207E
:1004E0008DF8050002208DF807006946144800F0D9
:1004F00079F80121880300F045F90021084600F051
:10050000D7F90120029000208DF80C0008208DF80A
:100510000D0001208DF80E0002A800F019F8062049
:100520008DF8100003208DF8110002208DF81200C4
:1005300001208DF8130004A800F0C6F805B000BD36
:10054000000402400149086070470000143C01406B
:10055000002123498279002A3AD00A4612680368AA
:100560009A430B461A600A1D126803689A430B1DD2
:100570001A60027911440A6803681A430A60184A2B
:100580000832126803689A43154B08331A601A1D23
:10059000126803689A43124B0C331A604279102A8E
:1005A0000ED11A1F126803681A430D4B08331A60E4
:1005B0001A1D126803681A43094B0C331A600DE0C8
:1005C0000749427911440A6803681A430A6005E042
:1005D000027911440A6803689A430A607047000070
:1005E000003C0140F0B50A4600210023002400BF72
:1005F0003DE0012505FA01F3156805EA03049C4274
:1006000034D105684F000326BE40B5430560157917
:100610004E00B5400668354305601579012D02D0BE
:100620001579022D16D185684F000326BE40B543CB
:10063000856055794E00B5408668354385604568CC
:1006400001268E40B5434560456896798E40B6B226
:1006500035434560C5684F000326BE40B543C560BD
:10066000D5794E00B540C6683543C560491C102990
:10067000BFD3F0BDF0B5002300244D07ED0E02FA04
:1006800005F3CE1000F1200555F826504E07F70E61
:100690000F26BE40B543CF1000F1200646F8275084
:1006A000CE1000F1200555F8265045EA0304CE107F
:1006B00000F1200545F82640F0BD0183704700BFDA
:1006C000FEE700BFFEE7704770B5002100230F2250
:1006D000C4781CB3174C246804F4E064C4F5E064E7
:1006E000C4F30721C1F10404E3B20A4144789C40F9
:1006F000E1B28478144021430C07210E0E4C05789A
:100700006155047804F01F050124AC4005786D1193
:10071000AD0005F1E025C5F8004109E0047804F0DA
:100720001F050124AC40054D0678761145F826409A
:1007300070BD00000CED00E000E400E080E100E0AE
:100740007047000029B1064A12680243044B1A6040
:1007500004E0034A12688243014B1A6070470000AC
:100760003038024029B1064A12680243044B1A602D
:1007700004E0034A12688243014B1A60704700008C
:100780004038024029B1064A12680243044B1A60FD
:1007900004E0034A12688243014B1A60704700006C
:1007A0004438024029B1064A12680243044B1A60D9
:1007B00004E0034A12688243014B1A60704700004C
:1007C00024380240F0B50021002200240225002632
:1007D0000223324F3F6807F00C0121B1042905D0F4
:1007E000082937D105E02E4F076036E02D4F07600E
:1007F00033E02A4F3F1F3F68C7F38056274F3F1F04
:100800003F6807F03F036EB1264FB7FBF3F7DFF801
:100810008CC0ACF1040CDCF800C0CCF3881C07FBE6
:100820000CF40CE01E4FB7FBF3F7DFF870C0ACF12F
:10083000040CDCF800C0CCF3881C07FB0CF4174F49
:100840003F1F3F68C7F301477F1C7D00B4FBF5F7EE
:10085000076002E0124F076000BF00BF0F4F3F6804
:1008600007F0F0010909104F7A5C0768D74047602C
:100870000A4F3F6807F4E051890A0B4F7A5C4768DA
:10088000D7408760054F3F6807F46041490B064F2A
:100890007A5C4768D740C760F0BD00000838024066
:1008A0000024F40000127A000000002070470000CD
:1008B00030B500228B071C0F0F2303FA04F20B4BF9
:1008C0008C1053F824309343084C8D1044F8253095
:1008D00023468C1053F824308C07240F00FA04F4BC
:1008E0002343024C8D1044F8253030BD08380140B8
:1008F0000CB50020019000903448006840F480302E
:100900003249086000BF3148006800F400300090B0
:100910000198401C0190009818B90198B0F5A04FBB
:10092000F1D12A48006800F4003010B10120009095
:1009300001E0002000900098012846D12348403073
:10094000006840F08050214940310860204800682C
:1009500040F440401E4908601C48083000681B49AC
:10096000083108600846006840F400400860084606
:10097000006840F4A05008601648091F0860081F6E
:10098000006840F08070091F086000BF0F480068D1
:1009900000F000700028F9D040F205700E490860A0
:1009A0000A480830006820F0030008490831086050
:1009B0000846006840F00200086000BF03480830A5
:1009C000006800F00C000828F8D10CBD0038024087
:1009D0000070004008544007003C0240042808D141
:1009E0004FF0E021096941F004014FF0E02211616C
:1009F00007E04FF0E021096921F004014FF0E02207
:100A0000116170477047000010B51548006840F448
:100A10007000134908601348006840F00100114954
:100A2000086000200F49083108600E4800680E4930
:100A300008400C4908600D48091D0860081F00683F
:100A400020F48020091F0860002006490C3108604E
:100A5000FFF74EFF4FF0006001498039086010BD7C
:100A600088ED00E000380240FFFFF6FE1030002461
:100A70001FB501210846FFF775FEA720ADF8040059
:100A80000020ADF8060040F2E73002900020ADF8FB
:100A90000C008DF80E0001A94FF0804000F06EF9B7
:100AA0000121880700F094F801221146900700F018
:100AB000AFF81C208DF8000002208DF80100002006
:100AC0008DF8020001208DF803006846FFF7FCFD59
:100AD0000121880700F07FF81FBD10B501218807AC
:100AE00000F085F818B10121880700F071F810BDF9
:100AF00070B58AB004460D4601210220FFF732FE90
:100B000001210220FFF71EFE3020009002208DF808
:100B1000040000208DF8060003208DF80500012058
:100B20008DF8070069462848FFF75CFD0222042182
:100B30002548FFF79FFD022205212348FFF79AFD74
:100B40000894ADF81C500020ADF82400ADF81E004C
:100B500007A91E4800F012F96020ADF80800012036
:100B6000ADF80A0000200490ADF8140002A917485F
:100B700000F058F80821154800F092F86020ADF810
:100B800008000120ADF80A0000200490ADF8140020
:100B900002A90E4800F08EF808210C4800F0DCF89D
:100BA00001210A4800F017F8264604EBD6704110E0
:100BB000064800F0DEF804EBD6704110034800F060
:100BC000DAF80AB070BD00000004024000040040E2
:100BD000CA430282704721B1028842F001020280BA
:100BE00004E002884FF6FE731A400280704730B569
:100BF0000246002000230024158A05EA0103958996
:100C000005EA010413B10CB1012000E0002030BD61
:100C10001AB183890B43838102E083898B438381EB
:100C20007047000070B5002400220023058C4FF6A9
:100C3000FE7635400584028C8388048B4FF68F75D1
:100C40002C40B51E2C400D882C43751E2A408D89E2
:100C50002A434D882A43104DA84202D00F4DA84286
:100C600013D14FF6F7752A40CD892A434FF6FB750D
:100C70002A408D882A434FF6FF652B404FF6FF55DB
:100C80002B400D8A2B434D8A2B43838004838D6830
:100C90004563028470BD0000000001400004014073
:100CA0000A460021018B4FF6F77319401143018367
:100CB0007047000070B5002400220023058C4FF619
:100CC000EF7635400584028C8388048B48F6FF75E7
:100CD0002C404FF6FF452C400D884FF6FF7606EA74
:100CE00005252C434FF6DF752A408D8906EA051548
:100CF0002A434D8806EA05152A43154DA84202D01D
:100D0000144DA8421DD14FF67F752A40CD894FF66C
:100D1000FF7606EA05152A434FF6BF752A408D88EF
:100D200006EA05152A434FF6FF352B404FF2FF75B3
:100D30002B400D8A06EA85052B434D8A06EA850578
:100D40002B43838004838D688563028470BD00001B
:100D500000000140000401400A460021018B4FF2CF
:100D6000FF7319404FF6FF7303EA0223194301830F
:100D7000704741637047816370470000002202881A
:100D8000184B98420ED0184B98420BD0B0F1804FC0
:100D900008D0164B984205D0154B984202D0154BFF
:100DA000984204D14FF68F731A404B881A43124B66
:100DB000984207D0114B984204D04FF6FF431A4097
:100DC0000B891A4302804B68C3620B880385054B6D
:100DD000984202D0044B984201D18B7A03860123BA
:100DE000838270470000014000040140000400407D
:100DF00000080040000C00400010004000140040BB
:100E000010B540F22551094800F011F960B140F2E7
:100E10002551064800F0F0F8044800F0C1F9C4B2CA
:100E20002146024800F0C1F910BD0000004C00400E
:100E300010B540F225511E4800F0F9F8B0B340F269
:100E400025511B4800F0D8F8194800F0A9F9C1B2A3
:100E5000184802780078401C164B187016488154C8
:100E60000078162803D00020194608701EE01148AB
:100E700000780B281ADB10480179C07801EB0020BC
:100E800000B20E4908800C488179407901EB0020BE
:100E900000B20A4948800848017AC07901EB002075
:100EA00000B20649888000200249087010BD000089
:100EB000005000402E000020F801002028000020F3
:100EC00010B540F225511D4800F0B1F810B31B4891
:100ED00000F066F9C4B21A48008800F40040C8B9AE
:100EE0001748008800F4804060B10A2C03D000202D
:100EF0001349088020E01248008840F4004010495F
:100F0000088019E00D2C06D10D48008840F480407F
:100F10000B49088010E00A480088C0F30D00094919
:100F20000C5407480088401C054908800846008882
:100F3000C72801DD0020088010BD0000001001401E
:100F4000180000204000002010B540F2255105484F
:100F500000F06DF820B140F22551024800F04CF845
:100F600010BD00000044004010B540F225511E485D
:100F700000F05DF8B0B340F225511B4800F03CF89A
:100F8000194800F00DF9C1B2184802780078401CE9
:100F9000164B1870164881540078162803D000208C
:100FA000194608701EE0114800780B281ADB10481B
:100FB0000179C07801EB002000B20E4908800C488E
:100FC0008179407901EB002000B20A494880084845
:100FD000017AC07901EB002000B206498880002028
:100FE0000249087010BD00000048004026000020A3
:100FF000940100202000002010B50022002340F6BC
:101000006A14A14200D100BF0A1201249440A3B285
:10101000DC43048010BD21B1828942F400528281F8
:1010200004E082894DF6FF731A408281704770B5E3
:101030000246002400230025002040F66A16B14233
:1010400000D100BFC1F3421501F01F03012606FACB
:1010500003F3012D02D19689334006E0022D02D11F
:10106000168A334001E0968A33400C12012606FAB4
:1010700004F41688344013B10CB1012000E00020C4
:1010800070BDF0B50346002400260025002040F680
:101090006A17B94200D100BF1846C1F3421401F0EB
:1010A0001F06012707FA06F5012C01D10C3004E0D8
:1010B000022C01D1103000E014301AB107682F4320
:1010C000076002E00768AF430760F0BD2DE9FF4706
:1010D00005460E460024A14600BFA046B08900B1D7
:1010E00000BF2C8A24F44054F08804432C82AC893D
:1010F00041F20C608443B088318908437189084308
:101100000443AC81AC8A24F44074B0890443AC82BB
:101110006846FFF757FB2048854202D01F488542AA
:1011200002D1DDF80C9001E0DDF80890A88900F408
:10113000004040B109EBC90000EB091031684900DB
:10114000B0FBF1F707E009EBC90000EB09103168CB
:101150008900B0FBF1F76420B7FBF0F0040120092F
:10116000642101FB1078A88900F4004040B13220CE
:1011700000EBC800B0FBF1F000F00700044308E00A
:10118000322000EB08106421B0FBF1F000F00F00FA
:1011900004432C81BDE8FF8700100140001401408A
:1011A00001468888C0F308007047C1F308028280B6
:1011B000704700BFFEE70000014A024900F013B883
:1011C000791300081400002002E008C8121F08C1AB
:1011D000002AFAD170477047002001E001C1121FB8
:1011E000002AFBD170472DE9F04116460F46044610
:1011F000002503E03946B047641C6D1C20780028A8
:10120000F8D12846BDE8F08170B504460D46134874
:1012100000680A2803D312A0FFF7CEFF70BD0F4865
:10122000006800EB4000174941F820400B48006877
:1012300000EB400001EB8000456000200749096891
:1012400001EB41010F4A02EB81018860034800680D
:10125000401C0249086000BFE0E700001C000020BD
:10126000546F6F206D616E79207461736B732C20E5
:1012700063616E6E6F7420616464206D6F726521AE
:101280000A0000001C01002000B58FB00121880574
:10129000FFF758FA1348019013480290002003907A
:1012A00004200490002005904FF4806006904000D8
:1012B0000790800008904011099040020A90002099
:1012C0000B9001200C9000200D900E90009069462C
:1012D0000648FFF7C7F801210448FFF7B7F80FB039
:1012E00000BD00004C2001400801002010640240B5
:1012F00010B504466FF00400FFF770FBE11704EB34
:101300005171C1F3C701074A11701046007800EB14
:101310004001C1EBC0104FF6FF7101EAC000024965
:10132000088010BD10000020120000200146114A64
:1013300012784A434FF0E0235A6100229A611A461C
:10134000126942F001021A6100BF4FF0E0221069F9
:1013500000F001021AB100F48032002AF5D04FF0FB
:10136000E022126922F001024FF0E0231A6100220C
:101370009A6170471000002000BF054A128802F0F1
:101380004002002AF9D0C2B2014B9A807047000097
:10139000001001401CB501210420FFF7D3F942F2EF
:1013A0000F00009001208DF8040000208DF8060049
:1013B00003208DF8050001208DF8070069460448D8
:1013C000FFF710F90F210248FFF777F91CBD000065
:1013D0000008024010B542F210710448FFF714FFF4
:1013E00044F620610248FFF70FFF10BDC914000842
:1013F000E9140008A820FFF77BFF1648FFF7E2F981
:10140000FFF7C8FFFFF740FFFEF7B2FF532140F29E
:10141000F310FFF76DFBFFF72BFBFFF755F84FF4C9
:10142000E13000F0DFF94FF4E13000F077F84FF4ED
:10143000E13000F0C9F84FF4E13000F019F94FF451
:10144000E13000F069F9FFF7C5FF01E000F004F8B2
:10145000FCE700003000002010B5002400BF2AE0A7
:1014600004EB4400164901EB80008068401C04EB4B
:101470004401134A02EB810188600A20FFF756FFFE
:1014800004EB44000E4901EB8000806804EB44014A
:101490000B4A02EB8101496888420BD304EB4401FB
:1014A00052F821008047002004EB4401044A02EB7B
:1014B00081018860641C034800688442D0DB10BD51
:1014C0001C0100201C00002010B502A0FFF774FED4
:1014D00010BD00005461736B203120657865637521
:1014E000746564210A00000010B50648006808B958
:1014F000012000E000200349086003A0FFF75CFE24
:1015000010BD0000B40241425461736B203220656B
:1015100078656375746564210A00000010B588B0B1
:10152000044601210846FFF70DF901214804FFF7A1
:1015300019F90C20069002208DF81C008DF81D0072
:1015400000208DF81E0001208DF81F0006A91C4800
:10155000FFF748F8072202211948FFF78BF8072206
:1015600003211748FFF786F802940020ADF80C001D
:10157000ADF80E00ADF81000ADF814000C20ADF879
:10158000120002A90F48FFF7A1FD26208DF80400E4
:1015900000208DF8050001208DF806008DF8070069
:1015A00001A8FFF791F8012240F225510548FFF705
:1015B00068FD01210348FFF72EFD08B010BD0000B3
:1015C000000002400044004010B588B004460121EC
:1015D0008804FFF7C7F801210220FFF7B3F84FF4A2
:1015E0004060069002208DF81C008DF81D00002040
:1015F0008DF81E008DF81F0006A91B48FEF7F2FFAC
:1016000007220A211848FFF735F807220B21164850
:10161000FFF730F802940020ADF80C00ADF80E0092
:10162000ADF810000C20ADF812000020ADF8140049
:1016300002A90E48FFF74AFD012240F225510B484E
:10164000FFF71FFD01210948FFF7E5FC27208DF872
:10165000040002208DF8050001208DF8070001A884
:10166000FFF732F808B010BD000402400048004007
:1016700010B588B004460121C804FFF773F80121B2
:101680000420FFF75FF84FF44060069002208DF8C9
:101690001C008DF81D0000208DF81E008DF81F0025
:1016A00006A91B48FEF79EFF08220A211848FEF7EC
:1016B000E1FF08220B211648FEF7DCFF0294002010
:1016C000ADF80C00ADF80E00ADF810000C20ADF830
:1016D00012000020ADF8140002A90E48FFF7F6FC36
:1016E000012240F225510B48FFF7CBFC01210948AC
:1016F000FFF791FC34208DF8040003208DF80500DD
:1017000001208DF8070001A8FEF7DEFF08B010BD2C
:1017100000080240004C004010B588B0044601218A
:101720000805FFF71FF801210C20FFF70BF84FF415
:101730008050069002208DF81C008DF81D000020BE
:101740008DF81E008DF81F0006A92348FEF74AFFFA
:101750000420069002208DF81C008DF81D0000204A
:101760008DF81E008DF81F0006A91C48FEF73AFFF1
:1017700008220C211848FEF77DFF08220221174895
:10178000FEF778FF02940020ADF80C00ADF80E00D3
:10179000ADF810000C20ADF812000020ADF81400D8
:1017A00002A90F48FFF792FC012240F225510C4894
:1017B000FFF767FC01210A48FFF72DFC35208DF863
:1017C000040004208DF8050001208DF8070001A811
:1017D000FEF77AFF08B010BD00080240000C02407E
:1017E0000050004010B588B0044601210846FEF7BD
:1017F000A9FF01211020FEF7C5FF0294072209214D
:101800002148FEF737FF07220A211F48FEF732FF63
:101810004FF4C060069002208DF81C008DF81D006A
:1018200000208DF81E0001208DF81F0006A9164823
:10183000FEF7D8FE0020ADF80C00ADF80E00ADF8B4
:101840001000ADF814000C20ADF8120002A90F48EA
:10185000FFF73CFC01210D48FFF7DDFB012240F2C0
:1018600025510A48FFF70DFC25208DF804000020C3
:101870008DF805008DF8060001208DF8070001A8FD
:10188000FEF722FF08B010BD00000240001001402A
:10189000B01800080000002030000000C811000847
:1018A000E01800083000002030060000D8110008C1
:1018B00000000000010203040102030406070809F6
:1018C0000000000000000000000000000000000018
:1018D0000000000000000000000000000000000008
:040000050800018965
:00000001FF
