:020000040800F2
:10000000280A00209D010008DB0C0008D30C000822
:10001000D70C00085D0A0008471B0008000000001C
:10002000000000000000000000000000D1100008E7
:10003000D10A000800000000650F0008291200081E
:10004000B7010008B7010008B7010008B7010008B0
:10005000B7010008B7010008D30A0008B70100087B
:10006000B7010008B7010008B7010008B701000890
:10007000B7010008B7010008B7010008B701000880
:10008000B7010008B7010008B7010008B701000870
:10009000B7010008B7010008B7010008B701000860
:1000A000B7010008B7010008B7010008B701000850
:1000B00001130008B70100087D140008B70100080B
:1000C000B7010008B7010008B7010008B701000830
:1000D000B701000895170008B9170008D9180008DB
:1000E000B7010008B7010008B7010008B701000810
:1000F000B7010008B7010008B7010008B701000800
:10010000B7010008B7010008B7010008B7010008EF
:10011000D1160008FD160008B7010008B701000855
:10012000B7010008B7010008B7010008B7010008CF
:10013000B7010008B7010008B7010008B7010008BF
:10014000B7010008B7010008B7010008B7010008AF
:10015000B7010008B7010008B7010008B70100089F
:10016000B7010008B7010008B7010008B70100088F
:10017000B7010008B7010008B7010008B70100087F
:10018000B7010008B7010008DFF80CD000F0D2FA80
:1001900000480047E9310008280A00200648804747
:1001A00006480047FEE7FEE7FEE7FEE7FEE7FEE75C
:1001B000FEE7FEE7FEE7FEE72D12000889010008D2
:1001C00040EA01039B0703D009E008C9121F08C0D9
:1001D000042AFAD203E011F8013B00F8013B521E59
:1001E000F9D27047D2B201E000F8012B491EFBD2D0
:1001F00070470022F6E710B513460A460446194632
:10020000FFF7F0FF204610BD2DE9FE4F804681EA42
:100210000300C00F0C46009021F0004123F0004580
:10022000B8EB0200A94105D24046214690461C4643
:100230000B46024623F00040104347D0270DC7F37A
:100240000A00C3F30A510290401A019040286BDA69
:10025000C3F3130040F4801B0098924620B10023A2
:10026000D2EB030A63EB0B0B01985946C0F1400235
:10027000504600F0B9F906460D4650465946019AD7
:1002800000F0D1F910EB08006141002487EA115217
:1002900084EAE7731A4340D0009A62B3019A012AB4
:1002A0004FEA075215DC001B61EB02014FF00042E0
:1002B00002EA0752CDE90042001C41F580113246A6
:1002C0002B4600F0D1F903B0BDE8F08F404621463F
:1002D000F9E7001B61EB0201001C41F580130018D7
:1002E0005B412018A2F5001747EB030140EAD570E7
:1002F000B6196D4111E06D084FEA360645EAC07542
:100300004FEA0752001B61EB0201001C41F580110E
:1003100049084FEA30000019514132462B4603B0DC
:10032000BDE8F04F00F091B9009801224000002391
:10033000D0EB020263EBE073009821464FEAE074D1
:10034000B8EB000061EB0401E9E783F000435BE7F1
:1003500081F0004158E72DE9FE4F81EA030404F0E3
:10036000004421F0004100944FF0000B23F00043C3
:1003700050EA01045ED052EA03045BD0C3F30A548E
:10038000C1F30A552C44A4F2F3340194A0FB0254A7
:10039000C1F3130141F48011C3F3130343F4801339
:1003A00001FB024400FB034E840A970A44EA81548D
:1003B00047EA8357A4FB076802958D0A05FB07856A
:1003C0004FEA932C04FB0C542705029D4FEA065874
:1003D00047EA1637B5EB08056EEB070C870E920E51
:1003E00047EA811742EA8312A7FB0201B6EB0B0131
:1003F00064EB00042B0D43EA0C335E1844EB1C50F5
:10040000DA465146E7FB0201C5F313044FEA0B330A
:1004100043EA14534FEA0432019C43EA0603A4F171
:100420000C040294009CCDE900B400F01DF903B067
:10043000BDE8F08F00200146F9E72DE9F04D81EA93
:10044000030404F0004B21F0004514464FF0000A6D
:1004500023F0004150EA050220D054EA01021DD0E9
:10046000C5F30A570246C5F31303C1F31300C1F3E2
:100470000A5640F4801543F48013A7EB0608101BBE
:10048000D64608F2FD3873EB050002D308F10108E7
:1004900001E092185B41B8F1000F03DA0020014639
:1004A000BDE8F08D00204FF48011064684460EE032
:1004B000171B73EB050705D3121B63EB05030643FC
:1004C0004CEA010C49084FEA300092185B4150EAAF
:1004D0000107EDD152EA030012D082EA040083EA58
:1004E0000501084305D0101BAB4106D201220023B1
:1004F00006E000224FF0004302E06FF001025310CB
:100500001AEB06004CEB085110EB0A0041EB0B0113
:10051000BDE8F04D00F099B80EB5C10F80EAE0706B
:100520000844CA07002140F233438DE80E000A4612
:100530000B4600F099F803B000BD0EB540F2334110
:1005400002910021CDE900110A460B4600F08CF81B
:1005500003B000BDC1F30A5210B5C1F3130140F25C
:10056000FF3341F480119A4201DA002010BD40F2BD
:1005700033439A42A2F2334203DC524200F043F882
:1005800010BD904010BD000030B5041E71F1000494
:1005900004DB4FF00044404264EB0101141E73F190
:1005A000000405DB1C464FF00043524263EB04039A
:1005B0008B4208BF824230BD30B5041E71F1000489
:1005C00004DB4FF00044404264EB0101141E73F160
:1005D000000405DB1C464FF00043524263EB04036A
:1005E000994208BF904230BD202A04DB203A00FA2D
:1005F00002F1002070479140C2F1200320FA03F37A
:10060000194390407047202A04DB203A21FA02F077
:100610000021704721FA02F3D040C2F1200291403C
:10062000084319467047202A06DBCB17203A41FAC7
:1006300002F043EAE07306E041FA02F3D040C2F16F
:100640002002914008431946704710B5141E73F1FB
:10065000000408DA401C41F1000192185B411A4382
:1006600001D120F0010010BD2DE9F04D92469B46CE
:1006700011B1B1FA81F202E0B0FA80F22032904674
:10068000FFF7B2FF04460F4640EA0A0041EA0B01B9
:1006900053465A46084313D0114653EA010019D075
:1006A000C8F140025046FFF7AEFF05460E465046E1
:1006B00059464246FFF798FF084305D0012004E061
:1006C00020463946BDE8F08D0020054346EAE07635
:1006D0002C4337430A986305E40AA0EB0800002284
:1006E000FD0A44EA47540A3002D500200146E9E7F2
:1006F000010510196941DDE9084500196941BDE8A6
:10070000F04DA2E770B521F0004303430CD0C1F3D4
:100710000A550024D5EB040564EB0403D617AD1A83
:10072000B34102DB0020014670BD201841EB0251AD
:1007300070BD0000064C074D06E0E06840F0010384
:1007400094E8070098471034AC42F6D3FFF720FD39
:10075000283C0008483C00082DE9F04D00231A46CB
:100760001B1A8A4103DB00200146BDE8F08DC1F36E
:100770000A52C1F3130141F480154FF0000BD10769
:1007800002D100186D41521E0027044640F2FF11AD
:10079000384601EB620A3E468046024600204FF48E
:1007A0008011FFF730FFC2197141BB1846EB010001
:1007B000B4EB030C75EB000C04D3E41A65EB0005F5
:1007C00017460E46241908F101006D418046342871
:1007D000E3DDF91946EB0600091BA84103D24FF0EF
:1007E000FF32134601E0002213461BEB070046EBE5
:1007F0000A51BDE8F04DFFF728BF21B1826842F0F1
:100800000102826003E0826822F001028260704788
:100810000021084A1168084A1140D0E900231A4310
:1008200083681A43C3681A431143044AC2F8041385
:100830007047000004230140E030FCFF002001402D
:1008400021B1826842F48072826003E0826822F4FF
:1008500080728260704721B1826842F400728260C7
:1008600003E0826822F400728260704730B502466D
:10087000002000235068104C20400D790C6844EA99
:1008800005242043506090680C4C2040D1E903546B
:100890002C438D682C434D7944EA450420439060F5
:1008A000D06A20F470000C7D641EE4B2234340EA59
:1008B0000350D06230BD0000FFFEFFFCFDF7FFC01B
:1008C000F0B504460D4600200021092D11DDE06839
:1008D000A5F10A0606EB4607072606FA07F1884344
:1008E000A5F10A0606EB460603FA06F10843E060A6
:1008F0000CE0206905EB4507072606FA07F1884357
:1009000005EB450603FA06F108432061072A0FDAD2
:10091000606B561E06EB86071F2606FA07F1884312
:10092000561E06EB860605FA06F10843606322E0D0
:100930000D2A0FDA206BD61F06EB86071F2606FA54
:1009400007F18843D61F06EB860605FA06F1084331
:10095000206310E0E06AA2F10D0606EB86071F2671
:1009600006FA07F18843A2F10D0606EB860605FAA2
:1009700006F10843E062F0BD816841F0804181608A
:100980007047000000B58DB00121084600F0ECFA78
:10099000F0200B9003208DF8300000208DF83300FC
:1009A0000BA92C4800F028F90121080200F0FCFAFC
:1009B0000121080200F008FB00214FF4807000F0D4
:1009C00003FB002007904FF470600A90002009900C
:1009D0004FF48030089007A8FFF71AFF002001901D
:1009E00001208DF808008DF8090000200390049084
:1009F000059004208DF8180001A91748FFF736FF6D
:100A00000323012204211448FFF75AFF0323022283
:100A100005211148FFF754FF03231A4606210E480B
:100A2000FFF74EFF0323042207210B48FFF748FF7F
:100A300001210948FFF70FFF01210748FFF700FFD9
:100A400001210548FFF7D9FE0348FFF795FF0DB0D8
:100A500000BD0000000002400020014000BFFEE792
:100A6000704721B1026842F00102026003E00268AF
:100A700022F001020260704710B500220268134B99
:100A80001A40CC680B6823434C6923438C69234389
:100A9000CC6923430C6A23434C6A23438C6A234367
:100AA0004C6B23438C6B23431A430260426922F050
:100AB0000702D1E90B3423431A4342610B694360B7
:100AC0004B6883608B68C36010BD00003F801CF0E2
:100AD000704710B5012000F03FF810BD00B585B09B
:100AE0000121022000F040FA0120009000208DF842
:100AF000040003208DF8050002208DF807006946E8
:100B0000144800F079F80121880300F04DFA002123
:100B1000084600F0DFFA0120029000208DF80C005A
:100B200008208DF80D0001208DF80E0002A800F0BD
:100B300019F806208DF8100003208DF8110002200E
:100B40008DF8120001208DF8130004A800F0C6F8FB
:100B500005B000BD00040240014908607047000074
:100B6000143C0140002123498279002A3AD00A46E8
:100B7000126803689A430B461A600A1D12680368DC
:100B80009A430B1D1A60027911440A6803681A43DC
:100B90000A60184A0832126803689A43154B0833F2
:100BA0001A601A1D126803689A43124B0C331A60BC
:100BB0004279102A0ED11A1F126803681A430D4B8E
:100BC00008331A601A1D126803681A43094B0C3364
:100BD0001A600DE00749427911440A6803681A4314
:100BE0000A6005E0027911440A6803689A430A60C2
:100BF00070470000003C0140F0B50A460021002388
:100C0000002400BF3DE0012505FA01F3156805EA5F
:100C100003049C4234D105684F000326BE40B5430F
:100C2000056015794E00B5400668354305601579B5
:100C3000012D02D01579022D16D185684F000326AB
:100C4000BE40B543856055794E00B5408668354352
:100C50008560456801268E40B543456045689679B4
:100C60008E40B6B235434560C5684F000326BE408E
:100C7000B543C560D5794E00B540C6683543C560FB
:100C8000491C1029BFD3F0BDF0B5002300244D0747
:100C9000ED0E02FA05F3CE1000F1200555F82650AE
:100CA0004E07F70E0F26BE40B543CF1000F12006C9
:100CB00046F82750CE1000F1200555F8265045EA99
:100CC0000304CE1000F1200545F82640F0BD018355
:100CD000704700BFFEE700BFFEE7704770B5002118
:100CE00000230F22C4781CB3174C246804F4E0647A
:100CF000C4F5E064C4F30721C1F10404E3B20A417E
:100D000044789C40E1B28478144021430C07210EC2
:100D10000E4C05786155047804F01F050124AC40A1
:100D200005786D11AD0005F1E025C5F8004109E039
:100D3000047804F01F050124AC40054D06787611B7
:100D400045F8264070BD00000CED00E000E400E036
:100D500080E100E02DE9F0472DED0E8B0446B0EE6A
:100D6000408AF0EE608AB0EE419AF0EE619A0D464C
:100D700016461F46764895FBF0F94846FFF7CCFB30
:100D8000C4E90801724896FBF0F94846FFF7C4FB36
:100D9000C4E90A016E4897FBF0F94846FFF7BCFB2F
:100DA000C4E90C0153EC192B51EC180BFFF7CDFAE9
:100DB000C4E9020194ED0E2BB0EE420AF0EE620A95
:100DC00094ED022BB0EE421AF0EE621A53EC102BA7
:100DD00051EC110BFFF7B9FAC4E9040194ED0E1BB5
:100DE000B0EE410AF0EE610A53EC102B9FED591B57
:100DF00051EC110BFFF7AFFA41EC1B0B94ED021B0A
:100E0000B0EE410AF0EE610A53EC102BFFF7A0FAA6
:100E100041EC1A0B94ED101BB0EE410AF0EE610AA2
:100E200053EC102BFFF7F0F9C4E9060194ED062B03
:100E3000B0EE420AF0EE620A94ED0C2BB0EE421ACC
:100E4000F0EE621A53EC102B51EC110BFFF783FA02
:100E500041EC1B0B94ED042BB0EE420AF0EE620A5B
:100E600094ED0A2BB0EE421AF0EE621A53EC102BFE
:100E700051EC110BFFF76FFA41EC1D0B94ED022BB7
:100E8000B0EE420AF0EE620A94ED082BB0EE421A80
:100E9000F0EE621A53EC102B51EC110BFFF75BFADA
:100EA00041EC1E0B53EC1D2BFFF7AEF941EC1C0B74
:100EB00053EC1B2BFFF7A8F941EC1A0B94ED001B28
:100EC000B0EE410AF0EE610A53EC102BFFF79CF9EB
:100ED000C4E900019FED210B53EC102B51EC180BD2
:100EE000FFF752FB0ED094ED001BB0EE410AF0EE7E
:100EF000610A9FED1A1B53EC112B51EC100BFFF7FD
:100F000043FB0BD89FED150B84ED000B9FED130BEE
:100F100084ED0E0B9FED110B84ED100B94ED0E0B79
:100F200084ED100B94ED020B84ED0E0B94ED001B81
:100F3000B0EE410AF0EE610A51EC100BFFF70AFB2C
:100F40001FFA80F84046BDEC0E8BBDE8F08700002C
:100F500040420F00000000000000004000000000C0
:100F6000000000007047000029B1064A12680243E1
:100F7000044B1A6004E0034A12688243014B1A6072
:100F8000704700003038024029B1064A1268024317
:100F9000044B1A6004E0034A12688243014B1A6052
:100FA000704700004038024029B1064A12680243E7
:100FB000044B1A6004E0034A12688243014B1A6032
:100FC000704700004438024029B1064A12680243C3
:100FD000044B1A6004E0034A12688243014B1A6012
:100FE0007047000024380240F0B5002100220024A0
:100FF000022500260223324F3F6807F00C0121B181
:10100000042905D0082937D105E02E4F076036E0C6
:101010002D4F076033E02A4F3F1F3F68C7F38056CC
:10102000274F3F1F3F6807F03F036EB1264FB7FBC6
:10103000F3F7DFF88CC0ACF1040CDCF800C0CCF3A3
:10104000881C07FB0CF40CE01E4FB7FBF3F7DFF82E
:1010500070C0ACF1040CDCF800C0CCF3881C07FBBA
:101060000CF4174F3F1F3F68C7F301477F1C7D00FB
:10107000B4FBF5F7076002E0124F076000BF00BF46
:101080000F4F3F6807F0F0010909104F7A5C0768BD
:10109000D74047600A4F3F6807F4E051890A0B4F79
:1010A0007A5C4768D7408760054F3F6807F4604126
:1010B000490B064F7A5C4768D740C760F0BD000017
:1010C000083802400024F40000127A0000000020DA
:1010D0007047000030B500228B071C0F0F2303FA66
:1010E00004F20B4B8C1053F824309343084C8D10B2
:1010F00044F8253023468C1053F824308C07240FF5
:1011000000FA04F42343024C8D1044F8253030BD1E
:10111000083801400CB50020019000903448006868
:1011200040F480303249086000BF3148006800F464
:10113000003000900198401C0190009818B9019867
:10114000B0F5A04FF1D12A48006800F4003010B18A
:101150000120009001E0002000900098012846D175
:1011600023484030006840F08050214940310860F9
:101170002048006840F440401E4908601C48083080
:1011800000681B49083108600846006840F40040C8
:1011900008600846006840F4A05008601648091F1F
:1011A0000860081F006840F08070091F086000BFD9
:1011B0000F48006800F000700028F9D040F2057078
:1011C0000E4908600A480830006820F0030008490A
:1011D000083108600846006840F00200086000BF5F
:1011E00003480830006800F00C000828F8D10CBD56
:1011F000003802400070004008544007003C0240A4
:10120000042808D14FF0E021096941F004014FF0B2
:10121000E022116107E04FF0E021096921F00401AB
:101220004FF0E022116170477047000010B515487B
:10123000006840F47000134908601348006840F0EB
:1012400001001149086000200F49083108600E486C
:1012500000680E4908400C4908600D48091D0860E7
:10126000081F006820F48020091F0860002006493C
:101270000C310860FFF74EFF4FF0006001498039E4
:10128000086010BD88ED00E000380240FFFFF6FE68
:10129000103000241FB501210846FFF775FEA72076
:1012A000ADF804000020ADF8060040F2E7300290EF
:1012B0000020ADF80C008DF80E0001A94FF0804021
:1012C00000F0C4F90121880700F0EAF80122114674
:1012D000900700F005F91C208DF8000002208DF821
:1012E000010000208DF8020001208DF803006846FF
:1012F000FFF7F4FC0121880700F0D5F81FBD0000BE
:1013000010B50121880700F0DAF858B106480068E6
:10131000401C05490860012004490870012180072C
:1013200000F0BEF810BD00002000002018000020D2
:1013300070B58AB004460D4601210220FFF724FE55
:1013400001210220FFF710FE3020009002208DF8CE
:10135000040000208DF8060003208DF80500012010
:101360008DF8070069462848FFF746FC0222042151
:101370002548FFF789FC022205212348FFF784FC5A
:101380000894ADF81C500020ADF82400ADF81E0004
:1013900007A91E4800F05AF96020ADF808000120A6
:1013A000ADF80A0000200490ADF8140002A9174817
:1013B00000F0A0F80821154800F0DAF86020ADF838
:1013C00008000120ADF80A0000200490ADF81400D8
:1013D00002A90E4800F0D6F808210C4800F024F9C4
:1013E00001210A4800F05FF8264604EBD670411050
:1013F000064800F026F904EBD6704110034800F0CF
:1014000022F90AB070BD0000000402400004004050
:101410001FB501210420FFF7B7FDA720ADF8040098
:101420000020ADF80600012002900020ADF80C006D
:101430008DF80E0001A9104800F008F901210E48AE
:1014400000F02EF8012211460B4800F049F81E204A
:101450008DF8000001208DF8010000208DF80200B9
:1014600001208DF803006846FFF738FC012102488F
:1014700000F019F81FBD00000008004010B5012160
:10148000064800F01CF838B102F0B0F802F0CAF8D3
:101490000121024800F004F810BD000000080040DF
:1014A000CA430282704721B1028842F001020280E1
:1014B00004E002884FF6FE731A400280704730B590
:1014C0000246002000230024158A05EA01039589BD
:1014D00005EA010413B10CB1012000E0002030BD89
:1014E0001AB183890B43838102E083898B43838113
:1014F0007047000070B5002400220023058C4FF6D1
:10150000FE7635400584028C8388048B4FF68F75F8
:101510002C40B51E2C400D882C43751E2A408D8909
:101520002A434D882A43104DA84202D00F4DA842AD
:1015300013D14FF6F7752A40CD892A434FF6FB7534
:101540002A408D882A434FF6FF652B404FF6FF5502
:101550002B400D8A2B434D8A2B43838004838D6857
:101560004563028470BD000000000140000401409A
:101570000A460021018B4FF6F7731940114301838E
:101580007047000070B5002400220023058C4FF640
:10159000EF7635400584028C8388048B48F6FF750E
:1015A0002C404FF6FF452C400D884FF6FF7606EA9B
:1015B00005252C434FF6DF752A408D8906EA05156F
:1015C0002A434D8806EA05152A43154DA84202D044
:1015D000144DA8421DD14FF67F752A40CD894FF694
:1015E000FF7606EA05152A434FF6BF752A408D8817
:1015F00006EA05152A434FF6FF352B404FF2FF75DB
:101600002B400D8A06EA85052B434D8A06EA85059F
:101610002B43838004838D688563028470BD000042
:1016200000000140000401400A460021018B4FF2F6
:10163000FF7319404FF6FF7303EA02231943018336
:101640007047416370478163704700000022028841
:10165000184B98420ED0184B98420BD0B0F1804FE7
:1016600008D0164B984205D0154B984202D0154B26
:10167000984204D14FF68F731A404B881A43124B8D
:10168000984207D0114B984204D04FF6FF431A40BE
:101690000B891A4302804B68C3620B880385054B94
:1016A000984202D0044B984201D18B7A03860123E1
:1016B00083827047000001400004014000040040A4
:1016C00000080040000C00400010004000140040E2
:1016D00010B540F22551084800F072F958B140F2B7
:1016E0002551054800F044F9034800F023FAC4B23C
:1016F000204601F085FE10BD004C004010B540F2C0
:101700002551204800F05CF900283AD040F22551DC
:101710001C4800F02DF91B4800F00CFAC1B21A4821
:1017200002780078401C184B1870184881540078D3
:10173000162803D1184600785A2803DD00201249E4
:1017400008701EE0104800780B281ADB0F4801795A
:10175000C07801EB002000B20D4908800B48817968
:10176000407901EB002000B2094948800748017A1E
:10177000C07901EB002000B20549888000200249B1
:10178000087010BD00500040380000204A010020C1
:101790003000002010B540F22551064800F010F945
:1017A00030B1044800F0C6F9C4B2204601F028FE6A
:1017B00010BD00000010014010B5002440F225517A
:1017C000414800F0FDF800287CD040F225513E4809
:1017D00000F0CEF83C4800F0ADF9C1B23B480278C9
:1017E0000078401C394B1870394881540078012822
:1017F00003D1184600785A2803DD002033490870C9
:1018000060E032480078022800DA10BD30484078A5
:10181000062854D12D480078142853DB2C48807CAE
:101820002B49C97C40EA01241221294801F09CFA85
:10183000A04240D1264840792549897940EA0120D3
:1018400024490881002088802148007A00F00101A5
:101850001F48C07961F35F001D49497A01F0010119
:1018600040EA81001A49897A01F0010140EAC10089
:101870001749C97A01F0010140EA01101449097BB6
:1018800001F0010140EA41101149497B01F00101D9
:1018900040EA81100E49897B01F0010140EAC11044
:1018A0000B49C97B01F0010140EA012009498988FF
:1018B00008430849888000200449087002E000209D
:1018C0000249087000BFA0E7004400402400002047
:1018D000820000207800002010B540F225512048F9
:1018E00000F06EF800283AD040F225511C4800F074
:1018F0003FF81B4800F01EF9C1B21A480278007880
:10190000401C184B1870184881540078162803D1D1
:10191000184600785A2803DD0020124908701EE09E
:10192000104800780B281ADB0F480179C07801EBCA
:10193000002000B20D4908800B488179407901EB05
:10194000002000B2094948800748017AC07901EBBC
:10195000002000B20549888000200249087010BDAF
:10196000004800402E000020E60000202600002055
:1019700010B50022002340F66A14A14200D100BF36
:101980000A1201249440A3B2DC43048010BD21B1AB
:10199000828942F40052828104E082894DF6FF730D
:1019A0001A408281704702460020B1F5007F00D1C5
:1019B00000BF13880B400BB1012000E000207047EE
:1019C00070B50246002400230025002040F66A1668
:1019D000B14200D100BFC1F3421501F01F0301263F
:1019E00006FA03F3012D02D19689334006E0022D59
:1019F00002D1168A334001E0968A33400C12012648
:101A000006FA04F41688344013B10CB1012000E04A
:101A1000002070BDF0B503460024002600250020FC
:101A200040F66A17B94200D100BF1846C1F342140C
:101A300001F01F06012707FA06F5012C01D10C3031
:101A400004E0022C01D1103000E014301AB1076814
:101A50002F43076002E00768AF430760F0BD000056
:101A60002DE9FF4705460E460024A14600BFA046CB
:101A7000B08900B100BF2C8A24F44054F08804439C
:101A80002C82AC8941F20C608443B08831890843D0
:101A9000718908430443AC81AC8A24F44074B08952
:101AA0000443AC826846FFF79FFA2048854202D083
:101AB0001F48854202D1DDF80C9001E0DDF8089066
:101AC000A88900F4004040B109EBC90000EB0910FF
:101AD00031684900B0FBF1F707E009EBC90000EB02
:101AE000091031688900B0FBF1F76420B7FBF0F012
:101AF00004012009642101FB1078A88900F400404A
:101B000040B1322000EBC800B0FBF1F000F007005C
:101B1000044308E0322000EB08106421B0FBF1F030
:101B200000F00F0004432C81BDE8FF870010014046
:101B30000014014001468888C0F308007047C1F3D3
:101B400008028280704700BFFEE703B4019841009D
:101B5000009850EAC12018BF04204A0D18BF40F079
:101B6000010040F2FF72B2EB515F08BF40F002008B
:101B7000012808BF052002B07047000000000000E7
:101B80002DE9F04D2DED040B2DED0E8B96B0DDE91A
:101B90002550279CDDF890A025F0004624F0004851
:101BA000BAF1000F14BF0121002101EB4502FC49ED
:101BB00053184A1093422AD3002814BF012300234C
:101BC00003EB44030B44F7498B4220D358EA00014E
:101BD0009FEDF59B76D0DFF8D8B35D4503D1BAF120
:101BE000000F05D188E0BAF1000F08BF002100D036
:101BF000012101EB450111F5001F08D8002814BF91
:101C00000121002101EB440111F5001F0BD99DEDCD
:101C1000261B9DED240B16B0BDEC0E8B04B0BDE869
:101C2000F04D00F069BE0027002DBCBFE14988459A
:101C300021DAE1498845A8BF02271CDAC3451ADC2E
:101C4000DE4901EB2851142908DDC1F1340220FAE4
:101C500002F101FA02F282420DD108E058B9C1F155
:101C6000140228FA02F101FA02F2424503D101F00E
:101C70000101C1F1020756EA0A0124D1002C22DA3F
:101C8000002D18BF022F01D0012F0AD0022000F032
:101C90007FFE16B0BDEC0E8B04B0BDE8F04D00F039
:101CA00013BE022000F074FE00F00EFE51EC100B8B
:101CB00081F0004141EC100B16B0BDEC0E8B04B06E
:101CC000BDE8F08D18E09FEDBEAB9FEDBF8B002807
:101CD00071D1B848804522D105F1804010F58010BF
:101CE00008BFBAF1000F07D0B3450ADC002CA8BF2B
:101CF0009DED260BE0DA0DE0B0EE490AF0EE690A40
:101D0000DAE7002C06DA9DED260B51EC100B81F082
:101D100000416FE0AE48784490ED000BCCE7D84529
:101D20004DD1002C48DA2EB186423AD1BAF1000FDB
:101D300042D126E0BAF1000F13D0022000F028FEB5
:101D400000F0F6FD8DED020B9DED240B8DED000BEB
:101D500010EE900A039961F31E0003909DED020BB3
:101D6000AAE78DED02AB9DED240B1AEE901A10EE52
:101D7000900A8DED000B61F31E0003909DED020BA8
:101D80009AE78DED028B9DED240B18EE901A10EE64
:101D9000900A8DED000B61F31E0003909DED020B88
:101DA0008AE709DA9DED240B51EC190B53EC102B4B
:101DB000FEF743FB1EE020E09DED240B7CE786420E
:101DC0001BDAB4F1804F0DD0A4F10050B0F1FF50F8
:101DD00013D1002D11DB9DED240B51EC100B01F004
:101DE00051FC07E09DED240B53EC102B51EC100B34
:101DF00000F0C2BC41EC100B5EE79DED240B51ECF2
:101E0000100B00F05DFFBAF1000FCDE90E0142D1D9
:101E10009FED710B46B3A6F1E040B0F17F600CD0AE
:101E20005E4538D1002D00DAA7B3022F0CBF012088
:101E30004FF0FF30FEF770FBDCE7002D01DD002CDA
:101E40000DDA002D01DD002C1FDB002D16DA002C31
:101E500014DB012F08BF9FED620B3FF42DAFB0EEF6
:101E60004A0AF0EE6A0A27E7022F18BF002D0CD0AD
:101E7000012F0AD1002DFFF61FAF06E0002DB8BFDD
:101E8000002C08DA012F3FF417AFB0EE480AF0EE4D
:101E9000680A11E71BE0012000EBE57050EA07013A
:101EA00015D0791EB0EE498AF0EE698A084308BF62
:101EB0009FED4D8B4E480025804570DD4D494E48C5
:101EC000884514DDB0420DDB002C19DB2FE001202A
:101ED00000F05EFD16B0BDEC0E8B04B0BDE8F04D19
:101EE00000F016BDB34502DC002C09DC1FE0864281
:101EF00002DA002C1BDA03E05E452BDD002C16DD38
:101F0000022000F045FD00F013FD8DED020B53ECB7
:101F10001A2B51EC180BFEF71EFACDE900010399BC
:101F2000019861F31E0003909DED020BC4E60220B0
:101F300000F02EFD00F00CFD10EE901A18EE900A45
:101F40008DED020B8DED008B61F31E0003909DED76
:101F5000020BB1E69DED0E0B53EC192B51EC100B5F
:101F6000FEF7F3F99FED260BCDE9080153EC102B9A
:101F70009DED080B51EC100BFEF7EDF99FED221BC8
:101F800053EC112BFEF7E4F99DED081B53EC112BDC
:101F9000FEF7E1F99FED1E1B53EC112B3CE08CE0AA
:101FA000FFFF1F00FFFF0F00000000000000F03FD8
:101FB0000000F03F0000F07F0000404301FCFFFF05
:101FC000000000000000F07F0000000000000000A2
:101FD000061F00000000000000000000000000805C
:101FE000000000000000F0FF000000000000F0BF53
:101FF0000000E0410000F043FFFFEF3F0000000061
:10200000000000000000D03F555555555555D53FAF
:10201000000000000000E03FFEF79AF99DED080B7C
:1020200041EC1A0B53EC102B51EC100BFEF793F90B
:1020300053EC1A2BFEF78FF941EC1A0B9FEDFE0BB8
:1020400053EC102B9DED080B51EC100BFEF783F9B0
:1020500041EC1B0B9FEDFA0B51EC1A0B53EC102BC0
:10206000FEF779F941EC1A0B9FEDF70B53EC102BAF
:102070009DED080B51EC100BFEF76DF953EC1A2B8C
:10208000FEF763F941EC1A0B51EC1B0B53EC1A2BC6
:10209000FEF7BAF80690CDE906519DED060B53EC1C
:1020A0001B2B51EC100BFEF750F953EC1A2BFEF7DB
:1020B0004FF941EC100B00F0A1B90020B6F5801FDC
:1020C0000EDA9FEDE30B53EC102B9DED0E0B51EC54
:1020D000100BFEF740F9CDE90E016FF034000E460B
:1020E00000EB2650A0F2FF37C6F31300DA4940F0A8
:1020F0007F6646F040568842D8BF002408DDD749A5
:102100008142C8BF012403DC0024A6F580167F1C91
:10211000D348784400EBC4000F9690ED00CB9DEDC2
:102120000E0B53EC1C2B51EC100BFEF70EF99DED32
:102130000E0B41EC1B0B53EC1C2B51EC100BFEF760
:1021400063F841EC100B51EC190B53EC102BFEF71C
:1021500074F941EC1D0B51EC1B0B53EC1D2BFEF7DE
:10216000FAF841EC1A0BBF488DED10AB784410958E
:1021700090ED000B4FF0005040EA660000EB844009
:102180008DED080B00F5002009909DED080B53EC38
:102190001C2B51EC100BFEF7D8F89DED0E1B53ECE9
:1021A000112BFEF7D5F841EC100B53EC102B9DEDE5
:1021B000100B51EC100BFEF7CEF89DED080B41EC27
:1021C0001C0B53EC102B9DED100B51EC100BFEF77C
:1021D000C2F853EC1B2BFEF7BBF853EC1C2BFEF79D
:1021E000B4F853EC1D2BFEF7B6F841EC1C0B53EC86
:1021F0001A2B51EC1A0BFEF7AEF841EC1B0B9A4868
:102200000621B0EE4B0AF0EE6B0A784400F0E0FADB
:10221000B0EE401AF0EE601AB0EE41DAF0EE61DA9C
:1022200053EC1B2B51EC1B0BFEF795F853EC1D2BBD
:10223000FEF791F89DED100B41EC1B0B53EC1A2BA4
:1022400051EC100BFDF7E0FF53EC1C2BFEF783F86D
:1022500053EC1B2BFDF7D8FF9DED100B41EC1B0B36
:1022600053EC102B51EC100BFEF775F841EC1D0BE5
:102270009FED7FEB53EC1E2BFDF7C6FF53EC1B2BA2
:10228000FDF7C2FF0890CDE908519DED080B53EC16
:102290001E2B51EC100BFEF758F853EC1D2BFEF7DC
:1022A00054F853EC1B2BFEF753F89DED080B41EC53
:1022B0001D0B53EC102B9DED100B51EC100BFEF78A
:1022C0004AF841EC1B0B53EC1A2B51EC1D0BFEF79B
:1022D00042F89DED080B41EC1A0B53EC102B51EC1E
:1022E0001C0BFEF738F853EC1A2BFDF78DFF41EC71
:1022F0001A0B51EC1B0B53EC1A2BFDF785FF0C90BE
:10230000CDE90C519DED0C0B53EC1B2B51EC100B3C
:10231000FEF71BF853EC1A2BFEF71AF841EC1B0BD7
:102320009FED550B53EC102B9DED0C0B51EC100B4E
:10233000FEF711F841EC1A0B9FED510B51EC1B0B02
:1023400053EC102BFEF707F841EC1B0B9FED4E0BE7
:1023500053EC102B9DED0C0B51EC100BFDF7FBFF1C
:1023600053EC1B2BFDF750FF41EC100B4848784411
:1023700000EBC40090ED001B51EC100B53EC112B43
:10238000FDF742FF41EC1B0B3846FEF7C5F8CDE9DF
:10239000080153EC1B2B51EC1A0BFDF735FF41ECF8
:1023A000100B3C48784400EBC40090ED00CB51EC9E
:1023B000100B53EC1C2BFDF727FF9DED081B53EC76
:1023C000112BFDF721FF0690CDE906519DED080B7D
:1023D00053EC102B9DED060B51EC100BFDF7B5FFE8
:1023E00053EC1C2BFDF7B1FF53EC1A2BFDF7ADFF9F
:1023F00053EC1B2BFDF7ACFF41EC100B9DED261BA6
:1024000053EC102B8DED001B00959DED260B51EC30
:10241000100BFDF7A0FF9DED000B41EC1A0B53ECE8
:10242000102B9DED260B51EC100BFDF78EFF9DED53
:10243000061B53EC112B2FE0000000604715F73FFF
:10244000FE822B654715F73F44DF5DF80BAE543E27
:1024500000000000000040438E9803007AB60B0095
:10246000821A0000B01A0000BA1900000000000033
:102470000000000000000840000000E009C7EE3F37
:10248000FD033ADC09C7EE3FF5015B14E02F3EBEC9
:102490004618000000180000FDF75DFF53EC1A2BF2
:1024A000FDF7B2FE9DED060B41EC1A0B53EC102B21
:1024B0009DED000B51EC100BFDF74DFFCDE90C012C
:1024C0009DED0C0B51EC1A0B53EC102BFDF79CFE01
:1024D000CDE902010C46AA498C422FDB611A084360
:1024E00018D19DED0C0B53EC102B9DED020B51EC14
:1024F000100BFDF72AFF41EC1B0B9FEDA30B51ECDA
:102500001A0B53EC102BFDF77FFE53EC1B2BFEF741
:1025100053F82DD2022000F03BFA00F009FA10EE39
:10252000901A18EE900A8DED020B8DED008B61F381
:102530001E0003909DED020BFFF7BEBB944A24F0F2
:102540000041914214D39349214408437FF4EFACF6
:102550009DED0C0B53EC102B9DED020B51EC100B71
:10256000FDF7F3FE53EC1A2BFEF726F87FF6DFACEF
:1025700024F000408849894A002601EB205182421C
:102580002BDA481C4FF4801121FA00F02044844AD1
:10259000C0F30A517A44A1F2FF3192ED000B814A57
:1025A0008DED080BCA4020EA0202C0F3130040F48C
:1025B0008010C1F1140120FA01F60992002CB8BF75
:1025C00076429DED080B53EC102B9DED0C0B51EC5E
:1025D000100BFDF7BAFECDE90C019DED0C0B51EC93
:1025E0001A0B53EC102BFDF70FFE9FED6F0B0890AD
:1025F000CDE9085153EC102B9DED080B51EC100B5D
:10260000FDF7A9FE41EC1B0B9FED690B53EC102B62
:102610009DED080B51EC100BFDF79DFE9DED0C0B95
:1026200041EC1C0B53EC102B9DED080B51EC100BE7
:10263000FDF78BFE53EC1A2BFDF78AFE9FED5E1B18
:1026400053EC112BFDF787FE53EC1C2BFDF7DCFD43
:1026500041EC1A0B51EC1B0B53EC1A2BFDF7D4FD7C
:10266000CDE902019DED020B53EC1B2B51EC100B3D
:10267000FDF76BFE53EC1A2BFDF76AFE9DED020B86
:1026800041EC1A0B53EC102B51EC100BFDF763FED1
:10269000CDE908014A489DED080B0521784400F07A
:1026A00097F89DED081B51EC100B53EC112BFDF727
:1026B00052FE9DED021B53EC112BFDF749FECDE9B7
:1026C00006019DED020B53EC1A2B51EC100BFDF79C
:1026D00042FE53EC1A2BFDF797FD9FED3B0B41ECAF
:1026E0001A0B53EC102B9DED060B51EC100BFDF764
:1026F0002CFE9DED060B41EC1B0B53EC102B9DEDBE
:10270000020B51EC100BFDF726FE53EC1B2BFDF7D3
:1027100094FE53EC1A2BFDF718FE9DED021B53ECB3
:10272000112BFDF712FE53EC192BFDF711FECDE92D
:10273000020101EB065001150029C8BF039015DC0A
:102740009DED020B324651EC100BFDF7DBFFFFF75E
:10275000FCF9042808BF00F0FBF832469DED020B9F
:1027600051EC100BFDF7CEFFCDE902019DED020B00
:1027700051EC180B53EC102BFDF7EDFDFFF73ABBB6
:102780000000904000000000FE822B654715973C3A
:1027900000CC904000346F3F01FCFFFF0000E03FA1
:1027A00088160000FFFF0F0000000000432EE63FE8
:1027B000396CA80C615C20BEEF39FAFE422EE63F70
:1027C000581500000000000000000000000000405C
:1027D00070B504462DED028B4D1E00EBC500B0EE2A
:1027E000408AF0EE608A90ED000B35F0060017D0BD
:1027F00053EC182B51EC100BFDF7ADFD41EC100B19
:102800006D1E04EBC50090ED001B51EC100B53EC5A
:10281000112BFDF7F9FC41EC100B35F00600E7D168
:10282000022D36D0042D1CD0062D1CBFBDEC028B12
:1028300070BD53EC182B51EC100BFDF78CFD94ED93
:102840000A1B53EC112BFDF7DFFC53EC182BFDF7A3
:1028500082FD94ED081B53EC112BFDF7D5FC41ECE8
:10286000100B53EC182B51EC100BFDF774FD94ED8D
:10287000061B53EC112BFDF7C7FC53EC182BFDF78F
:102880006AFD94ED040B53EC102BFDF7BDFC41ECFD
:10289000100B53EC182B51EC100BFDF75CFD94ED75
:1028A000021B53EC112BFDF7AFFC53EC182BFDF77B
:1028B00052FD94ED001B53EC112BFDF7A5FCBDEC74
:1028C000028B41EC100B70BD9FED070B10B553EC64
:1028D000102B9FED070B51EC100BFDF7AEFD41ECFB
:1028E000100B10BD00000000000000000000000000
:1028F000000000000000F03F10B553EC112B51EC2C
:10290000100BFDF781FC41EC100B10BD0000000026
:102910009FED050B10B553EC102B51EC100BFDF790
:102920008CFD41EC100B10BD000000000000000009
:102930009FED050B10B553EC102B51EC100BFDF770
:102940000AFD41EC100B10BD0000000000000070FB
:102950009FED050B10B553EC102B51EC100BFDF750
:10296000FAFC41EC100B10BD00000000000000104C
:1029700002E008C8121F08C1002AFAD17047704748
:10298000002001E001C1121F002AFBD170470000A6
:1029900001490860704700005000002000B52E4833
:1029A00090F900002D4991F90010884223D02A485F
:1029B00000782A4908702848007801280BD1284857
:1029C0000068284908600846006800F091F9002076
:1029D000234908600FE0204890F90000401C50B9DE
:1029E0001F480068204908600846006800F080F928
:1029F00000201B49086018480078A0B91B480188CE
:102A00000088401C194A1080B1F5FA7F0EDD4FF4A2
:102A1000FA701146088000201349086011490860C7
:102A20000D49488002E00020104908800E480068E7
:102A30000C49096808444EF66021B1FBF0F00649E4
:102A4000C880094800686421484306490968B0FB0A
:102A5000F1F00149088100BDB00100203D000020D7
:102A60002000002044000020400000203E00002004
:102A700000B58FB001218805FEF776FA1348019062
:102A80001348029000200390042004900020059039
:102A90004FF480600690400007908000089040113D
:102AA000099040020A9000200B9001200C90002019
:102AB0000D900E90009069460648FDF7DDFF01215C
:102AC0000448FDF7CEFF0FB000BD00004C200140D0
:102AD00064000020106402402DE9F04104460D46D8
:102AE00016464FF6FF70002114E0625C50404FF034
:102AF000000C0AE000F00107401017B14AF2010291
:102B000050400CF1010202F0FF0CBCF1080FF1DBA8
:102B10004A1CD1B2A942E8DB02464FEAE07800EB5A
:102B200018684FEA2828A0EB082886F800804FEAAA
:102B3000E07800EB18684FEA182883F80080BDE8B9
:102B4000F081000010B50648C08E00B110BDFDF741
:102B500087FF00F07DFB00F019FD00BFF6E70000E5
:102B6000C001002010B586B00024142205A101A8E0
:102B7000FDF726FB1424214601A800F06BFE06B0E9
:102B800010BD000001060F00000000000000000062
:102B9000000000000000864D2DE9F04186B005469A
:102BA0000E4617469846002414A30FCB8DE80F005D
:102BB0000E24E8B28DF8050028128DF806008DF875
:102BC00007608DF808708DF80980A01EC1B204ABB3
:102BD00005AA6846FFF780FF9DF81410A01E0DF8A7
:102BE00000109DF81010601E0DF800102146684678
:102BF00000F030FE06B0BDE8F081000001030900DE
:102C000000000000000000003C5500004FF47A7006
:102C100001490882C8857047C001002010B5002313
:102C2000012211464FF47A70FFF7B6FFFFF79AFFC3
:102C300000F020F810BD000010B504466FF004004D
:102C4000FEF7DEFAE11704EB5171C1F3C701074A41
:102C500011701046007800EB4001C1EBC0104FF638
:102C6000FF7101EAC0000249088010BD1000002079
:102C70001200002010B50E4800880E4908800C484C
:102C8000408848800C48008848810C48C0884886A5
:102C90000A48008988860948408888850846008B4C
:102CA000088606488088C881084600F04BFC10BDA5
:102CB00030000020C001002026000020B0010020CC
:102CC00082B0CDE9000121F0004001909DED000BA4
:102CD00002B051EC100B70470146042901DD0020C1
:102CE0007047024830F81100FAE700006400002045
:102CF00000211B4A1278012A16D1194AD268524281
:102D000042434FF47A73B2FBF3F1164A128D154B1E
:102D10005A851A46D28C1A851A46928CDA841A463B
:102D2000528C9A84598419E00D4A92F90020521C61
:102D3000A2B90B4AD26842434FF47A73B2FBF3F163
:102D4000084AD28B074B1A841A46928BDA831A46AA
:102D5000528B9A831A46128B5A831983704700004C
:102D6000B0010020C001002070B502460B464FF6AE
:102D7000FF70002110E0565C7040002408E000F075
:102D80000105401015B14AF201067040661CB4B24C
:102D9000082CF4DB4E1CB1B29942ECDB70BD000094
:102DA00010B52DED108B8EB09FEDCF0BB0EE408A9D
:102DB000F0EE608A0020FFF78FFF0446FDF7BDFBB1
:102DC00041EC180B9FEDCA0B53EC102B51EC180B78
:102DD000FDF733FB41EC190B9FEDC70B53EC102BA8
:102DE000FDF7B9FA41EC180B9FEDC50B53EC102B16
:102DF00051EC180BFDF7AFFA41EC190B9FEDC20B2C
:102E000053EC102BFDF7A1FA41EC180B9FEDC00B12
:102E100053EC102B51EC180BFDF7CEFB06D29FEDB7
:102E2000BC0BB0EE408AF0EE608A0EE09FEDAE0B78
:102E300053EC102B51EC180BFDF7A6FB05D89FEDBA
:102E4000AA0BB0EE408AF0EE608A51EC180BFDF749
:102E500081FB00F57A70B049098A401AAF49888031
:102E60000120FFF739FF0446FDF767FB41EC180B23
:102E70009FED9F0B53EC102B51EC180BFDF7DDFA77
:102E800041EC190B9FED9C0B53EC102BFDF763FAF3
:102E900041EC180B9FEDA20B53EC102B51EC180BCF
:102EA000FDF759FA41EC190B9FED930B53EC102BE6
:102EB000FDF7C3FA41EC180B53EC182B9FED9A0B5E
:102EC00051EC100BFDF747FA41EC190B9FED981BE5
:102ED000B0EE480AF0EE680AFEF752FEB0EE40BAD5
:102EE000F0EE60BA9FED940B53EC102B51EC1B0BE2
:102EF000FDF731FA9FED921BB0EE480AF0EE680A3A
:102F0000CDE90801FEF73CFEB0EE40BAF0EE60BA43
:102F10009FED8D0B53EC102B51EC1B0BFDF71BFAA7
:102F20009FED8B1BB0EE480AF0EE680ACDE9060172
:102F3000FEF726FEB0EE40CAF0EE60CA9FED860BAB
:102F400053EC102B51EC1C0BFDF705FA41EC1B0B5D
:102F50009FED731BB0EE480AF0EE680AFEF710FE14
:102F6000B0EE40DAF0EE60DA9FED7D0B53EC102B03
:102F700051EC1D0BFDF7EFF99FED7B1BB0EE480AFE
:102F8000F0EE680ACDE90001FEF7FAFDB0EE40FA76
:102F9000F0EE60FA9FED760B53EC102B51EC1F0B0B
:102FA000FDF7D9F941EC1D0B9FED731BB0EE480AFC
:102FB000F0EE680AFEF7E4FDB0EE40FAF0EE60FADB
:102FC0009FED6F0B53EC102B51EC1F0BFDF7C3F96A
:102FD00041EC1E0B53EC1D2BFDF7B7F941EC1C0B1C
:102FE0009DED000B53EC102BFDF70EF953EC1B2B52
:102FF000CDE902019DED020B51EC100BFDF7A5F997
:10300000CDE904019DED060B53EC102B9DED040B57
:1030100051EC100BFDF7F8F841EC1A0B9DED080B85
:1030200053EC102BFDF791F953EC192BCDE90A0164
:103030009DED0A0B51EC100BFDF7E6F89FED520BDE
:1030400053EC102BCDE90C019DED0C0B51EC100B4A
:10305000FDF77BF941EC180B9FED4D0B53EC102B5A
:1030600051EC180BFDF7A8FA06D29FED490BB0EE14
:10307000408AF0EE608A0EE09FED470B53EC102B78
:1030800051EC180BFDF780FA05D29FED430BB0EE23
:10309000408AF0EE608A9FED420B53EC102B51EC0E
:1030A000180BFDF758F941EC190BFDF753FA00F531
:1030B0007A701949C98D401A00B2184948800846EB
:1030C000B0F90200002802DD0120087007E0134873
:1030D000B0F90200002802DAFF20104908700EB093
:1030E000BDEC108B10BD00000000000000000000CF
:1030F000000000000000B0406666666666660A4032
:10310000000000000040CF40000000000000A94087
:10311000000000000088E340C0010020B001002052
:1031200000000000000014407940D9940B46914003
:103130000000000000000040B5882826FFFD9C40EC
:103140000000000000000840EB508F65E0CE9A4080
:103150000000000000001040EC51B81E85218B409B
:10316000D578E926311E6E400000000000001840AE
:10317000EF1CCA50153341400000000000001C4005
:103180004DC8DEBD699BFF3FA9A44E40931C79400A
:103190000000000000C062400000000000C062C0EB
:1031A00000000000000024401CB501210420FDF7B0
:1031B000DBFE42F20F00009001208DF80400002099
:1031C0008DF8060003208DF8050001208DF807001A
:1031D00069460448FDF710FD0F210248FDF777FD11
:1031E0001CBD000000080240A820FFF725FD17487D
:1031F000FDF7FAFEFFF7D8FFFFF73AFCFDF7C2FB39
:10320000532140F2F310FEF793F8FEF743F8FEF770
:10321000FFF8FDF763FC4FF4165000F065FC4FF427
:10322000165000F0C1FA4FF4165000F031FB4FF485
:10323000165000F081FB4FF4165000F0EFFBFFF743
:10324000E5FC01E000F056FAFCE700005400002025
:1032500000B52DED048B93B048216846FCF7C9FFFB
:103260001249B1F90000FDF757F941EC180B10496C
:103270008889FDF762F941EC190B0D48B0F84A3026
:10328000B0F84820B0F84610B0EE481AF0EE681AD0
:10329000B0EE490AF0EE690A6846FDF75BFD0449A5
:1032A000088713B0BDEC048B00BD00002600002091
:1032B000C001002070B5C2B005464FF4807102A86D
:1032C000FCF797FF002400262F4840788DF808006F
:1032D0002D4880788DF809002B480179C07841EAA3
:1032E000002629488179407941EA00204006000EF5
:1032F0008DF80A009DF80A0000EBD0714C100020F8
:1033000001901DE09DF80400304435F810000112D2
:103310009DF80400032202EB400002AA11549DF81C
:103320000400304415F810109DF80400042202EB4C
:10333000400002AA11549DF80400401CC0B2019044
:103340009DF80400A042DDDB9DF80A00C01CC4B259
:103350006B4601AA214602A8FFF7BEFB9DF80400B8
:1033600002A908559DF8001002AA601C1154A01C67
:10337000C4B2214602A800F0F9F9214602A800F0E3
:103380002FFB42B070BD00002402002070B505463E
:103390000026002408240B480179C07841EA002661
:1033A00008488179407941EA002025F81600214635
:1033B0000448401C00F0DAF921460248401C00F0A5
:1033C0000FFB70BD240200207CB505460624214673
:1033D0006B4601AA0948FFF77FFB9DF804100748D8
:1033E00001559DF80020611C4254A41C214600F0A8
:1033F000BDF92146014800F0F3FA7CBD250200200A
:1034000070B506464B4801780078401C494A107058
:103410004948465410460078012800DC70BD4648F3
:10342000407810283BD143480078022878DD424894
:1034300080790830414908703E4800780978884210
:103440006EDD3C480078801E3B49095C39480078B5
:10345000401E394A105C41EA002536480078801E3B
:10346000C1B21046FFF780FCA84214D13148007861
:1034700033490870002406E02F48015D3048401CA5
:103480000155601CC4B22B4800788442F4DB012053
:103490002B4981F8010200202649087040E02648A7
:1034A0004078032803D024484078062835D10720E7
:1034B000224908701F4800780978884230DD1D488D
:1034C0000078801E1C49095C1A480078401E1A4A80
:1034D000105C41EA002517480078801EC1B21046F2
:1034E000FFF742FCA84214D1124800781449087032
:1034F000002406E01048015D1148401C0155601C85
:10350000C4B20C4800788442F4DB01200C4981F8F5
:10351000010200200749087002E0002005490870F8
:1035200004480078FA2802DD00200249087000BF34
:1035300074E700004D000020260500204C0000200C
:103540002402002010B504460F4890F8010201281B
:1035500015D10D488078032804D0062806D01028FD
:103560000CD107E02046FFF7A5FE07E02046FFF755
:103570000DFF03E02046FFF727FF00BF00BF00203C
:10358000014981F8010210BD2402002000B52DED93
:10359000048B93B048216846FCF72BFE11498888BC
:1035A000FCF7CBFF41EC180B0F49C88AFCF7C5FFAD
:1035B00041EC190B0C48B0F84A30B0F84820B0F88C
:1035C0004610B0EE481AF0EE681AB0EE490AF0EE76
:1035D000690A6846FDF7BEFB0349488713B0BDEC96
:1035E000048B00BDB0010020C00100200B48017811
:1035F0000078401C094A1070322903DA012008497A
:10360000086002E000200649086004480078642849
:1036100002DB002001490870704700001400002000
:10362000880241420B4801780078401C094A10701A
:10363000322903DA01200849086002E00020064927
:10364000086004480078642802DB00200149087003
:1036500070470000150000208C02414210B5FFF7B2
:103660009FFBFFF79BF90548418F0548FDF7E9FFF0
:103670000248018F0248FDF7E6FF10BDC00100209F
:103680000004004000B52DED048B83B041EC190B14
:10369000FDF762F841EC180B18EE100A18EE901ABC
:1036A0008DED008B002818BF0120084320F000405A
:1036B000C0F17F6000F1E040C00F14D019EE101A85
:1036C00019EE900A8DED009B002918BF01210843D7
:1036D00020F00040C0F17F6000F1E040C00F04BF67
:1036E0000120FFF755F951EC180B03B0BDEC048B2A
:1036F00000BD000010B51A48007800B910BD0020C8
:103700001749087017480068401C164908600846A9
:1037100000680521B0FBF1F201FB120018B9FFF7B8
:103720009DFFFFF70FFA0F4800686421B0FBF1F22C
:1037300001FB120008B9FFF771FA0A4800684FF45C
:10374000FA71B0FBF1F201FB120038B906480068CB
:1037500008B9012000E000200349086000BFCDE760
:10376000180000201C000020B402414270B505463C
:103770000E4600240CE000BF40210A48FEF713F972
:103780000028F9D0295D0748FEF7D9F9601C84B2FA
:10379000B442F0DB00BF40210248FEF704F90028E4
:1037A000F9D070BD0010014010B588B00446012169
:1037B0000846FDF7D9FB01214804FDF7E5FB0C2085
:1037C000069002208DF81C008DF81D0000208DF859
:1037D0001E0001208DF81F0006A91C48FDF70CFAF9
:1037E000072202211948FDF74FFA07220321174843
:1037F000FDF74AFA02940020ADF80C00ADF80E0077
:10380000ADF81000ADF814000C20ADF8120002A9BC
:103810000F48FEF725F926208DF8040000208DF8CA
:10382000050001208DF806008DF8070001A8FDF7BE
:1038300055FA012240F225510548FEF7EBF8012127
:103840000348FEF7A4F808B010BD000000000240D5
:103850000044004070B505460E4600240CE000BF51
:1038600040210A48FEF79FF80028F9D0295D074853
:10387000FEF765F9601C84B2B442F0DB00BF402162
:103880000248FEF790F80028F9D070BD00440040CF
:1038900010B588B0044601218804FDF775FB0121AD
:1038A0000220FDF761FB4FF44060069002208DF886
:1038B0001C008DF81D0000208DF81E008DF81F00E3
:1038C00006A91B48FDF798F907220A211848FDF7B9
:1038D000DBF907220B211648FDF7D6F902940020E8
:1038E000ADF80C00ADF80E00ADF810000C20ADF8EE
:1038F00012000020ADF8140002A90E48FEF7B0F83F
:10390000012240F225510B48FEF784F801210948B5
:10391000FEF73DF827208DF8040002208DF8050001
:1039200001208DF8070001A8FDF7D8F908B010BDF7
:10393000000402400048004010B588B00446012150
:10394000C804FDF721FB01210420FDF70DFB4FF416
:103950004060069002208DF81C008DF81D000020AC
:103960008DF81E008DF81F0006A91B48FDF744F9CD
:1039700008220A211848FDF787F908220B2116486A
:10398000FDF782F902940020ADF80C00ADF80E00AE
:10399000ADF810000C20ADF812000020ADF81400B6
:1039A00002A90E48FEF75CF8012240F225510B48AF
:1039B000FEF730F801210948FDF7E9FF34208DF8C2
:1039C000040003208DF8050001208DF8070001A8F0
:1039D000FDF784F908B010BD00080240004C00401B
:1039E00070B505460E4600240CE000BF40210A4891
:1039F000FDF7D9FF0028F9D0295D0748FEF79FF8A9
:103A0000601C84B2B442F0DB00BF40210248FDF7E5
:103A1000CAFF0028F9D070BD004C004010B588B036
:103A2000044601210805FDF7AFFA01210C20FDF73E
:103A30009BFA4FF48050069002208DF81C008DF800
:103A40001D0000208DF81E008DF81F0006A92348D8
:103A5000FDF7D2F80420069002208DF81C008DF8A6
:103A60001D0000208DF81E008DF81F0006A91C48BF
:103A7000FDF7C2F808220C211848FDF705F90822C5
:103A800002211748FDF700F902940020ADF80C0060
:103A9000ADF80E00ADF810000C20ADF812000020BB
:103AA000ADF8140002A90F48FDF7DAFF012240F239
:103AB00025510C48FDF7AEFF01210A48FDF767FFCD
:103AC00035208DF8040004208DF8050001208DF8C4
:103AD000070001A8FDF702F908B010BD0008024078
:103AE000000C02400050004010B588B0044601218F
:103AF0000846FDF739FA01211020FDF755FA029426
:103B0000072209212148FDF7BFF807220A211F4893
:103B1000FDF7BAF84FF4C060069002208DF81C0043
:103B20008DF81D0000208DF81E0001208DF81F006B
:103B300006A91648FDF760F80020ADF80C00ADF8B6
:103B40000E00ADF81000ADF814000C20ADF8120016
:103B500002A90F48FDF784FF01210D48FDF717FF6B
:103B6000012240F225510A48FDF754FF25208DF827
:103B7000040000208DF805008DF8060001208DF866
:103B8000070001A8FDF7AAF808B010BD0000024028
:103B90000010014000000000000000000000F03FA5
:103BA000000000000000F83F0000000000000000DE
:103BB0000000004003B8E23F0000000000000000E9
:103BC00006D0CF43EBFD4C3E033333333333E33F77
:103BD000FFAB6FDBB66DDB3F4D268F515555D53FA3
:103BE00001411DA96074D13F65DBC9934A86CD3F71
:103BF000EF4E454A287ECA3F3E5555555555C53F5F
:103C000093BDBE166CC166BF2CDE25AF6A56113F50
:103C1000F16BD2C541BDBBBED0A4BE726937663E52
:103C20000000000000000000483C000800000020E8
:103C300054000000702900089C3C0008540000203B
:103C4000D4090000802900080000000001020304DC
:103C5000010203040607080900000000000000003C
:103C60000000000000000000000000000000000054
:103C70000000000000000000000000000000000044
:103C80000000000000000000000000000000000034
:0C3C900000000000000000000000000028
:040000050800018965
:00000001FF
