:020000040800F2
:10000000880A00209D010008D30B0008CB0B0008D4
:10001000CF0B000855090008071700080000000072
:10002000000000000000000000000000B90D000802
:10003000C9090008000000004D0C0008110F00085D
:10004000B7010008B7010008B7010008B7010008B0
:10005000B7010008B7010008CB090008B701000884
:10006000B7010008B7010008B7010008B701000890
:10007000B7010008B7010008B7010008B701000880
:10008000B7010008B7010008B7010008B701000870
:10009000B7010008B7010008B7010008B701000860
:1000A000B7010008B7010008B7010008B701000850
:1000B000E70F0008B7010008B7010008B701000802
:1000C000B7010008B7010008B7010008B701000830
:1000D000B7010008CD130008F1130008A1140008AF
:1000E000B7010008B7010008B7010008B701000810
:1000F000B7010008B7010008B7010008B701000800
:10010000B7010008B7010008B7010008B7010008EF
:100110000D1300083D130008B7010008B7010008DF
:10012000B7010008B7010008B7010008B7010008CF
:10013000B7010008B7010008B7010008B7010008BF
:10014000B7010008B7010008B7010008B7010008AF
:10015000B7010008B7010008B7010008B70100089F
:10016000B7010008B7010008B7010008B70100088F
:10017000B7010008B7010008B7010008B70100087F
:10018000B7010008B7010008DFF80CD000F09EFAB4
:1001900000480047F91D0008880A002006488047EB
:1001A00006480047FEE7FEE7FEE7FEE7FEE7FEE75C
:1001B000FEE7FEE7FEE7FEE7150F000889010008ED
:1001C000D2B201E000F8012B491EFBD27047002299
:1001D000F6E710B513460A4604461946FFF7F0FF46
:1001E000204610BD421C10F8011B0029FBD1801ACB
:1001F00070472DE9FE4F804681EA0300C00F0C4690
:10020000009021F0004123F00045B8EB0200A94125
:1002100005D24046214690461C460B46024623F036
:100220000040104347D0270DC7F30A00C3F30A511B
:100230000290401A019040286BDAC3F3130040F497
:10024000801B0098924620B10023D2EB030A63EB97
:100250000B0B01985946C0F14002504600F0A8F936
:1002600006460D4650465946019A00F0C0F910EB7B
:1002700008006141002487EA115284EAE7731A43B7
:1002800040D0009A62B3019A012A4FEA075215DC66
:10029000001B61EB02014FF0004202EA0752CDE978
:1002A0000042001C41F5801132462B4600F0C0F997
:1002B00003B0BDE8F08F40462146F9E7001B61EB33
:1002C0000201001C41F5801300185B412018A2F5C3
:1002D000001747EB030140EAD570B6196D4111E0F4
:1002E0006D084FEA360645EAC0754FEA0752001B13
:1002F00061EB0201001C41F5801149084FEA300012
:100300000019514132462B4603B0BDE8F04F00F0D2
:1003100080B90098012240000023D0EB020263EB79
:10032000E073009821464FEAE074B8EB000061EBFF
:100330000401E9E783F000435BE781F0004158E7FF
:100340002DE9FE4F81EA030404F0004421F000414E
:1003500000944FF0000B23F0004350EA01045ED0FC
:1003600052EA03045BD0C3F30A54C1F30A552C4488
:10037000A4F2F3340194A0FB0254C1F3130141F43D
:100380008011C3F3130343F4801301FB024400FB09
:10039000034E840A970A44EA815447EA8357A4FB30
:1003A000076802958D0A05FB07854FEA932C04FB2D
:1003B0000C542705029D4FEA065847EA1637B5EB5D
:1003C00008056EEB070C870E920E47EA811742EA8A
:1003D0008312A7FB0201B6EB0B0164EB00042B0DAB
:1003E00043EA0C335E1844EB1C50DA465146E7FBF7
:1003F0000201C5F313044FEA0B3343EA14534FEAE7
:100400000432019C43EA0603A4F10C040294009C0C
:10041000CDE900B400F00CF903B0BDE8F08F002086
:100420000146F9E72DE9F04D81EA030404F0004BA1
:1004300021F0004514464FF0000A23F0004150EA35
:10044000050220D054EA01021DD0C5F30A57024626
:10045000C5F31303C1F31300C1F30A5640F480152A
:1004600043F48013A7EB0608101BD64608F2FD38AC
:1004700073EB050002D308F1010801E092185B411B
:10048000B8F1000F03DA00200146BDE8F08D00202E
:100490004FF48011064684460EE0171B73EB0507E8
:1004A00005D3121B63EB050306434CEA010C490814
:1004B0004FEA300092185B4150EA0107EDD152EA51
:1004C000030012D082EA040083EA0501084305D044
:1004D000101BAB4106D20122002306E000224FF0A0
:1004E000004302E06FF0010253101AEB06004CEBE0
:1004F000085110EB0A0041EB0B01BDE8F04D00F094
:1005000088B80EB540F2334102910021CDE90011C7
:100510000A460B4600F08CF803B000BDC1F30A5246
:1005200010B5C1F3130140F2FF3341F480119A4238
:1005300001DA002010BD40F233439A42A2F2334266
:1005400003DC524200F043F810BD904010BD0000A3
:1005500030B5041E71F1000404DB4FF0004440424A
:1005600064EB0101141E73F1000405DB1C464FF01F
:100570000043524263EB04038B4208BF824230BD0A
:1005800030B5041E71F1000404DB4FF0004440421A
:1005900064EB0101141E73F1000405DB1C464FF0EF
:1005A0000043524263EB0403994208BF904230BDBE
:1005B000202A04DB203A00FA02F100207047914023
:1005C000C2F1200320FA03F3194390407047202A18
:1005D00004DB203A21FA02F00021704721FA02F3ED
:1005E000D040C2F120029140084319467047202AAA
:1005F00006DBCB17203A41FA02F043EAE07306E04B
:1006000041FA02F3D040C2F120029140084319465A
:10061000704710B5141E73F1000408DA401C41F154
:10062000000192185B411A4301D120F0010010BD76
:100630002DE9F04D92469B4611B1B1FA81F202E0EC
:10064000B0FA80F220329046FFF7B2FF04460F4620
:1006500040EA0A0041EA0B0153465A46084313D0C8
:10066000114653EA010019D0C8F140025046FFF785
:10067000AEFF05460E46504659464246FFF798FFE4
:10068000084305D0012004E020463946BDE8F08D3E
:100690000020054346EAE0762C4337430A98630579
:1006A000E40AA0EB08000022FD0A44EA47540A309D
:1006B00002D500200146E9E7010510196941DDE98D
:1006C000084500196941BDE8F04DA2E7064C074D09
:1006D00006E0E06840F0010394E807009847103412
:1006E000AC42F6D3FFF754FDD4260008F4260008E8
:1006F00021B1826842F00102826003E0826822F048
:1007000001028260704700000021084A1168084A0F
:100710001140D0E900231A4383681A43C3681A437F
:100720001143044AC2F80413704700000423014037
:10073000E030FCFF0020014021B1826842F4807269
:10074000826003E0826822F480728260704721B187
:10075000826842F40072826003E0826822F40072D0
:100760008260704730B50246002000235068104C6C
:1007700020400D790C6844EA0524204350609068BD
:100780000C4C2040D1E903542C438D682C434D7907
:1007900044EA450420439060D06A20F470000C7D48
:1007A000641EE4B2234340EA0350D06230BD00002F
:1007B000FFFEFFFCFDF7FFC0F0B504460D4600202C
:1007C0000021092D11DDE068A5F10A0606EB4607B8
:1007D000072606FA07F18843A5F10A0606EB460646
:1007E00003FA06F10843E0600CE0206905EB4507D9
:1007F000072606FA07F1884305EB450603FA06F1DA
:1008000008432061072A0FDA606B561E06EB860745
:100810001F2606FA07F18843561E06EB860605FAE0
:1008200006F10843606322E00D2A0FDA206BD61F21
:1008300006EB86071F2606FA07F18843D61F06EB4C
:10084000860605FA06F10843206310E0E06AA2F18B
:100850000D0606EB86071F2606FA07F18843A2F16C
:100860000D0606EB860605FA06F10843E062F0BDC8
:10087000816841F0804181607047000000B58DB013
:100880000121084600F0E4F9F0200B9003208DF8D8
:10089000300000208DF833000BA92C4800F028F917
:1008A0000121080200F0F4F90121080200F000FA29
:1008B00000214FF4807000F0FBF9002007904FF406
:1008C00070600A90002009904FF48030089007A8CB
:1008D000FFF71AFF0020019001208DF808008DF825
:1008E0000900002003900490059004208DF8180062
:1008F00001A91748FFF736FF0323012204211448FA
:10090000FFF75AFF0323022205211148FFF754FF86
:1009100003231A4606210E48FFF74EFF0323042245
:1009200007210B48FFF748FF01210948FFF70FFF98
:1009300001210748FFF700FF01210548FFF7D8FE16
:100940000348FFF795FF0DB000BD00000000024016
:100950000020014000BFFEE721B1026842F0010221
:10096000026003E0026822F00102026070470000AA
:1009700010B500220268134B1A40CC680B68234361
:100980004C6923438C692343CC6923430C6A23437A
:100990004C6A23438C6A23434C6B23438C6B234365
:1009A0001A430260426922F00702D1E90B34234363
:1009B0001A4342610B6943604B6883608B68C36074
:1009C00010BD00003F801CF0704710B5012000F002
:1009D0003FF810BD00B585B00121022000F038F9C4
:1009E0000120009000208DF8040003208DF8050000
:1009F00002208DF807006946144800F079F80121BB
:100A0000880300F045F90021084600F0D7F90120DD
:100A1000029000208DF80C0008208DF80D000120B8
:100A20008DF80E0002A800F019F806208DF81000CD
:100A300003208DF8110002208DF8120001208DF89E
:100A4000130004A800F0C6F805B000BD0004024081
:100A50000149086070470000143C0140002123490F
:100A60008279002A3AD00A46126803689A430B46F4
:100A70001A600A1D126803689A430B1D1A600279F6
:100A800011440A6803681A430A60184A0832126857
:100A900003689A43154B08331A601A1D12680368DD
:100AA0009A43124B0C331A604279102A0ED11A1F46
:100AB000126803681A430D4B08331A601A1D126836
:100AC00003681A43094B0C331A600DE00749427959
:100AD00011440A6803681A430A6005E00279114468
:100AE0000A6803689A430A6070470000003C0140AE
:100AF000F0B50A4600210023002400BF3DE0012597
:100B000005FA01F3156805EA03049C4234D105682F
:100B10004F000326BE40B543056015794E00B54031
:100B20000668354305601579012D02D01579022D2F
:100B300016D185684F000326BE40B54385605579C0
:100B40004E00B540866835438560456801268E4075
:100B5000B5434560456896798E40B6B235434560E9
:100B6000C5684F000326BE40B543C560D5794E0029
:100B7000B540C6683543C560491C1029BFD3F0BDD8
:100B8000F0B5002300244D07ED0E02FA05F3CE1058
:100B900000F1200555F826504E07F70E0F26BE40EF
:100BA000B543CF1000F1200646F82750CE1000F1D3
:100BB000200555F8265045EA0304CE1000F1200523
:100BC00045F82640F0BD0183704700BFFEE700BF37
:100BD000FEE7704770B5002100230F22C4781CB3D4
:100BE000174C246804F4E064C4F5E064C4F30721FE
:100BF000C1F10404E3B20A4144789C40E1B2847834
:100C0000144021430C07210E0E4C057861550478E1
:100C100004F01F050124AC4005786D11AD0005F10D
:100C2000E025C5F8004109E0047804F01F0501241F
:100C3000AC40054D0678761145F8264070BD0000A1
:100C40000CED00E000E400E080E100E0704700000F
:100C500029B1064A12680243044B1A6004E0034AB1
:100C600012688243014B1A6070470000303802401E
:100C700029B1064A12680243044B1A6004E0034A91
:100C800012688243014B1A607047000040380240EE
:100C900029B1064A12680243044B1A6004E0034A71
:100CA00012688243014B1A607047000044380240CA
:100CB00029B1064A12680243044B1A6004E0034A51
:100CC00012688243014B1A607047000024380240CA
:100CD000F0B5002100220024022500260223324F15
:100CE0003F6807F00C0121B1042905D0082937D14C
:100CF00005E02E4F076036E02D4F076033E02A4FA6
:100D00003F1F3F68C7F38056274F3F1F3F6807F0DC
:100D10003F036EB1264FB7FBF3F7DFF88CC0ACF1A1
:100D2000040CDCF800C0CCF3881C07FB0CF40CE0CE
:100D30001E4FB7FBF3F7DFF870C0ACF1040CDCF822
:100D400000C0CCF3881C07FB0CF4174F3F1F3F6813
:100D5000C7F301477F1C7D00B4FBF5F7076002E095
:100D6000124F076000BF00BF0F4F3F6807F0F00150
:100D70000909104F7A5C0768D74047600A4F3F68FF
:100D800007F4E051890A0B4F7A5C4768D7408760C7
:100D9000054F3F6807F46041490B064F7A5C47688E
:100DA000D740C760F0BD0000083802400024F400BE
:100DB00000127A00000000207047000030B50022C9
:100DC0008B071C0F0F2303FA04F20B4B8C1053F804
:100DD00024309343084C8D1044F8253023468C1062
:100DE00053F824308C07240F00FA04F42343024CF8
:100DF0008D1044F8253030BD083801400CB5002076
:100E0000019000903448006840F480303249086016
:100E100000BF3148006800F4003000900198401C89
:100E20000190009818B90198B0F5A04FF1D12A4867
:100E3000006800F4003010B10120009001E00020B3
:100E400000900098012846D123484030006840F0C7
:100E500080502149403108602048006840F44040FB
:100E60001E4908601C48083000681B4908310860AA
:100E70000846006840F4004008600846006840F4F6
:100E8000A05008601648091F0860081F006840F05D
:100E90008070091F086000BF0F48006800F00070F4
:100EA0000028F9D040F205700E4908600A48083061
:100EB000006820F00300084908310860084600680F
:100EC00040F00200086000BF03480830006800F0EE
:100ED0000C000828F8D10CBD00380240007000401A
:100EE00008544007003C0240042808D14FF0E0219C
:100EF000096941F004014FF0E022116107E04FF071
:100F0000E021096921F004014FF0E02211617047EE
:100F10007047000010B51548006840F47000134990
:100F200008601348006840F0010011490860002083
:100F30000F49083108600E4800680E4908400C4906
:100F400008600D48091D0860081F006820F4802013
:100F5000091F0860002006490C310860FFF74EFFAA
:100F60004FF0006001498039086010BD88ED00E055
:100F700000380240FFFFF6FE103000241FB50121AB
:100F80000846FFF775FEA720ADF804000020ADF875
:100F9000060040F2E73002900020ADF80C008DF81A
:100FA0000E0001A94FF0804000F06EF90121880782
:100FB00000F094F801221146900700F0AFF81C20D1
:100FC0008DF8000002208DF8010000208DF802004D
:100FD00001208DF803006846FFF7FCFD012188071A
:100FE00000F07FF81FBD10B50121880700F085F8DB
:100FF00018B10121880700F071F810BD70B58AB0F2
:1010000004460D4601210220FFF732FE0121022095
:10101000FFF71EFE3020009002208DF80400002013
:101020008DF8060003208DF8050001208DF80700DB
:1010300069462848FFF75CFD022204212548FFF796
:101040009FFD022205212348FFF79AFD0894ADF881
:101050001C500020ADF82400ADF81E0007A91E4862
:1010600000F012F96020ADF808000120ADF80A0088
:1010700000200490ADF8140002A9174800F058F8B9
:101080000821154800F092F86020ADF80800012012
:10109000ADF80A0000200490ADF8140002A90E4833
:1010A00000F08EF808210C4800F0DCF801210A4815
:1010B00000F017F8264604EBD6704110064800F001
:1010C000DEF804EBD6704110034800F0DAF80AB0FD
:1010D00070BD00000004024000040040CA430282C8
:1010E000704721B1028842F00102028004E00288C8
:1010F0004FF6FE731A400280704730B5024600205A
:1011000000230024158A05EA0103958905EA0104F4
:1011100013B10CB1012000E0002030BD1AB1838969
:101120000B43838102E083898B43838170470000F6
:1011300070B5002400220023058C4FF6FE76354062
:101140000584028C8388048B4FF68F752C40B51E66
:101150002C400D882C43751E2A408D892A434D88CA
:101160002A43104DA84202D00F4DA84213D14FF68A
:10117000F7752A40CD892A434FF6FB752A408D88A2
:101180002A434FF6FF652B404FF6FF552B400D8A43
:101190002B434D8A2B43838004838D6845630284EF
:1011A00070BD000000000140000401400A4600211B
:1011B000018B4FF6F773194011430183704700000C
:1011C00070B5002400220023058C4FF6EF763540E1
:1011D0000584028C8388048B48F6FF752C404FF6FB
:1011E000FF452C400D884FF6FF7606EA05252C4377
:1011F0004FF6DF752A408D8906EA05152A434D888A
:1012000006EA05152A43154DA84202D0144DA842FE
:101210001DD14FF67F752A40CD894FF6FF7606EA3D
:1012200005152A434FF6BF752A408D8806EA051535
:101230002A434FF6FF352B404FF2FF752B400D8AA6
:1012400006EA85052B434D8A06EA85052B438380F4
:1012500004838D688563028470BD00000000014036
:10126000000401400A460021018B4FF2FF73194030
:101270004FF6FF7303EA022319430183704741636A
:10128000704781637047000000220288184B984223
:101290000ED0184B98420BD0B0F1804F08D0164BAF
:1012A000984205D0154B984202D0154B984204D174
:1012B0004FF68F731A404B881A43124B984207D04F
:1012C000114B984204D04FF6FF431A400B891A4342
:1012D00002804B68C3620B880385054B984202D09D
:1012E000044B984201D18B7A038601238382704795
:1012F00000000140000401400004004000080040DC
:10130000000C0040001000400014004010B540F2F6
:101310002551094800F034F960B140F225510648E2
:1013200000F006F9044800F0E5F9C4B2214602488D
:1013300000F0E5F910BD0000004C004010B540F28F
:1013400025511E4800F01CF9B0B340F225511B484E
:1013500000F0EEF8194800F0CDF9C1B21848027853
:101360000078401C164B18701648815400781628D7
:1013700003D00020194608701EE0114800780B28A1
:101380001ADB10480179C07801EB002000B20E4949
:1013900008800C488179407901EB002000B20A49AD
:1013A00048800848017AC07901EB002000B2064964
:1013B000888000200249087010BD000000500040E5
:1013C0002C000020AA0100202600002010B540F2C9
:1013D0002551064800F0D4F830B1044800F08AF9ED
:1013E000C4B2204600F0D4FD10BD00000010014042
:1013F00010B540F22551264800F0C2F8002845D02B
:1014000040F22551224800F093F8214800F072F98B
:10141000C1B2204802780078401C1E4B18701E484C
:1014200081540078AA2803D00020194608702DE0C6
:10143000184800780F2829DB16480078401E164906
:10144000085C55281FD108468078C97840EA2120D9
:101450001249C880104800790F49497940EA212093
:101460000E4908810C4880790B49C97940EA21204E
:101470000A4948810848407A88810748807AC881AB
:101480000548C07A088200200249087010BD00009B
:10149000004400401C000020E2000020D00000209A
:1014A00010B540F225511E4800F06AF8B0B340F282
:1014B00025511B4800F03CF8194800F01BF9C1B257
:1014C000184802780078401C164B18701648815452
:1014D0000078162803D00020194608701EE0114835
:1014E00000780B281ADB10480179C07801EB002046
:1014F00000B20E4908800C488179407901EB002048
:1015000000B20A4948800848017AC07901EB0020FE
:1015100000B20649888000200249087010BD000012
:101520000048004024000020460100201E0000204A
:1015300010B50022002340F66A14A14200D100BF7A
:101540000A1201249440A3B2DC43048010BD21B1EF
:10155000828942F40052828104E082894DF6FF7351
:101560001A408281704702460020B1F5007F00D109
:1015700000BF13880B400BB1012000E00020704732
:1015800070B50246002400230025002040F66A16AC
:10159000B14200D100BFC1F3421501F01F03012683
:1015A00006FA03F3012D02D19689334006E0022D9D
:1015B00002D1168A334001E0968A33400C1201268C
:1015C00006FA04F41688344013B10CB1012000E08F
:1015D000002070BDF0B50346002400260025002041
:1015E00040F66A17B94200D100BF1846C1F3421451
:1015F00001F01F06012707FA06F5012C01D10C3076
:1016000004E0022C01D1103000E014301AB1076858
:101610002F43076002E00768AF430760F0BD00009A
:101620002DE9FF4705460E460024A14600BFA0460F
:10163000B08900B100BF2C8A24F44054F0880443E0
:101640002C82AC8941F20C608443B0883189084314
:10165000718908430443AC81AC8A24F44074B08996
:101660000443AC826846FFF733FB2048854202D032
:101670001F48854202D1DDF80C9001E0DDF80890AA
:10168000A88900F4004040B109EBC90000EB091043
:1016900031684900B0FBF1F707E009EBC90000EB46
:1016A000091031688900B0FBF1F76420B7FBF0F056
:1016B00004012009642101FB1078A88900F400408E
:1016C00040B1322000EBC800B0FBF1F000F00700A1
:1016D000044308E0322000EB08106421B0FBF1F075
:1016E00000F00F0004432C81BDE8FF87001001408B
:1016F0000014014001468888C0F308007047C1F318
:1017000008028280704700BFFEE70000014A0249DC
:1017100000F013B8A51900081400002002E008C862
:10172000121F08C1002AFAD170477047002001E05B
:1017300001C1121F002AFBD170472DE9F041164666
:101740000F460446002503E03946B047641C6D1C73
:1017500020780028F8D12846BDE8F08170B504460D
:101760000D46134800680A2803D312A0FFF7CEFFE6
:1017700070BD0F48006800EB4000174941F8204059
:101780000B48006800EB400001EB80004560002042
:101790000749096801EB41010F4A02EB81018860AA
:1017A00003480068401C0249086000BFE0E70000F1
:1017B00018000020546F6F206D616E792074617382
:1017C0006B732C2063616E6E6F7420616464206D96
:1017D0006F7265210A0000005800002000B58FB02C
:1017E00001218805FFF734FA13480190134802904D
:1017F0000020039004200490002005904FF48060A6
:101800000690400007908000089040110990400227
:101810000A9000200B9001200C9000200D900E905B
:10182000009069460648FFF7A3F801210448FFF736
:1018300093F80FB000BD00004C2001404400002090
:101840001064024010B502460023002003E0145C3F
:101850001C44E3B2401C8842F9DBD843401CC0B2B0
:1018600010BD2DE9F04104460D4616464FF6FF70B7
:10187000002114E0625C50404FF0000C0AE000F0E0
:101880000107401017B14AF2010250400CF1010269
:1018900002F0FF0CBCF1080FF1DB4A1CD1B2A942E7
:1018A000E8DB02464FEAE07800EB18684FEA2828A8
:1018B000A0EB082886F800804FEAE07800EB186873
:1018C0004FEA182883F80080BDE8F0817FB505460F
:1018D0000C4616460DA30FCB8DE80F00E8B28DF82D
:1018E0000200E0B28DF80300200A8DF80400F0B287
:1018F0008DF807000D210DF10100FFF7A3FF8DF812
:101900000E001021684600F009FD7FBDAA0001B855
:101910000B0000000000000000003C5510B504461C
:101920006FF00400FFF7E0FAE11704EB5171C1F327
:10193000C701074A11701046007800EB4001C1EB67
:10194000C0104FF6FF7101EAC0000249088010BDC7
:1019500010000020120000200146114A12784A436C
:101960004FF0E0235A6100229A611A46126942F050
:1019700001021A6100BF4FF0E022106900F001027D
:101980001AB100F48032002AF5D04FF0E02212693B
:1019900022F001024FF0E0231A6100229A617047A1
:1019A0001000002000BF054A128802F04002002A01
:1019B000F9D0C2B2014B9A8070470000001001407C
:1019C0000146092901DD00207047024830F8110066
:1019D000FAE700004400002070B502460B464FF6BF
:1019E000FF70002110E0565C7040002408E000F019
:1019F0000105401015B14AF201067040661CB4B2F0
:101A0000082CF4DB4E1CB1B29942ECDB70BD000037
:101A100010B52DED068B9FEDC10BB0EE408AF0EEB8
:101A2000608A0020FFF7CCFF0446FEF76AFD41EC18
:101A3000180B9FEDBC0B53EC102B51EC180BFEF761
:101A4000F1FC41EC190B9FEDB90B53EC102BFEF799
:101A500077FC41EC180B9FEDB70B53EC102B51ECBE
:101A6000180BFEF78DFD29D89FEDB40B53EC102B0E
:101A700051EC180BFEF76CFD20D89FEDB20B53EC28
:101A8000102B51EC180BFEF75BFC41EC190B9FED92
:101A9000AF0B53EC102BFEF74DFC41EC180B9FEDF8
:101AA000AD0B53EC102B51EC180BFEF749FC41EC3D
:101AB000190BFEF733FDA949888002E00020A749F1
:101AC00088800120FFF77CFF0446FEF71AFD41ECF9
:101AD000180B9FED940B53EC102B51EC180BFEF7E9
:101AE000A1FC41EC190B9FED910B53EC102BFEF771
:101AF00027FC41EC180B9FED8F0B53EC102B51EC96
:101B0000180BFEF73DFD22D89FED8C0B53EC102BEC
:101B100051EC180BFEF71CFD19D89FED910B53ECFF
:101B2000102B51EC180BFEF70BFC41EC1A0B9FED40
:101B30008E0B53EC102BFEF775FC41EC190B9FED4F
:101B40008C0B53EC102BFEF7F5FB41EC180B02202D
:101B5000FFF736FF0446FEF7D4FC41EC180B9FED6F
:101B6000710B53EC102B51EC180BFEF75BFC41ECA6
:101B7000190B9FED6E0B53EC102BFEF7E1FB41ECC4
:101B8000180B9FED6C0B53EC102B51EC180BFEF760
:101B9000F7FC1AD89FED690B53EC102B51EC180B86
:101BA000FEF7D6FC11D89FED670B53EC102B51ECD0
:101BB000180BFEF7C5FB41EC190B9FED640B53ECC2
:101BC000102BFEF7B7FB41EC180B0320FFF7F8FED4
:101BD0000446FEF796FC41EC180B9FED520B53ECBC
:101BE000102B51EC180BFEF71DFC41EC190B9FED6F
:101BF0004F0B53EC102BFEF7A3FB41EC180B9FEDA2
:101C00004D0B53EC102B51EC180BFEF7B9FC31D8EF
:101C10009FED4A0B53EC102B51EC180BFEF798FC80
:101C200028D89FED4F0B53EC102B51EC180BFEF7FF
:101C300087FB41EC1A0B9FED4C0B53EC102BFEF77E
:101C4000F1FB41EC190B9FED4A0B53EC102BFEF707
:101C500071FB41EC180B9FED3F0B53EC102B51EC3B
:101C6000180BFEF76DFB41EC190BFEF757FC3B49D7
:101C7000C88002E000203949C8803F4840883F4979
:101C8000C8803D48808808813B48C08848813A48E0
:101C90000088888138480089C8813748408908828F
:101CA0003548808948823448C08988823248008A11
:101CB000C8823348008808803148408848803148CD
:101CC000008848832F484088888324488088088477
:101CD0002248C08848842148408988861F488089D6
:101CE000C886084600F0F6F92448408E98B123488B
:101CF000C08800B2204948802048008900B288800E
:101D00001E48808900B208801C48808E1349488193
:101D10001A48C08E8881BDEC068B10BD0000000003
:101D200000000000000000000000B040666666662B
:101D300066660A409A9999999999C93F9A99999989
:101D40009999054000000000000030409A99999947
:101D5000999909400000000000408F400E020020C9
:101D600000000000000000400000000000001440DF
:101D70008FC2F5285C8FE23FD000002022020020B5
:101D8000260000201E0000201CB501210420FEF7C3
:101D90005FFF42F20F00009001208DF80400002048
:101DA0008DF8060003208DF8050001208DF807004E
:101DB00069460448FEF79CFE0F210248FEF703FF28
:101DC0001CBD00000008024010B54FF42F710648FA
:101DD000FFF7C4FC42F274710448FFF7BFFC0449EA
:101DE0000448FFF7BBFC10BDC5210008CD21000849
:101DF000AA860100E9210008A820FFF78FFD1648F8
:101E0000FEF766FFFFF7C0FFFFF7E8FCFEF736FDC1
:101E1000532140F2F310FFF7F1F8FFF7AFF8FEF7A8
:101E2000D9FD4FF4165000F0FFFB4FF4E13000F005
:101E30001FFA4FF4E13000F08FFA4FF4E13000F078
:101E4000FDFA4FF4E13000F06BFBFFF7BDFF01E05E
:101E500000F064F9FCE700003400002070B5C2B067
:101E600005464FF4807102A8FEF7B1F90024002660
:101E70002D4840788DF808002B4880788DF80900AF
:101E800029480179C07841EA0026274881794079BC
:101E900041EA00204006000E8DF80A009DF80A0075
:101EA00000EBD0714C10002001901DE09DF8040063
:101EB000304435F8100001129DF80400032202EBB3
:101EC000400002AA11549DF80400304415F8101087
:101ED0009DF80400042202EB400002AA11549DF870
:101EE0000400401CC0B201909DF80400A042DDDB5C
:101EF0009DF80A00C01CC4B26B4601AA214602A884
:101F0000FFF7AFFC9DF8040002A908559DF80010EA
:101F100002AA601C1154A01CC4B2214602A800F001
:101F200089F942B070BD00008602002070B50446F9
:101F300000250026082609480179C07841EA0025D5
:101F400006488179407941EA002024F8150031469D
:101F50000248401C00F06EF970BD000086020020AF
:101F60007CB50546062421466B4601AA0748FFF7C3
:101F700078FC9DF80410054801559DF80020611C6F
:101F80004254A41C214600F055F97CBD8702002074
:101F900070B506464B4801780078401C494A1070DD
:101FA0004948465410460078012800DC70BD464878
:101FB000407810283BD143480078022878DD424819
:101FC00080790830414908703E4800780978884295
:101FD0006EDD3C480078801E3B49095C394800783A
:101FE000401E394A105C41EA002536480078801EC0
:101FF000C1B21046FFF7F0FCA84214D13148007876
:1020000033490870002406E02F48015D3048401C29
:102010000155601CC4B22B4800788442F4DB0120D7
:102020002B4981F8010200202649087040E026482B
:102030004078032803D024484078062835D107206B
:10204000224908701F4800780978884230DD1D4811
:102050000078801E1C49095C1A480078401E1A4A04
:10206000105C41EA002517480078801EC1B2104676
:10207000FFF7B2FCA84214D1124800781449087046
:10208000002406E01048015D1148401C0155601C09
:10209000C4B20C4800788442F4DB01200C4981F87A
:1020A000010200200749087002E00020054908707D
:1020B00004480078FA2802DD00200249087000BFB9
:1020C00074E7000032000020880500203100002065
:1020D0008602002010B504460F4890F8010201283E
:1020E00015D10D488078032804D0062806D0102882
:1020F0000CD107E02046FFF7B1FE07E02046FFF7CE
:1021000015FF03E02046FFF72BFF00BF00BF0020B4
:10211000014981F8010210BD8602002010B500249B
:1021200000BF2AE004EB4400164901EB8000806800
:10213000401C04EB4401134A02EB810188600A2031
:10214000FFF70AFC04EB44000E4901EB80008068B5
:1021500004EB44010B4A02EB8101496888420BD32E
:1021600004EB440152F821008047002004EB4401B5
:10217000044A02EB81018860641C034800688442C1
:10218000D0DB10BD580000201800002010B50A4B0D
:10219000B3F90420B3F90010B3F90200FFF796FB7E
:1021A000064881890648FFF76AF8044841890448CF
:1021B000FFF767F810BD0000D00000200E020020DD
:1021C0000004004010B5FFF723FC10BD10B5054812
:1021D000006808B9012000E0002002490860FFF70C
:1021E000D5FF10BDB40241421FB50EA30FCB8DE841
:1021F0000F006846FDF7F6FFC4B22146684600F0BE
:10220000FFF86846FDF7EEFFC4B22146684600F0CD
:1022100069F96846FDF7E6FFC4B22146684600F05A
:10222000E5F91FBD74657374206578616D706C6528
:102230000D0A000070B505460E4600240CE000BFF4
:1022400040210A48FFF78FF90028F9D0295D074897
:10225000FFF755FA601C84B2B442F0DB00BF4021A6
:102260000248FFF780F90028F9D070BD0010014046
:1022700010B588B0044601210846FEF7E9FC0121AB
:102280004804FEF7F5FC0C20069002208DF81C0097
:102290008DF81D0000208DF81E0001208DF81F0014
:1022A00006A91C48FEF724FC072202211948FEF764
:1022B00067FC072203211748FEF762FC0294002006
:1022C000ADF80C00ADF80E00ADF81000ADF814003C
:1022D0000C20ADF8120002A90F48FFF7A1F9262043
:1022E0008DF8040000208DF8050001208DF806000F
:1022F0008DF8070001A8FEF76DFC012240F2255180
:102300000548FFF767F901210348FFF720F908B0F6
:1023100010BD0000000002400044004070B50546BA
:102320000E4600240CE000BF40210A48FFF71BF9CD
:102330000028F9D0295D0748FFF7E1F9601C84B255
:10234000B442F0DB00BF40210248FFF70CF900283F
:10235000F9D070BD0044004010B588B0044601219A
:102360008804FEF785FC01210220FEF771FC4FF482
:102370004060069002208DF81C008DF81D000020A2
:102380008DF81E008DF81F0006A91B48FEF7B0FB54
:1023900007220A211848FEF7F3FB07220B211648F3
:1023A000FEF7EEFB02940020ADF80C00ADF80E0035
:1023B000ADF810000C20ADF812000020ADF81400AC
:1023C00002A90E48FFF72CF9012240F225510B48D3
:1023D000FFF700F901210948FFF7B9F827208DF828
:1023E000040002208DF8050001208DF8070001A8E7
:1023F000FEF7F0FB08B010BD0004024000480040AA
:1024000070B505460E4600240CE000BF40210A4886
:10241000FFF7A9F80028F9D0295D0748FFF76FF901
:10242000601C84B2B442F0DB00BF40210248FFF7D9
:102430009AF80028F9D070BD0048004010B588B067
:1024400004460121C804FEF713FC01210420FEF715
:10245000FFFB4FF44060069002208DF81C008DF8C1
:102460001D0000208DF81E008DF81F0006A91B48D6
:10247000FEF73EFB08220A211848FEF781FB0822DE
:102480000B211648FEF77CFB02940020ADF80C00EF
:10249000ADF80E00ADF810000C20ADF812000020D1
:1024A000ADF8140002A90E48FFF7BAF8012240F275
:1024B00025510B48FFF78EF801210948FFF747F82F
:1024C00034208DF8040003208DF8050001208DF8DC
:1024D000070001A8FEF77EFB08B010BD000802400F
:1024E000004C004070B505460E4600240CE000BFCD
:1024F00040210A48FFF737F80028F9D0295D07483E
:10250000FFF7FDF8601C84B2B442F0DB00BF40214D
:102510000248FFF728F80028F9D070BD004C0040B1
:1025200010B588B0044601210805FEF7A1FB012182
:102530000C20FEF78DFB4FF48050069002208DF8A2
:102540001C008DF81D0000208DF81E008DF81F0066
:1025500006A92348FEF7CCFA0420069002208DF845
:102560001C008DF81D0000208DF81E008DF81F0046
:1025700006A91C48FEF7BCFA08220C211848FEF7F1
:10258000FFFA082202211748FEF7FAFA0294002007
:10259000ADF80C00ADF80E00ADF810000C20ADF851
:1025A00012000020ADF8140002A90F48FFF738F818
:1025B000012240F225510C48FFF70CF801210A488E
:1025C000FEF7C5FF35208DF8040004208DF80500C6
:1025D00001208DF8070001A8FEF7FCFA08B010BD35
:1025E00000080240000C02400050004070B5054653
:1025F0000E4600240CE000BF40210A48FEF7B3FF5E
:102600000028F9D0295D0748FFF779F8601C84B2EB
:10261000B442F0DB00BF40210248FEF7A4FF0028CF
:10262000F9D070BD0050004010B588B004460121BB
:102630000846FEF70DFB01211020FEF729FB02944E
:10264000072209212148FEF79BFA07220A211F4889
:10265000FEF796FA4FF4C060069002208DF81C0039
:102660008DF81D0000208DF81E0001208DF81F0040
:1026700006A91648FEF73CFA0020ADF80C00ADF8AC
:102680000E00ADF81000ADF814000C20ADF81200EB
:1026900002A90F48FEF7C4FF01210D48FEF757FFBE
:1026A000012240F225510A48FEF794FF25208DF8BB
:1026B000040000208DF805008DF8060001208DF83B
:1026C000070001A8FEF786FA08B010BD000002401E
:1026D00000100140F4260008000000203400000033
:1026E0001C1700082827000834000020540A0000A6
:1026F0002C1700080000000001020304010203047B
:1027000006070809000000000000000000000000AB
:1027100000000000000000000000000000000000B9
:082720000000000000000000B1
:040000050800018965
:00000001FF
