:020000040800F2
:10000000880500209D010008A10500089905000849
:100010009D05000849040008DF0B000800000000EF
:100020000000000000000000000000006907000858
:10003000BD040008000000001D060008810800083B
:10004000B7010008B7010008B7010008B7010008B0
:10005000B7010008B7010008B7010008B7010008A0
:10006000B7010008B7010008B7010008B701000890
:10007000B7010008B7010008B7010008B701000880
:10008000B7010008B7010008B7010008B701000870
:10009000B7010008B7010008B7010008B701000860
:1000A000B7010008B7010008B7010008B701000850
:1000B000B7010008B7010008B7010008B701000840
:1000C000B7010008B7010008B7010008B701000830
:1000D000B70100084D090008D5090008F509000816
:1000E000B7010008B7010008B7010008B701000810
:1000F000B7010008B7010008B7010008B701000800
:10010000B7010008B7010008B7010008B7010008EF
:10011000ED0800081D090008B7010008B701000834
:10012000B7010008B7010008B7010008B7010008CF
:10013000B7010008B7010008B7010008B7010008BF
:10014000B7010008B7010008B7010008B7010008AF
:10015000B7010008B7010008B7010008B70100089F
:10016000B7010008B7010008B7010008B70100088F
:10017000B7010008B7010008B7010008B70100087F
:10018000B7010008B7010008DFF80CD000F018F83C
:1001900000480047210E00088805002006488047D7
:1001A00006480047FEE7FEE7FEE7FEE7FEE7FEE75C
:1001B000FEE7FEE7FEE7FEE7850800088901000884
:1001C000064C074D06E0E06840F0010394E80700A4
:1001D00098471034AC42F6D3FFF7DAFFC00F00089F
:1001E000E00F000821B1826842F00102826003E062
:1001F000826822F001028260704700000021084AF4
:100200001168084A1140D0E900231A4383681A4351
:10021000C3681A431143044AC2F80413704700002C
:1002200004230140E030FCFF0020014021B182683E
:1002300042F48072826003E0826822F480728260FD
:10024000704721B1826842F40072826003E08268E4
:1002500022F400728260704730B50246002000230D
:100260005068104C20400D790C6844EA0524204366
:10027000506090680C4C2040D1E903542C438D68A9
:100280002C434D7944EA450420439060D06A20F421
:1002900070000C7D641EE4B2234340EA0350D06238
:1002A00030BD0000FFFEFFFCFDF7FFC0F0B50446C7
:1002B0000D4600200021092D11DDE068A5F10A0698
:1002C00006EB4607072606FA07F18843A5F10A065A
:1002D00006EB460603FA06F10843E0600CE02069ED
:1002E00005EB4507072606FA07F1884305EB4506A7
:1002F00003FA06F108432061072A0FDA606B561EE5
:1003000006EB86071F2606FA07F18843561E06EB02
:10031000860605FA06F10843606322E00D2A0FDA2B
:10032000206BD61F06EB86071F2606FA07F18843C7
:10033000D61F06EB860605FA06F10843206310E097
:10034000E06AA2F10D0606EB86071F2606FA07F102
:100350008843A2F10D0606EB860605FA06F108436E
:10036000E062F0BD816841F080418160704700002B
:1003700000B58DB00121084600F052F9F0200B9035
:1003800003208DF8300000208DF833000BA92C4895
:1003900000F095F80121080200F052F9012108024D
:1003A00000F05EF900214FF4807000F059F9002050
:1003B00007904FF470600A90002009904FF480304D
:1003C000089007A8FFF71AFF0020019001208DF880
:1003D00008008DF809000020039004900590042087
:1003E0008DF8180001A91748FFF736FF03230122F3
:1003F00004211448FFF75AFF032302220521114864
:10040000FFF754FF03231A4606210E48FFF74EFF5D
:100410000323042207210B48FFF748FF0121094865
:10042000FFF70FFF01210748FFF700FF01210548F3
:10043000FFF7D8FE0348FFF795FF0DB000BD0000A1
:10044000000002400020014000BFFEE721B1026829
:1004500042F00102026003E0026822F00102026041
:100460007047000010B500220268134B1A40CC6898
:100470000B6823434C6923438C692343CC69234392
:100480000C6A23434C6A23438C6A23434C6B2343FB
:100490008C6B23431A430260426922F00702D1E9C0
:1004A0000B3423431A4342610B6943604B688360FA
:1004B0008B68C36010BD00003F801CF07047F0B532
:1004C0000A4600210023002400BF3DE0012505FA73
:1004D00001F3156805EA03049C4234D105684F0016
:1004E0000326BE40B543056015794E00B540066849
:1004F000354305601579012D02D01579022D16D1ED
:1005000085684F000326BE40B543856055794E008F
:10051000B540866835438560456801268E40B54301
:100520004560456896798E40B6B235434560C568EA
:100530004F000326BE40B543C560D5794E00B54097
:10054000C6683543C560491C1029BFD3F0BDF0B55E
:10055000002300244D07ED0E02FA05F3CE1000F142
:10056000200555F826504E07F70E0F26BE40B5431E
:10057000CF1000F1200646F82750CE1000F12005DC
:1005800055F8265045EA0304CE1000F1200545F841
:100590002640F0BD0183704700BFFEE700BFFEE7C5
:1005A0007047000070B5002100230F22C4781CB3EF
:1005B000174C246804F4E064C4F5E064C4F3072134
:1005C000C1F10404E3B20A4144789C40E1B284786A
:1005D000144021430C07210E0E4C05786155047818
:1005E00004F01F050124AC4005786D11AD0005F144
:1005F000E025C5F8004109E0047804F01F05012456
:10060000AC40054D0678761145F8264070BD0000D7
:100610000CED00E000E400E080E100E07047000045
:1006200029B1064A12680243044B1A6004E0034AE7
:1006300012688243014B1A60704700003038024054
:1006400029B1064A12680243044B1A6004E0034AC7
:1006500012688243014B1A60704700004438024020
:1006600029B1064A12680243044B1A6004E0034AA7
:1006700012688243014B1A60704700002438024020
:10068000F0B5002100220024022500260223324F6B
:100690003F6807F00C0121B1042905D0082937D1A2
:1006A00005E02E4F076036E02D4F076033E02A4FFC
:1006B0003F1F3F68C7F38056274F3F1F3F6807F033
:1006C0003F036EB1264FB7FBF3F7DFF88CC0ACF1F8
:1006D000040CDCF800C0CCF3881C07FB0CF40CE025
:1006E0001E4FB7FBF3F7DFF870C0ACF1040CDCF879
:1006F00000C0CCF3881C07FB0CF4174F3F1F3F686A
:10070000C7F301477F1C7D00B4FBF5F7076002E0EB
:10071000124F076000BF00BF0F4F3F6807F0F001A6
:100720000909104F7A5C0768D74047600A4F3F6855
:1007300007F4E051890A0B4F7A5C4768D74087601D
:10074000054F3F6807F46041490B064F7A5C4768E4
:10075000D740C760F0BD0000083802400024F40014
:1007600000127A0000000020704700000CB5002045
:10077000019000903448006840F4803032490860AD
:1007800000BF3148006800F4003000900198401C20
:100790000190009818B90198B0F5A04FF1D12A48FE
:1007A000006800F4003010B10120009001E000204A
:1007B00000900098012846D123484030006840F05E
:1007C00080502149403108602048006840F4404092
:1007D0001E4908601C48083000681B490831086041
:1007E0000846006840F4004008600846006840F48D
:1007F000A05008601648091F0860081F006840F0F4
:100800008070091F086000BF0F48006800F000708A
:100810000028F9D040F205700E4908600A480830F7
:10082000006820F0030008490831086008460068A5
:1008300040F00200086000BF03480830006800F084
:100840000C000828F8D10CBD0038024000700040B0
:1008500008544007003C0240042808D14FF0E02132
:10086000096941F004014FF0E022116107E04FF007
:10087000E021096921F004014FF0E0221161704785
:100880007047000010B51548006840F47000134927
:1008900008601348006840F001001149086000201A
:1008A0000F49083108600E4800680E4908400C499D
:1008B00008600D48091D0860081F006820F48020AA
:1008C000091F0860002006490C310860FFF74EFF41
:1008D0004FF0006001498039086010BD88ED00E0EC
:1008E00000380240FFFFF6FE1030002410B540F241
:1008F0002551094800F0B1F860B140F22551064891
:1009000000F090F8044800F061F9C4B221460248B2
:1009100000F061F910BD0000004C004010B540F23D
:100920002551094800F099F860B140F22551064878
:1009300000F078F8044800F049F9C4B221460248B2
:1009400000F049F910BD00000050004010B540F221
:1009500025511D4800F081F810B31B4800F036F90E
:10096000C4B21A48008800F40040C8B9174800888B
:1009700000F4804060B10A2C03D0002013490880A5
:1009800020E01248008840F400401049088019E037
:100990000D2C06D10D48008840F480400B4908809A
:1009A00010E00A480088C0F30D0009490C540748BC
:1009B0000088401C0549088008460088C72801DDDA
:1009C0000020088010BD0000001001401800002029
:1009D0003000002010B540F22551054800F03DF8E8
:1009E00020B140F22551024800F01CF810BD000073
:1009F0000044004010B540F22551094800F02DF8A0
:100A000060B140F22551064800F00CF8044800F0AF
:100A1000DDF8C4B22146024800F0DDF810BD000048
:100A20000048004010B50022002340F66A14A1429D
:100A300000D100BF0A1201249440A3B2DC43048019
:100A400010BD21B1828942F40052828104E0828982
:100A50004DF6FF731A408281704770B5024600243C
:100A600000230025002040F66A16B14200D100BFE5
:100A7000C1F3421501F01F03012606FA03F3012D0D
:100A800002D19689334006E0022D02D1168A334006
:100A900001E0968A33400C12012606FA04F4168807
:100AA000344013B10CB1012000E0002070BDF0B55E
:100AB0000346002400260025002040F66A17B942AC
:100AC00000D100BF1846C1F3421401F01F060127F0
:100AD00007FA06F5012C01D10C3004E0022C01D1FB
:100AE000103000E014301AB107682F43076002E0AD
:100AF0000768AF430760F0BD2DE9FF4705460E4686
:100B00000024A14600BFA046B08900B100BF2C8AD6
:100B100024F44054F08804432C82AC8941F20C60E8
:100B20008443B08831890843718908430443AC8108
:100B3000AC8A24F44074B0890443AC826846FFF761
:100B40009FFD2048854202D01F48854202D1DDF832
:100B50000C9001E0DDF80890A88900F4004040B155
:100B600009EBC90000EB091031684900B0FBF1F74F
:100B700007E009EBC90000EB091031688900B0FB00
:100B8000F1F76420B7FBF0F004012009642101FBB8
:100B90001078A88900F4004040B1322000EBC80072
:100BA000B0FBF1F000F00700044308E0322000EB56
:100BB00008106421B0FBF1F000F00F0004432C8119
:100BC000BDE8FF87001001400014014001468888FD
:100BD000C0F308007047C1F308028280704700BF6D
:100BE000FEE70000014A024900F013B8A50D000815
:100BF0001400002002E008C8121F08C1002AFAD120
:100C000070477047002001E001C1121F002AFBD18C
:100C100070472DE9F04116460F460446002503E0D3
:100C20003946B047641C6D1C20780028F8D128464E
:100C3000BDE8F08170B504460D46134800680A28E7
:100C400003D312A0FFF7CEFF70BD0F48006800EB82
:100C50004000174941F820400B48006800EB400075
:100C600001EB8000456000200749096801EB410164
:100C70000F4A02EB8101886003480068401C02496A
:100C8000086000BFE0E700001C000020546F6F20E8
:100C90006D616E79207461736B732C2063616E6E6D
:100CA0006F7420616464206D6F7265210A0000001A
:100CB0000C01002000B58FB001218805FFF7B0FCC2
:100CC00013480190134802900020039004200490E0
:100CD000002005904FF4806006904000079080004F
:100CE00008904011099040020A9000200B900120CA
:100CF0000C9000200D900E90009069460648FFF77A
:100D0000B1FB01210448FFF7A1FB0FB000BD0000BB
:100D10004C200140F80000201064024010B5044649
:100D20006FF00400FFF798FDE11704EB5171C1F378
:100D3000C701074A11701046007800EB4001C1EB73
:100D4000C0104FF6FF7101EAC0000249088010BDD3
:100D500010000020120000200146114A12784A4378
:100D60004FF0E0235A6100229A611A46126942F05C
:100D700001021A6100BF4FF0E022106900F0010289
:100D80001AB100F48032002AF5D04FF0E022126947
:100D900022F001024FF0E0231A6100229A617047AD
:100DA0001000002000BF054A128802F04002002A0D
:100DB000F9D0C2B2014B9A80704700000010014088
:100DC0001CB501210420FFF72BFC4FF400500090CC
:100DD00001208DF8040000208DF8060003208DF816
:100DE000050001208DF8070069460448FFF767FBFE
:100DF0004FF400510148FFF7CDFB1CBD0008024035
:100E000010B542F210710448FFF714FF44F6206158
:100E10000248FFF70FFF10BDC10E0008E10E0008E9
:100E2000A820FFF77BFF0948FFF72AFCFFF7C8FF60
:100E30004FF4E13000F06EF8FFF73CFFFFF798FA4F
:100E4000FFF7DEFF01E000F003F8FCE720000020E0
:100E500010B5002400BF2AE004EB4400164901EB62
:100E600080008068401C04EB4401134A02EB8101BE
:100E700088600A20FFF770FF04EB44000E4901EB85
:100E80008000806804EB44010B4A02EB8101496851
:100E900088420BD304EB440152F821008047002024
:100EA00004EB4401044A02EB81018860641C03489E
:100EB00000688442D0DB10BD0C0100201C00002023
:100EC00010B502A0FFF78EFE10BD00005461736BD9
:100ED0002031206578656375746564210A0000001F
:100EE00010B50648006808B9012000E00020034959
:100EF000086003A0FFF776FE10BD0000B402414277
:100F00005461736B20322065786563757465642164
:100F10000A00000010B588B0044601210846FFF71A
:100F20007FFB01211020FFF78BFB02940722092190
:100F30002148FFF70CFB07220A211F48FFF707FB98
:100F40004FF4C060069002208DF81C008DF81D0043
:100F500000208DF81E0001208DF81F0006A91648FC
:100F6000FFF7ADFA0020ADF80C00ADF80E00ADF8BB
:100F70001000ADF814000C20ADF8120002A90F48C3
:100F8000FFF7BAFD01210D48FFF75BFD012240F29A
:100F900025510A48FFF78BFD25208DF8040003201A
:100FA0008DF805008DF8060001208DF8070001A8D6
:100FB000FFF7F8FA08B010BD000002400010014031
:100FC000E00F00080000002020000000F40B0008E3
:100FD000001000082000002068050000040C000834
:100FE00000000000010203040102030406070809CF
:100FF00000000000000000000000000000000000F1
:040000050800018965
:00000001FF
