:020000040800F2
:10000000E00B00209D01000805100008D90F000832
:1000100001100008D50B000847220008000000006E
:10002000000000000000000000000000B9160008F9
:10003000D90C000800000000A912000835180008BB
:10004000B7010008B7010008B7010008B7010008B0
:10005000B7010008B7010008DB0C0008B701000871
:10006000B7010008B7010008B7010008B701000890
:10007000B7010008B7010008B7010008B701000880
:10008000B7010008B7010008B7010008B701000870
:10009000B7010008B7010008B7010008B701000860
:1000A000B7010008B7010008B7010008B701000850
:1000B00009190008B7010008C91A0008B7010008AB
:1000C000B7010008B7010008B7010008B701000830
:1000D000B7010008951E0008B91E0008D91F0008C6
:1000E000B7010008B7010008B7010008B701000810
:1000F000B7010008B7010008B7010008B701000800
:10010000B7010008B7010008B7010008B7010008EF
:10011000CD1D0008FD1D0008B7010008B70100084B
:10012000B7010008B7010008B7010008B7010008CF
:10013000B7010008B7010008B7010008B7010008BF
:10014000B7010008B7010008B7010008B7010008AF
:10015000B7010008B7010008B7010008B70100089F
:10016000B7010008B7010008B7010008B70100088F
:10017000B7010008B7010008B7010008B70100087F
:10018000B7010008B7010008DFF80CD000F09EFBB3
:100190000048004745360008E00B0020064880472D
:1001A00006480047FEE7FEE7FEE7FEE7FEE7FEE75C
:1001B000FEE7FEE7FEE7FEE73918000889010008C0
:1001C00040EA01039B0703D009E008C9121F08C0D9
:1001D000042AFAD203E011F8013B00F8013B521E59
:1001E000F9D27047D2B201E000F8012B491EFBD2D0
:1001F00070470022F6E710B513460A460446194632
:10020000FFF7F0FF204610BD2DE9FE4F804681EA42
:100210000300C00F0C46009021F0004123F0004580
:10022000B8EB0200A94105D24046214690461C4643
:100230000B46024623F00040104347D0270DC7F37A
:100240000A00C3F30A510290401A019040286BDA69
:10025000C3F3130040F4801B0098924620B10023A2
:10026000D2EB030A63EB0B0B01985946C0F1400235
:10027000504600F04EFA06460D4650465946019A41
:1002800000F066FA10EB08006141002487EA115281
:1002900084EAE7731A4340D0009A62B3019A012AB4
:1002A0004FEA075215DC001B61EB02014FF00042E0
:1002B00002EA0752CDE90042001C41F580113246A6
:1002C0002B4600F09DFA03B0BDE8F08F4046214672
:1002D000F9E7001B61EB0201001C41F580130018D7
:1002E0005B412018A2F5001747EB030140EAD570E7
:1002F000B6196D4111E06D084FEA360645EAC07542
:100300004FEA0752001B61EB0201001C41F580110E
:1003100049084FEA30000019514132462B4603B0DC
:10032000BDE8F04F00F05DBA0098012240000023C4
:10033000D0EB020263EBE073009821464FEAE074D1
:10034000B8EB000061EB0401E9E783F000435BE7F1
:1003500081F0004158E72DE9FE4F81EA030404F0E3
:10036000004421F0004100944FF0000B23F00043C3
:1003700050EA01045ED052EA03045BD0C3F30A548E
:10038000C1F30A552C44A4F2F3340194A0FB0254A7
:10039000C1F3130141F48011C3F3130343F4801339
:1003A00001FB024400FB034E840A970A44EA81548D
:1003B00047EA8357A4FB076802958D0A05FB07856A
:1003C0004FEA932C04FB0C542705029D4FEA065874
:1003D00047EA1637B5EB08056EEB070C870E920E51
:1003E00047EA811742EA8312A7FB0201B6EB0B0131
:1003F00064EB00042B0D43EA0C335E1844EB1C50F5
:10040000DA465146E7FB0201C5F313044FEA0B330A
:1004100043EA14534FEA0432019C43EA0603A4F171
:100420000C040294009CCDE900B400F0E9F903B09B
:10043000BDE8F08F00200146F9E72DE9F04D81EA93
:10044000030404F0004B21F0004514464FF0000A6D
:1004500023F0004150EA050220D054EA01021DD0E9
:10046000C5F30A570246C5F31303C1F31300C1F3E2
:100470000A5640F4801543F48013A7EB0608101BBE
:10048000D64608F2FD3873EB050002D308F10108E7
:1004900001E092185B41B8F1000F03DA0020014639
:1004A000BDE8F08D00204FF48011064684460EE032
:1004B000171B73EB050705D3121B63EB05030643FC
:1004C0004CEA010C49084FEA300092185B4150EAAF
:1004D0000107EDD152EA030012D082EA040083EA58
:1004E0000501084305D0101BAB4106D201220023B1
:1004F00006E000224FF0004302E06FF001025310CB
:100500001AEB06004CEB085110EB0A0041EB0B0113
:10051000BDE8F04D00F065B90EB5C10F80EAE0709E
:100520000844CA07002140F233438DE80E000A4612
:100530000B4600F065F903B000BD0EB540F2334143
:1005400002910021CDE900110A460B4600F058F94E
:1005500003B000BD70B5C1F30A5201F0004500249C
:10056000C1F3130140F2FF3341F480119A4201DAE2
:10057000002070BD40F233439A42A2F2334203DCC2
:10058000524200F0D5F800E090402C43F1D04042B8
:1005900070BDC1F30A5210B5C1F3130140F2FF332D
:1005A00041F480119A4201DA002010BD40F2334339
:1005B0009A42A2F2334203DC524200F0B9F810BD75
:1005C000904010BD00F0004230F000400AD0C10D54
:1005D00001F56071C0F3160042EA0151C2084007FC
:1005E00011437047002001467047000030B5041EDB
:1005F00071F1000404DB4FF00044404264EB010160
:10060000141E73F1000405DB1C464FF000435242F8
:1006100063EB04038B4208BF824230BD30B5041E39
:1006200071F1000404DB4FF00044404264EB01012F
:10063000141E73F1000405DB1C464FF000435242C8
:1006400063EB0403994208BF904230BD01F00043C0
:1006500030B421F0004150EA010206D00A0DA2F5A3
:100660006072C1F31301002A02DC30BC0020704725
:10067000440F44EAC104C100E01830BC00EBC25092
:1006800000F078B830B50B46014600202022012446
:1006900009E021FA02F59D4205D303FA02F5491B50
:1006A00004FA02F52844151EA2F10102F1DC30BD66
:1006B0002DE9F05F0546002092469B468846064697
:1006C000814640241BE0284641464746224600F02A
:1006D0002FF853465A46C01A914110D31146184676
:1006E000224600F016F82D1A67EB01084F46224605
:1006F0000120002100F00DF817EB00094E41201EEB
:10070000A4F10104DFDC484631462A464346BDE8F1
:10071000F09F202A04DB203A00FA02F10020704703
:100720009140C2F1200320FA03F31943904070472F
:10073000202A04DB203A21FA02F00021704721FA36
:1007400002F3D040C2F1200291400843194670479D
:10075000202A06DBCB17203A41FA02F043EAE07385
:1007600006E041FA02F3D040C2F120029140084372
:10077000194670470029A8BF7047401C490008BFB0
:1007800020F00100704710B4B0FA80FC00FA0CF0C1
:1007900050EA010404BF10BC704749B1CCF12004F9
:1007A00021FA04F411FA0CF118BF01212143084386
:1007B000A3EB0C01CB1D4FEA00614FEA102042BFB2
:1007C000002010BC704700EBC35010440029A4BFA8
:1007D00010BC7047401C490008BF20F0010010BC4D
:1007E000704710B5141E73F1000408DA401C41F183
:1007F000000192185B411A4301D120F0010010BDA5
:100800002DE9F04D92469B4611B1B1FA81F202E01A
:10081000B0FA80F220329046FFF77BFF04460F4685
:1008200040EA0A0041EA0B0153465A46084313D0F6
:10083000114653EA010019D0C8F140025046FFF7B3
:1008400077FF05460E46504659464246FFF761FF80
:10085000084305D0012004E020463946BDE8F08D6C
:100860000020054346EAE0762C4337430A986305A7
:10087000E40AA0EB08000022FD0A44EA47540A30CB
:1008800002D500200146E9E7010510196941DDE9BB
:10089000084500196941BDE8F04DA2E7C1F30A52CD
:1008A000C1F3130140F2FF3341F480119A4202DA9E
:1008B00000200146704740F233439A42A2F233428D
:1008C00002DC5242FFF734BFFFF723BF064C074D4F
:1008D00006E0E06840F0010394E807009847103410
:1008E000AC42F6D3FFF754FCF84100081842000868
:1008F00021B1826842F00102826003E0826822F046
:1009000001028260704700000021084A1168084A0D
:100910001140D0E900231A4383681A43C3681A437D
:100920001143044AC2F80413704700000423014035
:10093000E030FCFF0020014021B1826842F4807267
:10094000826003E0826822F480728260704721B185
:10095000826842F40072826003E0826822F40072CE
:100960008260704730B50246002000235068104C6A
:1009700020400D790C6844EA0524204350609068BB
:100980000C4C2040D1E903542C438D682C434D7905
:1009900044EA450420439060D06A20F470000C7D46
:1009A000641EE4B2234340EA0350D06230BD00002D
:1009B000FFFEFFFCFDF7FFC0F0B504460D4600202A
:1009C0000021092D11DDE068A5F10A0606EB4607B6
:1009D000072606FA07F18843A5F10A0606EB460644
:1009E00003FA06F10843E0600CE0206905EB4507D7
:1009F000072606FA07F1884305EB450603FA06F1D8
:100A000008432061072A0FDA606B561E06EB860743
:100A10001F2606FA07F18843561E06EB860605FADE
:100A200006F10843606322E00D2A0FDA206BD61F1F
:100A300006EB86071F2606FA07F18843D61F06EB4A
:100A4000860605FA06F10843206310E0E06AA2F189
:100A50000D0606EB86071F2606FA07F18843A2F16A
:100A60000D0606EB860605FA06F10843E062F0BDC6
:100A7000816841F080418160704700001CB5012110
:100A8000022000F02DFCC020009001208DF8040011
:100A900000208DF8060003208DF8050001208DF858
:100AA00007006946034800F0FEF9C021014800F044
:100AB00070FA1CBD0004024010B580210E4800F001
:100AC00066FA02F059FA40210B4800F060FA02F091
:100AD00053FA4021084800F05CFA02F04DFA402138
:100AE000054800F054FA02F047FA8021024800F06D
:100AF00050FA02F041FA10BD0004024000B58DB07A
:100B00000121084600F0ECFBF0200B9003208DF84B
:100B1000300000208DF833000BA92C4800F0C3F9F9
:100B20000121080200F0FCFB0121080200F008FC92
:100B300000214FF4807000F003FC002007904FF478
:100B400070600A90002009904FF48030089007A848
:100B5000FFF7DAFE0020019001208DF808008DF8E3
:100B60000900002003900490059004208DF81800DF
:100B700001A91748FFF7F6FE0323012204211448B8
:100B8000FFF71AFF0323022205211148FFF714FF84
:100B900003231A4606210E48FFF70EFF0323042203
:100BA00007210B48FFF708FF01210948FFF7CFFE97
:100BB00001210748FFF7C0FE01210548FFF798FE15
:100BC0000348FFF755FF0DB000BD000000000240D4
:100BD0000020014000BFFEE77047000010B504464A
:100BE00034B1012C08D0022C0AD0032C10D10BE018
:100BF000C2201A4908700CE0D2201849087008E099
:100C0000E2201649087004E0F2201449087000E060
:100C100000BF00BF902012490870012048700F48A3
:100C200000788870E320C87000F0BEFD00200D49F8
:100C300008700CE00A490B4A1278885C01F006FB48
:100C400000F05CFC07480078401C06490870054825
:100C500000780428EEDB00F0C3FD10BD3C0000204E
:100C6000B60100203D00002021B1026842F00102DF
:100C7000026003E0026822F0010202607047000097
:100C800010B500220268134B1A40CC680B6823434E
:100C90004C6923438C692343CC6923430C6A234367
:100CA0004C6A23438C6A23434C6B23438C6B234352
:100CB0001A430260426922F00702D1E90B34234350
:100CC0001A4342610B6943604B6883608B68C36061
:100CD00010BD00003F801CF0704710B5012000F0EF
:100CE00001F810BD0149086070470000143C014044
:100CF00001490860704700000C3C024030B10749D0
:100D0000096841F48061054A116005E003490968FA
:100D100021F48061014A116070470000003C0240EC
:100D200070B504460A460026092502B909E0012AE1
:100D300001D1160205E0022A01D1160201E04FF4AA
:100D4000407600F09FF80546092D28D11548006827
:100D500020F440701349086008460068304308607A
:100D60000846006820F0F80008600846006844F073
:100D7000020108430B4908600846006840F48030CF
:100D8000086000F07FF805460648006820F0020081
:100D9000044908600846006820F0F800086028460A
:100DA00070BD0000103C024009201349096801F49D
:100DB0008031B1F5803F01D101201CE00E49096866
:100DC00001F0100109B1062015E00B49096801F492
:100DD000807109B102200EE00749096801F0EF01B6
:100DE00009B1072007E00449096801F0020109B1CF
:100DF000082000E0092070470C3C024003480068CE
:100E000040F000400149086070470000103C02407B
:100E100030B502460C46092500F034F80546092D88
:100E200019D10E48006820F440700C49086008464B
:100E3000006840F4007008600846006840F0010057
:100E40000860146000F01EF805460448006820F0B1
:100E5000010002490860284630BD0000103C0240F5
:100E60000548006800F0004028B1044802490C39E8
:100E70000860034808607047103C02402301674542
:100E8000AB89EFCD08B509200090FFF78DFF0090EA
:100E900002E0FFF789FF00909DF800000128F8D0DC
:100EA0009DF8000008BDF0B50A460021002300248B
:100EB00000BF3DE0012505FA01F3156805EA0304CA
:100EC0009C4234D105684F000326BE40B5430560FF
:100ED00015794E00B5400668354305601579012D3A
:100EE00002D01579022D16D185684F000326BE4029
:100EF000B543856055794E00B540866835438560B9
:100F0000456801268E40B5434560456896798E4018
:100F1000B6B235434560C5684F000326BE40B543B1
:100F2000C560D5794E00B540C6683543C560491CDB
:100F30001029BFD3F0BDF0B5002300244D07ED0EFE
:100F400002FA05F3CE1000F1200555F826504E07A1
:100F5000F70E0F26BE40B543CF1000F1200646F82D
:100F60002750CE1000F1200555F8265045EA03041D
:100F7000CE1000F1200545F82640F0BD02460020C5
:100F800013690B400BB1012000E000207047418342
:100F9000704701837047000010B504460C48047088
:100FA0002046FFF71BFE012002F00AF800F07EF950
:100FB000012002F005F80648007800F077FA0549AC
:100FC0000860012001F0FCFF0248008880B210BDDB
:100FD0003E0000204000002000BFFEE710B5FFF7F4
:100FE0004DFD40210548FFF7D4FF01F0C5FF8021EA
:100FF0000248FFF7CEFF01F0BFFF10BD0004024022
:1010000000BFFEE77047000070B5002100230F22EB
:10101000C4781CB3174C246804F4E064C4F5E0649D
:10102000C4F30721C1F10404E3B20A4144789C40AF
:10103000E1B28478144021430C07210E0E4C057850
:101040006155047804F01F050124AC4005786D114A
:10105000AD0005F1E025C5F8004109E0047804F091
:101060001F050124AC40054D0678761145F8264051
:1010700070BD00000CED00E000E400E080E100E065
:1010800002490143024A1160704700000000FA055E
:101090000CED00E02DE9F0412DED108B82B00446FF
:1010A000B0EE409AF0EE609AB0EE41AAF0EE61AA7E
:1010B0000D4616461F462846FFF73FFA41EC1D0B2A
:1010C0009FED710B53EC102BFFF7B7F9C4E90C013E
:1010D0003046FFF732FA41EC1D0B9FED6B0B53ECE2
:1010E000102BFFF7AAF9C4E90E013846FFF725FADD
:1010F00041EC1D0B9FED640B53EC102BFFF79DF99A
:10110000C4E9100153EC1A2B51EC190BFFF71DF930
:1011100041EC180B9FED5E0B84ED0A0B94ED0E1B5A
:10112000B0EE410AF0EE610A53EC182B51EC100BB3
:10113000FFF711F941EC1E0B94ED0A1BB0EE410ACA
:10114000F0EE610A53EC102BFFF705F941EC1D0B93
:1011500094ED081BB0EE410AF0EE610A53EC102B3F
:10116000FFF752F841EC1B0B94ED061BB0EE410A61
:10117000F0EE610A53EC102B51EC180BFFF7E5F879
:1011800041EC1D0B94ED0A1BB0EE410AF0EE610A32
:1011900053EC102BFFF751F941EC1C0B94ED101B95
:1011A000B0EE410AF0EE610A53EC1C2B51EC100B2F
:1011B000FFF7D1F841EC1D0B94ED0C1BB0EE410A8A
:1011C000F0EE610A53EC182B51EC100BFFF7C3F84B
:1011D00041EC1F0B53EC1B2BFFF716F841EC1E0BD9
:1011E00053EC1D2BFFF710F8CDE9000194ED041B23
:1011F000B0EE410AF0EE610A9DED001B53EC112B9D
:1012000051EC100BFFF700F8C4E9040184ED068BE4
:1012100084ED08BB94ED041BB0EE410AF0EE610AC8
:101220009FED1D1B53EC112B51EC100BFFF7F6F942
:1012300004D29FED190B84ED040B12E094ED041B16
:10124000B0EE410AF0EE610A9FED151B53EC112B35
:1012500051EC100BFFF7CAF903D29FED110B84ED8F
:10126000040B94ED041BB0EE410AF0EE610A51EC60
:10127000100BFFF78EF91FFA80F8404602B0BDEC64
:10128000108BBDE8F0810000000000000088C34022
:10129000000000000000F03F0000000000407F4020
:1012A00000000000000000007047000010B5902012
:1012B0000A4908700020487000F076FA002407E020
:1012C0000649085D00F0C2FF00F018F9601CC4B2C6
:1012D000022CF5DB00F084FA10BD0000C0010020F4
:1012E00029B1064A12680243044B1A6004E0034A1B
:1012F00012688243014B1A60704700003038024088
:1013000029B1064A12680243044B1A6004E0034AFA
:1013100012688243014B1A60704700004038024057
:1013200029B1064A12680243044B1A6004E0034ADA
:1013300012688243014B1A60704700004438024033
:1013400029B1064A12680243044B1A6004E0034ABA
:1013500012688243014B1A60704700002438024033
:10136000F0B5002100220024022500260223324F7E
:101370003F6807F00C0121B1042905D0082937D1B5
:1013800005E02E4F076036E02D4F076033E02A4F0F
:101390003F1F3F68C7F38056274F3F1F3F6807F046
:1013A0003F036EB1264FB7FBF3F7DFF88CC0ACF10B
:1013B000040CDCF800C0CCF3881C07FB0CF40CE038
:1013C0001E4FB7FBF3F7DFF870C0ACF1040CDCF88C
:1013D00000C0CCF3881C07FB0CF4174F3F1F3F687D
:1013E000C7F301477F1C7D00B4FBF5F7076002E0FF
:1013F000124F076000BF00BF0F4F3F6807F0F001BA
:101400000909104F7A5C0768D74047600A4F3F6868
:1014100007F4E051890A0B4F7A5C4768D740876030
:10142000054F3F6807F46041490B064F7A5C4768F7
:10143000D740C760F0BD0000083802400024F40027
:1014400000127A000000002070B540211648FFF716
:101450009EFD01F091FD80211348FFF79AFD01F0F8
:101460008BFD012002F06CFB002516E001F084FDED
:1014700040210D48FFF78DFD01F07EFD6006040E52
:1014800080210948FFF77AFD08B1601CC4B24021F1
:101490000548FFF77CFD681CC5B2082DE6DB00207F
:1014A00002F04EFB204670BD0004024070B50546B8
:1014B00000F07AF9912000F0C9FE00F01FF8FFF764
:1014C000C3FF0D49087000F019F8FFF7BDFF0A4986
:1014D0004870FFF7F1FA00F083F9074840780649B1
:1014E000097840EA0124B4F5004F02DBE043401CD8
:1014F00084B2204670BD0000CA01002010B500244F
:10150000012002F01DFB40210F48FFF742FD01F0D2
:1015100033FD40210C48FFF73AFD01F02DFD01E0BD
:10152000601CC4B280210848FFF728FD012801D1C2
:10153000FF2CF5DB40210448FFF729FD01F01CFDDD
:10154000002002F0FDFA10BD0004024001461C48D4
:10155000814201D2002070471A48814201D20820FE
:10156000F9E71948814201D21020F4E71748814277
:1015700001D21820EFE71648814201D22020EAE785
:101580001448814201D22820E5E71348814201D264
:101590003020E0E71148814201D23820DBE71048D3
:1015A000814201D24020D6E70E48814201D2482034
:1015B000D1E70D48814201D25020CCE75820CAE73C
:1015C000004000080080000800C00008000001087A
:1015D00000000208000004080000060800000808D7
:1015E00000000A0800000C0800000E082DE9F04178
:1015F00007460D461646002406E0384600F008F877
:1016000045F824003F1D641CB442F6D3BDE8F081C8
:1016100001460868704700002DE9F04704460E4671
:1016200017464FF009080025A946B4F1006F02D310
:1016300004F0030008B1BDE8F087FFF711FC0020BB
:10164000FFF75CFB254604EB87091A48854219D24F
:1016500015E02846FFF7DCFF401C78B140F2F3109C
:10166000FFF746FB2846FFF771FF82460221FFF78E
:1016700057FB8046B8F1090F01D002E02D1D4D4502
:10168000E7D300BFB8F1090F0CD108E0204631685C
:10169000FFF7BEFB092800D003E0241D361D4C4592
:1016A000F4D300BF0120FFF729FBFFF7A7FB00BF22
:1016B000C1E700000000FF1F704700000CB50020CC
:1016C000019000903448006840F48030324908604E
:1016D00000BF3148006800F4003000900198401CC1
:1016E0000190009818B90198B0F5A04FF1D12A489F
:1016F000006800F4003010B10120009001E00020EB
:1017000000900098012846D123484030006840F0FE
:1017100080502149403108602048006840F4404032
:101720001E4908601C48083000681B4908310860E1
:101730000846006840F4004008600846006840F42D
:10174000A05008601648091F0860081F006840F094
:101750008070091F086000BF0F48006800F000702B
:101760000028F9D040F205700E4908600A48083098
:10177000006820F003000849083108600846006846
:1017800040F00200086000BF03480830006800F025
:101790000C000828F8D10CBD003802400070004051
:1017A00008544007003C024010B580210B48FFF769
:1017B000F0FB01F0E1FB40210848FFF7EAFB01F0F4
:1017C000DBFB80210548FFF7E2FB01F0D5FB402160
:1017D0000248FFF7DCFB01F0CFFB10BD0004024024
:1017E00010B580210848FFF7D2FB01F0C5FB40216E
:1017F0000548FFF7CEFB01F0BFFB80210248FFF751
:10180000C8FB01F0B9FB10BD00040240042808D158
:101810004FF0E021096941F004014FF0E02211612D
:1018200007E04FF0E021096921F004014FF0E022C8
:10183000116170477047000010B51548006840F40A
:101840007000134908601348006840F00100114916
:10185000086000200F49083108600E4800680E49F2
:1018600008400C4908600D48091D0860081F006801
:1018700020F48020091F0860002006490C31086010
:10188000FFF71CFF4FF0006001498039086010BD70
:1018900088ED00E000380240FFFFF6FE1030002423
:1018A0001FB501210846FFF72BFD5320ADF80400BA
:1018B0000020ADF8060040F2E73002900020ADF8BD
:1018C0000C008DF80E0001A94FF0804000F03CFAAA
:1018D0000121880700F006F901221146900700F067
:1018E00021F91C208DF8000000208DF80100012056
:1018F0008DF802008DF803006846FFF785FB012193
:10190000880700F0F2F81FBD10B50121880700F02C
:10191000F8F890B109480068401C0849086002F0D6
:10192000E9F9074908680968491C054B196002F084
:10193000ADF90121880700F0D5F810BD1C0000208A
:101940002000002070B58AB004460D460121022017
:10195000FFF7D6FC01210220FFF7C2FC31200090E6
:1019600002208DF8040000208DF8060003208DF879
:10197000050001208DF8070069463648FFF793FA05
:10198000022200213348FFF7D6FA0222042131480F
:10199000FFF7D1FA022205212E48FFF7CCFA08946E
:1019A000ADF81C500020ADF82400ADF81E0007A9CA
:1019B000294800F0C9F97020ADF808000120ADF801
:1019C0000A0000200490ADF8140002A9224800F09B
:1019D000B3F80821204800F0EDF87020ADF80800B9
:1019E0000120ADF80A0000200490ADF8140002A90F
:1019F000194800F0E9F80821174800F037F970207D
:101A0000ADF808000120ADF80A0000200490ADF800
:101A1000140002A9104800F037F908210E4800F020
:101A200083F901210C4800F060F8264604EBD670DB
:101A30004110094800F081F904EBD67041100648C6
:101A400000F07DF904EBD6704110034800F079F9FD
:101A50000AB070BD00040240000400401FB501211F
:101A60000420FFF74DFC5320ADF804000020ADF832
:101A70000600092002900020ADF80C008DF80E0041
:101A800001A9104800F060F901210E4800F02AF881
:101A9000012211460B4800F045F81E208DF8000089
:101AA00007208DF8010000208DF8020001208DF83C
:101AB00003006846FFF7A8FA0121024800F015F874
:101AC0001FBD00000008004010B50121044800F0CF
:101AD00018F818B10121024800F004F810BD000008
:101AE00000080040CA430282704721B1028842F0D8
:101AF0000102028004E002884FF6FE731A40028061
:101B0000704730B50246002000230024158A05EAFC
:101B10000103958905EA010413B10CB1012000E02D
:101B2000002030BD1AB183890B43838102E0838991
:101B30008B4383817047000070B50024002200238E
:101B4000058C4FF6FE7635400584028C8388048B25
:101B50004FF68F752C40B51E2C400D882C43751EFA
:101B60002A408D892A434D882A43104DA84202D02D
:101B70000F4DA84213D14FF6F7752A40CD892A435D
:101B80004FF6FB752A408D882A434FF6FF652B40A0
:101B90004FF6FF552B400D8A2B434D8A2B438380F4
:101BA00004838D684563028470BD0000000001401D
:101BB000000401400A460021018B4FF6F7731940DB
:101BC000114301837047000070B5002400220023F8
:101BD000058C4FF6EF7635400584028C8388048BA4
:101BE00048F6FF752C404FF6FF452C400D884FF608
:101BF000FF7606EA05252C434FF6DF752A408D89CE
:101C000006EA05152A434D8806EA05152A43154DAF
:101C1000A84202D0144DA8421DD14FF67F752A402C
:101C2000CD894FF6FF7606EA05152A434FF6BF75B4
:101C30002A408D8806EA05152A434FF6FF352B40CA
:101C40004FF2FF752B400D8A06EA85052B434D8A1E
:101C500006EA85052B43838004838D6885630284AF
:101C600070BD000000000140000401400A46002150
:101C7000018B4FF2FF7319404FF6FF7303EA022303
:101C8000194301837047000070B50024002200232F
:101C9000058C4FF6FF6635400584028C8388848B63
:101CA0004FF68F752C404FF6FC752C400D882C4359
:101CB0004FF6FF552A408D894FF6FF7606EA052537
:101CC0002A434D8806EA05252A43154DA84202D02D
:101CD000144DA8421DD14FF2FF752A40CD894FF611
:101CE000FF7606EA05252A434FF6FF352A408D8800
:101CF00006EA05252A434EF6FF752B404DF6FF7583
:101D00002B400D8A06EA05152B434D8A06EA051578
:101D10002B43838084838D68C563028470BD00007B
:101D200000000140000401400A460021818B4FF66B
:101D3000F773194011438183704741637047816392
:101D40007047C1637047000000220288184B984218
:101D50000ED0184B98420BD0B0F1804F08D0164BE4
:101D6000984205D0154B984202D0154B984204D1A9
:101D70004FF68F731A404B881A43124B984207D084
:101D8000114B984204D04FF6FF431A400B891A4377
:101D900002804B68C3620B880385054B984202D0D2
:101DA000044B984201D18B7A0386012383827047CA
:101DB0000000014000040140000400400008004011
:101DC000000C0040001000400014004010B540F22C
:101DD0002551094800F074F960B140F225510648D8
:101DE00000F046F9044800F025FAC4B2012120466B
:101DF00001F044FD10BD0000004C004010B540F261
:101E00002551204800F05CF900283AD040F22551D5
:101E10001C4800F02DF91B4800F00CFAC1B21A481A
:101E200002780078401C184B1870184881540078CC
:101E3000162803D1184600785A2803DD00201249DD
:101E400008701EE0104800780B281ADB0F48017953
:101E5000C07801EB002000B20D4908800B48817961
:101E6000407901EB002000B2094948800748017A17
:101E7000C07901EB002000B20549888000200249AA
:101E8000087010BD005000403800002052010020B2
:101E90003000002010B540F22551064800F010F93E
:101EA00038B1044800F0C6F9C4B20121204601F05F
:101EB000E5FC10BD0010014010B5002440F2255192
:101EC000414800F0FDF800287CD040F225513E4802
:101ED00000F0CEF83C4800F0ADF9C1B23B480278C2
:101EE0000078401C394B187039488154007801281B
:101EF00003D1184600785A2803DD002033490870C2
:101F000060E032480078022800DA10BD304840789E
:101F1000062854D12D480078142853DB2C48807CA7
:101F20002B49C97C40EA01241221294801F0A4F977
:101F3000A04240D1264840792549897940EA0120CC
:101F400024490881002088802148007A00F001019E
:101F50001F48C07961F35F001D49497A01F0010112
:101F600040EA81001A49897A01F0010140EAC10082
:101F70001749C97A01F0010140EA01101449097BAF
:101F800001F0010140EA41101149497B01F00101D2
:101F900040EA81100E49897B01F0010140EAC1103D
:101FA0000B49C97B01F0010140EA012009498988F8
:101FB00008430849888000200449087002E0002096
:101FC0000249087000BFA0E7004400402400002040
:101FD0008A0000208000002010B540F225512048E2
:101FE00000F06EF800283AD040F225511C4800F06D
:101FF0003FF81B4800F01EF9C1B21A480278007879
:10200000401C184B1870184881540078162803D1CA
:10201000184600785A2803DD0020124908701EE097
:10202000104800780B281ADB0F480179C07801EBC3
:10203000002000B20D4908800B488179407901EBFE
:10204000002000B2094948800748017AC07901EBB5
:10205000002000B20549888000200249087010BDA8
:10206000004800402E000020EE0000202600002046
:1020700010B50022002340F66A14A14200D100BF2F
:102080000A1201249440A3B2DC43048010BD21B1A4
:10209000828942F40052828104E082894DF6FF7306
:1020A0001A408281704702460020B1F5007F00D1BE
:1020B00000BF13880B400BB1012000E000207047E7
:1020C00070B50246002400230025002040F66A1661
:1020D000B14200D100BFC1F3421501F01F03012638
:1020E00006FA03F3012D02D19689334006E0022D52
:1020F00002D1168A334001E0968A33400C12012641
:1021000006FA04F41688344013B10CB1012000E043
:10211000002070BDF0B503460024002600250020F5
:1021200040F66A17B94200D100BF1846C1F3421405
:1021300001F01F06012707FA06F5012C01D10C302A
:1021400004E0022C01D1103000E014301AB107680D
:102150002F43076002E00768AF430760F0BD00004F
:102160002DE9FF4705460E460024A14600BFA046C4
:10217000B08900B100BF2C8A24F44054F088044395
:102180002C82AC8941F20C608443B08831890843C9
:10219000718908430443AC81AC8A24F44074B0894B
:1021A0000443AC826846FFF7DBF82048854202D042
:1021B0001F48854202D1DDF80C9001E0DDF808905F
:1021C000A88900F4004040B109EBC90000EB0910F8
:1021D00031684900B0FBF1F707E009EBC90000EBFB
:1021E000091031688900B0FBF1F76420B7FBF0F00B
:1021F00004012009642101FB1078A88900F4004043
:1022000040B1322000EBC800B0FBF1F000F0070055
:10221000044308E0322000EB08106421B0FBF1F029
:1022200000F00F0004432C81BDE8FF87001001403F
:102230000014014001468888C0F308007047C1F3CC
:1022400008028280704700BFFEE700002DE9F041E0
:1022500005462F4600241FE0C4F1070047FA00F6A8
:1022600006F0010640211448FEF791FE00F084FEBE
:1022700026B180211048FEF78CFE03E080210E4835
:10228000FEF785FE00F078FE40210B48FEF781FE48
:1022900000F072FE601CC4B2082CDDDB4021064851
:1022A000FEF775FE00F068FE80210348FEF771FE20
:1022B00000F062FEBDE8F081000402400FB4054B5F
:1022C00010B503A9044A029800F0DAF810BC5DF8D2
:1022D00014FB0000753100081400002002E008C85B
:1022E000121F08C1002AFAD170477047002001E090
:1022F00001C1121F002AFBD1704700002DE9FF5FCA
:1023000082B00021DDE90430020DDDF840B0034366
:1023100018D044F61050A2F2FF324243151411981F
:1023200001281FD0A5EB0B00401C5FEA000A4FF00C
:1023300000064E4FDFF83891B046504615D5CAF129
:10234000000413E0119801244AA3012801D16FEA87
:102350000B010298119AC0E90031C0E9024206B0AF
:10236000BDE8F09FCBF10000DFE704460021404AC2
:10237000491842EB0450CDE9001012E0E00707D005
:1023800032463B4640464946FDF7E5FF80468946D2
:1023900032463B4610461946FDF7DDFF06460F461E
:1023A0006410002CEAD1DDE90401DDE90023BAF173
:1023B000000F06DAFDF7CFFF42464B46FDF7CBFF95
:1023C00005E0FEF73AF842464B46FEF736F804467B
:1023D0000E460022284BFEF721F903D84FF0FF30BC
:1023E000014607E00022254B20463146FDF70CFF51
:1023F000FEF754FA102409E0002C0ADB0A2200231D
:10240000FEF756F9039B30321A55641E50EA01025A
:10241000F2D1641C039AC4F111031444119A012AE5
:1024200003D0012208430DD10AE0084304D0002064
:102430004FF0110B119072E7A3EB0B056D1E0DE031
:102440005B4504DD4FF0000205F1010504E003DA0D
:102450004FF00002A5F10105002AECD00298119975
:10246000C0E90231C0E9004579E7000000001440EE
:102470000000F03F300000000000F0430000E03FAB
:102480002DE9FF4F95B09B468946064600250FE291
:10249000252877D100242746F84A0121059400E039
:1024A000044316F8013F203B01FA03F01042F7D134
:1024B00030782A2811D06FF02F033078A0F1300245
:1024C000092A16D8059A44F0020402EB820203EBB3
:1024D00042021044761C0590EFE759F8042B059250
:1024E000002A03DA504244F40054059044F00204F8
:1024F000761C30782E2816D116F8010F44F004040B
:102500002A280DD06FF02F023078A0F13003092B6C
:1025100009D807EB870302EB4303C718761CF3E7E0
:1025200059F8047B761C30786C280FD006DC4C28D8
:1025300017D068280DD06A2814D104E0742810D070
:102540007A280FD10DE044F400140AE044F480141A
:1025500001E044F440147278824202D104F5801400
:10256000761C761C307866280BD013DC582877D080
:1025700009DC002875D04528F6D04628F4D0472835
:102580001AD19DE118E0632835D0642879D06528F8
:1025900012D195E1702873D008DC6728F1D0692842
:1025A0006FD06E280DD06F2806D1B5E073282CD0DF
:1025B000752875D0782874D05A46179990476D1CA5
:1025C00075E1C4F30250022809D003280DD0D9F8D0
:1025D000001004280DD00D6009F1040967E1D9F855
:1025E0000010EA17C1E90052F6E7D9F800100D8093
:1025F000F2E70D70F0E719F8041B8DF800100020C9
:102600008DF80100EA46012003E059F804AB4FF0D1
:10261000FF3061074FF0000102D40DE008F1010125
:102620008846B9420FDA8045F8DB1AF8081000290D
:10263000F4D108E008F1010188468142FADB1AF87A
:1026400008100029F6D105985B46A0EB0807214643
:102650003846179A00F094FA284400EB080507E082
:102660004DE029E10DE01AF8010B5A461799904701
:10267000B8F10108F7D25B4621463846179A13E1B4
:1026800042E00A220092C4F302524FF0000A022AEA
:1026900008D059F804CB032A4FEAEC710AD00DE0B8
:1026A00029E02AE009F1070121F00702F2E802C15E
:1026B000914609E00FFA8CFC4FEAEC71042A03D131
:1026C0004FFA8CFC4FEAEC71002907DA0A46002128
:1026D000DCF1000C61EB02012D2202E0220504D5A1
:1026E0002B228DF80420012203E0E20701D02022F2
:1026F000F7E7904659E00A2102E010220DE0102190
:102700004FF0000A00910BE010224FF0000A44F055
:1027100004040827009203E008224FF0000A009208
:10272000C4F30252022A05D059F804CB0021032A2F
:1027300008D009E009F1070121F00702F2E802C11F
:10274000914605E01FFA8CFC042A01D10CF0FF0C25
:102750004FF00008220728D5702806D0009B83F090
:10276000100353EA0A0305D00EE040228DF804203E
:10277000012208E05CEA010206D030228DF8042034
:102780008DF8050002229046009B83F0080353EA6F
:102790000A030AD15CEA010201D1620705D53022A1
:1027A0008DF804204FF001087F1E582804D034A073
:1027B00003900EA802900DE036A0F9E7534660465C
:1027C000009AFDF775FF84460398825C0298401ECC
:1027D000029002705CEA0100F0D1029806A9081A82
:1027E00000F1200A600702D524F4803400E00127BC
:1027F000574502DDA7EB0A0000E0002000EB0A01CC
:10280000009005984144401A0590E00306D45B46C9
:102810002146179A059800F0B3F90544002706E011
:1028200001A85A46C05D179990476D1C7F1C47450B
:10283000F6DBE0030CD55B462146179A059800F0BD
:102840009FF9054404E030205A46179990476D1CC3
:102850000099481E00900029F5DC08E002980299D2
:102860005A460078491C0291179990476D1CBAF19D
:102870000001AAF1010AF1DC65E10000092801006C
:1028800030313233343536373839616263646566E6
:1028900000000000303132333435363738394142A8
:1028A000434445460000000000F058F90544761CFA
:1028B000307800287FF4ECAD19B02846BDE8F08FE1
:1028C000620700D4062709F1070222F0070CFCE892
:1028D0000223E14603F000485FEA080C02D00FF241
:1028E000702C0DE05FEA045C02D50FF2682C07E063
:1028F0005FEAC47C02D00FF2602C01E0AFF2700CF2
:102900004FF0FF3823F00043CDF850C065280CD0BD
:1029100006DC452809D046281DD047283DD13DE09A
:10292000662818D067287ED138E00021112F01DBFE
:10293000112000E0781CCDE9000106A90EA8FFF7E0
:10294000DDFCDDE90F010E9A03910021009207F1F1
:10295000010A04914DE04FF000400097CDE90110CD
:1029600006A90EA8FFF7CAFCDDE90F0203920E9B31
:1029700011990022DDF80CA00093049211B9791C82
:1029800000EB010AB7EB0A0004D4C0F1FF3007F1F5
:10299000010A0490AAEB0700019044E0012F00DA3D
:1029A00001270021112F01DD112000E03846CDE97B
:1029B000000106A90EA8FFF7A1FCDDE90F010E9AA0
:1029C0000391002104910092BA4621070CD4039987
:1029D000514500DA8A46BAF1010F05DD009AAAF1E5
:1029E0000101515C302908D0B84202DA10F1040F1D
:1029F00006DA0121CDE9011015E0AAF10101E9E7AC
:102A0000002805DC049901440491AAEB000102E0CE
:102A1000411C514500DD8A460499401A401C019032
:102A20004FF000400290200704D40198504501DB8C
:102A3000CDF8048000208DF84F0002980DF14F076B
:102A4000B0F1004F25D02B200E9002984FF00208D5
:102A500000280CDA404202902D200E9007E00A2157
:102A60000298FDF70FFE3031029007F8011DB8F112
:102A70000001A8F10108F2DC02980028EFD1791ECC
:102A80000E980870307800F0200040F0450007F8FC
:102A9000020D12A8C01B00F107081498007800B1BD
:102AA000012000EB0A01019801EBE0710598414417
:102AB000401A401E0590E00306D45B462146179A53
:102AC000059800F05DF805441498007818B15A464E
:102AD000179990476D1CE00324D55B462146179A51
:102AE000059800F04DF805441CE00498002807DB29
:102AF000DDE90301884203DD0098405C179901E09D
:102B0000179930205A469047049805F10105401C5A
:102B100004900198401E019004D12E205A46179926
:102B200090476D1CBAF10001AAF1010ADDDC05E055
:102B300017F8010B5A46179990476D1CB8F1000120
:102B4000A8F10108F4DC5B462146179A0598ABE62C
:102B50002D0000002B000000200000002DE9F041B6
:102B6000044600251E461746880404D405E039466D
:102B70002020B0476D1C641EF9D52846BDE8F081C1
:102B80002DE9F041044600251E469046C80301D5B4
:102B9000302700E02027880404D505E04146384668
:102BA000B0476D1C641EF9D52846BDE8F0810000D1
:102BB00010B52DED048B0020FEF7EEF90446FDF76D
:102BC000BCFC41EC190B9FED220B53EC102BFDF7D5
:102BD00034FC41EC180B9FED200B53EC102BFDF750
:102BE000BAFB1F4A03C20120FEF7D6F90446FDF7DF
:102BF000A4FC41EC190B9FED160B53EC102BFDF7C9
:102C00001CFC41EC180B9FED140B53EC102BFDF743
:102C1000A2FB134AC2E902010220FEF7BDF90446F5
:102C2000FDF78BFC41EC190B9FED090B53EC102BBE
:102C3000FDF703FC41EC180B9FED070B53EC102B39
:102C4000FDF789FB064AC2E90401BDEC048B10BD07
:102C500000000000E0FFEF40000000000000144012
:102C60000003002000B52E4890F900002D4991F98D
:102C70000010884223D02A4800782A490870284842
:102C8000007801280BD128480068284908600846C8
:102C9000006800F0AFFA0020234908600FE02048E8
:102CA00090F90000401C50B91F4800682049086096
:102CB0000846006800F09EFA00201B49086018488A
:102CC0000078A0B91B4801880088401C194A108070
:102CD000B1F5FA7F0EDD4FF4FA701146088000203E
:102CE00013490860114908600D49488002E000203E
:102CF000104908800E4800680C49096808444EF6DF
:102D00006021B1FBF0F00649488109480068642160
:102D1000484306490968B0FBF1F00149888100BDCC
:102D2000D8010020490000201C0000205000002095
:102D30004C0000204A00002000B58FB0012188051A
:102D4000FEF7CEFA1348019013480290002003903A
:102D500004200490002005904FF48060069040000D
:102D60000790800008904011099040020A900020CE
:102D70000B9001200C9000200D900E900090694661
:102D80000648FDF77DFF01210448FDF76DFF0FB0F8
:102D900000BD00004C2001406C0000201064024087
:102DA0002DE9F04104460D4616464FF6FF7000210E
:102DB00014E0625C50404FF0000C0AE000F00107A4
:102DC000401017B14AF2010250400CF1010202F02A
:102DD000FF0CBCF1080FF1DB4A1CD1B2A942E8DBC1
:102DE00002464FEAE07800EB18684FEA2828A0EB8B
:102DF000082886F800804FEAE07800EB18684FEA70
:102E0000182883F80080BDE8F081000010B506485E
:102E1000C08E00B110BDFDF7DFFE00F04FFC00F0EA
:102E200007FE00BFF6E70000FC01002010B586B0E9
:102E30000024142205A101A8FDF7C2F9142421469B
:102E400001A800F0D1FF06B010BD000001060F0080
:102E50000000000000000000000000000000864D9F
:102E60002DE9F04186B005460E46174698460024E7
:102E70001CA30FCB8DE80F000E241E49087809789B
:102E8000491C1C4A117000EBD0714910A0EB4101A4
:102E9000012904D1FFF7CAFF06B0BDE8F081E8B20E
:102EA0008DF8030028128DF804008DF807608DF866
:102EB00008708DF80980A01EC1B204AB05AA68464F
:102EC000FFF76EFF9DF81410A01E0DF800109DF87E
:102ED0001010601E0DF800102146684600F084FFB7
:102EE00000BFD9E701030900000000000000000056
:102EF0003C5500002500002010B54FF47A701649AB
:102F000008824FF48660C8854FF47A70C8854FF404
:102F1000486088874FF4FA70C8874000A1F84000E5
:102F20000020A1F84200A1F844004FF47A70A1F803
:102F300046000020A1F84800A1F84A004FF47A703A
:102F4000A1F84C000020A1F84E00A1F850002B2061
:102F500000F0CCF810BD0000FC01002010B50549C0
:102F6000088900231A461946FFF77AFF00F090F807
:102F700010BD0000FC01002010B5042000F03CF85A
:102F800010BD000010B504466FF00400FEF73EFCD3
:102F9000E11704EB5171C1F3C701074A11701046E4
:102FA000007800EB4001C1EBC0104FF6FF7101EA61
:102FB000C0000249088010BD10000020120000204F
:102FC00070B504464FF4077094FBF0F0C6B24FF4AE
:102FD000077094FBF0F100FB114085B205E04FF45F
:102FE000077000F02FF8701EC6B2002EF7D115B191
:102FF000284600F027F870BD0146114A12784A436E
:103000004FF0E0235A6100229A611A46126942F099
:1030100001021A6100BF4FF0E022106900F00102C6
:103020001AB100F48032002AF5D04FF0E022126984
:1030300022F001024FF0E0231A6100229A617047EA
:10304000100000200146114A12884A434FF0E02345
:103050005A6100229A611A46126942F001021A610D
:1030600000BF4FF0E022106900F001021AB100F435
:103070008032002AF5D04FF0E022126922F00102DE
:103080004FF0E0231A6100229A617047120000207D
:1030900010B511480088114908800F4840884880C1
:1030A0000F48008988800E488088C8800D480088B5
:1030B00048810D48408948860B48808988860A489F
:1030C000408888850848C088C8810846008B0886E3
:1030D000084600F089FC10BD30000020FC010020F3
:1030E0008000002026000020D801002030B599B0D3
:1030F00004460D4664216846FDF77BF82B2C01DA67
:1031000019B030BD082269460848FEF76FFA002062
:1031100007E03DF8102000F12B0125F81120411C9B
:10312000C8B20828F5DB00BFEAE7000004C00008C9
:1031300030B599B004460D4664216846FDF759F84C
:103140002B2C01DA19B030BD002007E000F12B0173
:1031500035F811102DF81010411CC8B20828F5DB05
:10316000082269460248FEF757FA00BFEAE7000066
:1031700004C0000800BF054A128802F04002002A7D
:10318000F9D0C2B2014B9A80704700000010014094
:103190000146042901DD00207047024830F8110083
:1031A000FAE700006C000020104890F90000104978
:1031B00091F90010884209D00C48007830B1002005
:1031C0000A490861084600780949087007480078EC
:1031D00058B10648B0F902004FF47A7190FBF1F053
:1031E000024909690844014908617047D801002073
:1031F0004800002000211E4A1278012A19D11C4AD9
:103200001269524242434FF47A73B2FBF3F23C2309
:10321000B2FBF3F1174A128D164B5A851A46D28C1F
:103220001A851A46928CDA841A46528C9A845984EA
:103230001CE00F4A92F90020521CBAB90C4A1269DC
:1032400042434FF47A73B2FBF3F23C23B2FBF3F147
:10325000084AD28B074B1A841A46928BDA831A4695
:10326000528B9A831A46128B5A8319837047000037
:10327000D8010020FC01002070B502460B464FF635
:10328000FF70002110E0565C7040002408E000F060
:103290000105401015B14AF201067040661CB4B237
:1032A000082CF4DB4E1CB1B29942ECDB70BD00007F
:1032B00010B52DED088B9FED7C0BB0EE408AF0EE43
:1032C000608A00F02FF97A48C08879490881002087
:1032D000FFF75EFF0446FDF730F941EC180B51ECA7
:1032E000180BFDF7B3F909EE100AB0EE490A714860
:1032F00000F05AFC10EE104A2046FDF763F941EC4D
:10330000180B6B4890ED060A10EE101A0846FDF7F0
:1033100059F941EC190B664890ED050A10EE101AA8
:103320000846FDF74FF941EC1B0B53EC182BFDF74A
:1033300012F841EC1A0B53EC192BFCF765FF41EC2A
:10334000180B9FED5D0B53EC102B51EC180BFDF798
:1033500065F906D29FED580BB0EE408AF0EE608A18
:103360000EE09FED510B53EC102B51EC180BFDF7B9
:103370003DF905D89FED4C0BB0EE408AF0EE608A27
:103380004F49088AFDF7D9F841EC1A0B9FED4D0B18
:1033900053EC102B51EC180BFCF736FF41EC1B0BD8
:1033A00053EC1A2BFCF7D1FF41EC190BFDF7F1F8A8
:1033B0003F49C8800846408888800120FFF7E8FE22
:1033C0000446FDF7BAF841EC180B51EC180BFDF769
:1033D0003DF909EE100AB0EE490A3C4800F0E4FB62
:1033E00010EE104A2046FDF7EDF841EC180B30487E
:1033F00090ED080A10EE101A0846FDF7E3F841ECCC
:10340000190B2B4890ED070A10EE101A0846FDF72D
:10341000D9F841EC1B0B53EC182BFCF79CFF41EC4B
:103420001A0B53EC192BFCF7EFFE41EC180B244957
:10343000C88DFDF782F841EC1A0B9FED220B53EC7F
:10344000102B51EC180BFCF7DFFE41EC1B0B53EC7F
:103450001A2BFCF77AFF41EC190BFDF77BF800B251
:1034600013494880B1F90200002801DB014600E061
:103470004142032903DA00200D49087010E00C488E
:10348000B0F90200002803DD01200949087007E0B7
:103490000748B0F90200002802DAFF20044908704A
:1034A000BDEC088B10BD0000000000000000000013
:1034B000D801002018030020000000000088B3405D
:1034C000FC0100200000000000408F402E0300207F
:1034D0001CB501210420FDF703FF42F20F0000900C
:1034E00001208DF8040000208DF8060003208DF8DF
:1034F000050001208DF8070069460748FDF7D3FC59
:103500000F210548FDF745FD012004490860002012
:103510000349C1F88C021CBD0008024088024142E8
:10352000000041424448B0F8540088B9B7EE001A90
:10353000424880ED051AB7EE001A80ED071A9FED9C
:10354000401A80ED061A9FED3E1A80ED081A71E0D0
:103550003948B0F85C003849B1F85810401A01EE0B
:10356000100AB8EEC11AB0EE410A3348B0F85A005A
:103570003149B1F85610401A01EE100AB8EEC11ADE
:10358000F0EE410A80EE201A2C4880ED051A2A48F8
:10359000B0F8580001EE100AB8EE411AB0EE410A38
:1035A0002648D0ED051A2448B0F8560001EE100A5E
:1035B000B8EE412AB0EE401A01EEC21A1F4880ED63
:1035C000061A1D48B0F864001B49B1F86010401A93
:1035D00001EE100AB8EEC11AB0EE410A1648B0F872
:1035E00062001549B1F85E10401A01EE100AB8EEFB
:1035F000C11AF0EE410A80EE201A104880ED071A39
:103600000D48B0F8600001EE100AB8EE411AB0EEB5
:10361000410A0A48D0ED071A0748B0F85E0001EEEB
:10362000100AB8EE412AB0EE401A01EEC21A034861
:1036300080ED081A70470000FC010020D80100202E
:10364000000000004FF4A060FDF71AFDA820FFF76E
:1036500099FC4FF4FA60FFF7B3FC1748FDF780FEC2
:10366000FFF736FFFFF768FBFDF748FAFDF7B6FCFA
:10367000532140F2F310FEF765F9FEF711F9FEF75A
:10368000EDF94FF4165000F0FFFC4FF4165000F027
:1036900055FB4FF4165000F0C5FB4FF4165000F0E8
:1036A00017FC4FF4165000F087FCFFF725FC01E0F3
:1036B00000F0A6FAFCE700005C00002010B52DED3C
:1036C000048B1649B1F90000FCF726FF41EC180BFA
:1036D00013498889FCF731FF41EC190B1048B0F809
:1036E0004A30B0F84820B0F84610B0EE481AF0EE74
:1036F000681AB0EE490AF0EE690A0A48FDF7CAFCFA
:10370000074908870846008FB0F5FA7F02DD4FF4BD
:10371000FA700887BDEC048B10BD00002600002065
:10372000FC0100204803002070B5C2B005464FF4EC
:10373000807102A8FCF75DFD002400262F48407828
:103740008DF808002D4880788DF809002B48017904
:10375000C07841EA002629488179407941EA002071
:103760004006000E8DF80A009DF80A0000EBD071AB
:103770004C10002001901DE09DF80400304435F805
:10378000100001129DF80400032202EB400002AA7F
:1037900011549DF80400304415F810109DF80400F1
:1037A000042202EB400002AA11549DF80400401CC0
:1037B000C0B201909DF80400A042DDDB9DF80A0034
:1037C000C01CC4B26B4601AA214602A8FFF7E8FA62
:1037D0009DF8040002A908559DF8001002AA601C7B
:1037E0001154A01CC4B2214602A800F089FA214657
:1037F00002A800F0C3FB42B070BD0000D803002057
:1038000070B505460026002408240D480179C078CB
:1038100041EA00260A488179407941EA002025F8EA
:103820001600074981F8026221460548401C00F055
:1038300067FA21460248401C00F0A0FB70BD000062
:10384000D80300207CB50546062421466B4601AA14
:103850000948FFF7A5FA9DF80410074801559DF89F
:103860000020611C4254A41C214600F049FA214664
:10387000014800F083FB7CBDD90300202DE9F04115
:1038800006460F46544801780078401C524A107092
:10389000524846540078B84203D110460078FA28BE
:1038A00008DB00204C4908704FF480714B48FCF74E
:1038B000A0FC8FE0484800780228FADD47484078AD
:1038C00010283CD145488079083045490870424865
:1038D0000078097888427DDD3F480078801E3F49A6
:1038E000095C3D480078401E3C4A105C41EA0025D6
:1038F00039480078801EC1B21046FFF7BDFCA842CF
:1039000014D13548007837490870002406E0334860
:10391000015D3448401C0155601CC4B22E4800783B
:103920008442F4DB01202F4981F801024FF48071B9
:103930002A48FCF75EFC0020274908704AE0274827
:103940004078032803D02548407806283AD107203C
:103950002349087020480078097888423ADD1E48DB
:103960000078801E1D49095C1B480078401E1B4AD8
:10397000105C41EA002518480078801EC1B210464C
:10398000FFF77AFCA84214D1134800781549087053
:10399000002406E01148015D1248401C0155601CDE
:1039A000C4B20D4800788442F4DB01200D4981F84F
:1039B00001024FF480710948FCF71BFC0020064906
:1039C000087007E04FF480710448FCF712FC0020F7
:1039D00001490870BDE8F08159000020DB06002095
:1039E00058000020D803002010B504460F4890F876
:1039F0000102012815D10D488078032804D006283B
:103A000006D010280CD107E02046FFF78DFE07E016
:103A10002046FFF7F5FE03E02046FFF713FF00BF47
:103A200000BF0020014981F8010210BDD803002029
:103A300010B52DED048B2A48B0F85200012807D1AB
:103A40002748C08A264948870120264908603BE06C
:103A500025480078012837D12349C888FCF76DFD37
:103A600041EC180B1E49488AFCF767FD41EC190B25
:103A70001B48B0F85030B0F84E20B0F84C10B0EE03
:103A8000481AF0EE681AB0EE490AF0EE690A1748D3
:103A9000FDF700FB124948871348C088498A8842CD
:103AA00003DC01200F4908600EE00F49C9880C4A69
:103AB000528A881A002801DB014600E041420A29A7
:103AC00002DD0020074908600548408FB0F5FA7F05
:103AD00003DD4FF4FA7002494887BDEC048B10BD3A
:103AE000FC0100208C024142D801002090030020FC
:103AF0001FB50A4890ED040B8DED020B90ED020B03
:103B00008DED000B90ED001BB0EE410AF0EE610A66
:103B100053EC102B02A0FEF7D1FB1FBD00030020C9
:103B2000616463313A252E32662C616463323A2532
:103B30002E32662C616463333A252E32660D0A00FC
:103B40001CB5044601210220FDF7CAFB802000902D
:103B50001CB100208DF8040002E001208DF8040063
:103B600000208DF8060003208DF8050001208DF857
:103B7000070069460148FDF796F91CBD00040240A4
:103B800010B5FFF795FBFFF76DF80548418F054825
:103B9000FEF7D3F80248018F0248FEF7D0F810BDB7
:103BA000FC01002000040040F0EE400ADFED131A93
:103BB000B0EE611AFCEEE01A11EE901A828A20F83B
:103BC0001210818A491C0A2291FBF2F302FB1311A5
:103BD000818200210AE030F8112001EE902AF8EEEF
:103BE000611A71EE811AB0EE611A491C0A29F2DBE2
:103BF000F2EE041A81EE210A704700000000000076
:103C000010B52048007800F0010038B11D48006868
:103C100020F001001B490860FFF7B2FF1948007847
:103C200000F0020038B11748006820F00200154982
:103C30000860FEF7BDFF1348007800F0040048B1AB
:103C40001048006820F004000E490860FFF786F96C
:103C5000FFF7DCF80B48007800F0080088B109484D
:103C6000006820F008000749086000F0B1FA064833
:103C7000006808B9012000E0002003490860FFF750
:103C800037FF10BD18000020B40241420521B0FBEF
:103C9000F1F201FB120129B91549096841F001014E
:103CA000134A11600A21B0FBF1F201FB120129B99C
:103CB0000F49096841F002010D4A11606421B0FB0F
:103CC000F1F201FB120129B90949096841F0040127
:103CD000074A11604FF47A71B0FBF1F201FB120157
:103CE00029B90349096841F00801014A1160704788
:103CF0001800002000B500F01DFAFFF755FA00BDCE
:103D000070B505460E4600240CE000BF40210A486D
:103D1000FEF7C9F90028F9D0295D0748FEF78FFAA8
:103D2000601C84B2B442F0DB00BF40210248FEF7C1
:103D3000BAF90028F9D070BD0010014010B588B064
:103D4000044601210846FDF7CBFA01214804FDF79E
:103D5000D7FA0C20069002208DF81C008DF81D006B
:103D600000208DF81E0001208DF81F0006A91C48B8
:103D7000FDF799F8072202211948FDF7DCF8072220
:103D800003211748FDF7D7F802940020ADF80C0086
:103D9000ADF80E00ADF81000ADF814000C20ADF831
:103DA000120002A90F48FEF7DBF926208DF8040067
:103DB00002208DF8050001208DF806008DF807001F
:103DC00001A8FDF721F9012240F225510548FEF72F
:103DD000A1F901210348FEF75AF908B010BD00000F
:103DE000000002400044004070B505460E46002425
:103DF0000CE000BF40210A48FEF755F90028F9D031
:103E0000295D0748FEF71BFA601C84B2B442F0DB60
:103E100000BF40210248FEF746F90028F9D070BDE6
:103E20000044004010B588B0044601218804FDF725
:103E300067FA01210220FDF753FA4FF44060069023
:103E400002208DF81C008DF81D0000208DF81E004A
:103E50008DF81F0006A91C48FDF725F807220A2146
:103E60001948FDF768F807220B211748FDF763F89A
:103E700002940020ADF80C00ADF80E00ADF8100073
:103E80000C20ADF812000020ADF8140002A90F4874
:103E9000FEF766F9012240F225510C48FEF73AF987
:103EA00001210A48FEF7F3F827208DF804000220CC
:103EB0008DF8050001208DF806008DF8070001A897
:103EC000FDF7A2F808B010BD000402400048004011
:103ED00010B588B004460121C804FDF711FA01218C
:103EE0000420FDF7FDF94FF44060069002208DF8A4
:103EF0001C008DF81D0000208DF81E008DF81F009D
:103F000006A91C48FCF7CFFF08220A211948FDF733
:103F100012F808220B211748FDF70DF80294002033
:103F2000ADF80C00ADF80E00ADF810000C20ADF8A7
:103F300012000020ADF8140002A90F48FEF710F996
:103F4000012240F225510C48FEF7E4F801210A480D
:103F5000FEF79DF834208DF8040002208DF805004E
:103F600001208DF806008DF8070001A8FDF74CF838
:103F700008B010BD00080240004C004070B5054676
:103F80000E4600240CE000BF40210A48FEF78BF8E3
:103F90000028F9D0295D0748FEF751F9601C84B26A
:103FA000B442F0DB00BF40210248FEF77CF8002855
:103FB000F9D070BD004C004010B588B00446012116
:103FC0000805FDF79DF901210C20FDF789F94FF453
:103FD0008050069002208DF81C008DF81D000020F6
:103FE0008DF81E008DF81F0006A92448FCF75BFF22
:103FF0000420069002208DF81C008DF81D00002082
:104000008DF81E008DF81F0006A91D48FCF74BFF18
:1040100008220C211948FCF78EFF082202211848BB
:10402000FCF789FF02940020ADF80C00ADF80E00FB
:10403000ADF810000C20ADF812000020ADF814000F
:1040400002A91048FEF78CF8012240F225510D48D4
:10405000FEF760F801210B48FEF719F835208DF8BE
:10406000040002208DF8050001208DF806008DF86F
:10407000070001A8FCF7C8FF08B010BD0008024007
:10408000000C02400050004010B588B004460121E9
:104090000846FDF725F901211020FDF741F90294AA
:1040A000072209212148FCF746FF07220A211F4861
:1040B000FCF741FF4FF4C060069002208DF81C0011
:1040C0008DF81D0000208DF81E0001208DF81F00C6
:1040D00006A91648FCF7E7FE0020ADF80C00ADF885
:1040E0000E00ADF81000ADF814000C20ADF8120071
:1040F00002A90F48FEF734F801210D48FDF7C7FF6C
:10410000012240F225510A48FEF704F825208DF8D7
:10411000040000208DF805008DF8060001208DF8C0
:10412000070001A8FCF770FF08B010BD00000240B6
:1041300000100140002020490A880988491C1E4BB4
:1041400019801E49898F8A4216DA1D49097839B9C2
:1041500000211C4A116001211B4AC2F8841206E0AA
:104160000121184A11600021174AC2F8841214492B
:104170000978164A117010E00021124A1160124AA3
:10418000C2F8841211490978012903D100210C4A8F
:10419000117002E001210A4A11700849C98F074ACB
:1041A000928F114488B204490988814202DB0021C0
:1041B000014A11807047000046000020FC010020E9
:1041C000440000208002414200004142450000209E
:1041D00010B5074890F8020248B1054991F802026B
:1041E0000449FEF7A5FF0020014981F8020210BD35
:1041F000D8030020FC010020184200080000002025
:104200005C000000DC220008744200085C00002012
:10421000840B0000EC2200080000000001020304EF
:104220000102030406070809000000000000000066
:10423000000000000000000000000000000000007E
:10424000000000000000000000000000000000006E
:10425000000000000000000000000000000000005E
:10426000000000000000000000000000000000004E
:04427000000000004A
:040000050800018965
:00000001FF
