:020000040800F2
:10000000800C00209D01000815100008E90F000871
:1000100011100008E50B0008832200080000000012
:10002000000000000000000000000000C9160008E9
:10003000E90C000800000000B9120008451800088B
:10004000B7010008B7010008B7010008B7010008B0
:10005000B7010008B7010008EB0C0008B701000861
:10006000B7010008B7010008B7010008B701000890
:10007000B7010008B7010008B7010008B701000880
:10008000B7010008B7010008B7010008B701000870
:10009000B7010008B7010008B7010008B701000860
:1000A000B7010008B7010008B7010008B701000850
:1000B00019190008B7010008D91A0008B70100088B
:1000C000B7010008B7010008B7010008B701000830
:1000D000B7010008B51E0008E51E0008052000084D
:1000E000B7010008B7010008B7010008B701000810
:1000F000B7010008B7010008B7010008B701000800
:10010000B7010008B7010008B7010008B7010008EF
:10011000DD1D00080D1E0008B7010008B70100082A
:10012000B7010008B7010008B7010008B7010008CF
:10013000B7010008B7010008B7010008B7010008BF
:10014000B7010008B7010008B7010008B7010008AF
:10015000B7010008B7010008B7010008B70100089F
:10016000B7010008B7010008B7010008B70100088F
:10017000B7010008B7010008B7010008B70100087F
:10018000B7010008B7010008DFF80CD000F056FBFB
:1001900000480047153B0008800C002006488047B7
:1001A00006480047FEE7FEE7FEE7FEE7FEE7FEE75C
:1001B000FEE7FEE7FEE7FEE74918000889010008B0
:1001C00040EA01039B0703D009E008C9121F08C0D9
:1001D000042AFAD203E011F8013B00F8013B521E59
:1001E000F9D27047D2B201E000F8012B491EFBD2D0
:1001F00070470022F6E710B513460A460446194632
:10020000FFF7F0FF204610BD2DE9FE4F804681EA42
:100210000300C00F0C46009021F0004123F0004580
:10022000B8EB0200A94105D24046214690461C4643
:100230000B46024623F00040104347D0270DC7F37A
:100240000A00C3F30A510290401A019040286BDA69
:10025000C3F3130040F4801B0098924620B10023A2
:10026000D2EB030A63EB0B0B01985946C0F1400235
:10027000504600F007FA06460D4650465946019A88
:1002800000F01FFA10EB08006141002487EA1152C8
:1002900084EAE7731A4340D0009A62B3019A012AB4
:1002A0004FEA075215DC001B61EB02014FF00042E0
:1002B00002EA0752CDE90042001C41F580113246A6
:1002C0002B4600F056FA03B0BDE8F08F40462146B9
:1002D000F9E7001B61EB0201001C41F580130018D7
:1002E0005B412018A2F5001747EB030140EAD570E7
:1002F000B6196D4111E06D084FEA360645EAC07542
:100300004FEA0752001B61EB0201001C41F580110E
:1003100049084FEA30000019514132462B4603B0DC
:10032000BDE8F04F00F016BA00980122400000230B
:10033000D0EB020263EBE073009821464FEAE074D1
:10034000B8EB000061EB0401E9E783F000435BE7F1
:1003500081F0004158E72DE9FE4F81EA030404F0E3
:10036000004421F0004100944FF0000B23F00043C3
:1003700050EA01045ED052EA03045BD0C3F30A548E
:10038000C1F30A552C44A4F2F3340194A0FB0254A7
:10039000C1F3130141F48011C3F3130343F4801339
:1003A00001FB024400FB034E840A970A44EA81548D
:1003B00047EA8357A4FB076802958D0A05FB07856A
:1003C0004FEA932C04FB0C542705029D4FEA065874
:1003D00047EA1637B5EB08056EEB070C870E920E51
:1003E00047EA811742EA8312A7FB0201B6EB0B0131
:1003F00064EB00042B0D43EA0C335E1844EB1C50F5
:10040000DA465146E7FB0201C5F313044FEA0B330A
:1004100043EA14534FEA0432019C43EA0603A4F171
:100420000C040294009CCDE900B400F0A2F903B0E2
:10043000BDE8F08F00200146F9E72DE9F04D81EA93
:10044000030404F0004B21F0004514464FF0000A6D
:1004500023F0004150EA050220D054EA01021DD0E9
:10046000C5F30A570246C5F31303C1F31300C1F3E2
:100470000A5640F4801543F48013A7EB0608101BBE
:10048000D64608F2FD3873EB050002D308F10108E7
:1004900001E092185B41B8F1000F03DA0020014639
:1004A000BDE8F08D00204FF48011064684460EE032
:1004B000171B73EB050705D3121B63EB05030643FC
:1004C0004CEA010C49084FEA300092185B4150EAAF
:1004D0000107EDD152EA030012D082EA040083EA58
:1004E0000501084305D0101BAB4106D201220023B1
:1004F00006E000224FF0004302E06FF001025310CB
:100500001AEB06004CEB085110EB0A0041EB0B0113
:10051000BDE8F04D00F01EB90EB5C10F80EAE070E5
:100520000844CA07002140F233438DE80E000A4612
:100530000B4600F01EF903B000BD0EB540F233418A
:1005400002910021CDE900110A460B4600F011F995
:1005500003B000BD70B5C1F30A5201F0004500249C
:10056000C1F3130140F2FF3341F480119A4201DAE2
:10057000002070BD40F233439A42A2F2334203DCC2
:10058000524200F08EF800E090402C43F1D04042FF
:1005900070BDC1F30A5210B5C1F3130140F2FF332D
:1005A00041F480119A4201DA002010BD40F2334339
:1005B0009A42A2F2334203DC524200F072F810BDBC
:1005C000904010BD00F0004230F000400AD0C10D54
:1005D00001F56071C0F3160042EA0151C2084007FC
:1005E00011437047002001467047000030B5041EDB
:1005F00071F1000404DB4FF00044404264EB010160
:10060000141E73F1000405DB1C464FF000435242F8
:1006100063EB04038B4208BF824230BD30B5041E39
:1006200071F1000404DB4FF00044404264EB01012F
:10063000141E73F1000405DB1C464FF000435242C8
:1006400063EB0403994208BF904230BD01F00043C0
:1006500030B421F0004150EA010206D00A0DA2F5A3
:100660006072C1F31301002A02DC30BC0020704725
:10067000440F44EAC104C100E01830BC00EBC25092
:1006800000F031B8202A04DB203A00FA02F1002001
:1006900070479140C2F1200320FA03F319439040C0
:1006A0007047202A04DB203A21FA02F0002170472B
:1006B00021FA02F3D040C2F12002914008431946CA
:1006C0007047202A06DBCB17203A41FA02F043EAB2
:1006D000E07306E041FA02F3D040C2F120029140FB
:1006E0000843194670470029A8BF7047401C4900BD
:1006F00008BF20F00100704710B4B0FA80FC00FA87
:100700000CF050EA010404BF10BC704749B1CCF1B1
:10071000200421FA04F411FA0CF118BF012121433D
:100720000843A3EB0C01CB1D4FEA00614FEA1020F8
:1007300042BF002010BC704700EBC350104400299A
:10074000A4BF10BC7047401C490008BF20F0010046
:1007500010BC704710B5141E73F1000408DA401C79
:1007600041F1000192185B411A4301D120F00100D0
:1007700010BD2DE9F04D92469B4611B1B1FA81F2C0
:1007800002E0B0FA80F220329046FFF77BFF044689
:100790000F4640EA0A0041EA0B0153465A46084315
:1007A00013D0114653EA010019D0C8F14002504657
:1007B000FFF777FF05460E46504659464246FFF77B
:1007C00061FF084305D0012004E020463946BDE81A
:1007D000F08D0020054346EAE0762C4337430A9823
:1007E0006305E40AA0EB08000022FD0A44EA47542E
:1007F0000A3002D500200146E9E7010510196941D8
:10080000DDE9084500196941BDE8F04DA2E770B582
:1008100021F0004303430CD0C1F30A550024D5EB6B
:10082000040564EB0403D617AD1AB34102DB0020C4
:10083000014670BD201841EB025170BD064C074DBA
:1008400006E0E06840F0010394E8070098471034A0
:10085000AC42F6D3FFF79CFC704D0008904D0008A9
:100860002DE9F04D00231A461B1A8A4103DB0020B4
:100870000146BDE8F08DC1F30A52C1F3130141F402
:1008800080154FF0000BD10702D100186D41521EA8
:100890000027044640F2FF11384601EB620A3E464B
:1008A0008046024600204FF48011FFF7FAFEC2197D
:1008B0007141BB1846EB0100B4EB030C75EB000C67
:1008C00004D3E41A65EB000517460E46241908F117
:1008D00001006D4180463428E3DDF91946EB06003E
:1008E000091BA84103D24FF0FF32134601E000225A
:1008F00013461BEB070046EB0A51BDE8F04DFFF72E
:1009000029BF21B1826842F00102826003E082685F
:1009100022F00102826070470021084A1168084AEB
:100920001140D0E900231A4383681A43C3681A436D
:100930001143044AC2F80413704700000423014025
:10094000E030FCFF0020014021B1826842F4807257
:10095000826003E0826822F480728260704721B175
:10096000826842F40072826003E0826822F40072BE
:100970008260704730B50246002000235068104C5A
:1009800020400D790C6844EA0524204350609068AB
:100990000C4C2040D1E903542C438D682C434D79F5
:1009A00044EA450420439060D06A20F470000C7D36
:1009B000641EE4B2234340EA0350D06230BD00001D
:1009C000FFFEFFFCFDF7FFC0F0B504460D4600201A
:1009D0000021092D11DDE068A5F10A0606EB4607A6
:1009E000072606FA07F18843A5F10A0606EB460634
:1009F00003FA06F10843E0600CE0206905EB4507C7
:100A0000072606FA07F1884305EB450603FA06F1C7
:100A100008432061072A0FDA606B561E06EB860733
:100A20001F2606FA07F18843561E06EB860605FACE
:100A300006F10843606322E00D2A0FDA206BD61F0F
:100A400006EB86071F2606FA07F18843D61F06EB3A
:100A5000860605FA06F10843206310E0E06AA2F179
:100A60000D0606EB86071F2606FA07F18843A2F15A
:100A70000D0606EB860605FA06F10843E062F0BDB6
:100A8000816841F080418160704700001CB5012100
:100A9000022000F02DFCC020009001208DF8040001
:100AA00000208DF8060003208DF8050001208DF848
:100AB00007006946034800F0FEF9C021014800F034
:100AC00070FA1CBD0004024010B580210E4800F0F1
:100AD00066FA02F077FD40210B4800F060FA02F060
:100AE00071FD4021084800F05CFA02F06BFD4021E6
:100AF000054800F054FA02F065FD8021024800F03C
:100B000050FA02F05FFD10BD0004024000B58DB048
:100B10000121084600F0ECFBF0200B9003208DF83B
:100B2000300000208DF833000BA92C4800F0C3F9E9
:100B30000121080200F0FCFB0121080200F008FC82
:100B400000214FF4807000F003FC002007904FF468
:100B500070600A90002009904FF48030089007A838
:100B6000FFF7DAFE0020019001208DF808008DF8D3
:100B70000900002003900490059004208DF81800CF
:100B800001A91748FFF7F6FE0323012204211448A8
:100B9000FFF71AFF0323022205211148FFF714FF74
:100BA00003231A4606210E48FFF70EFF03230422F3
:100BB00007210B48FFF708FF01210948FFF7CFFE87
:100BC00001210748FFF7C0FE01210548FFF799FE04
:100BD0000348FFF755FF0DB000BD000000000240C4
:100BE0000020014000BFFEE77047000010B504463A
:100BF00034B1012C08D0022C0AD0032C10D10BE008
:100C0000C2201A4908700CE0D2201849087008E088
:100C1000E2201649087004E0F2201449087000E050
:100C200000BF00BF902012490870012048700F4893
:100C300000788870E320C87000F0BEFD00200D49E8
:100C400008700CE00A490B4A1278885C01F01CFB22
:100C500000F05CFC07480078401C06490870054815
:100C600000780428EEDB00F0C3FD10BD3800002042
:100C7000D60100203900002021B1026842F00102B3
:100C8000026003E0026822F0010202607047000087
:100C900010B500220268134B1A40CC680B6823433E
:100CA0004C6923438C692343CC6923430C6A234357
:100CB0004C6A23438C6A23434C6B23438C6B234342
:100CC0001A430260426922F00702D1E90B34234340
:100CD0001A4342610B6943604B6883608B68C36051
:100CE00010BD00003F801CF0704710B5012000F0DF
:100CF00001F810BD0149086070470000143C014034
:100D000001490860704700000C3C024030B10749BF
:100D1000096841F48061054A116005E003490968EA
:100D200021F48061014A116070470000003C0240DC
:100D300070B504460A460026092502B909E0012AD1
:100D400001D1160205E0022A01D1160201E04FF49A
:100D5000407600F09FF80546092D28D11548006817
:100D600020F440701349086008460068304308606A
:100D70000846006820F0F80008600846006844F063
:100D8000020108430B4908600846006840F48030BF
:100D9000086000F07FF805460648006820F0020071
:100DA000044908600846006820F0F80008602846FA
:100DB00070BD0000103C024009201349096801F48D
:100DC0008031B1F5803F01D101201CE00E49096856
:100DD00001F0100109B1062015E00B49096801F482
:100DE000807109B102200EE00749096801F0EF01A6
:100DF00009B1072007E00449096801F0020109B1BF
:100E0000082000E0092070470C3C024003480068BD
:100E100040F000400149086070470000103C02406B
:100E200030B502460C46092500F034F80546092D78
:100E300019D10E48006820F440700C49086008463B
:100E4000006840F4007008600846006840F0010047
:100E50000860146000F01EF805460448006820F0A1
:100E6000010002490860284630BD0000103C0240E5
:100E70000548006800F0004028B1044802490C39D8
:100E80000860034808607047103C02402301674532
:100E9000AB89EFCD08B509200090FFF78DFF0090DA
:100EA00002E0FFF789FF00909DF800000128F8D0CC
:100EB0009DF8000008BDF0B50A460021002300247B
:100EC00000BF3DE0012505FA01F3156805EA0304BA
:100ED0009C4234D105684F000326BE40B5430560EF
:100EE00015794E00B5400668354305601579012D2A
:100EF00002D01579022D16D185684F000326BE4019
:100F0000B543856055794E00B540866835438560A8
:100F1000456801268E40B5434560456896798E4008
:100F2000B6B235434560C5684F000326BE40B543A1
:100F3000C560D5794E00B540C6683543C560491CCB
:100F40001029BFD3F0BDF0B5002300244D07ED0EEE
:100F500002FA05F3CE1000F1200555F826504E0791
:100F6000F70E0F26BE40B543CF1000F1200646F81D
:100F70002750CE1000F1200555F8265045EA03040D
:100F8000CE1000F1200545F82640F0BD02460020B5
:100F900013690B400BB1012000E000207047418332
:100FA000704701837047000010B504460C48047078
:100FB0002046FFF71BFE012002F028FB00F07EF91F
:100FC000012002F023FB0648007800F077FA05497B
:100FD0000860012002F01AFB0248008880B210BDB0
:100FE0003A0000203C00002000BFFEE710B5FFF7EC
:100FF0004DFD40210548FFF7D4FF02F0E3FA8021C0
:101000000248FFF7CEFF02F0DDFA10BD00040240F7
:1010100000BFFEE77047000070B5002100230F22DB
:10102000C4781CB3174C246804F4E064C4F5E0648D
:10103000C4F30721C1F10404E3B20A4144789C409F
:10104000E1B28478144021430C07210E0E4C057840
:101050006155047804F01F050124AC4005786D113A
:10106000AD0005F1E025C5F8004109E0047804F081
:101070001F050124AC40054D0678761145F8264041
:1010800070BD00000CED00E000E400E080E100E055
:1010900002490143024A1160704700000000FA054E
:1010A0000CED00E02DE9F0412DED108B82B00446EF
:1010B000B0EE409AF0EE609AB0EE41AAF0EE61AA6E
:1010C0000D4616461F462846FFF737FA41EC1D0B22
:1010D0009FED710B53EC102BFFF7AFF9C4E90C0136
:1010E0003046FFF72AFA41EC1D0B9FED6B0B53ECDA
:1010F000102BFFF7A2F9C4E90E013846FFF71DFADD
:1011000041EC1D0B9FED640B53EC102BFFF795F991
:10111000C4E9100153EC1A2B51EC190BFFF715F928
:1011200041EC180B9FED5E0B84ED0A0B94ED0E1B4A
:10113000B0EE410AF0EE610A53EC182B51EC100BA3
:10114000FFF709F941EC1E0B94ED0A1BB0EE410AC2
:10115000F0EE610A53EC102BFFF7FDF841EC1D0B8C
:1011600094ED081BB0EE410AF0EE610A53EC102B2F
:10117000FFF74AF841EC1B0B94ED061BB0EE410A59
:10118000F0EE610A53EC102B51EC180BFFF7DDF871
:1011900041EC1D0B94ED0A1BB0EE410AF0EE610A22
:1011A00053EC102BFFF749F941EC1C0B94ED101B8D
:1011B000B0EE410AF0EE610A53EC1C2B51EC100B1F
:1011C000FFF7C9F841EC1D0B94ED0C1BB0EE410A82
:1011D000F0EE610A53EC182B51EC100BFFF7BBF843
:1011E00041EC1F0B53EC1B2BFFF70EF841EC1E0BD1
:1011F00053EC1D2BFFF708F8CDE9000194ED041B1B
:10120000B0EE410AF0EE610A9DED001B53EC112B8C
:1012100051EC100BFEF7F8FFC4E9040184ED068BD6
:1012200084ED08BB94ED041BB0EE410AF0EE610AB8
:101230009FED1D1B53EC112B51EC100BFFF7EEF93A
:1012400004D29FED190B84ED040B12E094ED041B06
:10125000B0EE410AF0EE610A9FED151B53EC112B25
:1012600051EC100BFFF7C2F903D29FED110B84ED87
:10127000040B94ED041BB0EE410AF0EE610A51EC50
:10128000100BFFF786F91FFA80F8404602B0BDEC5C
:10129000108BBDE8F0810000000000000088C34012
:1012A000000000000000F03F0000000000407F4010
:1012B00000000000000000007047000010B5902002
:1012C0000A4908700020487000F076FA002407E010
:1012D0000649085D00F0D8FF00F018F9601CC4B2A0
:1012E000022CF5DB00F084FA10BD0000E0010020C4
:1012F00029B1064A12680243044B1A6004E0034A0B
:1013000012688243014B1A60704700003038024077
:1013100029B1064A12680243044B1A6004E0034AEA
:1013200012688243014B1A60704700004038024047
:1013300029B1064A12680243044B1A6004E0034ACA
:1013400012688243014B1A60704700004438024023
:1013500029B1064A12680243044B1A6004E0034AAA
:1013600012688243014B1A60704700002438024023
:10137000F0B5002100220024022500260223324F6E
:101380003F6807F00C0121B1042905D0082937D1A5
:1013900005E02E4F076036E02D4F076033E02A4FFF
:1013A0003F1F3F68C7F38056274F3F1F3F6807F036
:1013B0003F036EB1264FB7FBF3F7DFF88CC0ACF1FB
:1013C000040CDCF800C0CCF3881C07FB0CF40CE028
:1013D0001E4FB7FBF3F7DFF870C0ACF1040CDCF87C
:1013E00000C0CCF3881C07FB0CF4174F3F1F3F686D
:1013F000C7F301477F1C7D00B4FBF5F7076002E0EF
:10140000124F076000BF00BF0F4F3F6807F0F001A9
:101410000909104F7A5C0768D74047600A4F3F6858
:1014200007F4E051890A0B4F7A5C4768D740876020
:10143000054F3F6807F46041490B064F7A5C4768E7
:10144000D740C760F0BD0000083802400024F40017
:1014500000127A000000002070B540211648FFF706
:101460009EFD02F0AFF880211348FFF79AFD02F0CD
:10147000A9F8012002F098FD002516E002F0A2F87C
:1014800040210D48FFF78DFD02F09CF86006040E28
:1014900080210948FFF77AFD08B1601CC4B24021E1
:1014A0000548FFF77CFD681CC5B2082DE6DB00206F
:1014B00002F07AFD204670BD0004024070B505467A
:1014C00000F07AF9912000F0DFFE00F01FF8FFF73E
:1014D000C3FF0D49087000F019F8FFF7BDFF0A4976
:1014E0004870FFF7F1FA00F083F9074840780649A1
:1014F000097840EA0124B4F5004F02DBE043401CC8
:1015000084B2204670BD0000EA01002010B500241E
:10151000012002F049FD40210F48FFF742FD02F093
:1015200051F840210C48FFF73AFD02F04BF801E07A
:10153000601CC4B280210848FFF728FD012801D1B2
:10154000FF2CF5DB40210448FFF729FD02F03AF8B3
:10155000002002F029FD10BD0004024001461C4895
:10156000814201D2002070471A48814201D20820EE
:10157000F9E71948814201D21020F4E71748814267
:1015800001D21820EFE71648814201D22020EAE775
:101590001448814201D22820E5E71348814201D254
:1015A0003020E0E71148814201D23820DBE71048C3
:1015B000814201D24020D6E70E48814201D2482024
:1015C000D1E70D48814201D25020CCE75820CAE72C
:1015D000004000080080000800C00008000001086A
:1015E00000000208000004080000060800000808C7
:1015F00000000A0800000C0800000E082DE9F04168
:1016000007460D461646002406E0384600F008F866
:1016100045F824003F1D641CB442F6D3BDE8F081B8
:1016200001460868704700002DE9F04704460E4661
:1016300017464FF009080025A946B4F1006F02D300
:1016400004F0030008B1BDE8F087FFF711FC0020AB
:10165000FFF75CFB254604EB87091A48854219D23F
:1016600015E02846FFF7DCFF401C78B140F2F3108C
:10167000FFF746FB2846FFF771FF82460221FFF77E
:1016800057FB8046B8F1090F01D002E02D1D4D45F2
:10169000E7D300BFB8F1090F0CD108E0204631684C
:1016A000FFF7BEFB092800D003E0241D361D4C4582
:1016B000F4D300BF0120FFF729FBFFF7A7FB00BF12
:1016C000C1E700000000FF1F704700000CB50020BC
:1016D000019000903448006840F48030324908603E
:1016E00000BF3148006800F4003000900198401CB1
:1016F0000190009818B90198B0F5A04FF1D12A488F
:10170000006800F4003010B10120009001E00020DA
:1017100000900098012846D123484030006840F0EE
:1017200080502149403108602048006840F4404022
:101730001E4908601C48083000681B4908310860D1
:101740000846006840F4004008600846006840F41D
:10175000A05008601648091F0860081F006840F084
:101760008070091F086000BF0F48006800F000701B
:101770000028F9D040F205700E4908600A48083088
:10178000006820F003000849083108600846006836
:1017900040F00200086000BF03480830006800F015
:1017A0000C000828F8D10CBD003802400070004041
:1017B00008544007003C024010B580210B48FFF759
:1017C000F0FB01F0FFFE40210848FFF7EAFB01F0C3
:1017D000F9FE80210548FFF7E2FB01F0F3FE40210E
:1017E0000248FFF7DCFB01F0EDFE10BD00040240F3
:1017F00010B580210848FFF7D2FB01F0E3FE40213D
:101800000548FFF7CEFB01F0DDFE80210248FFF71F
:10181000C8FB01F0D7FE10BD00040240042808D127
:101820004FF0E021096941F004014FF0E02211611D
:1018300007E04FF0E021096921F004014FF0E022B8
:10184000116170477047000010B51548006840F4FA
:101850007000134908601348006840F00100114906
:10186000086000200F49083108600E4800680E49E2
:1018700008400C4908600D48091D0860081F0068F1
:1018800020F48020091F0860002006490C31086000
:10189000FFF71CFF4FF0006001498039086010BD60
:1018A00088ED00E000380240FFFFF6FE1030002413
:1018B0001FB501210846FFF72BFD5320ADF80400AA
:1018C0000020ADF8060040F2E73002900020ADF8AD
:1018D0000C008DF80E0001A94FF0804000F03CFA9A
:1018E0000121880700F006F901221146900700F057
:1018F00021F91C208DF8000000208DF80100012046
:101900008DF802008DF803006846FFF785FB012182
:10191000880700F0F2F81FBD10B50121880700F01C
:10192000F8F890B109480068401C0849086002F0C6
:1019300031FF074908680968491C054B196002F026
:10194000E9FE0121880700F0D5F810BD180000203D
:101950001C00002070B58AB004460D46012102200B
:10196000FFF7D6FC01210220FFF7C2FC31200090D6
:1019700002208DF8040000208DF8060003208DF869
:10198000050001208DF8070069463648FFF793FAF5
:10199000022200213348FFF7D6FA022204213148FF
:1019A000FFF7D1FA022205212E48FFF7CCFA08945E
:1019B000ADF81C500020ADF82400ADF81E0007A9BA
:1019C000294800F0C9F97020ADF808000120ADF8F1
:1019D0000A0000200490ADF8140002A9224800F08B
:1019E000B3F80821204800F0EDF87020ADF80800A9
:1019F0000120ADF80A0000200490ADF8140002A9FF
:101A0000194800F0E9F80821174800F037F970206C
:101A1000ADF808000120ADF80A0000200490ADF8F0
:101A2000140002A9104800F037F908210E4800F010
:101A300083F901210C4800F060F8264604EBD670CB
:101A40004110094800F081F904EBD67041100648B6
:101A500000F07DF904EBD6704110034800F079F9ED
:101A60000AB070BD00040240000400401FB501210F
:101A70000420FFF74DFC5320ADF804000020ADF822
:101A80000600092002900020ADF80C008DF80E0031
:101A900001A9104800F060F901210E4800F02AF871
:101AA000012211460B4800F045F81E208DF8000079
:101AB00007208DF8010000208DF8020001208DF82C
:101AC00003006846FFF7A8FA0121024800F015F864
:101AD0001FBD00000008004010B50121044800F0BF
:101AE00018F818B10121024800F004F810BD0000F8
:101AF00000080040CA430282704721B1028842F0C8
:101B00000102028004E002884FF6FE731A40028050
:101B1000704730B50246002000230024158A05EAEC
:101B20000103958905EA010413B10CB1012000E01D
:101B3000002030BD1AB183890B43838102E0838981
:101B40008B4383817047000070B50024002200237E
:101B5000058C4FF6FE7635400584028C8388048B15
:101B60004FF68F752C40B51E2C400D882C43751EEA
:101B70002A408D892A434D882A43104DA84202D01D
:101B80000F4DA84213D14FF6F7752A40CD892A434D
:101B90004FF6FB752A408D882A434FF6FF652B4090
:101BA0004FF6FF552B400D8A2B434D8A2B438380E4
:101BB00004838D684563028470BD0000000001400D
:101BC000000401400A460021018B4FF6F7731940CB
:101BD000114301837047000070B5002400220023E8
:101BE000058C4FF6EF7635400584028C8388048B94
:101BF00048F6FF752C404FF6FF452C400D884FF6F8
:101C0000FF7606EA05252C434FF6DF752A408D89BD
:101C100006EA05152A434D8806EA05152A43154D9F
:101C2000A84202D0144DA8421DD14FF67F752A401C
:101C3000CD894FF6FF7606EA05152A434FF6BF75A4
:101C40002A408D8806EA05152A434FF6FF352B40BA
:101C50004FF2FF752B400D8A06EA85052B434D8A0E
:101C600006EA85052B43838004838D68856302849F
:101C700070BD000000000140000401400A46002140
:101C8000018B4FF2FF7319404FF6FF7303EA0223F3
:101C9000194301837047000070B50024002200231F
:101CA000058C4FF6FF6635400584028C8388848B53
:101CB0004FF68F752C404FF6FC752C400D882C4349
:101CC0004FF6FF552A408D894FF6FF7606EA052527
:101CD0002A434D8806EA05252A43154DA84202D01D
:101CE000144DA8421DD14FF2FF752A40CD894FF601
:101CF000FF7606EA05252A434FF6FF352A408D88F0
:101D000006EA05252A434EF6FF752B404DF6FF7572
:101D10002B400D8A06EA05152B434D8A06EA051568
:101D20002B43838084838D68C563028470BD00006B
:101D300000000140000401400A460021818B4FF65B
:101D4000F773194011438183704741637047816382
:101D50007047C1637047000000220288184B984208
:101D60000ED0184B98420BD0B0F1804F08D0164BD4
:101D7000984205D0154B984202D0154B984204D199
:101D80004FF68F731A404B881A43124B984207D074
:101D9000114B984204D04FF6FF431A400B891A4367
:101DA00002804B68C3620B880385054B984202D0C2
:101DB000044B984201D18B7A0386012383827047BA
:101DC0000000014000040140000400400008004001
:101DD000000C0040001000400014004010B540F21C
:101DE0002551094800F08AF960B140F225510648B2
:101DF00000F05CF9044800F03BFAC4B2012120462F
:101E000001F0A6FF10BD0000004C004010B540F2EC
:101E10002551244800F072F9002842D040F22551A3
:101E2000204800F043F91F4800F022FAC1B21E48D2
:101E300002780078401C1C4B18701C4881540078B4
:101E4000162803D1184600785A2803DD00201649C9
:101E5000087026E0144800780B2822DB124801782D
:101E6000124802F067FE114800791049C97800EB6A
:101E7000012000B20E4908800C4880790B4949794D
:101E800000EB012000B20A4948800848007A07495F
:101E9000C97900EB012000B2054988800020024981
:101EA000087010BD00500040340000207201002076
:101EB0002C00002010B540F22551094800F01EF911
:101EC00060B140F22551064800F0F0F8044800F0F7
:101ED000CFF9C4B20121204601F03AFF10BD000045
:101EE0000010014010B5002440F22551414800F097
:101EF00005F900287CD040F225513E4800F0D6F884
:101F00003C4800F0B5F9C1B23B4802780078401C6B
:101F1000394B1870394881540078012803D118468C
:101F200000785A2803DD00203349087060E0324809
:101F30000078022800DA10BD30484078062854D1D5
:101F40002D480078142853DB2C48807C2B49C97C11
:101F500040EA01241221294801F03EFCA04240D170
:101F6000264840792549897940EA01202449088199
:101F7000002088802148007A00F001011F48C079C4
:101F800061F35F001D49497A01F0010140EA8100D7
:101F90001A49897A01F0010140EAC1001749C97A5A
:101FA00001F0010140EA01101449097B01F001012F
:101FB00040EA41101149497B01F0010140EA8110DA
:101FC0000E49897B01F0010140EAC1100B49C97B30
:101FD00001F0010140EA01200949898808430849C4
:101FE000888000200449087002E00020024908703F
:101FF00000BFA0E70044004020000020AA0000200D
:10200000A000002010B540F22551244800F076F8D9
:10201000002842D040F22551204800F047F81F48E0
:1020200000F026F9C1B21E4802780078401C1C4B13
:1020300018701C4881540078162803D1184600787F
:102040005A2803DD00201649087026E0144800785D
:102050000B2822DB12480178124802F083FC114859
:1020600000791049C97800EB012000B20E490880C0
:102070000C4880790B49497900EB012000B20A49EC
:1020800048800848007A0749C97900EB012000B26E
:102090000549888000200249087010BD00480040B2
:1020A0002A0000200E0100202200002010B500228E
:1020B000002340F66A14A14200D100BF0A12012495
:1020C0009440A3B2DC43048010BD21B1828942F464
:1020D0000052828104E082894DF6FF731A408281AA
:1020E000704702460020B1F5007F00D100BF138881
:1020F0000B400BB1012000E00020704770B5024694
:10210000002400230025002040F66A16B14200D1C9
:1021100000BFC1F3421501F01F03012606FA03F3C5
:10212000012D02D19689334006E0022D02D1168A94
:10213000334001E0968A33400C12012606FA04F47B
:102140001688344013B10CB1012000E0002070BDAE
:10215000F0B50346002400260025002040F66A174B
:10216000B94200D100BF1846C1F3421401F01F0666
:10217000012707FA06F5012C01D10C3004E0022CEE
:1021800001D1103000E014301AB107682F43076006
:1021900002E00768AF430760F0BD00002DE9FF478C
:1021A00005460E460024A14600BFA046B08900B1F6
:1021B00000BF2C8A24F44054F08804432C82AC895C
:1021C00041F20C608443B088318908437189084327
:1021D0000443AC81AC8A24F44074B0890443AC82DB
:1021E0006846FFF7C5F82048854202D01F4885425F
:1021F00002D1DDF80C9001E0DDF80890A88900F428
:10220000004040B109EBC90000EB091031684900FA
:10221000B0FBF1F707E009EBC90000EB09103168EA
:102220008900B0FBF1F76420B7FBF0F0040120094E
:10223000642101FB1078A88900F4004040B13220ED
:1022400000EBC800B0FBF1F000F00700044308E029
:10225000322000EB08106421B0FBF1F000F00F0019
:1022600004432C81BDE8FF870010014000140140A9
:1022700001468888C0F308007047C1F308028280D5
:10228000704700BFFEE700002DE9F04105462F46EC
:1022900000241FE0C4F1070047FA00F606F001062B
:1022A00040211448FEF77BFE01F08CF926B1802115
:1022B0001048FEF776FE03E080210E48FEF76FFE21
:1022C00001F080F940210B48FEF76BFE01F07AF92E
:1022D000601CC4B2082CDDDB40210648FEF75FFE1F
:1022E00001F070F980210348FEF75BFE01F06AF906
:1022F000BDE8F0810004024003B401984100009859
:1023000050EAC12018BF04204A0D18BF40F0010058
:1023100040F2FF72B2EB515F08BF40F002000128AB
:1023200008BF052002B070472DE9F04D2DED040BDC
:102330002DED0E8B96B0DDE92550279CDDF890A0A1
:1023400025F0004624F00048BAF1000F14BF012127
:10235000002101EB4502FC4953184A1093422AD34D
:10236000002814BF0123002303EB44030B44F74967
:102370008B4220D358EA00019FEDF59B76D0DFF821
:10238000D8B35D4503D1BAF1000F05D188E0BAF1A9
:10239000000F08BF002100D0012101EB450111F51C
:1023A000001F08D8002814BF0121002101EB4401BF
:1023B00011F5001F0BD99DED261B9DED240B16B0CA
:1023C000BDEC0E8B04B0BDE8F04D00F069BE0027F7
:1023D000002DBCBFE149884521DAE1498845A8BF05
:1023E00002271CDAC3451ADCDE4901EB2851142907
:1023F00008DDC1F1340220FA02F101FA02F2824250
:102400000DD108E058B9C1F1140228FA02F101FA1D
:1024100002F2424503D101F00101C1F1020756EA7F
:102420000A0124D1002C22DA002D18BF022F01D07E
:10243000012F0AD0022000F07FFE16B0BDEC0E8BFB
:1024400004B0BDE8F04D00F013BE022000F074FEB1
:1024500000F00EFE51EC100B81F0004141EC100B2E
:1024600016B0BDEC0E8B04B0BDE8F08D18E09FED0A
:10247000BEAB9FEDBF8B002871D1B848804522D1FB
:1024800005F1804010F5801008BFBAF1000F07D0A9
:10249000B3450ADC002CA8BF9DED260BE0DA0DE069
:1024A000B0EE490AF0EE690ADAE7002C06DA9DED93
:1024B000260B51EC100B81F000416FE0AE487844E0
:1024C00090ED000BCCE7D8454DD1002C48DA2EB169
:1024D00086423AD1BAF1000F42D126E0BAF1000F9C
:1024E00013D0022000F028FE00F0F6FD8DED020B67
:1024F0009DED240B8DED000B10EE900A039961F316
:102500001E0003909DED020BAAE78DED02AB9DED41
:10251000240B1AEE901A10EE900A8DED000B61F369
:102520001E0003909DED020B9AE78DED028B9DED51
:10253000240B18EE901A10EE900A8DED000B61F34B
:102540001E0003909DED020B8AE709DA9DED240B36
:1025500051EC190B53EC102BFDF76FFF1EE020E040
:102560009DED240B7CE786421BDAB4F1804F0DD041
:10257000A4F10050B0F1FF5013D1002D11DB9DEDFF
:10258000240B51EC100B02F035F807E09DED240B05
:1025900053EC102B51EC100B00F0C2BC41EC100BB3
:1025A0005EE79DED240B51EC100B01F0C5F8BAF17C
:1025B000000FCDE90E0142D19FED710B46B3A6F19C
:1025C000E040B0F17F600CD05E4538D1002D00DADC
:1025D000A7B3022F0CBF01204FF0FF30FDF79CFF87
:1025E000DCE7002D01DD002C0DDA002D01DD002CD3
:1025F0001FDB002D16DA002C14DB012F08BF9FED26
:10260000620B3FF42DAFB0EE4A0AF0EE6A0A27E7FC
:10261000022F18BF002D0CD0012F0AD1002DFFF67C
:102620001FAF06E0002DB8BF002C08DA012F3FF4E1
:1026300017AFB0EE480AF0EE680A11E71BE0012080
:1026400000EBE57050EA070115D0791EB0EE498A1B
:10265000F0EE698A084308BF9FED4D8B4E48002578
:10266000804570DD4D494E48884514DDB0420DDB94
:10267000002C19DB2FE0012000F05EFD16B0BDEC50
:102680000E8B04B0BDE8F04D00F016BDB34502DC82
:10269000002C09DC1FE0864202DA002C1BDA03E082
:1026A0005E452BDD002C16DD022000F045FD00F01C
:1026B00013FD8DED020B53EC1A2B51EC180BFDF7AB
:1026C0004AFECDE900010399019861F31E000390D1
:1026D0009DED020BC4E6022000F02EFD00F00CFD83
:1026E00010EE901A18EE900A8DED020B8DED008B16
:1026F00061F31E0003909DED020BB1E69DED0E0B04
:1027000053EC192B51EC100BFDF71FFE9FED260B20
:10271000CDE9080153EC102B9DED080B51EC100B8B
:10272000FDF719FE9FED221B53EC112BFDF710FE58
:102730009DED081B53EC112BFDF70DFE9FED1E1BAD
:1027400053EC112B3CE08CE0FFFF1F00FFFF0F005C
:10275000000000000000F03F0000F03F0000F07FAC
:102760000000404301FCFFFF000000000000F07F7C
:102770000000000000000000A6280000000000008B
:102780000000000000000080000000000000F0FFDA
:10279000000000000000F0BF0000E0410000F04336
:1027A000FFFFEF3F00000000000000000000D03FEE
:1027B000555555555555D53F000000000000E03FE8
:1027C000FDF7C6FD9DED080B41EC1A0B53EC102BE9
:1027D00051EC100BFDF7BFFD53EC1A2BFDF7BBFDC1
:1027E00041EC1A0B9FEDFE0B53EC102B9DED080BEB
:1027F00051EC100BFDF7AFFD41EC1B0B9FEDFA0BFD
:1028000051EC1A0B53EC102BFDF7A5FD41EC1A0B04
:102810009FEDF70B53EC102B9DED080B51EC100BBB
:10282000FDF799FD53EC1A2BFDF78FFD41EC1A0BC8
:1028300051EC1B0B53EC1A2BFDF7E6FC0690CDE98F
:1028400006519DED060B53EC1B2B51EC100BFDF7C5
:102850007CFD53EC1A2BFDF77BFD41EC100B00F0D7
:10286000A1B90020B6F5801F0EDA9FEDE30B53EC03
:10287000102B9DED0E0B51EC100BFDF76CFDCDE90F
:102880000E016FF034000E4600EB2650A0F2FF3729
:10289000C6F31300DA4940F07F6646F0405688429E
:1028A000D8BF002408DDD7498142C8BF012403DC1A
:1028B0000024A6F580167F1CD348784400EBC400A2
:1028C0000F9690ED00CB9DED0E0B53EC1C2B51ECB5
:1028D000100BFDF73AFD9DED0E0B41EC1B0B53EC7D
:1028E0001C2B51EC100BFDF78FFC41EC100B51EC45
:1028F000190B53EC102BFDF7A0FD41EC1D0B51EC17
:102900001B0B53EC1D2BFDF726FD41EC1A0BBF48AA
:102910008DED10AB7844109590ED000B4FF000500A
:1029200040EA660000EB84408DED080B00F50020C6
:1029300009909DED080B53EC1C2B51EC100BFDF78F
:1029400004FD9DED0E1B53EC112BFDF701FD41EC39
:10295000100B53EC102B9DED100B51EC100BFDF7F1
:10296000FAFC9DED080B41EC1C0B53EC102B9DED7C
:10297000100B51EC100BFDF7EEFC53EC1B2BFDF78D
:10298000E7FC53EC1C2BFDF7E0FC53EC1D2BFDF793
:10299000E2FC41EC1C0B53EC1A2B51EC1A0BFDF72B
:1029A000DAFC41EC1B0B9A480621B0EE4B0AF0EE24
:1029B0006B0A784400F0E0FAB0EE401AF0EE601ACC
:1029C000B0EE41DAF0EE61DA53EC1B2B51EC1B0B4D
:1029D000FDF7C1FC53EC1D2BFDF7BDFC9DED100B6D
:1029E00041EC1B0B53EC1A2B51EC100BFDF70CFCBC
:1029F00053EC1C2BFDF7AFFC53EC1B2BFDF704FC39
:102A00009DED100B41EC1B0B53EC102B51EC100BFC
:102A1000FDF7A1FC41EC1D0B9FED7FEB53EC1E2B52
:102A2000FDF7F2FB53EC1B2BFDF7EEFB0890CDE915
:102A300008519DED080B53EC1E2B51EC100BFDF7CC
:102A400084FC53EC1D2BFDF780FC53EC1B2BFDF796
:102A50007FFC9DED080B41EC1D0B53EC102B9DED05
:102A6000100B51EC100BFDF776FC41EC1B0B53ECFB
:102A70001A2B51EC1D0BFDF76EFC9DED080B41EC84
:102A80001A0B53EC102B51EC1C0BFDF764FC53ECB0
:102A90001A2BFDF7B9FB41EC1A0B51EC1B0B53EC55
:102AA0001A2BFDF7B1FB0C90CDE90C519DED0C0BF1
:102AB00053EC1B2B51EC100BFDF747FC53EC1A2B7E
:102AC000FDF746FC41EC1B0B9FED550B53EC102B17
:102AD0009DED0C0B51EC100BFDF73DFC41EC1A0B7E
:102AE0009FED510B51EC1B0B53EC102BFDF733FCFE
:102AF00041EC1B0B9FED4E0B53EC102B9DED0C0B83
:102B000051EC100BFDF727FC53EC1B2BFDF77CFB66
:102B100041EC100B4848784400EBC40090ED001BDA
:102B200051EC100B53EC112BFDF76EFB41EC1B0B22
:102B30003846FDF7F1FCCDE9080153EC1B2B51ECB5
:102B40001A0BFDF761FB41EC100B3C48784400EB9D
:102B5000C40090ED00CB51EC100B53EC1C2BFDF797
:102B600053FB9DED081B53EC112BFDF74DFB06901D
:102B7000CDE906519DED080B53EC102B9DED060B96
:102B800051EC100BFDF7E1FB53EC1C2BFDF7DDFBCB
:102B900053EC1A2BFDF7D9FB53EC1B2BFDF7D8FB9D
:102BA00041EC100B9DED261B53EC102B8DED001B03
:102BB00000959DED260B51EC100BFDF7CCFB9DED28
:102BC000000B41EC1A0B53EC102B9DED260B51EC36
:102BD000100BFDF7BAFB9DED061B53EC112B2FE0FC
:102BE000000000604715F73FFE822B654715F73F51
:102BF00044DF5DF80BAE543E00000000000040438F
:102C00008E9803007AB60B002224000050240000A6
:102C10005A230000000000000000000000000840EF
:102C2000000000E009C7EE3FFD033ADC09C7EE3FB4
:102C3000F5015B14E02F3EBEE6210000A02100005C
:102C4000FDF789FB53EC1A2BFDF7DEFA9DED060B21
:102C500041EC1A0B53EC102B9DED000B51EC100BBB
:102C6000FDF779FBCDE90C019DED0C0B51EC1A0B36
:102C700053EC102BFDF7C8FACDE902010C46AA4926
:102C80008C422FDB611A084318D19DED0C0B53ECDD
:102C9000102B9DED020B51EC100BFDF756FB41EC98
:102CA0001B0B9FEDA30B51EC1A0B53EC102BFDF7F4
:102CB000ABFA53EC1B2BFDF7B1FC2DD2022000F038
:102CC0003BFA00F009FA10EE901A18EE900A8DED1A
:102CD000020B8DED008B61F31E0003909DED020B46
:102CE000FFF7BEBB944A24F00041914214D39349AC
:102CF000214408437FF4EFAC9DED0C0B53EC102BFB
:102D00009DED020B51EC100BFDF71FFB53EC1A2B42
:102D1000FDF784FC7FF6DFAC24F000408849894A47
:102D2000002601EB205182422BDA481C4FF480111F
:102D300021FA00F02044844AC0F30A517A44A1F2F7
:102D4000FF3192ED000B814A8DED080BCA4020EA5D
:102D50000202C0F3130040F48010C1F1140120FA04
:102D600001F60992002CB8BF76429DED080B53EC9A
:102D7000102B9DED0C0B51EC100BFDF7E6FACDE995
:102D80000C019DED0C0B51EC1A0B53EC102BFDF7C5
:102D90003BFA9FED6F0B0890CDE9085153EC102BD7
:102DA0009DED080B51EC100BFDF7D5FA41EC1B0B18
:102DB0009FED690B53EC102B9DED080B51EC100BA4
:102DC000FDF7C9FA9DED0C0B41EC1C0B53EC102BDD
:102DD0009DED080B51EC100BFDF7B7FA53EC1A2BD5
:102DE000FDF7B6FA9FED5E1B53EC112BFDF7B3FA1E
:102DF00053EC1C2BFDF708FA41EC1A0B51EC1B0BA2
:102E000053EC1A2BFDF700FACDE902019DED020B00
:102E100053EC1B2B51EC100BFDF797FA53EC1A2BCC
:102E2000FDF796FA9DED020B41EC1A0B53EC102BBB
:102E300051EC100BFDF78FFACDE908014A489DEDE2
:102E4000080B0521784400F097F89DED081B51EC24
:102E5000100B53EC112BFDF77EFA9DED021B53EC8A
:102E6000112BFDF775FACDE906019DED020B53EC30
:102E70001A2B51EC100BFDF76EFA53EC1A2BFDF7E1
:102E8000C3F99FED3B0B41EC1A0B53EC102B9DED5E
:102E9000060B51EC100BFDF758FA9DED060B41ECBB
:102EA0001B0B53EC102B9DED020B51EC100BFDF79F
:102EB00052FA53EC1B2BFDF7C0FA53EC1A2BFDF71B
:102EC00044FA9DED021B53EC112BFDF73EFA53EC37
:102ED000192BFDF73DFACDE9020101EB0650011572
:102EE0000029C8BF039015DC9DED020B324651EC62
:102EF000100BFDF78CFCFFF7FFF9042808BF00F06A
:102F0000FBF832469DED020B51EC100BFDF77FFCF8
:102F1000CDE902019DED020B51EC180B53EC102B87
:102F2000FDF719FAFFF73ABB0000904000000000DF
:102F3000FE822B654715973C00CC904000346F3FD4
:102F400001FCFFFF0000E03F28200000FFFF0F0012
:102F500000000000432EE63F396CA80C615C20BEE7
:102F6000EF39FAFE422EE63FF81E00000000000096
:102F7000000000000000004070B504462DED028BFB
:102F80004D1E00EBC500B0EE408AF0EE608A90ED79
:102F9000000B35F0060017D053EC182B51EC100B3A
:102FA000FDF7D9F941EC100B6D1E04EBC50090ED57
:102FB000001B51EC100B53EC112BFDF725F941ECE4
:102FC000100B35F00600E7D1022D36D0042D1CD0B1
:102FD000062D1CBFBDEC028B70BD53EC182B51ECC1
:102FE000100BFDF7B8F994ED0A1B53EC112BFDF70C
:102FF0000BF953EC182BFDF7AEF994ED081B53ECCD
:10300000112BFDF701F941EC100B53EC182B51EC8F
:10301000100BFDF7A0F994ED061B53EC112BFDF7F7
:10302000F3F853EC182BFDF796F994ED040B53ECE1
:10303000102BFDF7E9F841EC100B53EC182B51EC79
:10304000100BFDF788F994ED021B53EC112BFDF7E3
:10305000DBF853EC182BFDF77EF994ED001B53ECD5
:10306000112BFDF7D1F8BDEC028B41EC100B70BDBC
:103070009FED070B10B553EC102B9FED070B51EC98
:10308000100BFDF7DAF941EC100B10BD0000000049
:103090000000000000000000000000000000F03F01
:1030A00010B553EC112B51EC100BFDF7ADF841ECC2
:1030B000100B10BD000000009FED050B10B553EC88
:1030C000102B51EC100BFDF7B8F941EC100B10BDB3
:1030D00000000000000000009FED050B10B553EC50
:1030E000102B51EC100BFDF736F941EC100B10BD15
:1030F00000000000000000709FED050B10B553ECC0
:10310000102B51EC100BFDF726F941EC100B10BD04
:10311000000000000000001002E008C8121F08C1F3
:10312000002AFAD170477047002001E001C1121F48
:10313000002AFBD170470000014908607047000079
:103140007800002010B50020FDF72EFF0446FDF7A3
:10315000F4F90A4A03C20120FDF726FF0446FDF7F1
:10316000ECF9064AC2E902010220FDF71DFF044600
:10317000FDF7E3F9014AC2E9040110BD180300207C
:1031800010B52DED068B3A48B0F90000801E0521E0
:1031900090FBF1F201FB1200364901EB800090ED4B
:1031A000000A10EE104A2046FDF70CFA41EC180B0D
:1031B0002F48B0F90000801E052190FBF1F201FBC1
:1031C00012002D4931F910002C49B1F9001090FB83
:1031D000F1F12748B0F90000801E052290FBF2F3C0
:1031E00002FB1300264A32F91000244AB2F90020EB
:1031F00090FBF2F008443C2191FBF0F42046FDF7EF
:103200008BF941EC190B1A48B0F90000801E05211A
:1032100090FBF1F201FB1200174931F9101014482C
:10322000B0F90000801E052290FBF2F302FB1300B0
:10323000134A32F9100091FBF0F42046FDF76CF9C7
:1032400041EC1A0B51EC180BFDF7A3F90D4908815D
:1032500051EC190BFDF79DF90A49888051EC1A0BC6
:10326000FDF797F90749C880BDEC068B10BD00003B
:103270006C000020F4070020580800207400002093
:103280006C080020F801002000B58FB001218805EE
:10329000FEF72EF813480190134802900020039087
:1032A00004200490002005904FF4806006904000B8
:1032B0000790800008904011099040020A90002079
:1032C0000B9001200C9000200D900E90009069460C
:1032D0000648FDF7DDFC01210448FDF7CDFC0FB0E9
:1032E00000BD00004C2001408C0000201064024012
:1032F0002DE9F04104460D4616464FF6FF700021B9
:1033000014E0625C50404FF0000C0AE000F001074E
:10331000401017B14AF2010250400CF1010202F0D4
:10332000FF0CBCF1080FF1DB4A1CD1B2A942E8DB6B
:1033300002464FEAE07800EB18684FEA2828A0EB35
:10334000082886F800804FEAE07800EB18684FEA1A
:10335000182883F80080BDE8F081000010B5074808
:10336000C08E18B100200649086010BDFDF73CFC76
:1033700000F00EFC00F0C6FD00BFF6E714020020CE
:103380008C02414210B586B00024142205A101A888
:10339000FCF716FF1424214601A801F073FA06B0C9
:1033A00010BD000001060F0000000000000000003A
:1033B000000000000000864D2DE9F04186B0054672
:1033C0000E461746984600241CA30FCB8DE80F002D
:1033D0000E241E4908780978491C1C4A117000EB1C
:1033E000D0714910A0EB4101012904D1FFF7CAFFB8
:1033F00006B0BDE8F081E8B28DF8030028128DF820
:1034000004008DF807608DF808708DF80980A01E03
:10341000C1B204AB05AA6846FFF76AFF9DF8141015
:10342000A01E0DF800109DF81010601E0DF8001081
:103430002146684601F026FA00BFD9E701030900DA
:1034400000000000000000003C55000021000020AA
:1034500010B54FF47A70164908824FF48660C8851B
:103460004FF47A70C8854FF4486088874FF4FA703B
:10347000C8874000A1F840000020A1F84200A1F850
:1034800044004FF47A70A1F846000020A1F84800EB
:10349000A1F84A004FF47A70A1F84C000020A1F87E
:1034A0004E00A1F850002B2000F052F910BD000092
:1034B0001402002014203049088030480088304928
:1034C00048823048B0F9000000EE100AB8EEC00A99
:1034D0002D4880ED000A2D4890ED000ABCEEC00A90
:1034E00010EE100A0883294890ED010ABCEEC00ACC
:1034F00010EE100A4883254890ED020ABCEEC00A7F
:1035000010EE100A8883214890ED030ABCEEC00A31
:1035100010EE100AC8831D4890ED040ABCEEC00AE4
:1035200010EE100A08841A4890ED000ABCEEC00A9A
:1035300010EE100A4884164890ED010ABCEEC00A4D
:1035400010EE100A8884124890ED020ABCEEC00A00
:1035500010EE100AC8840E4890ED030ABCEEC00AB3
:1035600010EE100A08850A4890ED040ABCEEC00A65
:1035700010EE100A48857047740000207600002085
:1035800014020020F80100204C000020F407002065
:103590001C08002010B5094800880949A1F8480016
:1035A00006480088401C0549088005490889002311
:1035B0001A461946FFF700FF10BD00004400002026
:1035C0001402002010B5042000F03CF810BD0000EB
:1035D00010B504466FF00400FEF720F9E11704EB84
:1035E0005171C1F3C701074A11701046007800EB12
:1035F0004001C1EBC0104FF6FF7101EAC000024963
:10360000088010BD100000201200002070B5044694
:103610004FF4077094FBF0F0C6B24FF4077094FBC0
:10362000F0F100FB114085B205E04FF4077000F0A7
:103630002FF8701EC6B2002EF7D115B1284600F043
:1036400027F870BD0146114A12784A434FF0E02333
:103650005A6100229A611A46126942F001021A6107
:1036600000BF4FF0E022106900F001021AB100F42F
:103670008032002AF5D04FF0E022126922F00102D8
:103680004FF0E0231A6100229A6170471000002079
:103690000146114A12884A434FF0E0235A61002242
:1036A0009A611A46126942F001021A6100BF4FF096
:1036B000E022106900F001021AB100F48032002A01
:1036C000F5D04FF0E022126922F001024FF0E02322
:1036D0001A6100229A6170471200002010B511484B
:1036E0000088114908800F48408848800F480089A9
:1036F00088800E488088C8800D48008848810D4821
:10370000808848860B48C08888860A480088888553
:1037100008484088C881074800890886084600F0A4
:10372000CDFB10BD2C00002014020020A0000020C2
:1037300022000020F801002082B0CDE9000121F034
:10374000004001909DED000B02B051EC100B704752
:1037500030B599B004460D4664216846FCF749FD32
:103760002B2C01DA19B030BD082269460848FDF754
:1037700045FF002007E03DF8102000F12B0125F85F
:103780001120411CC8B20828F5DB00BFEAE70000A1
:1037900004C0000830B599B004460D46642168465F
:1037A000FCF727FD2B2C01DA19B030BD002007E013
:1037B00000F12B0135F811102DF81010411CC8B282
:1037C0000828F5DB082269460248FDF72DFF00BFF7
:1037D000EAE7000004C0000870B502460B464FF649
:1037E000FF70002110E0565C7040002408E000F0FB
:1037F0000105401015B14AF201067040661CB4B2D2
:10380000082CF4DB4E1CB1B29942ECDB70BD000019
:1038100010B52DED088B9FED590BB0EE408AF0EE00
:10382000608A00F0E7F8574890ED000BB0EE408A50
:10383000F0EE608A51EC180BFCF708FF09EE100A55
:10384000B0EE490A504800F0E5FB10EE104A204661
:10385000FCF7B8FE41EC180B4C4890ED040A10EE52
:10386000101A0846FCF7AEFE41EC190B474890EDE4
:10387000030A10EE101A0846FCF7A4FE41EC1B0BDD
:1038800053EC182BFCF767FD41EC1A0B53EC192B8A
:10389000FCF7BAFC41EC180B3D49088AFCF74DFED9
:1038A00041EC1A0B9FED3B0B53EC102B51EC180B1A
:1038B000FCF7AAFC41EC1B0B53EC1A2BFCF745FD63
:1038C00041EC190BFCF765FE304948802D4890ED1E
:1038D000020BB0EE408AF0EE608A51EC180BFCF758
:1038E000B5FE09EE100AB0EE490A2C4800F092FB32
:1038F00010EE104A2046FCF765FE41EC180B2348F9
:1039000090ED060A10EE101A0846FCF75BFE41EC3B
:10391000190B1E4890ED050A10EE101A0846FCF728
:1039200051FE41EC1B0B53EC182BFCF714FD41EC42
:103930001A0B53EC192BFCF767FC41EC180B1449DC
:10394000C88DFCF7FAFD41EC1A0B9FED120B53ECFE
:10395000102B51EC180BFCF757FC41EC1B0B53ECF4
:103960001A2BFCF7F2FC41EC190BFCF7F3FD00B24B
:1039700006490880BDEC088B10BD00000000000067
:10398000000000001803002030030020F801002090
:10399000140200200000000000408F404603002079
:1039A0001CB501210420FDF7A3FC42F20F0000909A
:1039B00001208DF8040000208DF8060003208DF80A
:1039C000050001208DF8070069460748FDF773FAE6
:1039D0000F210548FDF7E5FA012004490860044974
:1039E000C1F88C021CBD0000000802408802414260
:1039F000000041424448B0F8540088B9B7EE001ABC
:103A0000424880ED031AB7EE001A80ED051A9FEDCB
:103A1000401A80ED041A9FED3E1A80ED061A71E0FF
:103A20003948B0F85C003849B1F85810401A01EE36
:103A3000100AB8EEC11AB0EE410A3348B0F85A0085
:103A40003149B1F85610401A01EE100AB8EEC11A09
:103A5000F0EE410A80EE201A2C4880ED031A2A4825
:103A6000B0F8580001EE100AB8EE411AB0EE410A63
:103A70002648D0ED031A2448B0F8560001EE100A8B
:103A8000B8EE412AB0EE401A01EEC21A1F4880ED8E
:103A9000041A1D48B0F864001B49B1F86010401AC0
:103AA00001EE100AB8EEC11AB0EE410A1648B0F89D
:103AB00062001549B1F85E10401A01EE100AB8EE26
:103AC000C11AF0EE410A80EE201A104880ED051A66
:103AD0000D48B0F8600001EE100AB8EE411AB0EEE1
:103AE000410A0A48D0ED051A0748B0F85E0001EE19
:103AF000100AB8EE412AB0EE401A01EEC21A03488D
:103B000080ED061A7047000014020020F801002022
:103B1000000000004FF4A060FDF7BAFAA820FFF7FC
:103B200057FD1A48FDF724FCFFF73AFFFFF7ACFBFF
:103B3000FCF7ECFFFDF75AFA532140F2F310FDF7C2
:103B400009FFFDF7B5FEFDF791FF4FF4165001F0A8
:103B50000FF84FF4165000F03FFE4FF4165000F0EF
:103B6000AFFE4FF4E13000F01BFF4FF4165000F0B1
:103B700087FF4FF4FA60FFF749FDFFF769FC03E0A8
:103B800000F070FDFFF7AAFDFAE700007C000020BE
:103B900010B52DED048B1649B1F90000FCF7BCFC03
:103BA00041EC180B13498889FCF7C7FC41EC190B51
:103BB0001048B0F84A30B0F84820B0F84610B0EEDF
:103BC000481AF0EE681AB0EE490AF0EE690A0A489F
:103BD000FDF768FA074908870846008FB0F5FA7FB5
:103BE00002DD4FF4FA700887BDEC048B10BD0000B5
:103BF00022000020140200206003002070B5C2B033
:103C000005464FF4807102A8FCF7F3FA0024002661
:103C10002F4840788DF808002D4880788DF80900ED
:103C20002B480179C07841EA0026294881794079FA
:103C300041EA00204006000E8DF80A009DF80A00B7
:103C400000EBD0714C10002001901DE09DF80400A5
:103C5000304435F8100001129DF80400032202EBF5
:103C6000400002AA11549DF80400304415F81010C9
:103C70009DF80400042202EB400002AA11549DF8B2
:103C80000400401CC0B201909DF80400A042DDDB9E
:103C90009DF80A00C01CC4B26B4601AA214602A8C6
:103CA000FFF726FB9DF8040002A908559DF80010B7
:103CB00002AA601C1154A01CC4B2214602A800F044
:103CC0006DFD214602A800F0BDFE42B070BD0000AF
:103CD000F003002070B505460026002408240D4896
:103CE0000179C07841EA00260A488179407941EAA1
:103CF000002025F81600074981F802622146054890
:103D0000401C00F04BFD21460248401C00F09AFE8A
:103D100070BD0000F00300207CB505460624214656
:103D20006B4601AA0948FFF7E3FA9DF8041007481B
:103D300001559DF80020611C4254A41C214600F04E
:103D40002DFD2146014800F07DFE7CBDF1030020E1
:103D50002DE9F04106460F46544801780078401C92
:103D6000524A1070524846540078B84203D1104667
:103D70000078FA2808DB00204C4908704FF4807165
:103D80004B48FCF736FA8FE0484800780228FADD05
:103D90004748407810283CD145488079083045494B
:103DA000087042480078097888427DDD3F480078F5
:103DB000801E3F49095C3D480078401E3C4A105C2B
:103DC00041EA002539480078801EC1B21046FFF74D
:103DD00003FDA84214D13548007837490870002403
:103DE00006E03348015D3448401C0155601CC4B2F4
:103DF0002E4800788442F4DB01202F4981F801022B
:103E00004FF480712A48FCF7F4F900202749087024
:103E10004AE027484078032803D025484078062800
:103E20003AD1072023490870204800780978884251
:103E30003ADD1E480078801E1D49095C1B48007849
:103E4000401E1B4A105C41EA002518480078801E7D
:103E5000C1B21046FFF7C0FCA84214D11348007845
:103E600015490870002406E01148015D1248401C05
:103E70000155601CC4B20D4800788442F4DB012077
:103E80000D4981F801024FF480710948FCF7B1F93E
:103E900000200649087007E04FF480710448FCF7E1
:103EA000A8F9002001490870BDE8F0814B0000200E
:103EB000F30600204A000020F003002010B504465D
:103EC0000F4890F80102012815D10D488078032889
:103ED00004D0062806D010280CD107E02046FFF7B2
:103EE0008DFE07E02046FFF7F5FE03E02046FFF7D2
:103EF00013FF00BF00BF0020014981F8010210BD7F
:103F0000F003002010B52DED048B2248B0F85200CC
:103F1000012807D11F48C08A1E49488700201E4932
:103F200008602BE01D494888FCF707FB41EC180BA3
:103F30001849488AFCF701FB41EC190B1548B0F809
:103F40005030B0F84E20B0F84C10B0EE481AF0EEF9
:103F5000681AB0EE490AF0EE690A1148FDF7A2F8B6
:103F60000C4948870D484088498A884203DC002074
:103F70000949086002E00120074908600548408FB0
:103F8000B0F5FA7F03DD4FF4FA7002494887BDECC3
:103F9000048B10BD140200208C024142F801002065
:103FA000A8030020704700001CB504460121022030
:103FB000FDF79EF9802000901CB100208DF80400D0
:103FC00002E001208DF8040000208DF80600032097
:103FD0008DF8050001208DF8070069460148FCF7BF
:103FE0006AFF1CBD0004024010B5FFF711FC002061
:103FF000064908870846418F0548FDF7A6FE034895
:10400000018F0348FDF7A3FE10BD0000140200203D
:1040100000040040F0EE400ADFED131AB0EE611A22
:10402000FCEEE01A11EE901A828A20F81210818AB2
:10403000491C0A2291FBF2F302FB13118182002139
:104040000AE030F8112001EE902AF8EE611A71EEC4
:10405000811AB0EE611A491C0A29F2DBF2EE041A49
:1040600081EE210A704700000000000070B52DEDC0
:10407000108B84B0FE4890ED000AFE48D0ED000A97
:1040800030EE600AFC4880ED000A90ED000AFB4823
:10409000D0ED000A30EE600AF94880ED000AF948D8
:1040A000008820B1F748B0F90000401C60B9F04822
:1040B00090ED000AF2EE040AB4EEE00AF1EE10FA16
:1040C00002DD0120EF490880EE48008801280AD16E
:1040D000E94890ED000AB5EEC00AF1EE10FA02D2FE
:1040E0000220E8490880E748008802281DD1E648F8
:1040F000B0F90000FCF710FA41EC1A0B9FEDE30B4E
:1041000053EC102BFCF727F941EC180BE148B0F900
:104110000000FCF701FA41EC190B53EC182BFCF7EB
:104120007DFA02D20320D7490880D14890ED000AD9
:10413000B5EEC00AF1EE10FA03D24FF0FF30D149CC
:104140000880D048B0F90000D349B1F90010884286
:1041500063D0D048B0F90000CB4908800020CD4999
:104160000880C848008801282FD1CC480088401C0E
:1041700000B2CA4908800846B0F90000401E052177
:1041800090FBF1F201FB1200C549002221F810203A
:10419000C248B0F90000401E052190FBF1F201FB7E
:1041A0001200C049002221F81020BC48B0F90000DC
:1041B000401E052190FBF1F201FB1200BA4901EB10
:1041C00080009FEDBA0A80ED000AAE480088002802
:1041D00022D1B7480088401C00B2B5490880084683
:1041E000B0F90000401E052190FBF1F201FB120026
:1041F000B049002221F81020AD48B0F90000401E5F
:10420000052190FBF1F201FB1200AB4901EB8000AC
:104210009FEDA60A80ED000AC3E09E480088401C7E
:1042200000B29C49088097480088012819D19B4812
:10423000B0F90000401E052190FBF1F201FB1200D5
:10424000974931F81000401C01B29448B0F90000C1
:10425000401E052290FBF2F302FB1300904A22F865
:1042600010108848B0F90000002849DD8B48B0F9EB
:104270000000401E052190FBF1F201FB120089496C
:1042800031F81000401C01B28448B0F90000401E13
:10429000052290FBF2F302FB1300824A22F8101071
:1042A0007E48B0F90000401E052190FBF1F201FBB1
:1042B00012007D4901EB800090ED000A6C48D0EDC2
:1042C000000ADFED7E1A80EEA11A7D48B0F90000E9
:1042D00000EE900AF8EEE01AC1EE210A9FED791A7D
:1042E00000EE810A6D48B0F90000401E052190FBE8
:1042F000F1F201FB12006C4901EB800080ED000A35
:104300006048B0F9000000284BDA6948B0F90000B5
:10431000401E052190FBF1F201FB1200654931F8C6
:104320001000401C01B26248B0F90000401E052296
:1043300090FBF2F302FB13005E4A22F810105C4877
:10434000B0F90000401E052190FBF1F201FB1200C4
:10435000594901EB800090ED000A4548D0ED000A74
:10436000F1EE600ADFED551A80EEA11A5448B0F95B
:10437000000000EE900AF8EEE01AC1EE210A9FED6F
:10438000511A00EE810A4A48B0F90000401E05218A
:1043900090FBF1F201FB1200474901EB800080ED38
:1043A000000A3848B0F900003B4908803B48B0F9A2
:1043B0000000052801DA08240BE0002504E0384855
:1043C00030F9150004446D1C052DF8DB052094FB25
:1043D000F0F42C48008810B900203B490880294897
:1043E000008801287AD139480068FCF7EBF841ECE5
:1043F000180B374890ED000A3448D0ED000A30EE33
:10440000600AF0EE000A60EE200A00EE104AB8EEF4
:10441000C00A80EE801A1F48B0F9000000EE100AB2
:10442000B8EEC00A21EE000A10EE106A3046FCF722
:10443000C9F841EC1A0B1748B0F90000FCF76CF80A
:1044400041EC1C0B2046FCF767F841EC1F0B9FED7D
:10445000211BB0EE4F0AF0EE6F0AFDF765FFB0EEDC
:1044600040DAF0EE60DA1A4890ED000A174836E0BC
:104470004C00002050000020540000205800002074
:104480005C00002068000020720000209A99999931
:104490009999B93F700000206A0000206C0000204C
:1044A0004408002058080020F40700200000000005
:1044B0006E0000206C0800201C08002000007042E4
:1044C0007400002000007A44760000206400002080
:1044D00060000020000000000000004048E0D0ED37
:1044E000000A30EE600AB1EE400A10EE101A0846DB
:1044F000FCF768F841EC1E0B53EC1D2BFBF79DFFFE
:1045000053EC1C2BCDE900019DED000B51EC100B81
:10451000FBF721FF41EC1B0B53EC1A2BFBF774FE4E
:1045200041EC190B53EC182BFBF76EFECDE90201A1
:104530009DED020B51EC100BFCF70CF800B2254975
:1045400008800846B0F9000000EE100AB8EEC00A74
:104550002148D0ED000AB4EEE00AF1EE10FA07DDD2
:1045600090ED000ABDEEC00A10EE100A00B20880FD
:104570001A480088022809D1174890ED000ABDEEBC
:10458000C00A10EE100A00B21249088013480088D1
:10459000032804D01148B0F90000401C48B9104865
:1045A00090ED000ABDEEC00A10EE100A00B20949F3
:1045B00008800C4890ED000A0B4880ED000A0B487B
:1045C00090ED000A0A4880ED000A04B0BDEC108BA3
:1045D00070BD000076000020600000206800002010
:1045E000640000204C0000205000002054000020F7
:1045F0005800002000B52DED048B83B041EC190B61
:10460000FCF72EF941EC180B18EE100A18EE901A70
:104610008DED008B002818BF0120084320F00040DA
:10462000C0F17F6000F1E040C00F14D019EE101A05
:1046300019EE900A8DED009B002918BF0121084357
:1046400020F00040C0F17F6000F1E040C00F04BFE7
:104650000120FEF771FD51EC180B03B0BDEC048B8B
:1046600000BD000010B52948007800F0010038B105
:104670002648006820F0010024490860FFF7B4FCD8
:104680002248007800F0020038B12048006820F08D
:1046900002001E490860FEF755FD1C48007800F036
:1046A000040058B11948006820F004001749086058
:1046B000FFF7DCFCFEF764FDFEF7FCFE1348007814
:1046C00000F0080048B11148006820F008000F49C8
:1046D0000860FEF75FFFFEF741FE0C48007800F02F
:1046E000100088B10948006820F0100007490860F0
:1046F00000F0E2FA0648006808B9012000E0002056
:1047000003490860FFF74EFC10BD000014000020B4
:10471000B40241420521B0FBF1F201FB120129B9BB
:104720001B49096841F00101194A11600A21B0FBD7
:10473000F1F201FB120129B91549096841F00201A2
:10474000134A11601421B0FBF1F201FB120129B9E7
:104750000F49096841F004010D4A11606421B0FB62
:10476000F1F201FB120129B90949096841F0080178
:10477000074A11604FF47A71B0FBF1F201FB1201AC
:1047800029B90349096841F01001014A11607047D5
:104790001400002000B500F041FA00BD70B50546D8
:1047A0000E4600240CE000BF40210A48FDF799FCAA
:1047B0000028F9D0295D0748FDF75FFD601C84B231
:1047C000B442F0DB00BF40210248FDF78AFC00281C
:1047D000F9D070BD0010014010B588B00446012129
:1047E0000846FCF785FD01214804FCF791FD0C20EB
:1047F000069002208DF81C008DF81D0000208DF819
:104800001E0001208DF81F0006A91C48FCF753FB71
:10481000072202211948FCF796FB072203211748BB
:10482000FCF791FB02940020ADF80C00ADF80E00EF
:10483000ADF81000ADF814000C20ADF8120002A97C
:104840000F48FDF7ABFC26208DF8040002208DF800
:10485000050001208DF806008DF8070001A8FCF77F
:10486000DBFB012240F225510548FDF771FC0121D7
:104870000348FDF72AFC08B010BD0000000002400C
:104880000044004070B505460E4600240CE000BF11
:1048900040210A48FDF725FC0028F9D0295D07488A
:1048A000FDF7EBFC601C84B2B442F0DB00BF40219A
:1048B0000248FDF716FC0028F9D070BD0044004006
:1048C00010B588B0044601218804FCF721FD4FF49F
:1048D0004060069002208DF81C008DF81D0000201D
:1048E0008DF81E008DF81F0006A91C48FCF7E3FA9E
:1048F00007220A211948FCF726FB07220B2117483B
:10490000FCF721FB02940020ADF80C00ADF80E007E
:10491000ADF810000C20ADF812000020ADF8140026
:1049200002A90F48FDF73AFC012240F225510C483C
:10493000FDF70EFC01210A48FDF7C7FB27208DF883
:10494000040002208DF8050001208DF806008DF886
:10495000070001A8FCF760FB08B010BD000402408E
:104960000048004070B505460E4600240CE000BF2C
:1049700040210A48FDF7B5FB0028F9D0295D07481A
:10498000FDF77BFC601C84B2B442F0DB00BF402129
:104990000248FDF7A6FB0028F9D070BD0048004092
:1049A00010B588B004460121C804FCF7B1FC4FF4EF
:1049B0004060069002208DF81C008DF81D0000203C
:1049C0008DF81E008DF81F0006A91C48FCF773FA2D
:1049D00008220A211948FCF7B6FA08220B211748C9
:1049E000FCF7B1FA02940020ADF80C00ADF80E000F
:1049F000ADF810000C20ADF812000020ADF8140046
:104A000002A90F48FDF7CAFB012240F225510C48CC
:104A1000FDF79EFB01210A48FDF757FB34208DF876
:104A2000040002208DF8050001208DF806008DF8A5
:104A3000070001A8FCF7F0FA08B010BD000802401A
:104A4000004C004070B505460E4600240CE000BF47
:104A500040210A48FDF745FB0028F9D0295D0748A9
:104A6000FDF70BFC601C84B2B442F0DB00BF4021B8
:104A70000248FDF736FB0028F9D070BD004C00401D
:104A800010B588B0044601210805FCF741FC4FF43D
:104A90008050069002208DF81C008DF81D0000202B
:104AA0008DF81E008DF81F0006A91F48FCF703FAB9
:104AB0000420069006A91D48FCF7FDF908220C21E8
:104AC0001948FCF740FA082202211848FCF73BFA83
:104AD00002940020ADF80C00ADF80E00ADF8100007
:104AE0000C20ADF812000020ADF8140002A9104807
:104AF000FDF754FB012240F225510D48FDF728FB3C
:104B000001210B48FDF7E1FA35208DF80400022061
:104B10008DF8050001208DF806008DF8070001A82A
:104B2000FCF77AFA08B010BD00080240000C024001
:104B30000050004070B505460E4600240CE000BF52
:104B400040210A48FDF7CDFA0028F9D0295D074831
:104B5000FDF793FB601C84B2B442F0DB00BF402140
:104B60000248FDF7BEFA0028F9D070BD00500040A1
:104B700010B588B0044601210846FCF7B9FB0121B5
:104B80001020FCF7D5FB0294072209212148FCF7ED
:104B9000DAF907220A211F48FCF7D5F94FF4C06063
:104BA000069002208DF81C008DF81D0000208DF865
:104BB0001E0001208DF81F0006A91648FCF77BF99E
:104BC0000020ADF80C00ADF80E00ADF81000ADF807
:104BD00014000C20ADF8120002A90F48FDF7DEFA10
:104BE00001210D48FDF771FA012240F225510A48D2
:104BF000FDF7AEFA25208DF8040000208DF80500A1
:104C00008DF8060001208DF8070001A8FCF704FAD2
:104C100008B010BD000002400010014000202049F3
:104C20000A880988491C1E4B19801E49898F8A42AF
:104C300016DA1D49097839B901211C4A1160002191
:104C40001B4AC2F8841206E00021184A11600121B3
:104C5000174AC2F8841214490978164A117010E0F4
:104C60000021124A1160124AC2F8841211490978CF
:104C7000012903D100210C4A117002E001210A4AE6
:104C800011700849C98F074A928F114488B20449AC
:104C90000988814202DB0021014A1180704700002F
:104CA0004200002014020020400000208002414207
:104CB000000041424100002010B5074890F8020270
:104CC00048B1054991F802020449FEF763FD00204E
:104CD000014981F8020210BDF003002014020020F7
:104CE000000000000000F03F000000000000F83F5E
:104CF00000000000000000000000004003B8E23F98
:104D0000000000000000000006D0CF43EBFD4C3E49
:104D1000033333333333E33FFFAB6FDBB66DDB3F3E
:104D20004D268F515555D53F01411DA96074D13F86
:104D300065DBC9934A86CD3FEF4E454A287ECA3F80
:104D40003E5555555555C53F93BDBE166CC166BF02
:104D50002CDE25AF6A56113FF16BD2C541BDBBBEFB
:104D6000D0A4BE726937663E00000000000000005B
:104D7000904D0008000000207C0000001831000861
:104D80000C4E00087C000020040C000028310008B4
:104D900000000000010203040102030406070809E1
:104DA0000000000000000000000000000000000003
:104DB00000000000000000000000000000000000F3
:104DC00000000000000000000000000000000000E3
:104DD00000000000000000000000000000000000D3
:104DE00000000000000000000000000000000000C3
:104DF00000000000000000000000000000000000B3
:0C4E0000000000000000000000000000A6
:040000050800018965
:00000001FF
