:020000040800F2
:10000000980B00209D010008BD0D0008B50D0008EB
:10001000B90D0008990A00085B1E000800000000E6
:10002000000000000000000000000000391300087C
:100030000D0B0008000000006110000851140008BA
:10004000B7010008B7010008B7010008B7010008B0
:10005000B7010008B70100080F0B0008B70100083E
:10006000B7010008B7010008B7010008B701000890
:10007000B7010008B7010008B7010008B701000880
:10008000B7010008B7010008B7010008B701000870
:10009000B7010008B7010008B7010008B701000860
:1000A000B7010008B7010008B7010008B701000850
:1000B00025150008B7010008DD160008B701000883
:1000C000B7010008B7010008B7010008B701000830
:1000D000B7010008A91A0008CD1A0008ED1B000896
:1000E000B7010008B7010008B7010008B701000810
:1000F000B7010008B7010008B7010008B701000800
:10010000B7010008B7010008B7010008B7010008EF
:10011000E1190008111A0008B7010008B70100082A
:10012000B7010008B7010008B7010008B7010008CF
:10013000B7010008B7010008B7010008B7010008BF
:10014000B7010008B7010008B7010008B7010008AF
:10015000B7010008B7010008B7010008B70100089F
:10016000B7010008B7010008B7010008B70100088F
:10017000B7010008B7010008B7010008B70100087F
:10018000B7010008B7010008DFF80CD000F040FB11
:1001900000480047E9270008980B002006488047E0
:1001A00006480047FEE7FEE7FEE7FEE7FEE7FEE75C
:1001B000FEE7FEE7FEE7FEE75514000889010008A8
:1001C00040EA01039B0703D009E008C9121F08C0D9
:1001D000042AFAD203E011F8013B00F8013B521E59
:1001E000F9D27047D2B201E000F8012B491EFBD2D0
:1001F00070470022F6E710B513460A460446194632
:10020000FFF7F0FF204610BD2DE9FE4F804681EA42
:100210000300C00F0C46009021F0004123F0004580
:10022000B8EB0200A94105D24046214690461C4643
:100230000B46024623F00040104347D0270DC7F37A
:100240000A00C3F30A510290401A019040286BDA69
:10025000C3F3130040F4801B0098924620B10023A2
:10026000D2EB030A63EB0B0B01985946C0F1400235
:10027000504600F007FA06460D4650465946019A88
:1002800000F01FFA10EB08006141002487EA1152C8
:1002900084EAE7731A4340D0009A62B3019A012AB4
:1002A0004FEA075215DC001B61EB02014FF00042E0
:1002B00002EA0752CDE90042001C41F580113246A6
:1002C0002B4600F056FA03B0BDE8F08F40462146B9
:1002D000F9E7001B61EB0201001C41F580130018D7
:1002E0005B412018A2F5001747EB030140EAD570E7
:1002F000B6196D4111E06D084FEA360645EAC07542
:100300004FEA0752001B61EB0201001C41F580110E
:1003100049084FEA30000019514132462B4603B0DC
:10032000BDE8F04F00F016BA00980122400000230B
:10033000D0EB020263EBE073009821464FEAE074D1
:10034000B8EB000061EB0401E9E783F000435BE7F1
:1003500081F0004158E72DE9FE4F81EA030404F0E3
:10036000004421F0004100944FF0000B23F00043C3
:1003700050EA01045ED052EA03045BD0C3F30A548E
:10038000C1F30A552C44A4F2F3340194A0FB0254A7
:10039000C1F3130141F48011C3F3130343F4801339
:1003A00001FB024400FB034E840A970A44EA81548D
:1003B00047EA8357A4FB076802958D0A05FB07856A
:1003C0004FEA932C04FB0C542705029D4FEA065874
:1003D00047EA1637B5EB08056EEB070C870E920E51
:1003E00047EA811742EA8312A7FB0201B6EB0B0131
:1003F00064EB00042B0D43EA0C335E1844EB1C50F5
:10040000DA465146E7FB0201C5F313044FEA0B330A
:1004100043EA14534FEA0432019C43EA0603A4F171
:100420000C040294009CCDE900B400F0A2F903B0E2
:10043000BDE8F08F00200146F9E72DE9F04D81EA93
:10044000030404F0004B21F0004514464FF0000A6D
:1004500023F0004150EA050220D054EA01021DD0E9
:10046000C5F30A570246C5F31303C1F31300C1F3E2
:100470000A5640F4801543F48013A7EB0608101BBE
:10048000D64608F2FD3873EB050002D308F10108E7
:1004900001E092185B41B8F1000F03DA0020014639
:1004A000BDE8F08D00204FF48011064684460EE032
:1004B000171B73EB050705D3121B63EB05030643FC
:1004C0004CEA010C49084FEA300092185B4150EAAF
:1004D0000107EDD152EA030012D082EA040083EA58
:1004E0000501084305D0101BAB4106D201220023B1
:1004F00006E000224FF0004302E06FF001025310CB
:100500001AEB06004CEB085110EB0A0041EB0B0113
:10051000BDE8F04D00F01EB90EB5C10F80EAE070E5
:100520000844CA07002140F233438DE80E000A4612
:100530000B4600F01EF903B000BD0EB540F233418A
:1005400002910021CDE900110A460B4600F011F995
:1005500003B000BD70B5C1F30A5201F0004500249C
:10056000C1F3130140F2FF3341F480119A4201DAE2
:10057000002070BD40F233439A42A2F2334203DCC2
:10058000524200F08EF800E090402C43F1D04042FF
:1005900070BDC1F30A5210B5C1F3130140F2FF332D
:1005A00041F480119A4201DA002010BD40F2334339
:1005B0009A42A2F2334203DC524200F072F810BDBC
:1005C000904010BD00F0004230F000400AD0C10D54
:1005D00001F56071C0F3160042EA0151C2084007FC
:1005E00011437047002001467047000030B5041EDB
:1005F00071F1000404DB4FF00044404264EB010160
:10060000141E73F1000405DB1C464FF000435242F8
:1006100063EB04038B4208BF824230BD30B5041E39
:1006200071F1000404DB4FF00044404264EB01012F
:10063000141E73F1000405DB1C464FF000435242C8
:1006400063EB0403994208BF904230BD01F00043C0
:1006500030B421F0004150EA010206D00A0DA2F5A3
:100660006072C1F31301002A02DC30BC0020704725
:10067000440F44EAC104C100E01830BC00EBC25092
:1006800000F031B8202A04DB203A00FA02F1002001
:1006900070479140C2F1200320FA03F319439040C0
:1006A0007047202A04DB203A21FA02F0002170472B
:1006B00021FA02F3D040C2F12002914008431946CA
:1006C0007047202A06DBCB17203A41FA02F043EAB2
:1006D000E07306E041FA02F3D040C2F120029140FB
:1006E0000843194670470029A8BF7047401C4900BD
:1006F00008BF20F00100704710B4B0FA80FC00FA87
:100700000CF050EA010404BF10BC704749B1CCF1B1
:10071000200421FA04F411FA0CF118BF012121433D
:100720000843A3EB0C01CB1D4FEA00614FEA1020F8
:1007300042BF002010BC704700EBC350104400299A
:10074000A4BF10BC7047401C490008BF20F0010046
:1007500010BC704710B5141E73F1000408DA401C79
:1007600041F1000192185B411A4301D120F00100D0
:1007700010BD2DE9F04D92469B4611B1B1FA81F2C0
:1007800002E0B0FA80F220329046FFF77BFF044689
:100790000F4640EA0A0041EA0B0153465A46084315
:1007A00013D0114653EA010019D0C8F14002504657
:1007B000FFF777FF05460E46504659464246FFF77B
:1007C00061FF084305D0012004E020463946BDE81A
:1007D000F08D0020054346EAE0762C4337430A9823
:1007E0006305E40AA0EB08000022FD0A44EA47542E
:1007F0000A3002D500200146E9E7010510196941D8
:10080000DDE9084500196941BDE8F04DA2E70000A7
:10081000064C074D06E0E06840F0010394E807004D
:1008200098471034AC42F6D3FFF7B2FC9832000878
:10083000B832000821B1826842F00102826003E010
:10084000826822F001028260704700000021084A9D
:100850001168084A1140D0E900231A4383681A43FB
:10086000C3681A431143044AC2F8041370470000D6
:1008700004230140E030FCFF0020014021B18268E8
:1008800042F48072826003E0826822F480728260A7
:10089000704721B1826842F40072826003E082688E
:1008A00022F400728260704730B5024600200023B7
:1008B0005068104C20400D790C6844EA0524204310
:1008C000506090680C4C2040D1E903542C438D6853
:1008D0002C434D7944EA450420439060D06A20F4CB
:1008E00070000C7D641EE4B2234340EA0350D062E2
:1008F00030BD0000FFFEFFFCFDF7FFC0F0B5044671
:100900000D4600200021092D11DDE068A5F10A0641
:1009100006EB4607072606FA07F18843A5F10A0603
:1009200006EB460603FA06F10843E0600CE0206996
:1009300005EB4507072606FA07F1884305EB450650
:1009400003FA06F108432061072A0FDA606B561E8E
:1009500006EB86071F2606FA07F18843561E06EBAC
:10096000860605FA06F10843606322E00D2A0FDAD5
:10097000206BD61F06EB86071F2606FA07F1884371
:10098000D61F06EB860605FA06F10843206310E041
:10099000E06AA2F10D0606EB86071F2606FA07F1AC
:1009A0008843A2F10D0606EB860605FA06F1084318
:1009B000E062F0BD816841F08041816070470000D5
:1009C00000B58DB00121084600F04CFBF0200B90E3
:1009D00003208DF8300000208DF833000BA92C483F
:1009E00000F07BF90121080200F05CFB0121080204
:1009F00000F068FB00214FF4807000F063FB0020E2
:100A000007904FF470600A90002009904FF48030F6
:100A1000089007A8FFF71AFF0020019001208DF829
:100A200008008DF809000020039004900590042030
:100A30008DF8180001A91748FFF736FF032301229C
:100A400004211448FFF75AFF03230222052111480D
:100A5000FFF754FF03231A4606210E48FFF74EFF07
:100A60000323042207210B48FFF748FF012109480F
:100A7000FFF70FFF01210748FFF700FF012105489D
:100A8000FFF7D8FE0348FFF795FF0DB000BD00004B
:100A9000000002400020014000BFFEE7704721B186
:100AA000026842F00102026003E0026822F00102E3
:100AB0000260704710B500220268134B1A40CC68E0
:100AC0000B6823434C6923438C692343CC6923433C
:100AD0000C6A23434C6A23438C6A23434C6B2343A5
:100AE0008C6B23431A430260426922F00702D1E96A
:100AF0000B3423431A4342610B6943604B688360A4
:100B00008B68C36010BD00003F801CF0704710B5BB
:100B1000012000F001F810BD014908607047000095
:100B2000143C014001490860704700000C3C024041
:100B300030B10749096841F48061054A116005E058
:100B40000349096821F48061014A1160704700007F
:100B5000003C024070B504460A460026092502B949
:100B600009E0012A01D1160205E0022A01D116028C
:100B700001E04FF4407600F09FF80546092D28D19A
:100B80001548006820F44070134908600846006862
:100B9000304308600846006820F0F8000860084606
:100BA000006844F0020108430B49086008460068E9
:100BB00040F48030086000F07FF805460648006881
:100BC00020F00200044908600846006820F0F800A0
:100BD0000860284670BD0000103C024009201349FF
:100BE000096801F48031B1F5803F01D101201CE09A
:100BF0000E49096801F0100109B1062015E00B4902
:100C0000096801F4807109B102200EE00749096802
:100C100001F0EF0109B1072007E00449096801F07C
:100C2000020109B1082000E0092070470C3C024095
:100C30000348006840F00040014908607047000028
:100C4000103C024030B502460C46092500F034F84D
:100C50000546092D19D10E48006820F440700C4952
:100C600008600846006840F40070086008460068A4
:100C700040F001000860146000F01EF805460448CA
:100C8000006820F0010002490860284630BD0000DD
:100C9000103C02400548006800F0004028B10448BC
:100CA00002490C390860034808607047103C024054
:100CB00023016745AB89EFCD08B509200090FFF708
:100CC0008DFF009002E0FFF789FF00909DF8000083
:100CD0000128F8D09DF8000008BDF0B50A460021B3
:100CE0000023002400BF3DE0012505FA01F315684B
:100CF00005EA03049C4234D105684F000326BE4038
:100D0000B543056015794E00B5400668354305606A
:100D10001579012D02D01579022D16D185684F0065
:100D20000326BE40B543856055794E00B5408668C0
:100D300035438560456801268E40B543456045686A
:100D400096798E40B6B235434560C5684F0003269C
:100D5000BE40B543C560D5794E00B540C668354341
:100D6000C560491C1029BFD3F0BDF0B50023002495
:100D70004D07ED0E02FA05F3CE1000F1200555F8EF
:100D800026504E07F70E0F26BE40B543CF1000F198
:100D9000200646F82750CE1000F1200555F82650C1
:100DA00045EA0304CE1000F1200545F82640F0BDC9
:100DB0000183704700BFFEE700BFFEE770470000F9
:100DC00070B5002100230F22C4781CB3174C24688F
:100DD00004F4E064C4F5E064C4F30721C1F1040441
:100DE000E3B20A4144789C40E1B284781440214344
:100DF0000C07210E0E4C05786155047804F01F0590
:100E00000124AC4005786D11AD0005F1E025C5F871
:100E1000004109E0047804F01F050124AC40054DB1
:100E20000678761145F8264070BD00000CED00E014
:100E300000E400E080E100E002490143024A116061
:100E4000704700000000FA050CED00E02DE9F041CC
:100E50002DED108B82B00446B0EE409AF0EE609A11
:100E6000B0EE41AAF0EE61AA0D4616461F4628468E
:100E7000FFF763FB41EC1D0B9FED710B53EC102B47
:100E8000FFF7DBFAC4E90C013046FFF756FB41ECF3
:100E90001D0B9FED6B0B53EC102BFFF7CEFAC4E943
:100EA0000E013846FFF749FB41EC1D0B9FED640B2B
:100EB00053EC102BFFF7C1FAC4E9100153EC1A2BC5
:100EC00051EC190BFFF741FA41EC180B9FED5E0B4B
:100ED00084ED0A0B94ED0E1BB0EE410AF0EE610AB0
:100EE00053EC182B51EC100BFFF735FA41EC1E0BAD
:100EF00094ED0A1BB0EE410AF0EE610A53EC102BA0
:100F0000FFF729FA41EC1D0B94ED081BB0EE410AE6
:100F1000F0EE610A53EC102BFFF776F941EC1B0B56
:100F200094ED061BB0EE410AF0EE610A53EC102B73
:100F300051EC180BFFF709FA41EC1D0B94ED0A1B5D
:100F4000B0EE410AF0EE610A53EC102BFFF775FA90
:100F500041EC1C0B94ED101BB0EE410AF0EE610A5F
:100F600053EC1C2B51EC100BFFF7F5F941EC1D0B6A
:100F700094ED0C1BB0EE410AF0EE610A53EC182B15
:100F800051EC100BFFF7E7F941EC1F0B53EC1B2B57
:100F9000FFF73AF941EC1E0B53EC1D2BFFF734F928
:100FA000CDE9000194ED041BB0EE410AF0EE610AB8
:100FB0009DED001B53EC112B51EC100BFFF724F9A6
:100FC000C4E9040184ED068B84ED08BB94ED041B99
:100FD000B0EE410AF0EE610A9FED1D1B53EC112BA0
:100FE00051EC100BFFF71AFB04D29FED190B84EDA7
:100FF000040B12E094ED041BB0EE410AF0EE610A1E
:101000009FED151B53EC112B51EC100BFFF7EEFA73
:1010100003D29FED110B84ED040B94ED041BB0EE95
:10102000410AF0EE610A51EC100BFFF7B2FA1FFA19
:1010300080F8404602B0BDEC108BBDE8F0810000A6
:10104000000000000088C340000000000000F03FE6
:101050000000000000407F40000000000000000091
:101060007047000029B1064A12680243044B1A6017
:1010700004E0034A12688243014B1A607047000083
:101080003038024029B1064A12680243044B1A6004
:1010900004E0034A12688243014B1A607047000063
:1010A0004038024029B1064A12680243044B1A60D4
:1010B00004E0034A12688243014B1A607047000043
:1010C0004438024029B1064A12680243044B1A60B0
:1010D00004E0034A12688243014B1A607047000023
:1010E00024380240F0B50021002200240225002609
:1010F0000223324F3F6807F00C0121B1042905D0CB
:10110000082937D105E02E4F076036E02D4F0760E4
:1011100033E02A4F3F1F3F68C7F38056274F3F1FDA
:101120003F6807F03F036EB1264FB7FBF3F7DFF8D8
:101130008CC0ACF1040CDCF800C0CCF3881C07FBBD
:101140000CF40CE01E4FB7FBF3F7DFF870C0ACF106
:10115000040CDCF800C0CCF3881C07FB0CF4174F20
:101160003F1F3F68C7F301477F1C7D00B4FBF5F7C5
:10117000076002E0124F076000BF00BF0F4F3F68DB
:1011800007F0F0010909104F7A5C0768D740476003
:101190000A4F3F6807F4E051890A0B4F7A5C4768B1
:1011A000D7408760054F3F6807F46041490B064F01
:1011B0007A5C4768D740C760F0BD0000083802403D
:1011C0000024F40000127A000000002001461C48B0
:1011D000814201D2002070471A48814201D2082082
:1011E000F9E71948814201D21020F4E717488142FB
:1011F00001D21820EFE71648814201D22020EAE709
:101200001448814201D22820E5E71348814201D2E7
:101210003020E0E71148814201D23820DBE7104856
:10122000814201D24020D6E70E48814201D24820B7
:10123000D1E70D48814201D25020CCE75820CAE7BF
:10124000004000080080000800C0000800000108FD
:10125000000002080000040800000608000008085A
:1012600000000A0800000C0800000E082DE9F041FB
:1012700007460D461646002406E0384600F008F8FA
:1012800045F824003F1D641CB442F6D3BDE8F0814C
:1012900001460868704700002DE9F04704460E46F5
:1012A00017464FF009080025A946B4F1006F02D394
:1012B00004F0030008B1BDE8F087FFF7EBFC002065
:1012C000FFF736FC254604EB87091A48854219D2F8
:1012D00015E02846FFF7DCFF401C78B140F2F31020
:1012E000FFF720FC2846FFF771FF82460221FFF737
:1012F00031FC8046B8F1090F01D002E02D1D4D45AB
:10130000E7D300BFB8F1090F0CD108E020463168DF
:10131000FFF798FC092800D003E0241D361D4C453A
:10132000F4D300BF0120FFF703FCFFF781FC00BFEF
:10133000C1E700000000FF1F704700000CB500204F
:10134000019000903448006840F4803032490860D1
:1013500000BF3148006800F4003000900198401C44
:101360000190009818B90198B0F5A04FF1D12A4822
:10137000006800F4003010B10120009001E000206E
:1013800000900098012846D123484030006840F082
:1013900080502149403108602048006840F44040B6
:1013A0001E4908601C48083000681B490831086065
:1013B0000846006840F4004008600846006840F4B1
:1013C000A05008601648091F0860081F006840F018
:1013D0008070091F086000BF0F48006800F00070AF
:1013E0000028F9D040F205700E4908600A4808301C
:1013F000006820F0030008490831086008460068CA
:1014000040F00200086000BF03480830006800F0A8
:101410000C000828F8D10CBD0038024000700040D4
:1014200008544007003C0240042808D14FF0E02156
:10143000096941F004014FF0E022116107E04FF02B
:10144000E021096921F004014FF0E02211617047A9
:101450007047000010B51548006840F4700013494B
:1014600008601348006840F001001149086000203E
:101470000F49083108600E4800680E4908400C49C1
:1014800008600D48091D0860081F006820F48020CE
:10149000091F0860002006490C310860FFF74EFF65
:1014A0004FF0006001498039086010BD88ED00E010
:1014B00000380240FFFFF6FE103000241FB5012166
:1014C0000846FFF7DFFD5320ADF804000020ADF81B
:1014D000060040F2E73002900020ADF80C008DF8D5
:1014E0000E0001A94FF0804000F038FA0121880772
:1014F00000F002F901221146900700F01DF91C20AE
:101500008DF8000000208DF8010001208DF8020008
:101510008DF803006846FFF753FC0121880700F0AF
:10152000EEF81FBD10B50121880700F0F4F868B18E
:1015300007480068401C06490860012005490870FA
:1015400001F028FC0121880700F0D6F810BD00004A
:101550001C0000201400002070B58AB004460D461F
:1015600001210220FFF78EFD01210220FFF77AFD05
:101570003120009002208DF8040000208DF8060034
:1015800003208DF8050001208DF8070069463648D4
:10159000FFF7A3FB022200213348FFF7E6FB0222FC
:1015A00004213148FFF7E1FB022205212E48FFF715
:1015B000DCFB0894ADF81C500020ADF82400ADF819
:1015C0001E0007A9294800F0C9F97020ADF80800ED
:1015D0000120ADF80A0000200490ADF8140002A923
:1015E000224800F0B3F80821204800F0EDF8702000
:1015F000ADF808000120ADF80A0000200490ADF815
:10160000140002A9194800F0E9F80821174800F071
:1016100037F97020ADF808000120ADF80A0000206D
:101620000490ADF8140002A9104800F037F9082121
:101630000E4800F083F901210C4800F060F82646BE
:1016400004EBD6704110094800F081F904EBD67024
:101650004110064800F07DF904EBD67041100348B4
:1016600000F079F90AB070BD0004024000040040A7
:101670001FB501210420FFF705FD5320ADF804003C
:101680000020ADF80600092002900020ADF80C0003
:101690008DF80E0001A9104800F060F901210E48F4
:1016A00000F02AF8012211460B4800F045F81E20F0
:1016B0008DF8000007208DF8010000208DF8020051
:1016C00001208DF803006846FFF77AFB01210248EC
:1016D00000F015F81FBD00000008004010B5012102
:1016E000044800F018F818B10121024800F004F88D
:1016F00010BD000000080040CA430282704721B1BB
:10170000028842F00102028004E002884FF6FE7374
:101710001A400280704730B50246002000230024A2
:10172000158A05EA0103958905EA010413B10CB194
:10173000012000E0002030BD1AB183890B43838172
:1017400002E083898B4383817047000070B50024D9
:1017500000220023058C4FF6FE7635400584028C6E
:101760008388048B4FF68F752C40B51E2C400D8856
:101770002C43751E2A408D892A434D882A43104DDB
:10178000A84202D00F4DA84213D14FF6F7752A4058
:10179000CD892A434FF6FB752A408D882A434FF6A0
:1017A000FF652B404FF6FF552B400D8A2B434D8A8A
:1017B0002B43838004838D684563028470BD0000E1
:1017C00000000140000401400A460021018B4FF651
:1017D000F7731940114301837047000070B500246E
:1017E00000220023058C4FF6EF7635400584028CED
:1017F0008388048B48F6FF752C404FF6FF452C403C
:101800000D884FF6FF7606EA05252C434FF6DF7567
:101810002A408D8906EA05152A434D8806EA0515F2
:101820002A43154DA84202D0144DA8421DD14FF6AF
:101830007F752A40CD894FF6FF7606EA05152A43C3
:101840004FF6BF752A408D8806EA05152A434FF6E4
:10185000FF352B404FF2FF752B400D8A06EA8505B8
:101860002B434D8A06EA85052B43838004838D68CC
:101870008563028470BD0000000001400004014047
:101880000A460021018B4FF2FF7319404FF6FF7398
:1018900003EA0223194301837047000070B5002456
:1018A00000220023058C4FF6FF6635400584028C2C
:1018B0008388848B4FF68F752C404FF6FC752C4037
:1018C0000D882C434FF6FF552A408D894FF6FF7641
:1018D00006EA05252A434D8806EA05252A43154DC3
:1018E000A84202D0144DA8421DD14FF2FF752A40E4
:1018F000CD894FF6FF7606EA05252A434FF6FF35D8
:101900002A408D8806EA05252A434EF6FF752B40AE
:101910004DF6FF752B400D8A06EA05152B434D8ABF
:1019200006EA05152B43838084838D68C563028492
:1019300070BD000000000140000401400A46002183
:10194000818B4FF6F77319401143818370474163D0
:10195000704781637047C1637047000000220288AE
:10196000184B98420ED0184B98420BD0B0F1804FD4
:1019700008D0164B984205D0154B984202D0154B13
:10198000984204D14FF68F731A404B881A43124B7A
:10199000984207D0114B984204D04FF6FF431A40AB
:1019A0000B891A4302804B68C3620B880385054B81
:1019B000984202D0044B984201D18B7A03860123CE
:1019C0008382704700000140000401400004004091
:1019D00000080040000C00400010004000140040CF
:1019E00010B540F22551094800F074F960B140F299
:1019F0002551064800F046F9044800F025FAC4B223
:101A00000121204601F00AF810BD0000004C004002
:101A100010B540F22551204800F05CF900283AD07A
:101A200040F225511C4800F02DF91B4800F00CFA3B
:101A3000C1B21A4802780078401C184B1870184838
:101A400081540078162803D1184600785A2803DDFF
:101A50000020124908701EE0104800780B281ADB9D
:101A60000F480179C07801EB002000B20D490880D1
:101A70000B488179407901EB002000B20949488088
:101A80000748017AC07901EB002000B2054988803F
:101A900000200249087010BD0050004034000020B2
:101AA000460100202C00002010B540F225510648C8
:101AB00000F010F938B1044800F0C6F9C4B20121B1
:101AC000204600F0ABFF10BD0010014010B500240F
:101AD00040F22551414800F0FDF800287CD040F24A
:101AE00025513E4800F0CEF83C4800F0ADF9C1B2B7
:101AF0003B4802780078401C394B187039488154B3
:101B00000078012803D1184600785A2803DD002008
:101B10003349087060E032480078022800DA10BDCE
:101B200030484078062854D12D480078142853DBDB
:101B30002C48807C2B49C97C40EA01241221294889
:101B400000F06CFCA04240D12648407925498979B3
:101B500040EA012024490881002088802148007A39
:101B600000F001011F48C07961F35F001D49497A07
:101B700001F0010140EA81001A49897A01F001016E
:101B800040EAC1001749C97A01F0010140EA011099
:101B90001449097B01F0010140EA41101149497BD8
:101BA00001F0010140EA81100E49897B01F0010139
:101BB00040EAC1100B49C97B01F0010140EA012054
:101BC0000949898808430849888000200449087029
:101BD00002E000200249087000BFA0E70044004076
:101BE000200000207E0000207400002010B540F28C
:101BF0002551204800F06EF800283AD040F22551D7
:101C00001C4800F03FF81B4800F01EF9C1B21A480A
:101C100002780078401C184B1870184881540078DE
:101C2000162803D1184600785A2803DD00201249EF
:101C300008701EE0104800780B281ADB0F48017965
:101C4000C07801EB002000B20D4908800B48817973
:101C5000407901EB002000B2094948800748017A29
:101C6000C07901EB002000B20549888000200249BC
:101C7000087010BD004800402A000020E20000204B
:101C80002200002010B50022002340F66A14A14271
:101C900000D100BF0A1201249440A3B2DC430480A7
:101CA00010BD21B1828942F40052828104E0828910
:101CB0004DF6FF731A408281704702460020B1F54D
:101CC000007F00D100BF13880B400BB1012000E062
:101CD0000020704770B50246002400230025002034
:101CE00040F66A16B14200D100BFC1F3421501F0BF
:101CF0001F03012606FA03F3012D02D19689334012
:101D000006E0022D02D1168A334001E0968A334064
:101D10000C12012606FA04F41688344013B10CB1F3
:101D2000012000E0002070BDF0B50346002400262D
:101D30000025002040F66A17B94200D100BF1846BE
:101D4000C1F3421401F01F06012707FA06F5012C22
:101D500001D10C3004E0022C01D1103000E014302D
:101D60001AB107682F43076002E00768AF430760B6
:101D7000F0BD00002DE9FF4705460E460024A146B0
:101D800000BFA046B08900B100BF2C8A24F44054A3
:101D9000F08804432C82AC8941F20C608443B08803
:101DA00031890843718908430443AC81AC8A24F427
:101DB0004074B0890443AC826846FFF793F9204829
:101DC000854202D01F48854202D1DDF80C9001E027
:101DD000DDF80890A88900F4004040B109EBC90083
:101DE00000EB091031684900B0FBF1F707E009EB9F
:101DF000C90000EB091031688900B0FBF1F76420DD
:101E0000B7FBF0F004012009642101FB1078A889D8
:101E100000F4004040B1322000EBC800B0FBF1F00C
:101E200000F00700044308E0322000EB08106421B2
:101E3000B0FBF1F000F00F0004432C81BDE8FF87F8
:101E4000001001400014014001468888C0F30800DA
:101E50007047C1F308028280704700BFFEE702E0CE
:101E600008C8121F08C1002AFAD170477047002025
:101E700001E001C1121F002AFBD1704700B52E48B6
:101E800090F900002D4991F90010884223D02A488A
:101E900000782A4908702848007801280BD1284882
:101EA0000068284908600846006800F075FA0020BC
:101EB000234908600FE0204890F90000401C50B909
:101EC0001F480068204908600846006800F064FA6E
:101ED00000201B49086018480078A0B91B480188F9
:101EE0000088401C194A1080B1F5FA7F0EDD4FF4CE
:101EF000FA701146088000201349086011490860F3
:101F00000D49488002E00020104908800E48006812
:101F10000C49096808444EF66021B1FBF0F006490F
:101F20004881094800686421484306490968B0FBB4
:101F3000F1F00149888100BDB00100203D00002082
:101F40001C00002044000020400000203E00002033
:101F500000B58FB001218805FFF784F81348019080
:101F60001348029000200390042004900020059064
:101F70004FF4806006904000079080000890401168
:101F8000099040020A9000200B9001200C90002044
:101F90000D900E90009069460648FEF78BFD0121DA
:101FA0000448FEF77CFD0FB000BD00004C2001404E
:101FB00060000020106402402DE9F04104460D4607
:101FC00016464FF6FF70002114E0625C50404FF05F
:101FD000000C0AE000F00107401017B14AF20102BC
:101FE00050400CF1010202F0FF0CBCF1080FF1DBD4
:101FF0004A1CD1B2A942E8DB02464FEAE07800EB86
:1020000018684FEA2828A0EB082886F800804FEAD5
:10201000E07800EB18684FEA182883F80080BDE8E4
:10202000F081000010B50648C08E00B110BDFEF76B
:1020300035FD00F013FC00F0CBFD00BFF6E700001B
:10204000D401002010B586B00024142205A101A8F7
:10205000FEF7B6F81424214601A800F015FF06B0DB
:1020600010BD000001060F0000000000000000008D
:10207000000000000000864D2DE9F04186B00546C5
:102080000E461746984600241CA30FCB8DE80F0080
:102090000E241E4908780978491C1C4A117000EB6F
:1020A000D0714910A0EB4101012904D1FFF7CAFF0B
:1020B00006B0BDE8F081E8B28DF8030028128DF873
:1020C00004008DF807608DF808708DF80980A01E57
:1020D000C1B204AB05AA6846FFF76EFF9DF8141065
:1020E000A01E0DF800109DF81010601E0DF80010D5
:1020F0002146684600F0C8FE00BFD9E70103090089
:1021000000000000000000003C55000021000020FD
:1021100010B54FF47A70164908824FF48660C8856E
:102120004FF47A70C8854FF4486088874FF4FA708E
:10213000C8874000A1F840000020A1F84200A1F8A3
:1021400044004FF47A70A1F846000020A1F848003E
:10215000A1F84A004FF47A70A1F84C000020A1F8D1
:102160004E00A1F850002B2000F0A0F810BD000098
:10217000D401002010B50549088900231A461946E4
:10218000FFF77AFF00F064F810BD0000D4010020D2
:1021900010B504466FF00400FFF746F9E11704EBB1
:1021A0005171C1F3C701074A11701046007800EB66
:1021B0004001C1EBC0104FF6FF7101EAC0000249B7
:1021C000088010BD100000201200002070B50446E9
:1021D0004FF4077094FBF0F0C6B24FF4077094FB15
:1021E000F0F100FB114085B205E04FF4077000F0FC
:1021F00009F8701EC6B2002EF7D115B1284600F0BE
:1022000001F870BD0146114A12884A434FF0E0239D
:102210005A6100229A611A46126942F001021A615B
:1022200000BF4FF0E022106900F001021AB100F483
:102230008032002AF5D04FF0E022126922F001022C
:102240004FF0E0231A6100229A61704712000020CB
:1022500010B511480088114908800F48408848800F
:102260000F48008988800E488088C8800D48008803
:1022700048810D48408948860B48808988860A48ED
:10228000408888850848C088C8810846008B088631
:10229000084600F079FC10BD2C000020D40100207D
:1022A0007400002022000020B001002030B599B059
:1022B00004460D4664216846FDF79BFF2B2C01DA8E
:1022C00019B030BD082269460848FEF7CFFF00204C
:1022D00007E03DF8102000F12B0125F81120411CEA
:1022E000C8B20828F5DB00BFEAE7000004C0000818
:1022F00030B599B004460D4664216846FDF779FF74
:102300002B2C01DA19B030BD002007E000F12B01C1
:1023100035F811102DF81010411CC8B20828F5DB53
:10232000082269460248FEF7B7FF00BFEAE700004F
:1023300004C000080146042901DD0020704702485E
:1023400030F81100FAE7000060000020104890F912
:102350000000104991F90010884209D00C4800781B
:1023600030B100200A490861084600780949087020
:102370000748007858B10648B0F902004FF47A7166
:1023800090FBF1F00249096908440149086170476E
:10239000B00100203C00002000211E4A1278012AD2
:1023A00019D11C4A1269524242434FF47A73B2FB6C
:1023B000F3F23C23B2FBF3F1174A128D164B5A8508
:1023C0001A46D28C1A851A46928CDA841A46528C96
:1023D0009A8459841CE00F4A92F90020521CBAB921
:1023E0000C4A126942434FF47A73B2FBF3F23C2376
:1023F000B2FBF3F1084AD28B074B1A841A46928B30
:10240000DA831A46528B9A831A46128B5A8319839F
:1024100070470000B0010020D401002070B50246D2
:102420000B464FF6FF70002110E0565C7040002410
:1024300008E000F00105401015B14AF201067040B5
:10244000661CB4B2082CF4DB4E1CB1B29942ECDB32
:1024500070BD000010B52DED088B9FED7C0BB0EE2C
:10246000408AF0EE608A00F02FF97A48C0887949F6
:1024700008810020FFF75EFF0446FEF75EF841EC9E
:10248000180B51EC180BFEF7E1F809EE100AB0EE4C
:10249000490A714800F012FC10EE104A2046FEF77F
:1024A00091F841EC180B6B4890ED060A10EE101AEB
:1024B0000846FEF787F841EC190B664890ED050ACF
:1024C00010EE101A0846FEF77DF841EC1B0B53EC9A
:1024D000182BFDF740FF41EC1A0B53EC192BFDF7BD
:1024E00093FE41EC180B9FED5D0B53EC102B51EC60
:1024F000180BFEF793F806D29FED580BB0EE408A0A
:10250000F0EE608A0EE09FED510B53EC102B51EC76
:10251000180BFEF76BF805D89FED4C0BB0EE408A18
:10252000F0EE608A4F49088AFEF707F841EC1A0B73
:102530009FED4D0B53EC102B51EC180BFDF764FE87
:1025400041EC1B0B53EC1A2BFDF7FFFE41EC190B72
:10255000FEF71FF83F49C880084640888880012060
:10256000FFF7E8FE0446FDF7E8FF41EC180B51ECDD
:10257000180BFEF76BF809EE100AB0EE490A3C485A
:1025800000F09CFB10EE104A2046FEF71BF841ECD1
:10259000180B304890ED080A10EE101A0846FEF7A6
:1025A00011F841EC190B2B4890ED070A10EE101AA8
:1025B0000846FEF707F841EC1B0B53EC182BFDF710
:1025C000CAFE41EC1A0B53EC192BFDF71DFE41EC32
:1025D000180B2449C88DFDF7B0FF41EC1A0B9FED95
:1025E000220B53EC102B51EC180BFDF70DFE41ECB8
:1025F0001B0B53EC1A2BFDF7A8FE41EC190BFDF752
:10260000A9FF00B213494880B1F90200002801DB9C
:10261000014600E04142032903DA00200D49087019
:1026200010E00C48B0F90200002803DD0120094940
:10263000087007E00748B0F90200002802DAFF201E
:1026400004490870BDEC088B10BD000000000000BC
:1026500000000000B0010020D402002000000000B3
:102660000088B340D40100200000000000408F40EB
:10267000EA0200201CB501210420FEF7F3FC42F21F
:102680000F00009001208DF8040000208DF8060056
:1026900003208DF8050001208DF8070069460748E2
:1026A000FEF71BFB0F210548FEF782FB01200449C2
:1026B000086000200349C1F88C021CBD00080240DC
:1026C00088024142000041424448B0F8540088B9B1
:1026D000B7EE001A424880ED051AB7EE001A80EDF9
:1026E000071A9FED401A80ED061A9FED3E1A80ED05
:1026F000081A71E03948B0F85C003849B1F8581050
:10270000401A01EE100AB8EEC11AB0EE410A334881
:10271000B0F85A003149B1F85610401A01EE100ACB
:10272000B8EEC11AF0EE410A80EE201A2C4880ED76
:10273000051A2A48B0F8580001EE100AB8EE411AFE
:10274000B0EE410A2648D0ED051A2448B0F85600EC
:1027500001EE100AB8EE412AB0EE401A01EEC21A9C
:102760001F4880ED061A1D48B0F864001B49B1F8F7
:102770006010401A01EE100AB8EEC11AB0EE410A1C
:102780001648B0F862001549B1F85E10401A01EE23
:10279000100AB8EEC11AF0EE410A80EE201A104875
:1027A00080ED071A0D48B0F8600001EE100AB8EE8F
:1027B000411AB0EE410A0A48D0ED071A0748B0F8AE
:1027C0005E0001EE100AB8EE412AB0EE401A01EEAA
:1027D000C21A034880ED081A70470000D401002097
:1027E000B0010020000000004FF4A060FEF724FBC1
:1027F000A820FFF7CDFC4FF4FA60FFF7E7FC16487E
:10280000FEF770FCFFF736FFFFF7A2FBFEF7D8F8E4
:10281000532140F2F310FEF79FFEFEF74FFEFEF746
:1028200027FF4FF4165000F07FFC4FF4165000F0D5
:10283000D5FA4FF4165000F045FB4FF4165000F057
:1028400097FB4FF4165000F007FCFFF761FC01E026
:1028500000F060FAFCE700005000002010B52DEDFC
:10286000048B1649B1F90000FDF756FE41EC180B38
:1028700013498889FDF761FE41EC190B1048B0F847
:102880004A30B0F84820B0F84610B0EE481AF0EEE2
:10289000681AB0EE490AF0EE690A0A48FEF7D6FA5D
:1028A000074908870846008FB0F5FA7F02DD4FF42C
:1028B000FA700887BDEC048B10BD000022000020D8
:1028C000D40100200003002070B5C2B005464FF4CB
:1028D000807102A8FDF78DFC002400262F48407867
:1028E0008DF808002D4880788DF809002B48017973
:1028F000C07841EA002629488179407941EA0020E0
:102900004006000E8DF80A009DF80A0000EBD07119
:102910004C10002001901DE09DF80400304435F873
:10292000100001129DF80400032202EB400002AAED
:1029300011549DF80400304415F810109DF804005F
:10294000042202EB400002AA11549DF80400401C2E
:10295000C0B201909DF80400A042DDDB9DF80A00A2
:10296000C01CC4B26B4601AA214602A8FFF724FB93
:102970009DF8040002A908559DF8001002AA601CE9
:102980001154A01CC4B2214602A800F009FA214645
:1029900002A800F043FB42B070BD0000900300208D
:1029A00070B505460026002408240D480179C0783A
:1029B00041EA00260A488179407941EA002025F859
:1029C0001600074981F8026221460548401C00F0C4
:1029D000E7F921460248401C00F020FB70BD0000D2
:1029E000900300207CB50546062421466B4601AACB
:1029F0000948FFF7E1FA9DF80410074801559DF8D2
:102A00000020611C4254A41C214600F0C9F9214653
:102A1000014800F003FB7CBD910300202DE9F0414B
:102A200006460F46544801780078401C524A107000
:102A3000524846540078B84203D110460078FA282C
:102A400008DB00204C4908704FF480714B48FDF7BB
:102A5000D0FB8FE0484800780228FADD47484078EC
:102A600010283CD1454880790830454908704248D3
:102A70000078097888427DDD3F480078801E3F4914
:102A8000095C3D480078401E3C4A105C41EA002544
:102A900039480078801EC1B21046FFF7BFFCA8423B
:102AA00014D13548007837490870002406E03348CF
:102AB000015D3448401C0155601CC4B22E480078AA
:102AC0008442F4DB01202F4981F801024FF4807128
:102AD0002A48FDF78EFB0020274908704AE0274866
:102AE0004078032803D02548407806283AD10720AB
:102AF0002349087020480078097888423ADD1E484A
:102B00000078801E1D49095C1B480078401E1B4A46
:102B1000105C41EA002518480078801EC1B21046BA
:102B2000FFF77CFCA84214D11348007815490870BF
:102B3000002406E01148015D1248401C0155601C4C
:102B4000C4B20D4800788442F4DB01200D4981F8BD
:102B500001024FF480710948FDF74BFB0020064944
:102B6000087007E04FF480710448FDF742FB002035
:102B700001490870BDE8F0814D0000209306002057
:102B80004C0000209003002010B504460F4890F838
:102B90000102012815D10D488078032804D00628A9
:102BA00006D010280CD107E02046FFF78DFE07E085
:102BB0002046FFF7F5FE03E02046FFF713FF00BFB6
:102BC00000BF0020014981F8010210BD90030020E0
:102BD00010B52DED048B2A48B0F85200012807D11A
:102BE0002748C08A264948870120264908603BE0DB
:102BF00025480078012837D12349C888FDF79DFC76
:102C000041EC180B1E49488AFDF797FC41EC190B63
:102C10001B48B0F85030B0F84E20B0F84C10B0EE71
:102C2000481AF0EE681AB0EE490AF0EE690A174841
:102C3000FEF70CF9124948871348C088498A884230
:102C400003DC01200F4908600EE00F49C9880C4AD7
:102C5000528A881A002801DB014600E041420A2915
:102C600002DD0020074908600548408FB0F5FA7F73
:102C700003DD4FF4FA7002494887BDEC048B10BDA8
:102C8000D40100208C024142B00100204803002002
:102C90007047000010B5FFF7DDFBFFF7EFF80548C0
:102CA000418F0548FEF753FE0248018F0248FEF7A8
:102CB00050FE10BDD401002000040040F0EE400A98
:102CC000DFED131AB0EE611AFCEEE01A11EE901A65
:102CD000828A20F81210818A491C0A2291FBF2F3A1
:102CE00002FB1311818200210AE030F8112001EE6D
:102CF000902AF8EE611A71EE811AB0EE611A491C41
:102D00000A29F2DBF2EE041A81EE210A7047000074
:102D10000000000010B51C48007800B910BD00206C
:102D20001949087019480068401C1849086008468D
:102D300000680521B0FBF1F201FB120008B9FFF7B2
:102D4000A9FF124800686421B0FBF1F201FB1200F8
:102D500018B9FFF70FFAFFF765F90C4800684FF450
:102D6000FA71B0FBF1F201FB120058B900F080FAE1
:102D70000748006808B9012000E000200449086005
:102D8000FFF786FF00BFC9E71400002018000020ED
:102D9000B402414200B500F01DFAFFF7D7FA00BDBA
:102DA00070B505460E4600240CE000BF40210A48DD
:102DB000FEF783FF0028F9D0295D0748FFF749F89F
:102DC000601C84B2B442F0DB00BF40210248FEF731
:102DD00074FF0028F9D070BD0010014010B588B014
:102DE000044601210846FEF73DF901214804FEF79B
:102DF00049F90C20069002208DF81C008DF81D006A
:102E000000208DF81E0001208DF81F0006A91C4827
:102E1000FDF763FF072202211948FDF7A6FF0722ED
:102E200003211748FDF7A1FF02940020ADF80C0024
:102E3000ADF80E00ADF81000ADF814000C20ADF8A0
:102E4000120002A90F48FEF795FF26208DF8040016
:102E500002208DF8050001208DF806008DF807008E
:102E600001A8FDF7ADFF012240F225510548FEF70C
:102E70005BFF01210348FEF714FF08B010BD0000FE
:102E8000000002400044004070B505460E46002494
:102E90000CE000BF40210A48FEF70FFF0028F9D0E0
:102EA000295D0748FEF7D5FF601C84B2B442F0DB11
:102EB00000BF40210248FEF700FF0028F9D070BD96
:102EC0000044004010B588B0044601218804FEF794
:102ED000D9F801210220FEF7C5F84FF440600690B2
:102EE00002208DF81C008DF81D0000208DF81E00BA
:102EF0008DF81F0006A91C48FDF7EFFE07220A21E6
:102F00001948FDF732FF07220B211748FDF72DFF67
:102F100002940020ADF80C00ADF80E00ADF81000E2
:102F20000C20ADF812000020ADF8140002A90F48E3
:102F3000FEF720FF012240F225510C48FEF7F4FE77
:102F400001210A48FEF7ADFE27208DF8040002207B
:102F50008DF8050001208DF806008DF8070001A806
:102F6000FDF72EFF08B010BD0004024000480040ED
:102F700010B588B004460121C804FEF783F801218A
:102F80000420FEF76FF84FF44060069002208DF8A1
:102F90001C008DF81D0000208DF81E008DF81F000C
:102FA00006A91C48FDF799FE08220A211948FDF7D9
:102FB000DCFE08220B211748FDF7D7FE0294002003
:102FC000ADF80C00ADF80E00ADF810000C20ADF817
:102FD00012000020ADF8140002A90F48FEF7CAFE47
:102FE000012240F225510C48FEF79EFE01210A48BD
:102FF000FEF757FE34208DF8040002208DF80500FE
:1030000001208DF806008DF8070001A8FDF7D8FE15
:1030100008B010BD00080240004C004070B50546E5
:103020000E4600240CE000BF40210A48FEF745FE92
:103030000028F9D0295D0748FEF70BFF601C84B219
:10304000B442F0DB00BF40210248FEF736FE002804
:10305000F9D070BD004C004010B588B00446012185
:103060000805FEF70FF801210C20FDF7FBFF4FF4D8
:103070008050069002208DF81C008DF81D00002065
:103080008DF81E008DF81F0006A92448FDF725FEC7
:103090000420069002208DF81C008DF81D000020F1
:1030A0008DF81E008DF81F0006A91D48FDF715FEBE
:1030B00008220C211948FDF758FE08220221184861
:1030C000FDF753FE02940020ADF80C00ADF80E00A1
:1030D000ADF810000C20ADF812000020ADF814007F
:1030E00002A91048FEF746FE012240F225510D4884
:1030F000FEF71AFE01210B48FEF7D3FD35208DF8AF
:10310000040002208DF8050001208DF806008DF8DE
:10311000070001A8FDF754FE08B010BD00080240EA
:10312000000C02400050004010B588B00446012158
:103130000846FDF797FF01211020FDF7B3FF029429
:10314000072209212148FDF710FE07220A211F4806
:10315000FDF70BFE4FF4C060069002208DF81C00B6
:103160008DF81D0000208DF81E0001208DF81F0035
:1031700006A91648FDF7B1FD0020ADF80C00ADF82A
:103180000E00ADF81000ADF814000C20ADF81200E0
:1031900002A90F48FEF7EEFD01210D48FEF781FD63
:1031A000012240F225510A48FEF7BEFD25208DF888
:1031B000040000208DF805008DF8060001208DF830
:1031C000070001A8FDF7FCFD08B010BD000002409B
:1031D00000100140002020490A880988491C1E4B24
:1031E00019801E49898F8A4216DA1D49097839B932
:1031F00000211C4A116001211B4AC2F8841206E01A
:103200000121184A11600021174AC2F8841214499A
:103210000978164A117010E00021124A1160124A12
:10322000C2F8841211490978012903D100210C4AFE
:10323000117002E001210A4A11700849C98F074A3A
:10324000928F114488B204490988814202DB00212F
:10325000014A1180704700003A000020D40100208C
:103260003800002080024142000041423900002025
:1032700010B5074890F8020248B1054991F80202DA
:103280000449FFF735F80020014981F8020210BD1A
:1032900090030020D4010020B83200080000002074
:1032A000500000005E1E0008083300085000002097
:1032B000480B00006E1E000800000000010203041D
:1032C00001020304060708090000000000000000D6
:1032D00000000000000000000000000000000000EE
:1032E00000000000000000000000000000000000DE
:1032F00000000000000000000000000000000000CE
:083300000000000000000000C5
:040000050800018965
:00000001FF
